:100000000C9497010C94C8010C94C8010C94C8017D
:100010000C94C8010C94C8010C94C8010C94C8013C
:100020000C94C8010C944F050C944F050C944F058B
:100030000C94C8010C942A090C94C8010C94C801B2
:100040000C94C8010C94380D0C94C8010C94C80190
:100050000C94C8010C94C8010C94C8010C940110B4
:100060000C94C8010C94B00A0C94860A0C94C80134
:100070000C94C8010C94C8010C94C8010C94C801DC
:100080000C94C8010C94C8010C94C8010C94C801CC
:100090000C945C0A0C94320A0C94C8010C94590517
:1000A0000C94C8010C94C8010C94C8010C94C801AC
:1000B0000C94C8010C94C8010C94C8010C94600BFA
:1000C0000C94C8010C94C8010C94C8010C94080A43
:1000D0000C94DE090C94C8010C94B4090C948A09A0
:1000E0000C94C801A102A402930297029D02DB02B4
:1000F000A802AC02B202B602BA02C002C402C8022E
:10010000DB02CE02D202D6027F0C840C890C930C47
:100110009D0C160DA70CAF0CB70CC10CCB0CD50C5D
:10012000E40CEE0C160DF80C020D0C0D0C94A60848
:100130000C9422020C949D0C0C94B6020C94A5080D
:100140000C94A8020C94C0020C9483070C94C21661
:100150000C9457080C9457020C94A1020C94C816E6
:100160000C94930C0C94E40C0C94C1080C94CB0CE0
:100170000C94C10C0C940E020C949D020C949702EA
:100180000C94AC020C94890C0C94A70C0C94FE01FA
:100190000C94FD010C94CE020C94C8020C94C40281
:1001A0000C94F80C0C947F0C0C94B4070C94590725
:1001B0000C940A080C94B70C0C94160D0C94FC01CA
:1001C0000C94BA020C94FF010C94DB020C945A0BB1
:1001D0000C94A4020C940C0D0C94020D0C94AF0C16
:1001E0000C94840C0C9493020C94D2020C94D602BE
:1001F0000C942A020C94B2020C94D50C0C94EE0CC4
:100200000C94A6070C9492070200002100240027FA
:10021000002A002D00300033000101000004010716
:10022000010A0100002200250028002B002E0031C9
:1002300000340002010000050108010B010000204C
:10024000002300260029002C002F003200000100AE
:100250000003010601090105050505070508080851
:1002600008020202020A0A08080404040401010147
:10027000010101010103030303030303030407074F
:10028000070C0C0C0C0C0C0C0C02020202060606ED
:1002900006060606060B0B0B0B0B0B0B0B010210D5
:1002A0002020080810204010204080020102010890
:1002B0000402010102040810204080804020100840
:1002C0000402018004020180402010080402010899
:1002D00004020101020408102040800102040810F9
:1002E00020408000000A0B02090C0D0E08070304D1
:1002F00001000000000000000000000000000000FD
:1003000000000000000000000000000000000012DB
:1003100011100000000000000000000000000000BC
:1003200000000000000000000000C816C2161124E2
:100330001FBECFEFD1E2DEBFCDBF00E00CBF13E0A8
:10034000A0E0B2E0EEEEFBE300E00BBF02C00790DE
:100350000D92A230B107D9F728E0A2E0B3E001C0C6
:100360001D92AD3CB207E1F711E0C6E9D1E000E033
:1003700006C021970109802FFE010E94A31AC539EA
:10038000D10780E00807A9F70E944B100C94E51DE7
:100390000C94000085ED8093BC008091BC0084FD2E
:1003A000FCCF1092F40308954091A803262F30E06B
:1003B000240F311D21323105DCF42091F403243067
:1003C000C9F4FC0180E090E0861758F43091A8034E
:1003D0002191DC01A857BC4FA30FB11D2C930196AE
:1003E000F3CF8091A803680F6093A80380E008957D
:1003F00081E0089582E00895089508950895E091B8
:10040000630380916203E81730F4F0E0E859FC4F91
:10041000808190E008958FEF9FEF0895909163039E
:1004200080916203981750F4E92FF0E0E859FC4FEF
:10043000208130E09F5F9093630302C02FEF3FEF76
:10044000C90108958091620390E020916303821BAB
:1004500091090895CF92DF92EF92FF920F931F932D
:10046000CF93DF937C01CB018A012091F5032223F6
:1004700089F0EB016B01C40ED51ECC15DD0569F0CA
:100480006991D701ED91FC910190F081E02DC701B8
:100490001995F3CF642F0E94D401C801DF91CF9149
:1004A0001F910F91FF90EF90DF90CF900895CF9321
:1004B000DF931F92CDB7DEB769832091F503222326
:1004C000D1F020911804203240F021E030E0FC010E
:1004D0003383228380E090E015C08091F603E82FFB
:1004E000F0E0E950FC4F998190838F5F8093F60391
:1004F0008093180405C061E0CE0101960E94D401EA
:1005000081E090E00F90DF91CF91089590E0FC01A1
:100510003197E231F10508F04EC08827EE58FF4FC1
:100520008F4F0C94A31A809180008F7703C0809125
:1005300080008F7D80938000089580918000877F68
:10054000F9CF84B58F7702C084B58F7D84BD0895BF
:100550008091B0008F7703C08091B0008F7D809331
:10056000B0000895809190008F7707C0809190002F
:100570008F7D03C080919000877F809390000895C5
:100580008091A0008F7707C08091A0008F7D03C06D
:100590008091A000877F8093A00008958091200122
:1005A0008F7707C0809120018F7D03C0809120014B
:1005B000877F8093200108958F929F92AF92BF9280
:1005C0000F931F93CF93DF93CDB7DEB7A1970FB6ED
:1005D000F894DEBF0FBECDBF19A2423008F44AE046
:1005E0008E010F5D1F4F842E912CA12CB12CA501E3
:1005F00094010E94661AE62FB901CA01015011093F
:10060000EA3014F4E05D01C0E95CD801EC93232BDF
:10061000242B252B61F7C8010E94050FA1960FB668
:10062000F894DEBF0FBECDBFDF91CF911F910F9128
:10063000BF90AF909F908F9008950F931F93CF938B
:10064000DF93162F072FC7ECD7E09C8521E020937E
:10065000F503909317041092F60310921804AA85DC
:10066000BB85ED91FC9111970190F081E02D682FF1
:10067000CD0119958A859B85DC01ED91FC91019056
:10068000F081E02D602F19958A859B85DC01ED9125
:10069000FC910190F081E02D612F1995DF91CF91B0
:1006A0001F910F910C94800FCF92DF92EF92FF92E7
:1006B000CF93DF939091F207891720F09091F30781
:1006C000981750F489ED92E0DF91CF91FF90EF9071
:1006D000DF90CF900C94170FC091F807CC3008F042
:1006E0007BC0282F30E0D0E0283C3105E4F595E0D0
:1006F0009C9FF0019D9FF00D1124E559F84F9381C7
:1007000028E830E06901C91AD10897FDD394CC0CD0
:10071000DD1CCC0CDD1C0D2C000CEE08FF089481B8
:1007200028E532E0291B310997FD3395220F331F4D
:10073000220F331FA901330F660B770B9A01AB0110
:100740002C193D094E095F09A82FB0E00E945B1AE1
:1007500024EB30E040E050E00E943C1AC20ED31E71
:10076000E41EF51E27C085E08C9FF0018D9FF00DE3
:100770001124E559F84F838148E850E06A01C81A0E
:10078000D10887FDD394CC0CDD1CCC0CDD1C2C15C2
:100790003D0584F0448188E592E0841B910947FD82
:1007A0009395880F991F880F991F69018C159D05D6
:1007B0000CF46C018FB7F89495E09C9FF0019D9F1D
:1007C000F00D1124E559F84F96E0C91AD108CC0C68
:1007D000DD1CD282C1828FBFDF91CF91FF90EF905D
:1007E000DF90CF900895682F8CEF95E00C940A0865
:1007F000CF92DF92EF92FF92CF93DF936C01990F2C
:10080000EE08FF08F7FE11C08DE20E94F303EC0131
:1008100066277727CB016C197D098E099F094AE06D
:100820000E94DC02C80FD91F06C04AE0C701B6010A
:100830000E94DC02EC0189E792E00E94050F8C0F18
:100840009D1FDF91CF91FF90EF90DF90CF900895A3
:1008500080917B00877F80937B0086E480937C007F
:1008600080917A00806480937A0080917A0086FD7E
:10087000FCCF809178002091790090E0922B089530
:100880008F929F92AF92BF92CF92DF92EF92FF92A0
:100890000F931F93CF93DF936B017C01142F9B0168
:1008A000AC010E94C51B882319F086EF92E027C097
:1008B00046015701E894B7F82FEF3FEF4FE75FE7A6
:1008C000C501B4010E94C51B81110DC02FEF3FEF80
:1008D0004FE75FE7C501B4010E94181918161CF410
:1008E0008AEF92E00CC02FEF3FEF4FE75FE4C701C4
:1008F000B6010E94C01B181684F48EEF92E0DF91BF
:10090000CF911F910F91FF90EF90DF90CF90BF900C
:10091000AF909F908F900C94050F2FEF3FEF4FE714
:100920005FECC701B6010E94181987FDE6CF20E0F1
:1009300030E0A901C701B6010E94181987FF09C05C
:100940008DE20E94F303EC01F7FAF094F7F8F094CB
:1009500002C0C0E0D0E000E060E070E080E09FE333
:10096000101741F020E030E040E251E40E94181BF3
:100970000F5FF6CFA70196010E94AC1A6B017C01B4
:100980000E94911B4B015C014AE00E94DC02C80FEF
:10099000D91F1123A9F1C501B4010E941D199B01A2
:1009A000AC01C701B6010E94AB1A6B017C018EE25B
:1009B0000E94F303C80FD91F20E030E040E251E469
:1009C000C701B6010E947E194B015C010E94911B78
:1009D0006B01E12CF12C4AE0C701B6010E94DC0258
:1009E000C80FD91FC701B6010E941D199B01AC0198
:1009F000C501B4010E94AB1A6B017C011150E1F6F4
:100A0000CE01DF91CF911F910F91FF90EF90DF907A
:100A1000CF90BF90AF909F908F900895FC0124815C
:100A200031E03093F503209317041092F6031092EF
:100A300018048485682B89E194E00E9457020C9485
:100A4000800F0F931F93CF938C01C62F64600E9479
:100A50000E056C2F6B7FC8010E940E0583EC90E0A1
:100A60000197F1F7CF911F910F910895FC01A08993
:100A7000B1898C91A689B78982FD0FC09C91818D27
:100A80008F5F8F73228D821749F0218DDF01A20FB6
:100A9000B11D5D969C93818F08958C9108951F924E
:100AA0000F920FB60F9211240F900FBE0F901F9050
:100AB00018951F920F920FB60F9211240BB60F923A
:100AC0002F933F934F935F936F937F938F939F9356
:100AD000AF93BF93EF93FF938091B900887F8036E7
:100AE00009F49CC068F5883209F45BC090F4803149
:100AF00009F454C038F4882309F4F6C0883009F4A6
:100B00004DC0F6C0883109F44CC0803209F45DC094
:100B1000EFC0803409F468C048F4803309F455C04C
:100B2000883309F0E5C08093F203D8C0803509F41A
:100B30004FC0883509F45DC0883409F0D9C0D6C0EB
:100B4000883909F4C7C0A8F4883709F467C038F4B5
:100B5000883609F463C0803709F460C0C9C088389A
:100B600009F4B8C0803909F45FC0803809F0C0C00A
:100B70005BC0803B09F486C038F4803A09F466C053
:100B8000883A09F47FC0B4C0803C09F4A7C0883C0F
:100B900009F4A4C0883B09F48AC0AAC08091CF039D
:100BA00010C09091F1038091F003981770F5E091D7
:100BB000F10381E08E0F8093F103F0E0E053FC4FEE
:100BC00080818093BB0085EC86C08093F2038EC049
:100BD000E091F10381E08E0F8093F1038091BB00DF
:100BE000F0E0E053FC4F80839091F1038091F0039B
:100BF0006EC0E091F10381E08E0F8093F10380914C
:100C0000BB00F0E0E053FC4F80838091F30381113F
:100C10006DC081E08093CE0384EA61C083E080935D
:100C2000F4031092CA03CFCF8091CA03803208F038
:100C300051C0E091CA0381E08E0F8093CA03809176
:100C4000BB00F0E0E655FC4F8083BDCF85EC809380
:100C5000BC001092F4038091CA03803230F4E0911A
:100C6000CA03F0E0E655FC4F10826091CA0370E0C1
:100C7000E0916603F09167038AEA93E01995109278
:100C8000CA0336C084E08093F4031092A903109243
:100C9000A803E0916403F091650319958091A8037E
:100CA000811105C081E08093A80310928803E09130
:100CB000A90381E08E0F8093A903F0E0E857FC4F71
:100CC00080818093BB009091A9038091A80398171D
:100CD00008F479CF85E88093BC000AC085EC809346
:100CE000BC001092F40304C01092F2030E94CA01E7
:100CF000FF91EF91BF91AF919F918F917F916F91F4
:100D00005F914F913F912F910F900BBE0F900FBEAF
:100D10000F901F901895CF93DF93282F30E0F901A3
:100D2000ED51FD4F8491F901E356FD4FD491F90146
:100D3000E95AFD4FC491CC2391F081110E948602A3
:100D4000EC2FF0E0EE0FFF1FE35CFD4FA591B49197
:100D5000EC91ED2381E090E021F480E002C080E09E
:100D600090E0DF91CF9108951F93CF93DF93282FC9
:100D700030E0F901ED51FD4F8491F901E356FD4F4B
:100D8000D491F901E95AFD4FC491CC23C1F0162F3B
:100D900081110E948602EC2FF0E0EE0FFF1FED5D47
:100DA000FD4FA591B4919FB7F894111104C08C9197
:100DB000D095D82302C0EC91DE2BDC939FBFDF914E
:100DC000CF911F910895CF93DF9390E0FC01E356FC
:100DD000FD4F2491FC01E95AFD4F8491882361F174
:100DE00090E0880F991FFC01E75FFD4FC591D491FA
:100DF000FC01ED5DFD4FA591B491611109C09FB754
:100E0000F8948881209582238883EC912E230BC04F
:100E1000623061F49FB7F8948881322F3095832334
:100E20008883EC912E2B2C939FBF06C08FB7F8942C
:100E3000E8812E2B28838FBFDF91CF9108958F9269
:100E40009F92AF92BF92CF92DF92EF92FF926B018F
:100E50007C010E94DC0F4B015C01C114D104E10450
:100E6000F104F1F00E94DC0FDC01CB018819990933
:100E7000AA09BB09883E9340A105B10570F321E0A2
:100E8000C21AD108E108F10888EE880E83E0981EA6
:100E9000A11CB11CC114D104E104F10419F7DDCF88
:100EA000FF90EF90DF90CF90BF90AF909F908F908A
:100EB0000895CF92DF92EF92FF920F931F93CF93FB
:100EC000DF936C017A018B01C0E0D0E0CE15DF0525
:100ED00081F0D8016D918D01D601ED91FC910190C9
:100EE000F081E02DC6011995892B11F02196EECFE6
:100EF0007E01C701DF91CF911F910F91FF90EF907D
:100F0000DF90CF900895FC01538D448D252F30E064
:100F1000842F90E0821B930B541710F0CF96089506
:100F200001970895FC01918D828D981761F0828D53
:100F3000DF01A80FB11D5D968C91928D9F5F9F730D
:100F4000928F90E008958FEF9FEF0895FC01918DAF
:100F5000828D981731F0828DE80FF11D858D90E01C
:100F600008958FEF9FEF0895FC01918D228D892FB9
:100F700090E0805C9F4F821B91098F7399270895A1
:100F800085E294E00E94B40721E0892B09F420E077
:100F9000822F089582EC94E00E94B40721E0892B0F
:100FA00009F420E0822F08958FE595E00E94B407B0
:100FB00021E0892B09F420E0822F08958CEF95E041
:100FC0000E94B40721E0892B09F420E0822F0895C4
:100FD000FC01848DDF01A80FB11DA35ABF4F2C91D6
:100FE000848D90E001968F739927848FA689B789A5
:100FF0002C93A089B1898C91837080648C93938D9C
:10100000848D981306C00288F389E02D80818F7D3E
:1010100080830895EF92FF920F931F93CF93DF93F6
:10102000EC0181E0888F9B8D8C8D981305C0E88939
:10103000F989808185FD26C0F62E0B8D10E00F5FAB
:101040001F4F0F731127E02E8C8DE8120CC00FB6C6
:1010500007FCFACFE889F989808185FFF5CFCE01B9
:101060000E94E807F1CF8B8DFE01E80FF11DE35AD6
:10107000FF4FF0829FB7F8940B8FEA89FB8980813C
:1010800080620AC09FB7F894EE89FF896083E8897F
:10109000F98980818370806480839FBF81E090E0C4
:1010A000DF91CF911F910F91FF90EF900895CF9313
:1010B000DF93EC01888D8823C9F0EA89FB89808160
:1010C00085FD05C0A889B9898C9186FD0FC00FB632
:1010D00007FCF5CF808185FFF2CFA889B9898C9173
:1010E00085FFEDCFCE010E94E807E7CFDF91CF91DA
:1010F0000895E0E0F0E0199480E090E0892B21F081
:101100000E94DE07811115C080E090E0892B21F05C
:101110000E94D407811110C00E94CA0781110FC01C
:1011200080E090E0892B81F00E94C00781110AC005
:1011300008950E940000E8CF0E940000EDCF0E94B9
:101140007908EECF0C9400000895089580E090E0B7
:1011500008950E94D01DCF93DF93EC0160E08E8153
:101160000E94B40661E08E810E94B40660E08E8128
:101170000E94B4068BE891E00197F1F7DF91CF91DF
:1011800008950F931F93CF93DF938C01C62FD62F13
:10119000D07FD1606D2F0E940E056D2FC8010E9477
:1011A000210580E1C89FB0011124C62FC1606C2FBA
:1011B000C8010E940E056C2FC8010E94210581E024
:1011C00090E0DF91CF911F910F91089590910002CF
:1011D00089133DC0E8E0F2E0E4919FEF90930002B4
:1011E000E230C9F050F4EE2399F0E13081F59091AE
:1011F0006F009D7F90936F002AC0E43019F1E0F0FA
:10120000E53029F5909173009D7F909373001FC086
:1012100010926E001CC0909170009D7F90937000A2
:1012200091E09093B0009091B100987F946090937A
:10123000B1001092B3000BC0909171009D7F90930C
:10124000710005C0909172009D7F9093720060E0E4
:101250000C94B4061F920F920FB60F9211240BB686
:101260000F922F933F934F935F936F937F938F933F
:101270009F93AF93BF93EF93FF938091050390915A
:101280000603A0910703B0910803892B8A2B8B2BAF
:1012900051F190910203E0910303F09104038081E6
:1012A000892780838091050390910603A09107030D
:1012B000B0910803181619061A061B06C4F480918B
:1012C000050390910603A0910703B09108030197CD
:1012D000A109B1098093050390930603A093070326
:1012E000B093080304C0809100020E94E608FF91B9
:1012F000EF91BF91AF919F918F917F916F915F918E
:101300004F913F912F910F900BBE0F900FBE0F90FA
:101310001F9018951F920F920FB60F9211240BB6C3
:101320000F922F933F934F935F936F937F938F937E
:101330009F93AF93BF93EF93FF9385E294E00E9456
:10134000E807FF91EF91BF91AF919F918F917F91AE
:101350006F915F914F913F912F910F900BBE0F9026
:101360000FBE0F901F9018951F920F920FB60F92FD
:1013700011240BB60F922F933F934F935F936F936C
:101380007F938F939F93AF93BF93EF93FF9385E2E8
:1013900094E00E943605FF91EF91BF91AF919F912C
:1013A0008F917F916F915F914F913F912F910F900E
:1013B0000BBE0F900FBE0F901F9018951F920F92AB
:1013C0000FB60F9211240BB60F922F933F934F93AA
:1013D0005F936F937F938F939F93AF93BF93EF939D
:1013E000FF9382EC94E00E94E807FF91EF91BF9198
:1013F000AF919F918F917F916F915F914F913F91AD
:101400002F910F900BBE0F900FBE0F901F9018954D
:101410001F920F920FB60F9211240BB60F922F93BB
:101420003F934F935F936F937F938F939F93AF936C
:10143000BF93EF93FF9382EC94E00E943605FF91F7
:10144000EF91BF91AF919F918F917F916F915F913C
:101450004F913F912F910F900BBE0F900FBE0F90A9
:101460001F9018951F920F920FB60F9211240BB672
:101470000F922F933F934F935F936F937F938F932D
:101480009F93AF93BF93EF93FF938FE595E00E94F7
:10149000E807FF91EF91BF91AF919F918F917F915D
:1014A0006F915F914F913F912F910F900BBE0F90D5
:1014B0000FBE0F901F9018951F920F920FB60F92AC
:1014C00011240BB60F922F933F934F935F936F931B
:1014D0007F938F939F93AF93BF93EF93FF938FE58A
:1014E00095E00E943605FF91EF91BF91AF919F91DA
:1014F0008F917F916F915F914F913F912F910F90BD
:101500000BBE0F900FBE0F901F9018951F920F9259
:101510000FB60F9211240BB60F922F933F934F9358
:101520005F936F937F938F939F93AF93BF93EF934B
:10153000FF938CEF95E00E94E807FF91EF91BF9138
:10154000AF919F918F917F916F915F914F913F915B
:101550002F910F900BBE0F900FBE0F901F901895FC
:101560001F920F920FB60F9211240BB60F922F936A
:101570003F934F935F936F937F938F939F93AF931B
:10158000BF93EF93FF938CEF95E00E943605FF9198
:10159000EF91BF91AF919F918F917F916F915F91EB
:1015A0004F913F912F910F900BBE0F900FBE0F9058
:1015B0001F901895CF92DF92EF92FF920F931F9397
:1015C000CF93DF936C017C0187E0E80EF11CC0E053
:1015D000D0E0062F10E0B8010C2E02C0759567957B
:1015E0000A94E2F76170F70181917F010E94B406CD
:1015F0002196C430D10579F7C601DF91CF911F91B3
:101600000F91FF90EF90DF90CF900C94AB08CF92AA
:10161000DF92EF92FF920F931F93CF93DF93EC0132
:10162000F62E642F8C810E94B4068D818F3F19F0B5
:1016300060E00E94B4068F850F2D10E084FF25C066
:101640006E0187E0C80ED11CE12CF12CB8010E2CE4
:1016500002C0759567950A94E2F76170F601819171
:101660006F010E94B406FFEFEF1AFF0A88E0E81648
:10167000F10461F7CE01DF91CF911F910F91FF909F
:10168000EF90DF90CF900C94AB08B80184E0759593
:1016900067958A95E1F7CE010E94DA0A6F2DCE0197
:1016A000DF91CF911F910F91FF90EF90DF90CF903E
:1016B0000C94DA0A41E00E94070B81E090E0089563
:1016C0001F920F920FB60F9211240BB60F922F9309
:1016D0003F934F935F936F937F938F939F93AF93BA
:1016E000BF93EF93FF9380919A060E948B062091FF
:1016F0009E0630919F062F5F3F4F30939F062093A9
:101700009E0690919D06953618F096E09093990666
:10171000909199069430C9F128F4923069F0933091
:10172000D1F05EC0953009F451C0963009F058C030
:1017300091E090936A0751C0811152C020919E069A
:1017400030919F062436310508F442C010926A0792
:1017500010929D061CC0813009F042C0E0919D06A8
:1017600091E09E0F90939D06F0E020919E063091AF
:101770009F06EE0FFF1FE756F94F30872783109221
:101780009F0610929E0694E029C0811117C0E09137
:101790009D0691E09E0F90939D06F0E020919E069D
:1017A00030919F06EE0FFF1FE756F94F30872783D2
:1017B00010929F0610929E0693E010C020919E0604
:1017C00030919F062536310558F007C0811108C0B9
:1017D00010929F0610929E0603C095E09093990682
:1017E00090919C069923B9F081110AC080919B06C3
:1017F000882321F080919B0661E009C02F9A0BC0DD
:1018000080919B06882331F080919B0660E00E94C6
:10181000B40601C02F98FF91EF91BF91AF919F91B6
:101820008F917F916F915F914F913F912F910F9089
:101830000BBE0F900FBE0F901F9018958F929F9226
:10184000AF92BF92CF92DF92EF92FF920F931F93CE
:10185000CF93DF938C016A017B0120E030E04FE7FA
:1018600053E4C701B6010E947E194B015C0120E0E0
:1018700030E0A9010E94C01B18161CF4C501B40178
:1018800003C0C501B40190580E948A1BEB0120E0FF
:1018900030E0A901C701B6010E94C01B181614F45C
:1018A00060E001C061E0F80181810E94B406CF3F91
:1018B000D10509F014F4DD2702C0CFEFD0E0F80124
:1018C000108161E0812F0E94E306209709F4B1C0E6
:1018D000CF3FD10509F4AFC0E12FF0E0ED51FD4F4E
:1018E000E4918E2F90E0FC013197E231F10508F090
:1018F0009DC08827EC57FF4F8F4F0C94A31A84B5D7
:10190000806884BDC7BDA7C084B5806284BDC8BDE2
:10191000A2C080918000806880938000D09389006D
:10192000C093880098C0809180008062809380007E
:10193000D0938B00C0938A008EC080918000886015
:1019400080938000D0938D00C0938C0084C08091E0
:10195000B00080688093B000C093B3007CC08091D9
:10196000B00080628093B000C093B40074C08091D6
:101970009000806880939000D0939900C093980065
:101980006AC080919000806280939000D0939B0009
:10199000C0939A0060C0809190008860809390000E
:1019A000D0939D00C0939C0056C08091A000806899
:1019B0008093A0008091A0008F7B8093A000D093A3
:1019C000A900C093A80047C08091A00080628093C6
:1019D000A000D093AB00C093AA003DC08091A000AE
:1019E00088608093A000D093AD00C093AC0033C05A
:1019F00080912001806880932001D0932901C093B9
:101A0000280129C080912001806280932001D09319
:101A10002B01C0932A011FC0809120018860809310
:101A20002001D0932D01C0932C0115C0C038D105E1
:101A300014F460E001C061E0812FDF91CF911F912C
:101A40000F91FF90EF90DF90CF90BF90AF909F905D
:101A50008F900C94B406DF91CF911F910F91FF905E
:101A6000EF90DF90CF90BF90AF909F908F900895B0
:101A70001F920F920FB60F9211240BB60F922F9355
:101A80003F934F935F936F937F938F939F93AF9306
:101A9000BF93EF93FF938091CD0387FF05C0109212
:101AA00085001092840016C02091CD03022E000CF8
:101AB000330B8091A70790E0281739075CF4309129
:101AC000CD0325E03203F0011124E559F84F808160
:101AD00086FD15C08091CD038F5F8093CD0320914B
:101AE000CD03022E000C330B8091A70790E028173E
:101AF000390794F48091CD038C302CF10DC03091D6
:101B0000CD033203F0011124E559F84F808160E0E4
:101B10008F730E94B406DECF80918400909185007F
:101B200084349C4918F480E49CE905C080918400C9
:101B300090918500049690938900809388008FEFA0
:101B40008093CD032AC0409184005091850030914C
:101B5000CD0325E03203F0011124E559F84F8181CE
:101B60009281840F951F9093890080938800309113
:101B7000CD033203F0011124E559F84F808186FF2F
:101B80000CC03091CD033203F0011124E559F84F18
:101B9000808161E08F730E94B406FF91EF91BF9145
:101BA000AF919F918F917F916F915F914F913F91F5
:101BB0002F910F900BBE0F900FBE0F901F90189596
:101BC0008EBD00000DB407FEFDCF8EB50895CF92F7
:101BD000DF92EF92FF92CF93DF93EC016A017B01DA
:101BE000E889F98982E080834115514E61057105CC
:101BF000B1F060E079E08DE390E0A70196010E94EA
:101C0000661ADA01C9010197A109B109B695A7952C
:101C1000979587959C01211580E13807A8F0E88900
:101C2000F989108260E874E88EE190E0A7019601DE
:101C30000E94661ADA01C9010197A109B109B69596
:101C4000A795979587959C01EC85FD853083EE855A
:101C5000FF852083188EEC89FD8986E08083EA89E0
:101C6000FB89808180618083EA89FB89808188602B
:101C70008083EA89FB89808180688083EA89FB8987
:101C800080818F7D8083DF91CF91FF90EF90DF90F7
:101C9000CF900895CF93DF93823028F09091B707CB
:101CA00098609093B7078093BB071092BC0780E4BD
:101CB0008093BD0780E18093BE0780E58093BF07D6
:101CC00061E08091AC070E94E3068091AD078F3FF1
:101CD00019F061E00E94E30661E08091AE070E9486
:101CE000E306C8EAD7E09E01285A37408091B7073B
:101CF00084FD03C084E090E002C088E090E021967B
:101D0000281739072CF461E08E810E94E306EBCF9F
:101D10008BE39DE00197F1F760E08091AC070E94B2
:101D2000B40660E08091AE070E94B4068091AD07D2
:101D30008F3F19F060E00E94B4066091B70764FD20
:101D400020C063E088EA97E00E94DA0ACBE4D6E498
:101D5000CE010197F1F763E088EA97E00E94DA0A82
:101D60002197F1F763E088EA97E00E94DA0A83E5B9
:101D700092E00197F1F762E088EA97E00E94DA0AC0
:101D80001EC0606240E088EA97E00E94070B8BE487
:101D900096E40197F1F76091B707606240E088EA46
:101DA00097E00E94070B83E592E00197F1F76091BD
:101DB000B707606240E088EA97E00E94070B6091F5
:101DC000B707606240E088EA97E00E94070B84E072
:101DD0008093B80740E06CE088EA97E00E94070B28
:101DE00040E061E088EA97E00E94070B8BE39FE107
:101DF0000197F1F782E08093B90740E066E088EA56
:101E000097E0DF91CF910C94070B009769F0FC01EC
:101E100001900020E9F73197AF01481B590BBC0135
:101E20008CEF95E00C94590780E090E00895CF93F3
:101E3000DF930E94050FEC0189E792E00E94050FF5
:101E40008C0F9D1FDF91CF9108951F93CF93DF9348
:101E5000EC01162F88818C3008F04DC061E0812F95
:101E60000E94E306E88195E09E9FF0011124E55968
:101E7000F84F1F738081807C182B10831382E881B8
:101E80009E9FF0011124E559F84F148288816CE07F
:101E90000E94971A9CE0899FA001112420E030E065
:101EA00095E0BA01620F731F969FF001979FF00DA6
:101EB0001124E559F84F608166FD13C02F5F3F4F35
:101EC0002C30310571F781110CC01092800082E036
:101ED00080938100109285001092840086BB8093CD
:101EE0006F00E88185E0E89FF0011124E559F84F83
:101EF0008081806480838881DF91CF911F910895D4
:101F000030911804313208F04BC08091F4038111F4
:101F1000FCCF9091170422E02093F40321E020935A
:101F2000F3032FEF2093F2031092F1033093F003A9
:101F3000E7EFF3E0A0EDB3E020E0321721F04191AC
:101F40004D932F5FFACF1092CF032091CF03990FBB
:101F5000922B9093CF039091CE03913061F4109225
:101F6000CE039091CF039093BB009091BC0093FD62
:101F7000F8CF95EC01C095EE9093BC009091F403DE
:101F80009230E1F39091F2039F3F79F08091F20358
:101F9000803241F08091F203803331F084E005C05B
:101FA00081E003C082E001C083E01092F60310924A
:101FB00018041092F50308953FB7F8948091C5086E
:101FC0009091C608A091C708B091C80826B5A89BF3
:101FD00005C02F3F19F00196A11DB11D3FBFBA2FBB
:101FE000A92F982F8827820F911DA11DB11DBC011B
:101FF000CD0142E0660F771F881F991F4A95D1F7E0
:1020000008951F920F920FB60F9211242F933F93B2
:102010008F939F93AF93BF938091C0089091C10815
:10202000A091C208B091C3083091C40823E0230FE7
:102030002D3720F40196A11DB11D05C026E8230F00
:102040000296A11DB11D2093C4088093C0089093EF
:10205000C108A093C208B093C3088091C5089091AD
:10206000C608A091C708B091C8080196A11DB11D6E
:102070008093C5089093C608A093C708B093C8087A
:10208000BF91AF919F918F913F912F910F900FBE74
:102090000F901F901895CF93DF9300D01F92CDB76C
:1020A000DEB7789484B5826084BD84B5816084BDD8
:1020B00085B5826085BD85B5816085BD80916E00E6
:1020C000816080936E001092810080918100826017
:1020D0008093810080918100816080938100809154
:1020E00080008160809380008091B1008460809343
:1020F000B1008091B00081608093B0008091910028
:102100008260809391008091910081608093910022
:10211000809190008160809390008091A100826006
:102120008093A1008091A10081608093A1008091A3
:10213000A00081608093A000809121018260809343
:1021400021018091210181608093210180912001F2
:1021500081608093200180917A00846080937A006E
:1021600080917A00826080937A0080917A00816009
:1021700080937A0080917A00806880937A00109230
:10218000C10040E855E260E070E08CEF95E00E940D
:10219000E70D61E08091C8070E94E30660E080914E
:1021A000C8070E94B40660E08091C7070E94E3065A
:1021B00089E194E09093D2078093D1071092630352
:1021C000109262031092F603109218041092F40316
:1021D00081E08093F3031092CE0361E084E10E94DA
:1021E000B40661E085E10E94B4068091B9008E7F5B
:1021F0008093B9008091B9008D7F8093B90088E405
:102200008093B80085E48093BC008CEF91E09093BC
:102210006503809364038DEF91E09093670380934F
:10222000660380E090E1A0E0B0E08093D407909353
:10223000D507A093D607B093D7078AE090E0A0E037
:10224000B0E08093D8079093D907A093DA07B093B2
:10225000DB0780E090E0A0E0B0E48093DC0790939F
:10226000DD07A093DE07B093DF0760E070E185E053
:102270000E941D036FE979E380E00E941D0327ECB3
:1022800037E03A832983890142E0742E5CE8A52E69
:1022900052E0B52E62ED862E62E0962E7BECE72EA4
:1022A00077E0F72EEBE8CE2EDD24D394D8011496F8
:1022B0009C91149712968C91E981FA81818F928F6B
:1022C00061E00E94E30661E0A981BA815A968C918F
:1022D0000E94E306F80190858681A981BA815D9606
:1022E0008C935D975E969C9361E00E94E30660E0AC
:1022F000E981FA81868D0E94E30661E0A981BA81B5
:102300005D968C910E94B4066FB6F8948091090393
:10231000811126C0F5018491F4012491E82FF0E0A9
:10232000EE0FFF1FE75FFD4FA591B4919C91822FA7
:10233000892321F461E085E30E94B40661E085E32E
:102340000E94E3068CB580618CBD8CB580648CBD29
:1023500061E084E30E94E30661E083E30E94E30618
:10236000809109038F5F809309036FBEC7010197B6
:10237000F1F760E0A981BA815D968C910E94B40664
:1023800088E80E94E00D83E00E94E00D61E0E981B1
:10239000FA81858D0E94B406C7010197F1F760E0CC
:1023A000A981BA815D968C910E94B40688E90E9449
:1023B000E00D80E00E94E00D80E00E94E00D80E0F2
:1023C0000E94E00D80E00E94E00D61E0E981FA8169
:1023D000858D0E94B406C6010197F1F760E0A981DE
:1023E000BA815D968C910E94B40680EE0E94E00D49
:1023F00061E0E981FA81858D0E94B4067A940F5FCD
:102400001F4F29813A812E5F3F4F3A8329837110F4
:102410004DCF0CEE17E080EF97E09A83898360E060
:10242000D8018D918D010E94E306E981FA81E017C0
:10243000F107A9F708EE17E0E980FA80FFEFEF1A3D
:10244000FF0AA981BA816C9170E0CD0108960E94C3
:10245000250FF70195818381D80152968C9352976D
:1024600053969C9360E00E94E30661E0F801838943
:102470000E94E30660E0D80153968C910E94B40656
:102480000E5F1F4FFA82E982F701E25FF740A1F683
:10249000F8941092200189E08093210180E293E07A
:1024A0009093290180932801109225011092240114
:1024B00082E08093730078948093990610929D0631
:1024C00080919A0660E00E94E30640E855E260E0F1
:1024D00070E08CEF95E00E94E70D40E051EE60E087
:1024E00070E08FE595E00E94E70D89E190E0A0E0C3
:1024F000B0E08093630590936405A0936505B09365
:10250000660560E080E40E94E30660E08FE30E94DD
:10251000E30660E08CE30E94E30660E08DE30E9446
:10252000E30660E08EE30E94E30662E080E30E943F
:10253000E30660E082E00E94E30660E083E00E9440
:10254000E30660E084E00E94E30660E085E00E942C
:10255000E30660E08BE00E94E30660E08CE00E940E
:10256000E30682E00E944A0E60E08CE20E94E306ED
:1025700068E873E180E090E00E941F0789E6282E5A
:102580008AE0382E98EB492E9BE0592E612C712C55
:102590000E942804843691050CF0CBC11A8219825E
:1025A0000E9428048C01A981BA811196BA83A9835B
:1025B000CD010E94F803043611050CF0BAC18981DF
:1025C0009A81893C910561F7B8E2CB2E18E0E12EA3
:1025D00012E0F12E03E8A02E02E0B02E09EC12E08A
:1025E000809100028C3221F08F3F09F096C104C027
:1025F000F701F491F983DCC08CE280930002F701CB
:1026000084918F3F09F489C1823009F469C038F59B
:10261000882309F44DC0813009F0C9C010928000B0
:102620001092810080918100886080938100809168
:102630008100816080938100F5018491E82FF0E0B2
:10264000EE0FFF1FED5DFD4F85919491F801849190
:1026500080930D0361E08CE20E94E306D4C08430D5
:1026600009F484C008F461C0853009F0A0C010925C
:102670002001109221018091210188608093210125
:1026800080912101816080932101F5018491E82FDF
:10269000F0E0EE0FFF1FED5DFD4F85919491F80185
:1026A000849180930A0361E08CE20E94E306DAC021
:1026B00014BC15BC84B5826084BD85B5816085BDC0
:1026C000F5018491E82FF0E0EE0FFF1FED5DFD4F67
:1026D00085919491F801849180930E0319826BC0C7
:1026E0001092B0001092B1008091B000826080938F
:1026F000B0008091B10081608093B100F5018491B8
:10270000E82FF0E0EE0FFF1FED5DFD4F85919491F6
:102710009093040380930303F80184918093020350
:1027200061E08CE20E94E30663C010929000109278
:102730009100809191008860809391008091910038
:10274000816080939100F5018491E82FF0E0EE0F15
:10275000FF1FED5DFD4F85919491F8018491809369
:102760000C0361E08CE20E94E30668C01092A000B6
:102770001092A1008091A10088608093A1008091B7
:10278000A10081608093A100F5018491E82FF0E021
:10279000EE0FFF1FED5DFD4F85919491F80184913F
:1027A00080930B0361E08CE20E94E30651C08983B1
:1027B000F981F7FDB2C061E08CE20E94E306298155
:1027C000222319F02230A1F01BC085B5887F8360D9
:1027D00085BDC7BC40921F03509220036092210325
:1027E0007092220380916E00826080936E0095C08B
:1027F0008091B100887F83608093B10082E548C0FA
:1028000039813130C1F480918100887F816080936B
:102810008100309289002092880040921B035092E0
:102820001C0360921D0370921E0380916F008260F2
:1028300080936F0072C08981833039F48091910058
:10284000887F81608093910033C09981943039F4FE
:102850008091A100887F81608093A1003BC0A98105
:10286000A53039F480912101887F81608093210116
:1028700043C0B981B330E1F02CF4B23009F04DC05F
:1028800089E606C0E981E43029F1E530A9F145C0C7
:102890008093B300409205035092060360920703B1
:1028A000709208038091700082608093700035C040
:1028B000309299002092980040921703509218038A
:1028C0006092190370921A03809171008260809364
:1028D000710023C03092A9002092A80040921303F7
:1028E0005092140360921503709216038091720047
:1028F00082608093720011C03092290120922801D9
:1029000040920F03509210036092110370921203D1
:102910008091730082608093730068EE73E080E0C2
:1029200090E00E941F070E942804843691050CF451
:1029300057CE8CE20E94E60803E213E01A83098373
:102940002FB7F8948091C0089091C108A091C20857
:10295000B091C3082FBF8093670590936805A0933B
:102960006905B0936A058FE595E00E94920797FF8D
:10297000FDC12FB7F8948091C0089091C108A09133
:10298000C208B091C3082FBF4091670550916805F8
:102990006091690570916A05841B950BA60BB70BB6
:1029A00040916305509164056091650570916605DD
:1029B00084179507A607B707B0F2D8018C91833228
:1029C00081F00F5F1F4FE3E6F3E0E017F107A9F78F
:1029D0006AE070E080E090E00E941F070E947C089F
:1029E000D7CD81E792E00E94170FD8018C910E9409
:1029F000F303F80181810E94F303D80112968C91B0
:102A00000E94F303F80183810E94F303D801149616
:102A10008C910E94F303F80185810E94F30389E7FA
:102A200092E00E94050F1C830B831A8219828BEBA4
:102A300092E00E94170F8CE792E00E94050FAB8195
:102A4000BC818C910E94F303EB81FC8181810E9407
:102A5000F303AB81BC8112968C910E94F303EB814E
:102A6000FC8183810E94F303AB81BC8114968C911D
:102A70000E94F30389E792E00E94050FEB81FC813D
:102A80008081843409F49DC02CF5823409F05FC143
:102A90008BEB92E00E94170F8AEC92E00E94050FE8
:102AA000ADE7B0E0B0930202A09301026091F0079D
:102AB00070E088EF97E00E94250F8DE70E94540395
:102AC00064E670E080E090E00E941F07EE24E3944B
:102AD000F12C2EC18734B9F0883409F038C18BEB62
:102AE00092E00E94170F8DEB92E00E94050F60911B
:102AF000F00770E088EF97E00E94250F64E670E031
:102B000080E090E0BFC0AB81BC8111962C912B324C
:102B100059F081E090E02D3211F080E090E0EE2459
:102B2000FF24E81AF90A03C0EE24E394F12C8BEB9E
:102B300092E00E94170F8CE892E00E94050FC701F7
:102B40000E94F803EB81FC818281803309F0FFC091
:102B5000E481E153E93058F424E0E29FF0011124CC
:102B6000E75FFD4F80809180A280B38003C0812CFD
:102B7000912C54018BEB92E00E94170F89E992E0AF
:102B80000E94050F42E0C501B4010E94400431E0FB
:102B9000E316F10419F4B501A40110C0EF20E0948C
:102BA00009F0D5C0A5019401C501B4010E94AB1A7A
:102BB000A50194010E94AB1AAB01BC0180EE97E025
:102BC0005EC0AB81BC8111962C912B3259F081E013
:102BD00090E02D3211F080E090E0AA24BB24A81AE6
:102BE000B90A03C0AA24A394B12C8BEB92E00E94F3
:102BF000170F8CE892E00E94050FC5010E94F803B0
:102C0000EB81FC818281803309F0A1C0E481E15332
:102C1000E93058F424E0E29FF0011124E75FFD4F12
:102C2000C080D180E280F38003C0C12CD12C76011A
:102C30008BEB92E00E94170F8BEA92E00E94050F47
:102C400042E0C701B6010E94400431E0A316B1047E
:102C500019F4B701A60110C0AB20A09409F077C009
:102C6000A7019601C701B6010E94AB1AA701960100
:102C70000E94AB1AAB01BC01705882EE97E00E9433
:102C80001E0C65C00E941F078091010290910202F4
:102C90008D37910564F401969093020280930102AE
:102CA0000E94540364E170E080E090E0EBCF64E1C7
:102CB00070E080E090E00E941F0749C0809101020F
:102CC0000E94540364E170E080E090E00E941F07DE
:102CD00080E30E948B06892B99F4E091F80725E0A8
:102CE0002E9FF0011124E559F84F80818F7B80835E
:102CF00080910102909102020E94F803E12CF12CD4
:102D000080910102909102020197909302028093B8
:102D100001024B9769F4E091F80735E03E9FF0011E
:102D20001124E559F84F80818F7B8083E12CF12CB1
:102D3000B1E0EB16F10411F2E091F80785E08E9F07
:102D4000F0011124E559F84F80818F7B8083AB819E
:102D5000BC811D92BC83AB83E981FA813196FA83F1
:102D6000E983E034F10509F062CE2BCEA981BA8166
:102D70008D93BA83A983E3E6F3E0EA17FB0709F032
:102D8000DFCD1BCE8091C0079091C1070C94621CCF
:102D900010921C0410921B0488EE93E0A0E0B0E0B7
:102DA00080931D0490931E04A0931F04B0932004ED
:102DB00029E332E030931A04209319041092280476
:102DC000109227048093290490932A04A0932B0443
:102DD000B0932C042BE432E0309326042093250496
:102DE00045E351E0509332044093310444E351E011
:102DF000509334044093330440E351E0509336043D
:102E00004093350441E351E0509338044093370434
:102E100042E351E050933A044093390446E351E0D1
:102E200050933C0440933B0410923E0410923F04A4
:102E300010924004109241041092C5041092C404F0
:102E40008093C6049093C704A093C804B093C904A8
:102E50003093C3042093C20445ED50E05093CF0457
:102E60004093CE0444ED50E05093D1044093D004FD
:102E700040ED50E05093D3044093D20441ED50E034
:102E80005093D5044093D40442ED50E05093D704BE
:102E90004093D60446ED50E05093D9044093D804B3
:102EA0001092DB041092DC041092DD041092DE0418
:102EB00010926205109261058093630590936405FA
:102EC000A0936505B09366053093600520935F0578
:102ED0004DEC50E050936C0540936B054CEC50E08A
:102EE00050936E0540936D0548EC50E0509370058B
:102EF00040936F0549EC50E0509372054093710583
:102F00004AEC50E050937405409373054EEC50E04A
:102F100050937605409375051092780510927905C7
:102F200010927A0510927B051092FF051092FE0513
:102F30008093000690930106A0930206B0930306C7
:102F40003093FD052093FC0585EC90E090930906F5
:102F50008093080684EC90E090930B0680930A0619
:102F600080EC90E090930D0680930C0681EC90E04D
:102F700090930F0680930E0682EC90E090931106DA
:102F80008093100686EC90E09093130680931206CF
:102F90001092150610921606109217061092180637
:102FA00080912D0290912E02A0912F02B0913002BB
:102FB0008093E8079093E907A093EA07B093EB07A3
:102FC0008091310290913202A0913302B09134028B
:102FD0008093EC079093ED07A093EE07B093EF0773
:102FE00084E08093F00787E08093F1071092F20766
:102FF00084EB8093F30786E18093F40788E1809364
:10300000F50787E18093F60789E18093F707E09160
:10301000A707EC3020F08FEF8093F80710C081E015
:103020008E0F8093A707E093F80725E0E29FF00159
:103030001124E559F84F88EB9BE092838183E0915E
:10304000A707EC3020F08FEF8093F90710C081E0E4
:103050008E0F8093A707E093F90785E0E89FF001C2
:103060001124E559F84F88EB9BE0928381838CE033
:103070008093C70784E28093C80786E08093C907DE
:1030800085E08093CA078FE18093CB078EE1809320
:10309000CC0783E28093CD0782E28093CE0785E45C
:1030A0008093CF0784E48093D00780E48093D30794
:1030B0001092D8071092D9071092DA071092DB0706
:1030C0001092DC071092DD071092DE071092DF07E6
:1030D000E2E0F8E08FEF9FEFDC01128213821482AE
:1030E0001582168217821086118683879487A5879A
:1030F000B6878787908BA18BB28B12861182108244
:10310000739628E0E03CF20741F78DE090E00E94E2
:10311000CA1BFC011382128289E692E091838083AC
:10312000118687E2848384E1828784E08387148622
:10313000F093FF07E093FE07109200081092010839
:1031400085E280939A0610929C061092C107109215
:10315000C0071092C3071092C2071092C5071092C1
:10316000C40761E070E080E090E00E94EB1C0097F3
:1031700091F09093C1078093C0071092C3071092FB
:10318000C2072091C4073091C507232B09F043C023
:10319000FC01108240C08091C0079091C107009748
:1031A00011F00E94621C1092C1071092C007109289
:1031B000C5071092C4071092C3071092C20710925D
:1031C000AB071092AA078DE592E09093A907809330
:1031D000A8078CE08093AC078FEF8093AD078BE05E
:1031E0008093AE0785E08093AF0784E08093B007BB
:1031F00083E08093B10782E08093B2071092B30717
:103200001092B4071092B5071092B6071092B70744
:1032100081E00C944A0E1092C5071092C4076BE728
:1032200072E08091C0079091C1070E94DE1DC7CF58
:103230000E945A1908F481E00895E89409C097FBA8
:103240003EF490958095709561957F4F8F4F9F4F7D
:103250009923A9F0F92F96E9BB279395F6958795C1
:1032600077956795B795F111F8CFFAF4BB0F11F484
:1032700060FF1BC06F5F7F4F8F4F9F4F16C088232B
:1032800011F096E911C0772321F09EE8872F762F61
:1032900005C0662371F096E8862F70E060E02AF0A2
:1032A0009A95660F771F881FDAF7880F969587958E
:1032B00097F90895990F0008550FAA0BE0E8FEEF63
:1032C00016161706E807F907C0F012161306E407EA
:1032D000F50798F0621B730B840B950B39F40A26E3
:1032E00061F0232B242B252B21F408950A2609F4C1
:1032F000A140A6958FEF811D811D08950E9491190F
:103300000C94021A0E94F41938F00E94FB1920F064
:10331000952311F00C94EB190C94F11911240C94D1
:10332000361A0E94131A70F3959FC1F3950F50E05F
:10333000551F629FF001729FBB27F00DB11D639F67
:10334000AA27F00DB11DAA1F649F6627B00DA11D0D
:10335000661F829F2227B00DA11D621F739FB00DB3
:10336000A11D621F839FA00D611D221F749F332723
:10337000A00D611D231F849F600D211D822F762FBC
:103380006A2F11249F5750409AF0F1F088234AF099
:10339000EE0FFF1FBB1F661F771F881F9150504005
:1033A000A9F79E3F510580F00C94EB190C94361A46
:1033B0005F3FE4F3983ED4F3869577956795B7958C
:1033C000F795E7959F5FC1F7FE2B880F911D9695A6
:1033D000879597F9089597F99F6780E870E060E016
:1033E00008959FEF80EC089500240A94161617069E
:1033F00018060906089500240A94121613061406E6
:1034000005060895092E0394000C11F4882352F048
:10341000BB0F40F4BF2B11F460FF04C06F5F7F4F00
:103420008F4F9F4F089557FD9058440F551F59F0E7
:103430005F3F71F04795880F97FB991F61F09F3FA1
:1034400079F087950895121613061406551FF2CFCA
:103450004695F1DF08C0161617061806991FF1CF1A
:1034600086957105610508940895E894BB27662741
:103470007727CB0197F90895052E97FB1EF400944A
:103480000E94531A57FD07D00E94661A07FC03D00A
:103490004EF40C94531A50954095309521953F4F1A
:1034A0004F4F5F4F089590958095709561957F4F30
:1034B0008F4F9F4F08950E94881AA59F900DB49F2B
:1034C000900DA49F800D911D11240895A1E21A2E44
:1034D000AA1BBB1BFD010DC0AA1FBB1FEE1FFF1FB8
:1034E000A217B307E407F50720F0A21BB30BE40B08
:1034F000F50B661F771F881F991F1A9469F760954F
:103500007095809590959B01AC01BD01CF01089508
:10351000A29FB001B39FC001A39F700D811D112414
:10352000911DB29F700D811D1124911D0895991B4D
:1035300079E004C0991F961708F0961B881F7A95AA
:10354000C9F780950895EE0FFF1F881F8BBF079066
:10355000F691E02D19945058BB27AA270E94C31A50
:103560000C94021A0E94F41938F00E94FB1920F002
:1035700039F49F3F19F426F40C94F1190EF4E095F8
:10358000E7FB0C94EB19E92F0E94131A58F3BA17B2
:10359000620773078407950720F079F4A6F50C9469
:1035A000351A0EF4E0950B2EBA2FA02D0B01B901A0
:1035B00090010C01CA01A0011124FF27591B99F0A9
:1035C000593F50F4503E68F11A16F040A22F232FB5
:1035D000342F4427585FF3CF469537952795A79505
:1035E000F0405395C9F77EF41F16BA0B620B730BAC
:1035F000840BBAF09150A1F0FF0FBB1F661F771F1D
:10360000881FC2F70EC0BA0F621F731F841F48F4D1
:10361000879577956795B795F7959E3F08F0B0CF5A
:103620009395880F08F09927EE0F97958795089541
:103630000E942C1B0C94021A0E94FB1958F00E9445
:10364000F41940F029F45F3F29F00C94EB19511163
:103650000C94361A0C94F1190E94131A68F39923EA
:10366000B1F3552391F3951B550BBB27AA2762177E
:103670007307840738F09F5F5F4F220F331F441F8B
:10368000AA1FA9F335D00E2E3AF0E0E832D09150BF
:103690005040E695001CCAF72BD0FE2F29D0660FAC
:1036A000771F881FBB1F261737074807AB07B0E8EF
:1036B00009F0BB0B802DBF01FF2793585F4F3AF0F5
:1036C0009E3F510578F00C94EB190C94361A5F3F2D
:1036D000E4F3983ED4F3869577956795B795F7957B
:1036E0009F5FC9F7880F911D9695879597F9089563
:1036F000E1E0660F771F881FBB1F621773078407FF
:10370000BA0720F0621B730B840BBA0BEE1F88F70D
:10371000E09508950E94911B6894B1110C94361A9B
:1037200008950E941B1A88F09F5798F0B92F992787
:10373000B751B0F0E1F0660F771F881F991F1AF09C
:10374000BA95C9F714C0B13091F00E94351AB1E0B2
:1037500008950C94351A672F782F8827B85F39F0B1
:10376000B93FCCF3869577956795B395D9F73EF435
:1037700090958095709561957F4F8F4F9F4F0895DD
:103780000E945A1908F48FEF08950E945A19880B65
:10379000990B08950F931F93CF93DF938230910578
:1037A00010F482E090E0E091CB08F091CC0820E0AA
:1037B00030E0A0E0B0E0309719F140815181028102
:1037C000138148175907C8F08417950769F41097B3
:1037D00031F012960C93129713961C9327C0009306
:1037E000CB081093CC0822C02115310519F04217DF
:1037F000530718F49A01BD01EF01DF01F801DBCF97
:1038000021153105F9F0281B390B2430310580F4DE
:103810008A819B816115710521F0FB01938382836D
:1038200004C09093CC088093CB08FE01329644C02C
:10383000FE01E20FF31F81939193225031093983E6
:1038400028833AC02091C9083091CA08232B41F43B
:1038500020910502309106023093CA082093C908CE
:1038600020910302309104022115310541F42DB756
:103870003EB74091070250910802241B350BE0919E
:10388000C908F091CA08E217F307A0F42E1B3F0BFA
:103890002817390778F0AC014E5F5F4F24173507C2
:1038A00048F04E0F5F1F5093CA084093C908819398
:1038B000919302C0E0E0F0E0CF01DF91CF911F9142
:1038C0000F910895CF93DF93009709F481C0FC0115
:1038D000329713821282A091CB08B091CC08109736
:1038E00081F420813181820F931F2091C90830918A
:1038F000CA082817390751F5F093CA08E093C90898
:1039000067C0ED0120E030E0CE17DF0740F44A81C8
:103910005B819E0141155105F1F0EA01F5CFD3839A
:10392000C28340815181840F951FC817D90759F46C
:1039300088819981840F951F0296918380838A8163
:103940009B81938382832115310529F4F093CC0860
:10395000E093CB083DC0E901FB83EA83499159918B
:10396000C40FD51FEC17FD0761F480819181840F8E
:10397000951F0296E90199838883828193819B83B5
:103980008A83E0E0F0E012968D919C911397009766
:1039900019F0FD01DC01F7CF8D919C9111979D01EC
:1039A0002E5F3F4F820F931F2091C9083091CA08A4
:1039B0002817390769F4309729F41092CC0810922F
:1039C000CB0802C013821282B093CA08A093C90820
:1039D000DF91CF9108956F927F928F929F92AF92D5
:1039E000BF92CF92DF92EF92FF920F931F93CF93EC
:1039F000DF93009789F4CB01DF91CF911F910F9155
:103A0000FF90EF90DF90CF90BF90AF909F908F90FE
:103A10007F906F900C94CA1BFC01E60FF71F9C016E
:103A200022503109E217F30708F4A9C0EC01D901CB
:103A30000D911C91119706171707B0F0053011056D
:103A400008F49BC0C80104978617970708F495C02F
:103A500002501109061B170B019311936D937C9370
:103A6000CF010E94621C89C05B01A01AB10A4C01FF
:103A7000800E911EA091CB08B091CC08612C712CC6
:103A8000E12CF12C109709F446C08D919C9111976F
:103A9000A815B905B1F56C0142E0C40ED11CCA14D9
:103AA000DB0478F14C018A189B08640142E0C40EE3
:103AB000D11C1296BC9012971396AC91B5E0CB1620
:103AC000D10440F0B282A38391828082D9016D93A8
:103AD0007C9309C00E5F1F4F800F911FF9019183E6
:103AE0008083EB2DFA2FE114F10431F0D701139606
:103AF000FC93EE93129741C0F093CC08E093CB086F
:103B00003CC06816790608F43C017D0112960D90C0
:103B1000BC91A02DB7CF8091C9089091CA08881692
:103B20009906E1F466167706C8F480910302909135
:103B30000402009741F48DB79EB74091070250915F
:103B40000802841B950BE817F907C8F4F093CA081C
:103B5000E093C908F901718360830FC0CB010E9413
:103B6000CA1B7C01009759F0A801BE010E94D51D17
:103B7000CE010E94621CC70104C0CE0102C080E0D9
:103B800090E0DF91CF911F910F91FF90EF90DF9028
:103B9000CF90BF90AF909F908F907F906F9008953F
:103BA00081E090E0F8940C94E51DFB01DC0102C07B
:103BB00001900D9241505040D8F70895FB01DC016F
:103BC00001900D920020E1F7089511E0C6E9D1E0DF
:103BD00000E006C0802FFE010E94A31A2196011D5D
:0E3BE000C739D10780E00807A9F7F894FFCF96
:103BEE00FF7D000000CD0880000AD7233D0AD7A331
:103BFE003D8FC2F53D0AD7233ECDCC4C3E8FC275CC
:103C0E003E295C8F3E0AD7A33EEC51B83E3637387C
:103C1E00391B1D1A1C0000000057022A02A608FEBE
:103C2E000122020E02FF01000000000A085907835C
:103C3E00075708B4079207A607000000005A0B5951
:103C4E0007A608A50800000000C1085907A608A588
:103C5E000823207265637565000D0A004C65637458
:103C6E00757265205472616D653A200073656E73CE
:103C7E004D6F746575723A200056616C65757220D1
:103C8E006D6F7465757220473A200056616C6575CC
:103C9E0072206D6F7465757220443A20004C657603
:103CAE00657220637261796F6E006261697373650C
:103CBE007220637261796F6E00536572766F206148
:103CCE006E676C65206973206F7574206F66207245
:103CDE00616E676521006E616E00696E66006F76BB
:023CEE0066006E
:00000001FF
