:100000000C945F010C9490010C9490010C9490015D
:100010000C9490010C9490010C9490010C9490011C
:100020000C9490010C9482090C9482090C9482091E
:100030000C9490010C9404040C9490010C94900185
:100040000C9490010C94E3060C9490010C94900194
:100050000C9490010C9490010C9490010C94BA03B0
:100060000C9490010C9475050C944B050C94900124
:100070000C9490010C9490010C9490010C949001BC
:100080000C9490010C9490010C9490010C949001AC
:100090000C9490010C9490010C9490010C948C0998
:1000A0000C9490010C9490010C9490010C9490018C
:1000B0000C9490010C9490010C9490010C942506E2
:1000C0000C9490010C9490010C9490010C942105D7
:1000D0000C94F7040C9490010C94CD040C94A3049C
:1000E0000C9490015D0860084F0853085908970860
:1000F000640868086E08720876087C08800884081E
:1001000097088A088E0892080C9476080C944F0879
:100110000C9452030C948E080C94CC070C948A080F
:100120000C94BD070C94F8020C9459080C94E30746
:100130000C94BE070C941F060C9495030C945D0858
:100140000C9417100C9451030C9464080C94F10156
:100150000C9435020C9484080C94DB070C9413085F
:100160000C9497080C94B1020C9453080C94580208
:100170000C9480080C9460080C946E080C94660231
:100180000C9472080C947C080C9492080C94111036
:100190000C9444020C9468080200002100240027FB
:1001A000002A002D00300033000101000004010787
:1001B000010A0100002200250028002B002E00313A
:1001C00000340002010000050108010B01000020BD
:1001D000002300260029002C002F0032000001001F
:1001E00000030106010901050505050705080808C2
:1001F00008020202020A0A080804040404010101B8
:1002000001010101010303030303030303040707BF
:10021000070C0C0C0C0C0C0C0C020202020606065D
:1002200006060606060B0B0B0B0B0B0B0B01021045
:100230002020080810204010204080020102010800
:1002400004020101020408102040808040201008B0
:100250000402018004020180402010080402010809
:100260000402010102040810204080010204081069
:1002700020408000000A0B02090C0D0E0807030441
:10028000010000000000000000000000000000006D
:10029000000000000000000000000000000000124C
:1002A000111000000000000000000000000000002D
:1002B00000000000000000000000171011101124C1
:1002C0001FBECFEFD1E2DEBFCDBF00E00CBF12E01A
:1002D000A0E0B2E0EAE9F9E200E00BBF02C007905B
:1002E0000D92A636B107D9F727E0A6E6B2E001C025
:1002F0001D92A533B207E1F711E0CEE5D1E000E0B1
:1003000006C021970109802FFE010E948812CD3579
:10031000D10780E00807A9F70E94C70C0C94BB1412
:100320000C9400003FB7F89480918D0290918E025A
:10033000A0918F02B091900226B5A89B05C02F3FD7
:1003400019F00196A11DB11D3FBFBA2FA92F982FFB
:100350008827820F911DA11DB11DBC01CD0142E076
:10036000660F771F881F991F4A95D1F708958F92BE
:100370009F92AF92BF92CF92DF92EF92FF926B016A
:100380007C010E9492014B015C01C114D104E10483
:10039000F104F1F00E949201DC01CB018819990966
:1003A000AA09BB09883E9340A105B10570F321E07D
:1003B000C21AD108E108F10888EE880E83E0981E81
:1003C000A11CB11CC114D104E104F10419F7DDCF63
:1003D000FF90EF90DF90CF90BF90AF909F908F9065
:1003E0000895CF92DF92EF92FF920F931F93CF93D6
:1003F000DF936C017A018B01C0E0D0E0CE15DF0500
:1004000089F0D8016D918D01D601ED91FC9101909B
:10041000F081E02DC6011995892B11F47E0102C0EF
:100420002196ECCFC701DF91CF911F910F91FF90E3
:10043000EF90DF90CF900895FC01A089B1898C9155
:10044000A689B78982FD0FC09C91818D8F5F8F73C4
:10045000228D821749F0218DDF01A20FB11D5D961B
:100460009C93818F08958C910895FC01538D448D48
:10047000252F30E0842F90E0821B930B541710F04F
:10048000CF96089501970895FC01918D828D98175C
:1004900061F0828DDF01A80FB11D5D968C91928D68
:1004A0009F5F9F73928F90E008958FEF9FEF089565
:1004B000FC01918D828D981731F0828DE80FF11D2E
:1004C000858D90E008958FEF9FEF0895FC01918D49
:1004D000228D892F90E0805C9F4F821B91098F7342
:1004E0009927089583E393E00E94660221E0892B17
:1004F00009F420E0822F089580ED93E00E946602C7
:1005000021E0892B09F420E0822F08958DE694E004
:100510000E94660221E0892B09F420E0822F0895D1
:10052000FC01848DDF01A80FB11DA35ABF4F2C9190
:10053000848D90E001968F739927848FA689B7895F
:100540002C93A089B1898C9180648C93938D848D38
:10055000981306C00288F389E02D80818F7D808307
:100560000895EF92FF920F931F93CF93DF93EC01C7
:1005700081E0888F9B8D8C8D981305C0E889F9895F
:10058000808185FD24C0F62E0B8D10E00F5F1F4F7C
:100590000F731127E02E8C8DE8120CC00FB607FCEC
:1005A000FACFE889F989808185FFF5CFCE010E94D5
:1005B0009002F1CF8B8DFE01E80FF11DE35AFF4F42
:1005C000F0820B8FEA89FB898081806207C0EE8907
:1005D000FF896083E889F98980818064808381E074
:1005E00090E0DF91CF911F910F91FF90EF900895D0
:1005F000CF93DF93EC01888D8823C9F0EA89FB89CA
:10060000808185FD05C0A889B9898C9186FD0FC0C0
:100610000FB607FCF5CF808185FFF2CFA889B98995
:100620008C9185FFEDCFCE010E949002E7CFDF9144
:10063000CF910895E0E0F0E0199480E090E0892BFC
:1006400021F00E948602811119C080E090E0892B80
:1006500041F080E090E0892B21F00E9400008111A0
:1006600010C00E947C0281110FC080E090E0892BB5
:1006700081F00E94720281110AC008950E94000058
:10068000E4CF0E940000EDCF0E941A03EECF0C943D
:10069000000008958EBD00000DB407FEFDCF8EB59D
:1006A0000895089580E090E00895CF93DF93EC01E2
:1006B00060E08E810E94E70A61E08E810E94E70A75
:1006C00060E08E810E94E70A8BE891E00197F1F7E4
:1006D000DF91CF9108950E94A614FC01248131E09E
:1006E00030930303209325031092040310922603F2
:1006F0008485682B87E293E00E9413080C946A0CAF
:100700000F931F93CF938C01C62F64600E946D03DB
:100710006C2F6B7FC8010E946D0383EC90E0019702
:10072000F1F7CF911F910F9108950F931F93CF93DE
:10073000DF938C01C62FD62FD07FD1606D2F0E9402
:100740006D036D2FC8010E94800380E1C89FB00136
:100750001124C62FC1606C2FC8010E946D036C2F3D
:10076000C8010E94800381E090E0DF91CF911F914A
:100770000F9108951F920F920FB60F9211242F938D
:100780003F938F939F93AF93BF93809189029091F2
:100790008A02A0918B02B0918C023091880223E0F2
:1007A000230F2D3720F40196A11DB11D05C026E8A9
:1007B000230F0296A11DB11D209388028093890208
:1007C00090938A02A0938B02B0938C0280918D0249
:1007D00090918E02A0918F02B09190020196A11D7E
:1007E000B11D80938D0290938E02A0938F02B093DF
:1007F0009002BF91AF919F918F913F912F910F9058
:100800000FBE0F901F9018951F920F920FB60F9268
:1008100011240BB60F922F933F934F935F936F93D7
:100820007F938F939F93AF93BF93EF93FF938091A9
:10083000830290918402A0918502B0918602892B57
:100840008A2B8B2B59F180918202E0918002F091EA
:100850008102908189278083809183029091840214
:10086000A0918502B0918602181619061A061B0679
:100870000CF056C08091830290918402A091850271
:10088000B09186020197A109B109809383029093E8
:100890008402A0938502B093860242C08091000238
:1008A000E8E9F1E0E4919FEF90930002E230C9F0B3
:1008B00050F4EE2399F0E13081F590916F009D7F27
:1008C00090936F002AC0E43019F1E0F0E53029F58B
:1008D000909173009D7F909373001FC010926E00E3
:1008E0001CC0909170009D7F9093700091E0909358
:1008F000B0009091B100987F94609093B1001092F5
:10090000B3000BC0909171009D7F9093710005C062
:10091000909172009D7F9093720060E00E94E70AC0
:10092000FF91EF91BF91AF919F918F917F916F91C7
:100930005F914F913F912F910F900BBE0F900FBE83
:100940000F901F9018951F920F920FB60F921124BF
:100950000BB60F922F933F934F935F936F937F93B9
:100960008F939F93AF93BF93EF93FF9383E393E0B2
:100970000E949002FF91EF91BF91AF919F918F9153
:100980007F916F915F914F913F912F910F900BBE8F
:100990000F900FBE0F901F9018951F920F920FB6D9
:1009A0000F9211240BB60F922F933F934F935F93A7
:1009B0006F937F938F939F93AF93BF93EF93FF9327
:1009C00083E393E00E941C02FF91EF91BF91AF91EE
:1009D0009F918F917F916F915F914F913F912F9157
:1009E0000F900BBE0F900FBE0F901F9018951F9287
:1009F0000F920FB60F9211240BB60F922F933F93C5
:100A00004F935F936F937F938F939F93AF93BF9316
:100A1000EF93FF9380ED93E00E949002FF91EF919E
:100A2000BF91AF919F918F917F916F915F914F9106
:100A30003F912F910F900BBE0F900FBE0F901F9004
:100A400018951F920F920FB60F9211240BB60F92AA
:100A50002F933F934F935F936F937F938F939F93C6
:100A6000AF93BF93EF93FF9380ED93E00E941C023E
:100A7000FF91EF91BF91AF919F918F917F916F9176
:100A80005F914F913F912F910F900BBE0F900FBE32
:100A90000F901F9018951F920F920FB60F9211246E
:100AA0000BB60F922F933F934F935F936F937F9368
:100AB0008F939F93AF93BF93EF93FF938DE694E053
:100AC0000E949002FF91EF91BF91AF919F918F9102
:100AD0007F916F915F914F913F912F910F900BBE3E
:100AE0000F900FBE0F901F9018951F920F920FB688
:100AF0000F9211240BB60F922F933F934F935F9356
:100B00006F937F938F939F93AF93BF93EF93FF93D5
:100B10008DE694E00E941C02FF91EF91BF91AF918E
:100B20009F918F917F916F915F914F913F912F9105
:100B30000F900BBE0F900FBE0F901F901895CF9285
:100B4000DF92EF92FF920F931F93CF93DF937C017D
:100B50006C0187E0C80ED11CC0E0D0E0062F10E089
:100B6000B8010C2E02C0759567950A94E2F7617082
:100B7000F60181916F010E94E70A2196C430D105E8
:100B800079F7C701DF91CF911F910F91FF90EF90FF
:100B9000DF90CF900C945503CF92DF92EF92FF92AB
:100BA0000F931F93CF93DF93EC01F62E642F8C816C
:100BB0000E94E70A8D818F3F19F060E00E94E70AEA
:100BC0008F850F2D10E084FF25C06E0187E0C80ED1
:100BD000D11CE12CF12CB8010E2C02C07595679543
:100BE0000A94E2F76170F60181916F010E94E70AB1
:100BF000FFEFEF1AFF0A88E0E816F10461F7CE0173
:100C0000DF91CF911F910F91FF90EF90DF90CF90E8
:100C10000C945503B80184E0759567958A95E1F7C2
:100C2000CE010E949F056F2DCE01DF91CF911F91C4
:100C30000F91FF90EF90DF90CF900C949F0541E0D3
:100C40000E94CC0581E090E008951F920F920FB6AC
:100C50000F9211240BB60F922F933F934F935F93F4
:100C60006F937F938F939F93AF93BF93EF93FF9374
:100C700080910B050E94BE0A20910F05309110054E
:100C80002F5F3F4F3093100520930F0590910E0575
:100C9000953618F096E090930A0590910A059430E5
:100CA000C9F128F4923069F09330D1F05EC09530EC
:100CB00009F451C0963009F058C091E09093DB05DB
:100CC00051C0811152C020910F053091100524367A
:100CD000310508F442C01092DB0510920E051CC0CD
:100CE000813009F042C0E0910E0591E09E0F909393
:100CF0000E05F0E020910F0530911005EE0FFF1F5B
:100D0000E65FFA4F308727831092100510920F0587
:100D100094E029C0811117C0E0910E0591E09E0F6B
:100D200090930E05F0E020910F0530911005EE0F25
:100D3000FF1FE65FFA4F308727831092100510924D
:100D40000F0593E010C020910F0530911005253656
:100D5000310558F007C0811108C01092100510929B
:100D60000F0503C095E090930A0590910D05992316
:100D7000B9F081110AC080910C05882321F080917F
:100D80000C0561E009C02F9A0BC080910C058823E7
:100D900031F080910C0560E00E94E70A01C02F98B5
:100DA000FF91EF91BF91AF919F918F917F916F9143
:100DB0005F914F913F912F910F900BBE0F900FBEFF
:100DC0000F901F9018951F920F920FB60F9211243B
:100DD0000BB60F922F933F934F935F936F937F9335
:100DE0008F939F93AF93BF93EF93FF9380917F0275
:100DF00087FF05C0109285001092840016C02091D4
:100E00007F02022E000C330B8091180690E0281709
:100E100039075CF430917F0225E03203F0011124A0
:100E2000E452FA4F808186FD15C080917F028F5F6A
:100E300080937F0220917F02022E000C330B809161
:100E4000180690E02817390794F480917F028C30BF
:100E50002CF10DC030917F023203F0011124E452D5
:100E6000FA4F808160E08F730E94E70ADECF8091A5
:100E700084009091850084349C4918F480E49CE9B6
:100E800005C080918400909185000496909389001C
:100E9000809388008FEF80937F022AC04091840066
:100EA0005091850030917F0225E03203F00111243A
:100EB000E452FA4F81819281840F951F90938900AB
:100EC0008093880030917F023203F0011124E452B4
:100ED000FA4F808186FF0CC030917F023203F0010F
:100EE0001124E452FA4F808161E08F730E94E70A77
:100EF000FF91EF91BF91AF919F918F917F916F91F2
:100F00005F914F913F912F910F900BBE0F900FBEAD
:100F10000F901F90189585ED8093BC008091BC00C8
:100F200084FDFCCF1092020308954091B502262F54
:100F300030E0240F311D21323105DCF42091020311
:100F40002430C9F4FC0180E090E0861758F4309119
:100F5000B5022191DC01AD56BD4FA30FB11D2C93FD
:100F60000196F3CF8091B502680F6093B50280E0DF
:100F7000089581E0089582E00895089581E090E069
:100F80003091920220919102321710F480E090E0AB
:100F90009195819591090895809192029091910285
:100FA000891730F48F5F8093920280E090E008957B
:100FB0008FEF9FEF08958091910290E0209192022F
:100FC000821B91090895CF92DF92EF92FF920F93C7
:100FD0001F93CF93DF937C01262F972F8A01809157
:100FE0000303882391F0C62FD72F6E01C40ED51EA0
:100FF000CC15DD0571F06991D701ED91FC9101905F
:10100000F081E02DC7011995F3CF642F822F0E9444
:101010009507C801DF91CF911F910F91FF90EF903D
:10102000DF90CF900895CF93DF931F92CDB7DEB7B7
:101030006983209103032223D1F0209126032032DB
:1010400040F021E030E0FC013383228380E090E037
:1010500015C080910403E82FF0E0EB5FFC4F99810D
:1010600090838F5F809304038093260305C061E023
:10107000CE0101960E94950781E090E00F90DF91EC
:10108000CF91089590E0FC013197E231F10508F02D
:101090004EC08827EE58FF4F8F4F0C9488128091D6
:1010A00080008F7703C0809180008F7D80938000C7
:1010B000089580918000877FF9CF84B58F7702C033
:1010C00084B58F7D84BD08958091B0008F7703C073
:1010D0008091B0008F7D8093B00008958091900042
:1010E0008F7707C0809190008F7D03C08091900022
:1010F000877F8093900008958091A0008F7707C02C
:101100008091A0008F7D03C08091A000877F809395
:10111000A0000895809120018F7707C08091200161
:101120008F7D03C080912001877F809320010895E7
:10113000EF92FF921F93CF93DF931F92CDB7DEB74D
:10114000162F9AEFE92E96E0F92ED7011C969C9166
:101150001C9721E02093030390932503109204032E
:10116000109226031A960D90BC91A02DED91FC9142
:1011700011970190F081E02D682FCD0179831995A9
:10118000F70182859385DC01ED91FC910190F0815E
:10119000E02D7981672F1995F70182859385DC0110
:1011A000ED91FC910190F081E02D612F19950F9048
:1011B000DF91CF911F91FF90EF900C946A0CCF922A
:1011C000DF92EF92FF92CF93DF93909125078917DB
:1011D00020F090912607981770F488E492E00E941E
:1011E000FD0B85E492E0DF91CF91FF90EF90DF90CF
:1011F000CF900C94FD0BC0912B07CC3008F07BC036
:10120000282F30E0D0E0283C3105E4F595E09C9FA4
:10121000F0019D9FF00D1124E452FA4F938128E8CC
:1012200030E06901C91AD10897FDD394CC0CDD1CBC
:10123000CC0CDD1C0D2C000CEE08FF08948128E579
:1012400032E0291B310997FD3395220F331F220FFE
:10125000331FA901330F660B770B9A01AB012C19D1
:101260003D094E095F09A82FB0E00E94401224EB0F
:1012700030E040E050E00E942112C20ED31EE41E76
:10128000F51E27C085E08C9FF0018D9FF00D112485
:10129000E452FA4F838148E850E06A01C81AD10845
:1012A00087FDD394CC0CDD1CCC0CDD1C2C153D052E
:1012B00084F0448188E592E0841B910947FD939571
:1012C000880F991F880F991F69018C159D050CF4D3
:1012D0006C018FB7F89495E09C9FF0019D9FF00DF5
:1012E0001124E452FA4F96E0C91AD108CC0CDD1C47
:1012F000D282C1828FBFDF91CF91FF90EF90DF90BC
:10130000CF9008951F920F920FB60F9211240F9055
:101310000FBE0F901F9018951F920F920FB60F924D
:1013200011240BB60F922F933F934F935F936F93BC
:101330007F938F939F93AF93BF93EF93FF9380918E
:10134000B900887F803609F49CC068F5883209F4BA
:101350005BC090F4803109F454C038F4882309F458
:10136000F6C0883009F44DC0F6C0883109F44CC08D
:10137000803209F45DC0EFC0803409F468C048F4DD
:10138000803309F455C0883309F0E5C08093000329
:10139000D8C0803509F44FC0883509F45DC0883461
:1013A00009F0D9C0D6C0883909F4C7C0A8F4883775
:1013B00009F467C038F4883609F463C0803709F44B
:1013C00060C0C9C0883809F4B8C0803909F45FC06A
:1013D000803809F0C0C05BC0803B09F486C038F497
:1013E000803A09F466C0883A09F47FC0B4C0803CF2
:1013F00009F4A7C0883C09F4A4C0883B09F48AC05A
:10140000AAC08091DD0210C09091FF028091FE027F
:10141000981770F5E091FF0281E08E0F8093FF0234
:10142000F0E0E252FD4F80818093BB0085EC86C0E6
:10143000809300038EC0E091FF0281E08E0F8093C5
:10144000FF028091BB00F0E0E252FD4F808390915B
:10145000FF028091FE026EC0E091FF0281E08E0FDC
:101460008093FF028091BB00F0E0E252FD4F808349
:101470008091010381116DC081E08093DC0284EAD8
:1014800061C083E0809302031092D902CFCF809194
:10149000D902803208F051C0E091D90281E08E0F6C
:1014A0008093D9028091BB00F0E0E754FD4F808328
:1014B000BDCF85EC8093BC00109202038091D902CD
:1014C000803230F4E091D902F0E0E754FD4F108211
:1014D0006091D90270E0E091B702F091B80289EB17
:1014E00092E019951092D90236C084E080930203ED
:1014F0001092B6021092B502E091B302F091B402DC
:1015000019958091B502811105C081E08093B502E3
:1015100010929302E091B60281E08E0F8093B602A2
:10152000F0E0ED56FD4F80818093BB009091B602B4
:101530008091B502981708F479CF85E88093BC00B4
:101540000AC085EC8093BC001092020304C0109284
:1015500000030E948B07FF91EF91BF91AF919F9184
:101560008F917F916F915F914F913F912F910F904C
:101570000BBE0F900FBE0F901F901895CF93DF9367
:10158000282F30E0F901ED58FD4F8491F901E35D1A
:10159000FD4FD491F901E951FE4FC491CC2391F054
:1015A00081110E944208EC2FF0E0EE0FFF1FE35381
:1015B000FE4FA591B491EC91ED2381E090E021F4F0
:1015C00080E002C080E090E0DF91CF9108951F930A
:1015D000CF93DF93282F30E0F901ED58FD4F849130
:1015E000F901E35DFD4FD491F901E951FE4FC4913A
:1015F000CC23C9F0162F81110E944208EC2FF0E095
:10160000EE0FFF1FED54FE4FA591B4918FB7F894E4
:10161000111105C09C91ED2FE095E92302C0EC91DA
:10162000ED2BEC938FBFDF91CF911F910895CF9356
:10163000DF9390E0FC01E35DFD4F2491FC01E95153
:10164000FE4F8491882361F190E0880F991FFC017F
:10165000E756FE4FC591D491FC01ED54FE4FA59184
:10166000B491611109C09FB7F894888120958223B5
:101670008883EC912E230BC0623061F49FB7F894FD
:101680003881822F809583238883EC912E2B2C9395
:101690009FBF06C08FB7F894E8812E2B28838FBF99
:1016A000DF91CF910895EF92FF920F931F93CF9305
:1016B000DF93EC01623018F08F8588608F876B8B29
:1016C0001C8A80E48D8B80E18E8B80E58F8B61E0BE
:1016D0008C810E94170B8D818F3F19F061E00E9471
:1016E000170B61E08E810E94170B7E0187E0E80EE8
:1016F000F11C00E010E08F8584FD03C084E090E0E1
:1017000002C088E090E0081719074CF461E0F70187
:1017100081917F010E94170B0F5F1F4FECCF8BE36E
:101720009DE00197F1F760E08C810E94E70A60E09C
:101730008E810E94E70A8D818F3F19F060E00E9440
:10174000E70A6F8564FD1DC063E0CE010E949F051E
:101750000BE416E4C8010197F1F763E0CE010E94A3
:101760009F05C8010197F1F763E0CE010E949F0534
:1017700083E592E00197F1F762E0CE010E949F05B8
:1017800019C0606240E0CE010E94CC058BE496E473
:101790000197F1F76F85606240E0CE010E94CC05B1
:1017A00083E592E00197F1F76F85606240E0CE013A
:1017B0000E94CC056F85606240E0CE010E94CC059E
:1017C00084E0888B40E06CE0CE010E94CC0540E0D4
:1017D00061E0CE010E94CC058BE39FE10197F1F718
:1017E00082E0898B40E066E0CE01DF91CF911F91CE
:1017F0000F91FF90EF900C94CC05009769F0FC01DD
:1018000001900020E9F73197AF01481B590BBC014B
:101810008DE694E00C94F10180E090E008951F9330
:10182000CF93DF93EC01162F88818C3008F04DC0E8
:1018300061E0812F0E94170BE88195E09E9FF001E7
:101840001124E452FA4F1F738081807C182B10837F
:101850001382E8819E9FF0011124E452FA4F148212
:1018600088816CE00E947C129CE0899FA001112479
:1018700020E030E095E0B901640F751F969FF001FC
:10188000979FF00D1124E452FA4F608166FD13C05A
:101890002F5F3F4F2C30310571F781110CC0109232
:1018A000800082E080938100109285001092840075
:1018B00086BB80936F00E88185E0E89FF0011124EA
:1018C000E452FA4F8081806480838881DF91CF91D8
:1018D0001F9108952091260390912503213208F04D
:1018E0004AC0809102038111FCCF32E030930203A1
:1018F00031E0309301033FEF309300031092FF0279
:101900002093FE02A5E0B3E04EED52E0FA013E2F37
:10191000341B321718F43D913193F9CF1092DD0248
:101920002091DD02990F922B9093DD029091DC02C1
:10193000913061F41092DC029091DD029093BB0033
:101940009091BC0093FDF8CF95EC01C095EE90937B
:10195000BC00909102039230E1F3909100039F3F0D
:1019600079F080910003803241F080910003803350
:1019700031F084E005C081E003C082E001C083E073
:101980001092040310922603109203030895CF933C
:10199000DF93CDB7DEB7A1970FB6F894DEBF0FBEC9
:1019A000CDBF789484B5826084BD84B5816084BDE8
:1019B00085B5826085BD85B5816085BD80916E00ED
:1019C000816080936E00109281008091810082601E
:1019D000809381008091810081608093810080915B
:1019E00080008160809380008091B100846080934A
:1019F000B1008091B00081608093B000809191002F
:101A00008260809391008091910081608093910029
:101A1000809190008160809390008091A10082600D
:101A20008093A1008091A10081608093A1008091AA
:101A3000A00081608093A00080912101826080934A
:101A400021018091210181608093210180912001F9
:101A500081608093200180917A00846080937A0075
:101A600080917A00826080937A0080917A00816010
:101A700080937A0080917A00806880937A00109237
:101A8000C100E0917D04F0917E0482E08083E091CA
:101A90007904F0917A041082E0917B04F0917C0447
:101AA0008FEC808310928504E0918104F091820490
:101AB00086E08083E0917F04F091800480818061E2
:101AC0008083E0917F04F09180048081886080832E
:101AD000E0917F04F0918004808180688083E091B0
:101AE0007F04F091800480818F7D808361E080910C
:101AF000FB060E94170B60E08091FB060E94E70A3C
:101B000060E08091FA060E94170B87E293E09093C1
:101B1000050780930407109292021092910210928E
:101B20000403109226031092020381E080930103C4
:101B30001092DC0261E084E10E94E70A61E085E145
:101B40000E94E70A8091B9008E7F8093B90080914E
:101B5000B9008D7F8093B90088E48093B80085E454
:101B60008093BC0080E090E1A0E0B0E080930707A4
:101B700090930807A0930907B0930A078AE090E0C2
:101B8000A0E0B0E080930B0790930C07A0930D07A3
:101B9000B0930E0780E090E0A0E0B0E480930F07E0
:101BA00090931007A0931107B093120760E070E1C3
:101BB00085E00E9498086FE979E380E00E94980828
:101BC00007E117E0A12CB12CC12CD12CECE12E2E79
:101BD000E2E03E2EFBEC8F2EF7E09F2EABE86A2E64
:101BE0007724739496012650394F2901F901948185
:101BF000828195012650394F7901F901818F928FA9
:101C000061E00E94170B61E0F701828D0E94170BC3
:101C1000F20190858681F8018083F701968F61E05B
:101C20000E94170B60E0F701868D0E94170B61E0A0
:101C3000F80180810E94E70AFFB6F894809187023C
:101C4000811126C0F1018491E2E6F2E09491E82F3F
:101C5000F0E0EE0FFF1FE756FE4FA591B4918C9177
:101C6000982321F461E085E30E94E70A61E085E3BF
:101C70000E94170B8CB580618CBD8CB580648CBDC7
:101C800061E084E30E94170B61E083E30E94170B7D
:101C9000809187028F5F80938702FFBEC401019706
:101CA000F1F760E0F80180810E94E70A88E80E946D
:101CB0004A0383E00E944A0361E0F80180810E94A8
:101CC000E70AC4010197F1F760E0F80180810E9402
:101CD000E70A88E90E944A0380E00E944A0380E004
:101CE0000E944A0380E00E944A0380E00E944A0367
:101CF00061E0F80180810E94E70AC3010197F1F7D2
:101D000060E0F80180810E94E70A80EE0E944A03A9
:101D100061E0F80180810E94E70AF2E0AF0EB11C99
:101D20000E5F1F4FCA94CD2821F0CC24C394D12C30
:101D300059CF0FE117E054E0F52EF00E60E0F80106
:101D400081918F010E94170BF012F8CF3EE2E32E33
:101D500037E0F32E09E217E042E0D42ED00EF8016E
:101D60003697608170E0C80102960E940F0CF8015E
:101D700091918F0133978081F70131978083F7012B
:101D8000908360E00E94170B61E0F70180810E9460
:101D9000170B60E0F70180810E94E70AF2E0EF0E86
:101DA000F11CD012DCCFF8941092200189E08093CE
:101DB000210180E293E09093290180932801109201
:101DC00025011092240182E080937300789480931F
:101DD0000A0510920E0580910B0560E00E94170B1A
:101DE00060E080E40E94170B60E08FE30E94170B15
:101DF00060E08CE30E94170B60E08DE30E94170BFC
:101E000060E08EE30E94170B62E080E30E94170BF4
:101E100060E082E00E94170B60E083E00E94170BF5
:101E200060E084E00E94170B60E085E00E94170BE1
:101E300060E08BE00E94170B60E08CE00E94170BC3
:101E400062E089E196E00E94530B68E873E180E06C
:101E500090E00E94B7019DE7A92EB12C2AE0422E06
:101E6000512C612C712C809122070E94BE0A892B73
:101E700009F4CEC0B0920202A09201026091230741
:101E800070E08BE297E00E940F0C8DE70E94DF0864
:101E900064E670E080E090E00E94B70101E010E0AD
:101EA00085E0982E0130110509F081C08091010272
:101EB0000E94DF0864E170E080E090E00E94B701DA
:101EC00080E30E94BE0A892B09F058C0E0912B07DD
:101ED0009E9EF0011124E452FA4F80818F7B808313
:101EE000C0900102D09002020D2C000CEE08FF08F9
:101EF000F7FE26C0E0916D04F0916E040190F08130
:101F0000E02D6DE28DE694E0199522273327A90193
:101F10002C193D094E095F0919A28E010F5D1F4F53
:101F2000CA01B901A30192010E944B12605DF80140
:101F300062938F01211531054105510589F715C0BF
:101F4000A701960119A28E010F5D1F4FCA01B901A9
:101F5000A30192010E944B12605DF80162938F0110
:101F6000211531054105510589F7C8010E94FD0B76
:101F700085E492E00E94FD0B00E010E080910102F8
:101F800090910202019790930202809301024B9775
:101F900009F088CFE0912B079E9EF0011124E452B6
:101FA000FA4F80818F7B808300E010E07BCFE0914F
:101FB0002B0725E0E29FF0011124E452FA4F8081C3
:101FC0008F7B80836091230770E08BE297E00E9413
:101FD0000F0C64E670E080E090E00E94B701809111
:101FE0000102909102028D37910564F4019690935D
:101FF0000202809301020E94DF0864E170E080E049
:1020000090E0EBCF64E170E080E090E00E94B701E7
:102010006AE070E080E090E00E94B7010E941D033A
:1020200022CF80913106909132060C9425131092A4
:102030002A031092290388EE93E0A0E0B0E0809399
:102040002B0390932C03A0932D03B0932E032DE02C
:1020500032E0309328032093270310923603109226
:1020600035038093370390933803A0933903B093DB
:102070003A032FE132E0309334032093330345E3F6
:1020800051E05093400340933F0344E351E05093A9
:1020900042034093410340E351E050934403409393
:1020A000430341E351E0509346034093450342E329
:1020B00051E0509348034093470346E351E0509367
:1020C0004A034093490310924C0310924D0310921F
:1020D0004E0310924F031092D3031092D2038093B9
:1020E000D4039093D503A093D603B093D703309332
:1020F000D1032093D00345ED50E05093DD0340938E
:10210000DC0344ED50E05093DF034093DE0340EDE9
:1021100050E05093E1034093E00341ED50E05093D1
:10212000E3034093E20342ED50E05093E503409314
:10213000E40346ED50E05093E7034093E60310922A
:10214000E9031092EA031092EB031092EC03109251
:10215000700410926F048093710490937204A093A2
:102160007304B093740430936E0420936D0485EC73
:1021700090E090937A048093790484EC90E09093BB
:102180007C0480937B0480EC90E090937E048093A9
:102190007D0481EC90E09093800480937F0482EC36
:1021A00090E0909382048093810486EC90E0909379
:1021B0008404809383041092860410928704109202
:1021C00088041092890486E380931B0787E3809339
:1021D0001C0788E380931D0789E380931E078BE12A
:1021E00080931F078DE1809320078AE18093210768
:1021F0008CE18093220784E08093230787E080931B
:1022000024071092250784EB8093260786E18093AC
:10221000270788E18093280787E18093290789E1D0
:1022200080932A07E0911806EC3020F08FEF80931E
:102230002B0710C081E08E0F80931806E0932B07C8
:1022400025E0E29FF0011124E452FA4F88EB9BE075
:1022500092838183E0911806EC3020F08FEF809319
:102260002C0710C081E08E0F80931806E0932C0796
:1022700085E0E89FF0011124E452FA4F88EB9BE0DF
:10228000928381838CE08093FA0684E28093FB063C
:1022900086E08093FC0685E08093FD068FE18093C5
:1022A000FE068EE18093FF0683E28093000782E2C0
:1022B0008093010785E48093020784E480930307F9
:1022C00080E48093060710920B0710920C0710927F
:1022D0000D0710920E0710920F0710921007109220
:1022E000110710921207ECE3F6E08FEF9FEFDC018D
:1022F000128213821482158216821782108611862A
:1023000083879487A587B6878787908BA18BB28BAD
:10231000128611821082739626E0EA3FF20741F797
:102320008DE090E00E949012FC01138212828DE3F6
:1023300092E091838083118687E2848384E182879F
:1023400084E083871486F0933906E0933806109270
:102350003A0610923B0685E280930B0510920D051C
:102360001092320610923106109234061092330603
:10237000109236061092350661E070E080E090E041
:102380000E94BD13009791F090933206809331061E
:10239000109234061092330620913506309136069D
:1023A000232B09F045C0FC01108242C08091310608
:1023B00090913206009711F00E9425131092320678
:1023C000109231061092360610923506109234069D
:1023D0001092330610921C0610921B0681E392E0C5
:1023E00090931A06809319068CE080931D068FEF58
:1023F00080931E068BE080931F0685E08093200665
:1024000084E08093210683E08093220682E080931B
:10241000230610922406109225061092260610928A
:1024200027061092280661E089E196E00C94530B90
:10243000109236061092350667E472E00E94B414DA
:10244000C9CF052E97FB1EF400940E94381257FD49
:1024500007D00E944B1207FC03D04EF40C943812A4
:1024600050954095309521953F4F4F4F5F4F0895C0
:1024700090958095709561957F4F8F4F9F4F0895F0
:102480000E946D12A59F900DB49F900DA49F800D8A
:10249000911D11240895A1E21A2EAA1BBB1BFD0158
:1024A0000DC0AA1FBB1FEE1FFF1FA217B307E40733
:1024B000F50720F0A21BB30BE40BF50B661F771F8B
:1024C000881F991F1A9469F760957095809590956B
:1024D0009B01AC01BD01CF010895A29FB001B39F44
:1024E000C001A39F700D811D1124911DB29F700D1D
:1024F000811D1124911D0895991B79E004C0991F35
:10250000961708F0961B881F7A95C9F7809508954D
:10251000EE0FFF1F881F8BBF0790F691E02D1994D7
:10252000CF93DF938230910510F482E090E0E09148
:102530003307F091340720E030E0C0E0D0E030977E
:1025400011F14081518148175907C0F048175907C8
:1025500061F482819381209719F09B838A832BC039
:10256000909334078093330726C02115310519F065
:102570004217530718F49A01BE01DF01EF010280F0
:10258000F381E02DDCCF2115310509F1281B390B32
:102590002430310590F412968D919C91139761151A
:1025A000710521F0FB019383828304C0909334076B
:1025B00080933307FD01329644C0FD01E20FF31F03
:1025C00081939193225031092D933C933AC02091ED
:1025D000310730913207232B41F4209105023091CD
:1025E0000602309332072093310720910302309185
:1025F00004022115310541F42DB73EB74091070281
:1026000050910802241B350BE0913107F0913207FD
:10261000E217F307A0F42E1B3F0B2817390778F0B9
:10262000AC014E5F5F4F2417350748F04E0F5F1F18
:1026300050933207409331078193919302C0E0E0B9
:10264000F0E0CF01DF91CF9108950F931F93CF93C7
:10265000DF93009709F48CC0FC0132971382128239
:1026600000913307109134070115110581F4208181
:102670003181820F931F2091310730913207281743
:10268000390779F5F0933207E093310771C0D8012B
:1026900040E050E0AE17BF0750F412962D913C91E8
:1026A0001397AD012115310509F1D901F3CF9D0132
:1026B000DA013383228360817181860F971F82172D
:1026C000930769F4EC0128813981260F371F2E5FAB
:1026D0003F4F318320838A819B8193838283452B63
:1026E00029F4F0933407E093330742C01396FC9328
:1026F000EE931297ED01499159919E01240F351FD8
:10270000E217F30771F480819181840F951F02967F
:1027100011969C938E938281938113969C938E93B2
:102720001297E0E0F0E0D80112968D919C911397FA
:10273000009719F0F8018C01F6CF8D919C919801CA
:102740002E5F3F4F820F931F209131073091320748
:102750002817390769F4309729F41092340710923A
:10276000330702C01382128210933207009331079D
:10277000DF91CF911F910F9108956F927F928F9269
:102780009F92AF92BF92CF92DF92EF92FF920F9300
:102790001F93CF93DF93EC01009789F4CB01DF9176
:1027A000CF911F910F91FF90EF90DF90CF90BF904E
:1027B000AF909F908F907F906F900C949012FC013F
:1027C000E60FF71F9C0122503109E217F30708F4C6
:1027D000ACC0D9010D911C91119706171707B0F0E5
:1027E0000530110508F49FC0C801049786179707A4
:1027F00008F499C002501109061B170B019311939D
:102800006D937C93CF010E9425138DC05B01A01AAC
:10281000B10A4C01800E911EA0913307B09134078C
:1028200040E050E0E12CF12C109709F44AC0A815C3
:10283000B905D1F56D907C901197630182E0C80EC7
:10284000D11CCA14DB0480F1A3014A195B096A0197
:1028500082E0C80ED11C1296BC9012971396AC91D0
:10286000B5E0CB16D10440F0B282A38351834083FC
:10287000D9016D937C930AC00E5F1F4FC301800F77
:10288000911FF90191838083EB2DFA2FE114F1045C
:1028900031F0D7011396FC93EE93129744C0F09356
:1028A0003407E09333073FC08D919C9111974817EF
:1028B000590708F4AC017D0112960D90BC91A02D32
:1028C000B3CF809131079091320788159905E1F4D3
:1028D00046175707C8F480910302909104020097AD
:1028E00041F48DB79EB74091070250910802841BB6
:1028F000950BE817F907C8F4F0933207E093310716
:10290000F901718360830FC0CB010E9490127C019A
:10291000009759F0A801BE010E94AB14CE010E949D
:102920002513C70104C0CE0102C080E090E0DF9112
:10293000CF911F910F91FF90EF90DF90CF90BF90BC
:10294000AF909F908F907F906F90089581E090E07E
:10295000F8940C94BB14FB01DC0102C001900D92B1
:1029600041505040D8F70895FB01DC0101900D92D1
:102970000020E1F7089511E0CEE5D1E000E006C0C7
:10298000802FFE010E9488122196011DCF35D107AC
:0A29900080E00807A9F7F894FFCFD4
:10299A00FF7D00000035072000000000001308E357
:1029AA00075203BD07DB07CC07BE0700000000B1D2
:1029BA0002F1013502F802660244025802000000E0
:1029CA00001F06F10152035103000000009503F1B4
:1029DA0001520351030D0A00536572766F20616E2E
:1029EA00676C65206973206F7574206F6620726149
:0629FA006E67652100007C
:00000001FF
