:100000000C9493010C94C4010C94C4010C94C4018D
:100010000C94C4010C94C4010C94C4010C94C4014C
:100020000C94C4010C94D60F0C94D60F0C94D60FDC
:100030000C94C4010C94DD0A0C94C4010C94C4010A
:100040000C94C4010C9439070C94C4010C94C401A1
:100050000C94C4010C94C4010C94C4010C94E111DF
:100060000C94C4010C94B2040C9488040C94C40144
:100070000C94C4010C94C4010C94C4010C94C401EC
:100080000C94C4010C94C4010C94C4010C94C401DC
:100090000C945E040C9434040C94C4010C94E00F92
:1000A0000C94C4010C94C4010C94C4010C94C401BC
:1000B0000C94C4010C94C4010C94C4010C9462050A
:1000C0000C94C4010C94C4010C94C4010C940A0453
:1000D0000C94E0030C94C4010C94B6030C948C03B0
:1000E0000C94C401800685068A0694069E061707AE
:1000F000A806B006B806C206CC06D606E506EF0688
:100100001707F90603070D07760F790F680F6C0FB5
:10011000720FB00F7D0F810F870F8B0F8F0F950F11
:10012000990F9D0FB00FA30FA70FAB0F0C94720F79
:100130000C942D020C9485060C942C0F0C94B00694
:100140000C948B0F0C94A30F0C94D70E0C94F40EFC
:100150000C94A70F0C94990F0C9480060C940A022F
:100160000C94A8060C940B170C94AB0F0C949406EB
:100170000C94810F0C948A060C9403070C94790F4D
:100180000C948F0F0C94680F0C94EF060C94FC0EDB
:100190000C94870F0C943B020C94B8060C94D70275
:1001A0000C9425030C94E5060C94CC060C94760F65
:1001B0000C94F9060C9419020C94D60E0C9490022F
:1001C0000C942B120C94C2060C9426030C946C0F06
:1001D0000C9417070C945C050C94E50E0C94D60651
:1001E0000C947D0F0C94950F0C94C6010C949E06F4
:1001F0000C94B00F0C940D070C9467030C949D0F96
:100200000200002100240027002A002D00300033C6
:100210000001010000040107010A0100002200257D
:100220000028002B002E00310034000201000005E0
:100230000108010B01000020002300260029002CEA
:10024000002F003200000100000301060109010532
:10025000050505070508080808020202020A0A083F
:100260000804040404010101010101010103030365
:100270000303030303040707070C0C0C0C0C0C0C02
:100280000C0202020206060606060606060B0B0B09
:100290000B0B0B0B0B010210202008081020401044
:1002A000204080020102010804020101020408103A
:1002B0002040808040201008040201800402018058
:1002C0004020100804020108040201010204081081
:1002D000204080010204081020408000000A0B0228
:1002E000090C0D0E080703040100000000000000C7
:1002F00000000000000000000000000000000000FE
:1003000000000000000000121110000000000000BA
:1003100000000000000000000000000000000000DD
:1003200000000B172B1211241FBECFEFD1E2DEBF4E
:10033000CDBF00E00CBF12E0A0E0B2E0E6E7FCE3D6
:1003400000E00BBF02C007900D92A836B107D9F7A5
:1003500028E0A8E6B2E001C01D92AD31B207E1F796
:1003600011E0C2E9D1E000E006C021970109802F29
:10037000FE010E94DC1AC139D10780E00807A9F705
:100380000E9431120C94291E0C940000CF92DF922F
:10039000EF92FF920F931F93CF93DF936C017A013B
:1003A0008B01C0E0D0E0CE15DF0589F0D8016D915A
:1003B0008D01D601ED91FC910190F081E02DC601F7
:1003C0001995892B11F47E0102C02196ECCFC7014B
:1003D000DF91CF911F910F91FF90EF90DF90CF9021
:1003E0000895FC01A089B1898C91A689B78982FD05
:1003F0000FC09C91818D8F5F8F73228D821749F082
:10040000218DDF01A20FB11D5D969C93818F089510
:100410008C910895FC01538D448D252F30E0842F5D
:1004200090E0821B930B541710F0CF96089501971C
:100430000895FC01918D828D981761F0828DDF0106
:10044000A80FB11D5D968C91928D9F5F9F73928FC7
:1004500090E008958FEF9FEF0895FC01918D828DBC
:10046000981731F0828DE80FF11D858D90E0089589
:100470008FEF9FEF0895FC01918D228D892F90E0E1
:10048000805C9F4F821B91098F73992708958AE2A0
:1004900093E00E943B0221E0892B09F420E0822FA7
:1004A000089587EC93E00E943B0221E0892B09F438
:1004B00020E0822F089584E694E00E943B0221E030
:1004C000892B09F420E0822F089581E095E00E94B5
:1004D0003B0221E0892B09F420E0822F0895FC01E2
:1004E000848DDF01A80FB11DA35ABF4F2C91848DBD
:1004F00090E001968F739927848FA689B7892C93F2
:10050000A089B1898C9180648C93938D848D98138C
:1005100006C00288F389E02D80818F7D8083089555
:10052000EF92FF920F931F93CF93DF93EC0181E043
:10053000888F9B8D8C8D981305C0E889F9898081FF
:1005400085FD24C0F62E0B8D10E00F5F1F4F0F733B
:100550001127E02E8C8DE8120CC00FB607FCFACFE5
:10056000E889F989808185FFF5CFCE010E946F026D
:10057000F1CF8B8DFE01E80FF11DE35AFF4FF082A2
:100580000B8FEA89FB898081806207C0EE89FF8931
:100590006083E889F98980818064808381E090E0CC
:1005A000DF91CF911F910F91FF90EF900895CF931E
:1005B000DF93EC01888D8823C9F0EA89FB8980816B
:1005C00085FD05C0A889B9898C9186FD0FC00FB63D
:1005D00007FCF5CF808185FFF2CFA889B9898C917E
:1005E00085FFEDCFCE010E946F02E7CFDF91CF9163
:1005F0000895E0E0F0E0199480E090E0892B21F08C
:100600000E946502811115C080E090E0892B21F0E5
:100610000E945B02811110C00E94510281110FC023
:1006200080E090E0892B81F00E94470281110AC08E
:1006300008950E940000E8CF0E940000EDCF0E94C4
:10064000F902EECF0C9400000895089580E090E048
:100650000895CF93DF93EC0160E08E810E943B11FF
:1006600061E08E810E943B1160E08E810E943B110F
:100670008BE891E00197F1F7DF91CF910895FC01AC
:10068000248131E03093FA0220931C031092FB0284
:1006900010921D038485682B8EE193E00E942C0F3D
:1006A0000C94C90C0F931F93CF938C01C62F6460D9
:1006B0000E943F036C2F6B7FC8010E943F0383ECB5
:1006C00090E00197F1F7CF911F910F9108950F934B
:1006D0001F93CF93DF938C01C62FD62FD07FD1608D
:1006E0006D2F0E943F036D2FC8010E94520380E1CD
:1006F000C89FB0011124C62FC1606C2FC8010E9491
:100700003F036C2FC8010E94520381E090E0DF910B
:10071000CF911F910F9108951F920F920FB60F92D4
:1007200011240BB60F922F933F934F935F936F93C8
:100730007F938F939F93AF93BF93EF93FF938AE23F
:1007400093E00E946F02FF91EF91BF91AF919F9153
:100750008F917F916F915F914F913F912F910F906A
:100760000BBE0F900FBE0F901F9018951F920F9207
:100770000FB60F9211240BB60F922F933F934F9306
:100780005F936F937F938F939F93AF93BF93EF93F9
:10079000FF938AE293E00E94F101FF91EF91BF91F4
:1007A000AF919F918F917F916F915F914F913F9109
:1007B0002F910F900BBE0F900FBE0F901F901895AA
:1007C0001F920F920FB60F9211240BB60F922F9318
:1007D0003F934F935F936F937F938F939F93AF93C9
:1007E000BF93EF93FF9387EC93E00E946F02FF911A
:1007F000EF91BF91AF919F918F917F916F915F9199
:100800004F913F912F910F900BBE0F900FBE0F9005
:100810001F9018951F920F920FB60F9211240BB6CE
:100820000F922F933F934F935F936F937F938F9389
:100830009F93AF93BF93EF93FF9387EC93E00E9456
:10084000F101FF91EF91BF91AF919F918F917F91B6
:100850006F915F914F913F912F910F900BBE0F9031
:100860000FBE0F901F9018951F920F920FB60F9208
:1008700011240BB60F922F933F934F935F936F9377
:100880007F938F939F93AF93BF93EF93FF9384E6F0
:1008900094E00E946F02FF91EF91BF91AF919F9101
:1008A0008F917F916F915F914F913F912F910F9019
:1008B0000BBE0F900FBE0F901F9018951F920F92B6
:1008C0000FB60F9211240BB60F922F933F934F93B5
:1008D0005F936F937F938F939F93AF93BF93EF93A8
:1008E000FF9384E694E00E94F101FF91EF91BF91A4
:1008F000AF919F918F917F916F915F914F913F91B8
:100900002F910F900BBE0F900FBE0F901F90189558
:100910001F920F920FB60F9211240BB60F922F93C6
:100920003F934F935F936F937F938F939F93AF9377
:10093000BF93EF93FF9381E095E00E946F02FF91D8
:10094000EF91BF91AF919F918F917F916F915F9147
:100950004F913F912F910F900BBE0F900FBE0F90B4
:100960001F9018951F920F920FB60F9211240BB67D
:100970000F922F933F934F935F936F937F938F9338
:100980009F93AF93BF93EF93FF9381E095E00E9415
:10099000F101FF91EF91BF91AF919F918F917F9165
:1009A0006F915F914F913F912F910F900BBE0F90E0
:1009B0000FBE0F901F901895CF92DF92EF92FF928B
:1009C0000F931F93CF93DF937C016C0187E0C80ED8
:1009D000D11CC0E0D0E0062F10E0B8010C2E02C000
:1009E000759567950A94E2F76170F60181916F0140
:1009F0000E943B112196C430D10579F7C701DF91E0
:100A0000CF911F910F91FF90EF90DF90CF900C94BA
:100A10002903CF92DF92EF92FF920F931F93CF9310
:100A2000DF93EC01F62E642F8C810E943B118D81A7
:100A30008F3F19F060E00E943B118F850F2D10E071
:100A400084FF25C06E0187E0C80ED11CE12CF12C7B
:100A5000B8010E2C02C0759567950A94E2F7617093
:100A6000F60181916F010E943B11FFEFEF1AFF0A1F
:100A700088E0E816F10461F7CE01DF91CF911F9174
:100A80000F91FF90EF90DF90CF900C942903B80165
:100A900084E0759567958A95E1F7CE010E94DC04A4
:100AA0006F2DCE01DF91CF911F910F91FF90EF90AD
:100AB000DF90CF900C94DC0441E00E94090581E0B6
:100AC00090E008951F920F920FB60F9211240BB66B
:100AD0000F922F933F934F935F936F937F938F93D7
:100AE0009F93AF93BF93EF93FF9380919F050E94D5
:100AF00012112091A3053091A4052F5F3F4F309331
:100B0000A4052093A3059091A205953618F096E0D0
:100B100090939E0590919E059430C9F128F49230EF
:100B200069F09330D1F05EC0953009F451C0963031
:100B300009F058C091E090936F0651C0811152C0E6
:100B40002091A3053091A4052436310508F442C054
:100B500010926F061092A2051CC0813009F042C0AD
:100B6000E091A20591E09E0F9093A205F0E0209104
:100B7000A3053091A405EE0FFF1FE256FA4F308710
:100B800027831092A4051092A30594E029C0811137
:100B900017C0E091A20591E09E0F9093A205F0E0AE
:100BA0002091A3053091A405EE0FFF1FE256FA4FE6
:100BB000308727831092A4051092A30593E010C0FC
:100BC0002091A3053091A4052536310558F007C0C2
:100BD000811108C01092A4051092A30503C095E0EE
:100BE00090939E059091A1059923B9F081110AC0B7
:100BF0008091A005882321F08091A00561E009C0C3
:100C00002F9A0BC08091A005882331F08091A00518
:100C100060E00E943B1101C02F98FF91EF91BF91BE
:100C2000AF919F918F917F916F915F914F913F9184
:100C30002F910F900BBE0F900FBE0F901F90189525
:100C40008F929F92AF92BF92CF92DF92EF92FF92DC
:100C50000F931F93CF93DF93EC016A017B0120E098
:100C600030E04FE753E4C701B6010E94B7194B01CA
:100C70005C0120E030E0A9010E94F91B18161CF469
:100C8000C501B40103C0C501B40190580E94C31B43
:100C90008B0120E030E0A901C701B6010E94F91BD9
:100CA000181614F460E001C061E089810E943B11D4
:100CB0000F3F110509F014F4112702C00FEF10E0E7
:100CC000C88161E08C2F0E946B110115110509F498
:100CD000B1C00F3F110509F4AFC0EC2FF0E0E552B1
:100CE000FD4FE4914E2F50E0FA013197E231F105CA
:100CF00008F09DC08827EE58FF4F8F4F0C94DC1AE8
:100D000084B5806884BD07BDA7C084B5806284BDFA
:100D100008BDA2C0809180008068809380001093FD
:100D200089000093880098C0809180008062809341
:100D3000800010938B0000938A008EC08091800009
:100D400088608093800010938D0000938C0084C095
:100D50008091B00080688093B0000093B3007CC0A5
:100D60008091B00080628093B0000093B40074C0A2
:100D70008091900080688093900010939900009378
:100D800098006AC0809190008062809390001093D8
:100D90009B0000939A0060C08091900088608093CF
:100DA000900010939D0000939C0056C08091A0007D
:100DB00080688093A0008091A0008F7B8093A0002A
:100DC0001093A9000093A80047C08091A000806202
:100DD0008093A0001093AB000093AA003DC08091C7
:100DE000A00088608093A0001093AD000093AC0039
:100DF00033C08091200180688093200110932901E5
:100E00000093280129C080912001806280932001F5
:100E100010932B0100932A011FC08091200188604C
:100E20008093200110932D0100932C0115C00038F0
:100E3000110514F460E001C061E08C2FDF91CF91C7
:100E40001F910F91FF90EF90DF90CF90BF90AF90E8
:100E50009F908F900C943B11DF91CF911F910F9138
:100E6000FF90EF90DF90CF90BF90AF909F908F90CA
:100E700008951F920F920FB60F9211240BB60F9286
:100E80002F933F934F935F936F937F938F939F9392
:100E9000AF93BF93EF93FF938091680287FF05C0E4
:100EA000109285001092840016C020916802022ED4
:100EB000000C330B8091AC0690E0281739075CF4E6
:100EC0003091680225E03203F0011124E059F94F16
:100ED000808186FD15C0809168028F5F80936802D3
:100EE00020916802022E000C330B8091AC0690E03A
:100EF0002817390794F4809168028C302CF10DC0CA
:100F0000309168023203F0011124E059F94F8081D9
:100F100060E08F730E943B11DECF8091840090913E
:100F2000850084349C4918F480E49CE905C08091D4
:100F300084009091850004969093890080938800A6
:100F40008FEF809368022AC0409184005091850001
:100F50003091680225E03203F0011124E059F94F85
:100F600081819281840F951F9093890080938800DE
:100F7000309168023203F0011124E059F94F808169
:100F800086FF0CC0309168023203F0011124E05951
:100F9000F94F808161E08F730E943B11FF91EF91C7
:100FA000BF91AF919F918F917F916F915F914F9181
:100FB0003F912F910F900BBE0F900FBE0F901F907F
:100FC00018958EBD00000DB407FEFDCF8EB50895B7
:100FD000CF93DF93EC0160E088810E943B1188E9A8
:100FE0000E94E10780E00E94E10780E00E94E107A3
:100FF00080E00E94E10780E00E94E10761E08881D3
:101000000E943B118BE891E00197F1F760E0888145
:101010000E943B1180EE0E94E10761E08881DF9130
:10102000CF910C943B11AF92BF92CF92DF92EF928F
:10103000FF920F931F93CF93DF93CDB7DEB76097E7
:101040000FB6F894DEBF0FBECDBF5C0160E0FC01BF
:1010500080810E943B1180E60E94E1078E010F5FB4
:101060001F4F7E01F1E1EF0EF11C680180E00E944C
:10107000E10790E0A0E0B0E0F60181939193A193A5
:10108000B1936F01EE15FF0589F761E0F5018081ED
:101090000E943B1180E090E0DC01F8014191519108
:1010A000619171918F01BA2FA92F982F8827840FF2
:1010B000951FA61FB71FEE15FF0579F79C01AD011F
:1010C00066277727CB01621B730B840B950B609609
:1010D0000FB6F894DEBF0FBECDBFDF91CF911F9149
:1010E0000F91FF90EF90DF90CF90BF90AF90089559
:1010F0006091B70770E08FEB97E00E946E0C64E69A
:1011000070E080E090E00E94A71180910002909131
:1011100001028D37910564F401969093010280934A
:1011200000020E946D0D64E170E080E090E0EBCF82
:1011300064E170E080E090E00C94A7111F93CF93DE
:10114000DF938DE790E0909301028093000260911D
:10115000B70770E08FEB97E00E946E0C8DE70E945E
:101160006D0D64E670E080E090E00E94A711C1E0A0
:10117000D0E015E0C130D105C9F5809100020E9490
:101180006D0D64E170E080E090E00E94A71180E3C3
:101190000E941211892B91F4E091BF071E9FF0016C
:1011A0001124E059F94F80818F7B80838091000268
:1011B000909101020E94740EC0E0D0E08091000284
:1011C00090910102019790930102809300024B9746
:1011D00089F6E091BF071E9FF0011124E059F94FF5
:1011E00080818F7B8083C0E0D0E0C4CFE091BF07D7
:1011F00085E0E89FF0011124E059F94F80818F7B51
:101200008083DF91CF911F91089540E050E0BA01B3
:1012100087EA97E00E94200640E050E060E070E836
:1012200089EA97E00E9420068BEA97E00E94E8078F
:101230008DEA97E00E94E80766E970E080E090E0C0
:101240000C94A7114F925F926F927F928F929F9210
:10125000AF92BF92CF92DF92EF92FF92CF93DF9344
:1012600028EF32EC4EE653E40E94511B20E030E0C0
:1012700048E455E40E94B7196B017C01C0E0D0E05E
:101280008BEA97E00E941308909580957095619580
:101290007F4F8F4F9F4F0E945819A70196010E94C0
:1012A000511918160CF433C18BEA97E00E94130809
:1012B00090958095709561957F4F8F4F9F4F97FFC9
:1012C00003C00E944D0E03C04AE00E940C0E85E44C
:1012D00092E00E944E0C209731F5812C912C540104
:1012E000C4E1D0E02AE037ED43E25CE3C501B4019C
:1012F0000E94E51A4B015C01AB01BC0187EA97E053
:101300000E942006B501A401705889EA97E00E9466
:10131000200663E270E080E090E00E94A711219730
:1013200009F7C1E0D0E08BEA97E00E94130890959E
:101330008095709561957F4F8F4F9F4F0E945819F0
:101340004B015C0126E636E646EA5FE3C701B601DB
:101350000E94511B9B01AC01C501B4010E94F91B05
:1013600087FD67C08BEA97E00E9413084B015C0180
:101370008DEA97E00E9413082B013C01662777272E
:10138000CB01681979098A099B090E9458194B01F8
:101390005C01C301B2010E9458199B01AC01C50157
:1013A000B4010E94E41A4B015C014DEC5CEC6CE46E
:1013B0007EE387EA97E00E9420062FE832EC45EFB3
:1013C0005CE3C501B4010E94B7192B013C012DEC6F
:1013D0003CEC4CEC5DE3C501B4010E94B71920E080
:1013E00030E0A9010E94E51A20E030E0A9010E9446
:1013F000B7199B01AC01C301B2010E94E51A20E0BC
:1014000030E048EC52E40E94511B2DEC3CEC4CE4E3
:101410005EE30E94E51AAB01BC01705889EA97E0CF
:101420000E94200664E670E080E090E00E94A71130
:101430006BC0C130D10509F067C08BEA97E00E940C
:1014400013084B015C018DEA97E00E9413082B0101
:101450003C0166277727CB01681979098A099B091E
:101460000E9458194B015C01C301B2010E94581936
:101470009B01AC01C501B4010E94E41A4B015C015F
:101480004DEC5CEC6CE47EE387EA97E00E9420067A
:101490002FE832EC45EF5CE3C501B4010E94B719B7
:1014A0002B013C012DEC3CEC4CEC5DE3C501B4019F
:1014B0000E94B71920E030E0A9010E94E51A20E05F
:1014C00030E0A9010E94B7199B01AC01C301B20130
:1014D0000E94E51A20E030E048EC52E40E94511BE3
:1014E0002DEC3CEC4CE45EE30E94E51AAB01BC0140
:1014F000705889EA97E00E94200664E670E080E078
:1015000090E00E94A711BCCEC2E0D0E0B9CEDF913E
:10151000CF91FF90EF90DF90CF90BF90AF909F90D2
:101520008F907F906F905F904F900C9405099091F1
:10153000020298133DC0E0E0F2E0E4919FEF909347
:101540000202E230C9F050F4EE2399F0E13081F567
:1015500090916F009D7F90936F002AC0E43019F145
:10156000E0F0E53029F5909173009D7F9093730032
:101570001FC010926E001CC0909170009D7F9093D0
:10158000700091E09093B0009091B100987F9460CA
:101590009093B1001092B3000BC0909171009D7FA9
:1015A0009093710005C0909172009D7F909372009E
:1015B00060E00C943B110E94141E1F920F920FB614
:1015C0000F9211240BB60F922F933F934F935F937B
:1015D0006F937F938F939F93AF93BF93EF93FF93FB
:1015E0008091880290918902A0918A02B0918B0229
:1015F000892B8A2B8B2B51F180917302E09174021D
:10160000F091750290818927808380918802909162
:101610008902A0918A02B0918B02181619061A0647
:101620001B06C4F48091880290918902A0918A02DD
:10163000B0918B020197A109B10980938802909320
:101640008902A0938A02B0938B0204C080910202A7
:101650000E94970AFF91EF91BF91AF919F918F9157
:101660007F916F915F914F913F912F910F900BBEA2
:101670000F900FBE0F901F901895EF92FF920F934F
:101680001F93CF93DF93EC01623018F08F85886051
:101690008F876B8B1C8A80E48D8B80E18E8B80E53D
:1016A0008F8B61E08C810E946B118D818F3F19F0CF
:1016B00061E00E946B1161E08E810E946B117E01DE
:1016C00087E0E80EF11C00E010E08F8584FD03C088
:1016D00084E090E002C088E090E0081719074CF41D
:1016E00061E0F70181917F010E946B110F5F1F4F35
:1016F000ECCF8BE39DE00197F1F760E08C810E94D5
:101700003B1160E08E810E943B118D818F3F19F06B
:1017100060E00E943B116F8564FD1DC063E0CE0157
:101720000E94DC040BE416E4C8010197F1F763E0C2
:10173000CE010E94DC04C8010197F1F763E0CE01FD
:101740000E94DC0483E592E00197F1F762E0CE01AC
:101750000E94DC0419C0606240E0CE010E940905CD
:101760008BE496E40197F1F76F85606240E0CE016B
:101770000E94090583E592E00197F1F76F856062A9
:1017800040E0CE010E9409056F85606240E0CE0115
:101790000E94090584E0888B40E06CE0CE010E9445
:1017A000090540E061E0CE010E9409058BE39FE15D
:1017B0000197F1F782E0898B40E066E0CE01DF918E
:1017C000CF911F910F91FF90EF900C940905CF924C
:1017D000DF92EF92FF920F931F93CF93DF93EC0171
:1017E0006A017B01E889F98982E080834115514EC5
:1017F00061057105B1F060E079E08DE390E0A7014B
:1018000096010E949F1A89019A010150110921092C
:1018100031093695279517950795980101151041BF
:10182000A8F0E889F989108260E874E88EE190E018
:10183000A70196010E949F1ADA01C9010197A10927
:10184000B109B695A795979587959C01EC85FD857F
:101850003083EE85FF852083188EEC89FD8986E034
:101860008083EA89FB89808180618083EA89FB89A2
:10187000808188608083EA89FB8980818068808399
:10188000EA89FB8980818F7D8083DF91CF911F91D1
:101890000F91FF90EF90DF90CF900895009769F03F
:1018A000FC0101900020E9F73197AF01481B590B6B
:1018B000BC0181E095E00C94C60180E090E00895C1
:1018C000CF93DF930E944E0CEC0185E492E00E94DE
:1018D0004E0C8C0F9D1FDF91CF9108951F93CF93D6
:1018E000DF93EC01162F88818C3008F04DC061E049
:1018F000812F0E946B11E88195E09E9FF0011124D9
:10190000E059F94F1F738081807C182B108313825C
:10191000E8819E9FF0011124E059F94F14828881DB
:101920006CE00E94D01A9CE0899FA001112420E065
:1019300030E095E0B901640F751F969FF001979F05
:10194000F00D1124E059F94F608166FD13C02F5F3F
:101950003F4F2C30310571F781110CC0109280007F
:1019600082E080938100109285001092840086BBF3
:1019700080936F00E88185E0E89FF0011124E05931
:10198000F94F8081806480838881DF91CF911F919E
:10199000089520911D0390911C03213208F04AC044
:1019A0008091F9028111FCCF32E03093F90231E0ED
:1019B0003093F8023FEF3093F7021092F602209333
:1019C000F502ACEFB2E045ED52E0FA013E2F341BD8
:1019D000321718F43D913193F9CF1092D40220912F
:1019E000D402990F922B9093D4029091D30291300C
:1019F00061F41092D3029091D4029093BB00909125
:101A0000BC0093FDF8CF95EC01C095EE9093BC001F
:101A10009091F9029230E1F39091F7029F3F79F0B3
:101A20008091F702803241F08091F702803331F0EB
:101A300084E005C081E003C082E001C083E0109231
:101A4000FB0210921D031092FA020895EF92FF928A
:101A50001F93CF93DF931F92CDB7DEB7162F9EE86B
:101A6000E92E97E0F92ED7011C969C911C9721E056
:101A70002093FA0290931C031092FB0210921D0314
:101A80001A960D90BC91A02DED91FC9111970190AB
:101A9000F081E02D682FCD0179831995F7018285BA
:101AA0009385DC01ED91FC910190F081E02D79812D
:101AB000672F1995F70182859385DC01ED91FC91E3
:101AC0000190F081E02D612F19950F90DF91CF915A
:101AD0001F91FF90EF900C94C90CCF92DF92EF9280
:101AE000FF92CF93DF939091B907891720F09091DF
:101AF000BA07981750F48AE492E0DF91CF91FF90F3
:101B0000EF90DF90CF900C94600CC091BF07CC3069
:101B100008F07BC0282F30E0D0E0283C3105E4F508
:101B200095E09C9FF0019D9FF00D1124E059F94F25
:101B3000938128E830E06901C91AD10897FDD39450
:101B4000CC0CDD1CCC0CDD1C0D2C000CEE08FF08B1
:101B5000948128E532E0291B310997FD3395220F46
:101B6000331F220F331FA901330F660B770B9A0126
:101B7000AB012C193D094E095F09A82FB0E00E9466
:101B8000941A24EB30E040E050E00E94751AC20E37
:101B9000D31EE41EF51E27C085E08C9FF0018D9FAB
:101BA000F00D1124E059F94F838148E850E06A01B3
:101BB000C81AD10887FDD394CC0CDD1CCC0CDD1CDD
:101BC0002C153D0584F0448188E592E0841B910941
:101BD00047FD9395880F991F880F991F69018C15F0
:101BE0009D050CF46C018FB7F89495E09C9FF00173
:101BF0009D9FF00D1124E059F94F96E0C91AD108C4
:101C0000CC0CDD1CD282C1828FBFDF91CF91FF90BF
:101C1000EF90DF90CF9008958F929F92AF92BF92F6
:101C20000F931F93CF93DF93CDB7DEB7A1970FB676
:101C3000F894DEBF0FBECDBF19A2423008F44AE0CF
:101C40008E010F5D1F4F842E912CA12CB12CA5016C
:101C500094010E949F1AE62FB901CA01015011098F
:101C6000EA3014F4E05D01C0E95CD801EC93232B69
:101C7000242B252B61F7C8010E944E0CA1960FB6AC
:101C8000F894DEBF0FBECDBFDF91CF911F910F91B2
:101C9000BF90AF909F908F900895CF92DF92EF9278
:101CA000FF92CF93DF936B017C01E0910105F091EE
:101CB00002050190F081E02D6DE281E095E019953B
:101CC000EC0166277727CB016C197D098E099F09E6
:101CD0004AE00E940C0E8C0F9D1FDF91CF91FF9068
:101CE000EF90DF90CF900895CF93DF93BC01990FD1
:101CF000880B990B97FF03C00E944D0E03C04AE06A
:101D00000E940C0EEC0185E492E00E944E0C8C0FB8
:101D10009D1FDF91CF91089580917B00877F8093F5
:101D20007B0086E480937C0080917A0080648093BD
:101D30007A0080917A0086FDFCCF80917800209116
:101D4000790090E0922B089585ED8093BC008091FE
:101D5000BC0084FDFCCF1092F90208954091F20777
:101D6000262F30E0240F311D21323105DCF4209183
:101D7000F9022430C9F4FC0180E090E0861758F4A1
:101D80003091F2072191DC01A053B84FA30FB11D90
:101D90002C930196F3CF8091F207680F6093F207BE
:101DA00080E0089581E0089582E00895089581E03B
:101DB00090E03091CA072091C907321710F480E0F3
:101DC00090E091958195910908958091CA0790912D
:101DD000C907891730F48F5F8093CA0780E090E0CD
:101DE00008958FEF9FEF08958091C90790E02091AB
:101DF000CA07821B91090895CF92DF92EF92FF925A
:101E00000F931F93CF93DF937C01262F972F8A0187
:101E10008091FA02882391F0C62FD72F6E01C40E4D
:101E2000D51ECC15DD0571F06991D701ED91FC91BE
:101E30000190F081E02DC7011995F3CF642F822F17
:101E40000E94AE0EC801DF91CF911F910F91FF90BC
:101E5000EF90DF90CF900895CF93DF931F92CDB78F
:101E6000DEB769832091FA022223D1F020911D036D
:101E7000203240F021E030E0FC013383228380E017
:101E800090E015C08091FB02E82FF0E0E450FD4F98
:101E9000998190838F5F8093FB0280931D0305C01F
:101EA00061E0CE0101960E94AE0E81E090E00F90BD
:101EB000DF91CF91089590E0FC013197E231F10577
:101EC00008F04EC08827EC57FF4F8F4F0C94DC1A58
:101ED000809180008F7703C0809180008F7D8093F8
:101EE0008000089580918000877FF9CF84B58F7737
:101EF00002C084B58F7D84BD08958091B0008F7736
:101F000003C08091B0008F7D8093B00008958091D0
:101F100090008F7707C0809190008F7D03C08091E3
:101F20009000877F8093900008958091A0008F7724
:101F300007C08091A0008F7D03C08091A000877FA3
:101F40008093A0000895809120018F7707C0809131
:101F500020018F7D03C080912001877F8093200125
:101F600008953FB7F8948091CC079091CD07A09148
:101F7000CE07B091CF0726B5A89B05C02F3F19F01B
:101F80000196A11DB11D3FBFBA2FA92F982F8827F9
:101F9000820F911DA11DB11DBC01CD0142E0660F54
:101FA000771F881F991F4A95D1F708951F920F92A6
:101FB0000FB60F9211240F900FBE0F901F9018951F
:101FC0001F920F920FB60F9211240BB60F922F9300
:101FD0003F934F935F936F937F938F939F93AF93B1
:101FE000BF93EF93FF938091B900887F803609F407
:101FF0009CC068F5883209F45BC090F4803109F424
:1020000054C038F4882309F4F6C0883009F44DC070
:10201000F6C0883109F44CC0803209F45DC0EFC0CD
:10202000803409F468C048F4803309F455C088331B
:1020300009F0E5C08093F702D8C0803509F44FC09D
:10204000883509F45DC0883409F0D9C0D6C0883914
:1020500009F4C7C0A8F4883709F467C038F4883693
:1020600009F463C0803709F460C0C9C0883809F436
:10207000B8C0803909F45FC0803809F0C0C05BC0C7
:10208000803B09F486C038F4803A09F466C0883A87
:1020900009F47FC0B4C0803C09F4A7C0883C09F4AF
:1020A000A4C0883B09F48AC0AAC08091D40210C0A1
:1020B0009091F6028091F502981770F5E091F60282
:1020C00081E08E0F8093F602F0E0EB52FD4F8081AD
:1020D0008093BB0085EC86C08093F7028EC0E091B0
:1020E000F60281E08E0F8093F6028091BB00F0E053
:1020F000EB52FD4F80839091F6028091F5026EC005
:10210000E091F60281E08E0F8093F6028091BB0091
:10211000F0E0EB52FD4F80838091F80281116DC099
:1021200081E08093D30284EA61C083E08093F90266
:1021300010921608CFCF80911608803208F051C057
:10214000E091160881E08E0F809316088091BB0005
:10215000F0E0EA50F84F8083BDCF85EC8093BC005F
:102160001092F90280911608803230F4E09116083E
:10217000F0E0EA50F84F10826091160870E0E091AC
:10218000F407F091F50786EF97E01995109216087D
:1021900036C084E08093F9021092F3071092F207A0
:1021A000E091F007F091F10719958091F207811104
:1021B00005C081E08093F2071092D007E091F30709
:1021C00081E08E0F8093F307F0E0E053F84F8081B9
:1021D0008093BB009091F3078091F207981708F461
:1021E00079CF85E88093BC000AC085EC8093BC0061
:1021F0001092F90204C01092F7020E94A40EFF91FF
:10220000EF91BF91AF919F918F917F916F915F916E
:102210004F913F912F910F900BBE0F900FBE0F90DB
:102220001F901895CF93DF93282F30E0F901E552E6
:10223000FD4F8491F901EB56FD4FD491F901E15B1B
:10224000FD4FC491CC2391F081110E945B0FEC2FC4
:10225000F0E0EE0FFF1FEB5CFD4FA591B491EC9108
:10226000ED2381E090E021F480E002C080E090E086
:10227000DF91CF9108951F93CF93DF93282F30E004
:10228000F901E552FD4F8491F901EB56FD4FD491D0
:10229000F901E15BFD4FC491CC23C9F0162F8111E8
:1022A0000E945B0FEC2FF0E0EE0FFF1FE55EFD4F8D
:1022B000A591B4918FB7F894111105C09C91ED2FA1
:1022C000E095E92302C0EC91ED2BEC938FBFDF91F9
:1022D000CF911F910895CF93DF9390E0FC01EB56CF
:1022E000FD4F2491FC01E15BFD4F8491882361F156
:1022F00090E0880F991FFC01EF5FFD4FC591D491CD
:10230000FC01E55EFD4FA591B491611109C09FB735
:10231000F8948881209582238883EC912E230BC02A
:10232000623061F49FB7F8943881822F80958323BF
:102330008883EC912E2B2C939FBF06C08FB7F89407
:10234000E8812E2B28838FBFDF91CF9108958F9244
:102350009F92AF92BF92CF92DF92EF92FF926B016A
:102360007C010E94B10F4B015C01C114D104E10456
:10237000F104F1F00E94B10FDC01CB018819990939
:10238000AA09BB09883E9340A105B10570F321E07D
:10239000C21AD108E108F10888EE880E83E0981E81
:1023A000A11CB11CC114D104E104F10419F7DDCF63
:1023B000FF90EF90DF90CF90BF90AF909F908F9065
:1023C00008951F920F920FB60F9211242F933F93EF
:1023D0008F939F93AF93BF938091C5079091C6074A
:1023E000A091C707B091C8073091CB0723E0230F16
:1023F0002D3720F40196A11DB11D05C026E8230F3D
:102400000296A11DB11D2093CB078093C507909321
:10241000C607A093C707B093C8078091CC079091D7
:10242000CD07A091CE07B091CF070196A11DB11D98
:102430008093CC079093CD07A093CE07B093CF079E
:10244000BF91AF919F918F913F912F910F900FBEB0
:102450000F901F9018958091C5069091C6060C9418
:10246000931C789484B5826084BD84B5816084BDFA
:1024700085B5826085BD85B5816085BD80916E0022
:10248000816080936E001092810080918100826053
:102490008093810080918100816080938100809190
:1024A00080008160809380008091B100846080937F
:1024B000B1008091B00081608093B0008091910064
:1024C000826080939100809191008160809391005F
:1024D000809190008160809390008091A100826043
:1024E0008093A1008091A10081608093A1008091E0
:1024F000A00081608093A000809121018260809380
:10250000210180912101816080932101809120012E
:1025100081608093200180917A00846080937A00AA
:1025200080917A00826080937A0080917A00816045
:1025300080937A0080917A00806880937A0010926C
:10254000C10040E855E260E070E081E095E00E9463
:10255000E70B61E080918F070E946B1160E0809132
:102560008F070E943B1160E080918E070E946B11E3
:102570008EE193E090939907809398071092CA0791
:102580001092C9071092FB0210921D031092F902DB
:1025900081E08093F8021092D30261E084E10E940E
:1025A0003B1161E085E10E943B118091B9008E7F73
:1025B0008093B9008091B9008D7F8093B90088E441
:1025C0008093B80085E48093BC0080E090E1A0E0B7
:1025D000B0E080939B0790939C07A0939D07B093D6
:1025E0009E078AE090E0A0E0B0E080939F07909380
:1025F000A007A093A107B093A20780E090E0A0E01D
:10260000B0E48093A3079093A407A093A507B09389
:10261000A60760E070E185E00E94260D6FE979E38E
:1026200080E00E94260DCBEAD7E0C12CD12CE12C12
:10263000F12C14E8412E12E0512E0AEC802E02E01B
:10264000902E8BECA82E87E0B82EC7018257984FAA
:102650003C01DC0114969C91149712968C91860192
:102660000257184FF801818F928F61E00E946B1121
:1026700061E0D8015A968C910E946B11F30190850C
:1026800086818883D8015E969C9361E00E946B11DD
:1026900060E0F801868D0E946B1161E088810E94E4
:1026A0003B111FB7F89480916902811125C0F20196
:1026B0008491F4019491E82FF0E0EE0FFF1FEF5F9B
:1026C000FD4FA591B4918C91982321F461E085E3AD
:1026D0000E943B1161E085E30E946B118CB5806123
:1026E0008CBD8CB580648CBD61E084E30E946B116D
:1026F00061E083E30E946B11809169028F5F809398
:1027000069021FBFC5010197F1F760E088810E944F
:102710003B1188E80E94E10783E00E94E10761E045
:1027200088810E943B11C5010197F1F7CE010E94FB
:10273000E807F2E0CF0ED11C2296EA94EF2821F0B0
:10274000EE24E394F12C81CFC3EBD7E01C2F1C5F68
:1027500060E089910E946B111C13FACF02EC17E024
:10276000CDEBD7E0FC2EF394F394FE013697608115
:1027700070E0CE0102960E946E0C9991FE01339793
:102780008081F80131978083D8019C9360E00E949A
:102790006B1161E0F80180810E946B1160E0D8014B
:1027A0008C910E943B110E5F1F4FFC12DECFF894FC
:1027B0001092200189E08093210180E293E09093C0
:1027C000290180932801109225011092240182E0B2
:1027D00080937300789480939E051092A205809157
:1027E0009F0560E00E946B1140E855E260E070E0F8
:1027F00081E095E00E94E70B40E051EE60E070E080
:1028000084E694E00E94E70B60E080E40E946B1194
:1028100060E08FE30E946B1160E08CE30E946B111B
:1028200060E08DE30E946B1160E08EE30E946B110B
:1028300062E080E30E946B1160E082E00E946B1115
:1028400060E083E00E946B1160E084E00E946B1105
:1028500060E085E00E946B1160E08BE00E946B11EC
:1028600060E08CE00E946B1162E08DEA96E00E94CD
:102870003D0B60E08CE20E946B1168E873E180E040
:1028800090E00E94A71169E6A62E6AE0B62E70E0DD
:10289000272E72E0372EEBE74E2EE2E05E2EC1ECE3
:1028A000D2E0F8EBCF2EFBE0DF2EE12CF12C0E94E2
:1028B0008C0E843691050CF0A7C100E010E00E9458
:1028C0008C0E4C010F5F1F4FC8010E94740EE4E68E
:1028D0008E16910424F4093C110589F70FC0093CB8
:1028E000110561F091C18F3FA9F068EE73E080E0BF
:1028F00090E00E94A7110E948C0E4C01F4E68F1606
:1029000091040CF081C1809102028C3261F7F101D7
:102910001491DFC08CE280930202F10114911F3FF9
:1029200021F3123009F46FC044F5112309F44FC0AC
:10293000113009F0CEC01092800010928100809179
:102940008100886080938100809181008160809304
:102950008100F2018491E82FF0E0EE0FFF1FE55EA9
:10296000FD4F859194919093780280937702FE01B8
:1029700084918093760211E0AEC0143009F487C0D0
:102980000CF463C0153009F0A4C01092200110921D
:102990002101809121018860809321018091210192
:1029A000816080932101F2018491E82FF0E0EE0F25
:1029B000FF1FE55EFD4F8591949190936C0280938B
:1029C0006B02FE01849180936A0215E084C014BCFE
:1029D00015BC84B5826084BD85B5816085BDF2017A
:1029E0008491E82FF0E0EE0FFF1FE55EFD4F85912B
:1029F000949190937B0280937A02FE01849180935C
:102A0000790210E068C01092B0001092B10080917D
:102A1000B00082608093B0008091B10081608093AB
:102A2000B100F2018491E82FF0E0EE0FFF1FE55EA8
:102A3000FD4F859194919093750280937402FE01ED
:102A400084918093730212E046C01092900010921D
:102A50009100809191008860809391008091910015
:102A6000816080939100F2018491E82FF0E0EE0FF5
:102A7000FF1FE55EFD4F85919491909372028093C4
:102A80007102FE0184918093700213E024C01092C1
:102A9000A0001092A1008091A10088608093A10005
:102AA0008091A10081608093A100F2018491E82FC0
:102AB000F0E0EE0FFF1FE55EFD4F8591949190933E
:102AC0006F0280936E02FE01849180936D0214E088
:102AD00002C017FD0ACF61E08CE20E946B11112346
:102AE00009F485C1123009F442C01130C1F480915B
:102AF0008100887F816080938100B0928900A092DC
:102B00008800C0928C02D0928D02E0928E02F092E8
:102B10008F0280916F00826080936F00E6CE133049
:102B200039F480919100887F81608093910036C054
:102B3000143039F48091A100887F81608093A100D6
:102B40003FC0153039F480912101887F81608093E6
:102B5000210148C0133011F12CF4123009F0C5CE18
:102B600089E60CC0143061F11530E1F1BECE8091E0
:102B7000B100887F83608093B10082E58093B300C9
:102B8000C0928802D0928902E0928A02F0928B026F
:102B900080917000826080937000A7CEB0929900FF
:102BA000A0929800C0928402D0928502E0928602A0
:102BB000F09287028091710082608093710095CEBF
:102BC000B092A900A092A800C0928002D092810287
:102BD000E0928202F0928302809172008260809380
:102BE000720083CEB0922901A0922801C0927C028B
:102BF000D0927D02E0927E02F0927F02809173007B
:102C000082608093730071CE8CE20E94970A04E97F
:102C100012E048012FB7F8948091C5079091C6073C
:102C2000A091C707B091C8072FBF80936C04909301
:102C30006D04A0936E04B0936F04E0916404F0916E
:102C400065040284F385E02D84E694E0199597FDF0
:102C500009C0D4018D934D01B4ED8B16B2E09B06F3
:102C6000C9F624C02FB7F8948091C5079091C60784
:102C7000A091C707B091C8072FBF40916C04509135
:102C80006D0460916E0470916F04841B950BA60B0C
:102C9000B70B409168045091690460916A04709187
:102CA0006B0484179507A607B70738F2F8018081EF
:102CB0008332E9F44801612C712CE0910105F09117
:102CC00002050190F081E02DD4016C9181E095E046
:102CD0001995F40111924F01FFEF6F1A7F0A80E4FA
:102CE0006816710451F788E492E00E94600C0F5F4F
:102CF0001F4F92E0043D1907C9F68091B6070E9464
:102D00001211892B09F46AC00E949E0805E010E0A8
:102D100060E070E088E493E40E9422090E94780851
:102D200060E070E087E293E40E9422098BEA97E07A
:102D30000E94130890958095709561957F4F8F4FF5
:102D40009F4F0E94581924E937ED44EC54E40E9447
:102D5000511918168CF04AE959E969E17EE387EACE
:102D600097E00E9420064AE959E969E17EE389EA91
:102D700097E00E942006DACF0E9405098BEA97E0CF
:102D80000E94130890958095709561957F4F8F4FA5
:102D90009F4F0E94581921E433EB47E055EC0E9405
:102DA000F91B87FD11C04DEC5CEC6CE47EEB87EA0F
:102DB00097E00E9420064DEC5CEC6CE47EE389EA2F
:102DC00097E00E942006DACF0E9405090E949E0823
:102DD0000150110909F09CCF0E9478086AE070E068
:102DE00080E090E00E94A7110E94FC0260CD85B5B2
:102DF000887F836085BDA8E2A7BDC0929002D09273
:102E00009102E0929202F092930280916E008260B1
:102E100080936E006ACD109221031092200388EEF9
:102E200093E0A0E0B0E08093220390932303A0936B
:102E30002403B09325032DE032E030931F03209349
:102E40001E0310922D0310922C0380932E03909357
:102E50002F03A0933003B09331032FE132E030937E
:102E60002B0320932A0345E351E05093370340930B
:102E7000360344E351E0509339034093380340E371
:102E800051E050933B0340933A0341E351E05093A8
:102E90003D0340933C0342E351E050933F03409392
:102EA0003E0346E351E050934103409340031092A8
:102EB000430310924403109245031092460310926C
:102EC000CA031092C9038093CB039093CC03A093C1
:102ED000CD03B093CE033093C8032093C70345EDD1
:102EE00050E05093D4034093D30344ED50E050930B
:102EF000D6034093D50340ED50E05093D803409360
:102F0000D70341ED50E05093DA034093D90342EDEB
:102F100050E05093DC034093DB0346ED50E05093C8
:102F2000DE034093DD031092E0031092E103109260
:102F3000E2031092E30310926704109266048093F8
:102F4000680490936904A0936A04B0936B0430936F
:102F50006504209364044DEC50E050937104409359
:102F600070044CEC50E0509373044093720448ECAE
:102F700050E0509375044093740449EC50E0509332
:102F80007704409376044AEC50E0509379044093E0
:102F900078044EEC50E050937B0440937A041092F6
:102FA0007D0410927E0410927F041092800410928F
:102FB0000405109203058093050590930605A093E0
:102FC0000705B0930805309302052093010585ECB1
:102FD00090E090930E0580930D0584EC90E0909323
:102FE000100580930F0580EC90E09093120580937C
:102FF000110581EC90E0909314058093130582EC09
:1030000090E0909316058093150586EC90E09093E0
:1030100018058093170510921A0510921B0510923F
:103020001C0510921D0586E38093AF0787E380930C
:10303000B00788E38093B10789E38093B2078BE1FF
:103040008093B3078DE18093B4078AE18093B5073D
:103050008CE18093B60784E08093B70787E0809384
:10306000B8071092B90784EB8093BA0786E1809382
:10307000BB0788E18093BC0787E18093BD0789E1A6
:103080008093BE07E091AC06EC3020F08FEF809388
:10309000BF0710C081E08E0F8093AC06E093BF079E
:1030A00025E0E29FF0011124E059F94F88EB9BE005
:1030B00092838183E091AC06EC3020F08FEF809317
:1030C000C00710C081E08E0F8093AC06E093C0076C
:1030D00085E0E89FF0011124E059F94F88EB9BE06F
:1030E000928381838CE080938E0784E280938F07A4
:1030F00086E08093900785E0809391078FE180932D
:1031000092078EE18093930783E28093940782E293
:103110008093950785E48093960784E480939707CE
:1031200080E480939A0710929F071092A007109254
:10313000A1071092A2071092A3071092A407109261
:10314000A5071092A607E0EDF6E08FEF9FEFDC01F8
:1031500012821382148215821682178210861186BB
:1031600083879487A587B6878787908BA18BB28B3F
:10317000128611821082739627E0EE38F20741F72B
:103180008DE090E00E94FE1BFC01138212828DE311
:1031900092E091838083118687E2848384E1828731
:1031A00084E083871486F093CD06E093CC061092DA
:1031B000CE061092CF0685E280939F051092A1055E
:1031C0001092C6061092C5061092C8061092C70645
:1031D0001092CA061092C90661E070E080E090E0AB
:1031E0000E942B1D009791F09093C6068093C50610
:1031F0001092C8061092C7062091C9063091CA06DF
:10320000232B09F045C0FC01108242C08091C50605
:103210009091C606009711F00E94931C1092C6066A
:103220001092C5061092CA061092C9061092C806DE
:103230001092C7061092B0061092AF0681E392E09A
:103240009093AE068093AD068CE08093B1068FEF2D
:103250008093B2068BE08093B30685E08093B4063A
:1032600084E08093B50683E08093B60682E0809385
:10327000B7061092B8061092B9061092BA061092CC
:10328000BB061092BC0661E08DEA96E00C943D0B03
:103290001092CA061092C90667E472E00E94221ECC
:1032A000C9CF0E94931908F481E00895E89409C0F9
:1032B00097FB3EF490958095709561957F4F8F4F69
:1032C0009F4F9923A9F0F92F96E9BB279395F6957F
:1032D000879577956795B795F111F8CFFAF4BB0FFD
:1032E00011F460FF1BC06F5F7F4F8F4F9F4F16C061
:1032F000882311F096E911C0772321F09EE8872FEB
:10330000762F05C0662371F096E8862F70E060E0A6
:103310002AF09A95660F771F881FDAF7880F96951F
:10332000879597F90895990F0008550FAA0BE0E8C3
:10333000FEEF16161706E807F907C0F01216130677
:10334000E407F50798F0621B730B840B950B39F4B7
:103350000A2661F0232B242B252B21F408950A261D
:1033600009F4A140A6958FEF811D811D08950E944B
:10337000CA190C943B1A0E942D1A38F00E94341A74
:1033800020F0952311F00C94241A0C942A1A11247D
:103390000C946F1A0E944C1A70F3959FC1F3950F0D
:1033A00050E0551F629FF001729FBB27F00DB11DC9
:1033B000639FAA27F00DB11DAA1F649F6627B00D59
:1033C000A11D661F829F2227B00DA11D621F739F42
:1033D000B00DA11D621F839FA00D611D221F749F50
:1033E0003327A00D611D231F849F600D211D822F97
:1033F000762F6A2F11249F5750409AF0F1F08823BE
:103400004AF0EE0FFF1FBB1F661F771F881F9150EA
:103410005040A9F79E3F510580F00C94241A0C945B
:103420006F1A5F3FE4F3983ED4F3869577956795DE
:10343000B795F795E7959F5FC1F7FE2B880F911D14
:103440009695879597F9089597F99F6780E870E0BA
:1034500060E008959FEF80EC089500240A9416160A
:10346000170618060906089500240A941216130672
:10347000140605060895092E0394000C11F4882300
:1034800052F0BB0F40F4BF2B11F460FF04C06F5F1C
:103490007F4F8F4F9F4F089557FD9058440F551FF2
:1034A00059F05F3F71F04795880F97FB991F61F0C6
:1034B0009F3F79F087950895121613061406551F3D
:1034C000F2CF4695F1DF08C0161617061806991FA9
:1034D000F1CF86957105610508940895E894BB279E
:1034E00066277727CB0197F90895052E97FB1EF4E1
:1034F00000940E948C1A57FD07D00E949F1A07FC67
:1035000003D04EF40C948C1A50954095309521952B
:103510003F4F4F4F5F4F08959095809570956195FF
:103520007F4F8F4F9F4F08950E94C11AA59F900D06
:10353000B49F900DA49F800D911D11240895A1E2C8
:103540001A2EAA1BBB1BFD010DC0AA1FBB1FEE1F1D
:10355000FF1FA217B307E407F50720F0A21BB30B68
:10356000E40BF50B661F771F881F991F1A9469F7E4
:1035700060957095809590959B01AC01BD01CF0140
:103580000895A29FB001B39FC001A39F700D811D3C
:103590001124911DB29F700D811D1124911D08955C
:1035A000991B79E004C0991F961708F0961B881F95
:1035B0007A95C9F780950895EE0FFF1F881F8BBF7E
:1035C0000790F691E02D19945058BB27AA270E9426
:1035D000FC1A0C943B1A0E942D1A38F00E94341ADF
:1035E00020F039F49F3F19F426F40C942A1A0EF4B3
:1035F000E095E7FB0C94241AE92F0E944C1A58F32B
:10360000BA17620773078407950720F079F4A6F5C7
:103610000C946E1A0EF4E0950B2EBA2FA02D0B0110
:10362000B90190010C01CA01A0011124FF27591B07
:1036300099F0593F50F4503E68F11A16F040A22F0D
:10364000232F342F4427585FF3CF4695379527957E
:10365000A795F0405395C9F77EF41F16BA0B620B7D
:10366000730B840BBAF09150A1F0FF0FBB1F661FC4
:10367000771F881FC2F70EC0BA0F621F731F841F07
:1036800048F4879577956795B795F7959E3F08F02D
:10369000B0CF9395880F08F09927EE0F97958795EF
:1036A00008950E94651B0C943B1A0E94341A58F02E
:1036B0000E942D1A40F029F45F3F29F00C94241A3F
:1036C00051110C946F1A0C942A1A0E944C1A68F328
:1036D0009923B1F3552391F3951B550BBB27AA27CB
:1036E00062177307840738F09F5F5F4F220F331F05
:1036F000441FAA1FA9F335D00E2E3AF0E0E832D0CD
:1037000091505040E695001CCAF72BD0FE2F29D0CF
:10371000660F771F881FBB1F261737074807AB07A1
:10372000B0E809F0BB0B802DBF01FF2793585F4F16
:103730003AF09E3F510578F00C94241A0C946F1ABD
:103740005F3FE4F3983ED4F3869577956795B795F8
:10375000F7959F5FC9F7880F911D9695879597F903
:103760000895E1E0660F771F881FBB1F621773077C
:103770008407BA0720F0621B730B840BBA0BEE1F91
:1037800088F7E09508950E94CA1B6894B1110C94C3
:103790006F1A08950E94541A88F09F5798F0B92F15
:1037A0009927B751B0F0E1F0660F771F881F991F76
:1037B0001AF0BA95C9F714C0B13091F00E946E1A90
:1037C000B1E008950C946E1A672F782F8827B85FA0
:1037D00039F0B93FCCF3869577956795B395D9F7CE
:1037E0003EF490958095709561957F4F8F4F9F4FD8
:1037F00008950E94931908F48FEF0895CF93DF93F3
:103800008230910510F482E090E0E0911B08F09185
:103810001C0820E030E0C0E0D0E0309711F140819A
:10382000518148175907C0F04817590761F4828140
:103830009381209719F09B838A832BC090931C0857
:1038400080931B0826C02115310519F04217530734
:1038500018F49A01BE01DF01EF010280F381E02D2F
:10386000DCCF2115310509F1281B390B2430310536
:1038700090F412968D919C9113976115710521F02A
:10388000FB019383828304C090931C0880931B08E0
:10389000FD01329644C0FD01E20FF31F8193919325
:1038A000225031092D933C933AC020911908309150
:1038B0001A08232B41F4209105023091060230931F
:1038C0001A0820931908209103023091040221154F
:1038D000310541F42DB73EB74091070250910802DF
:1038E000241B350BE0911908F0911A08E217F30731
:1038F000A0F42E1B3F0B2817390778F0AC014E5F60
:103900005F4F2417350748F04E0F5F1F50931A087A
:10391000409319088193919302C0E0E0F0E0CF0159
:10392000DF91CF9108950F931F93CF93DF9300976B
:1039300009F48CC0FC0132971382128200911B089B
:1039400010911C080115110581F420813181820F2D
:10395000931F2091190830911A082817390779F513
:10396000F0931A08E093190871C0D80140E050E0C4
:10397000AE17BF0750F412962D913C911397AD01ED
:103980002115310509F1D901F3CF9D01DA01338306
:10399000228360817181860F971F8217930769F4D4
:1039A000EC0128813981260F371F2E5F3F4F31836D
:1039B00020838A819B8193838283452B29F4F09312
:1039C0001C08E0931B0842C01396FC93EE931297D9
:1039D000ED01499159919E01240F351FE217F3071C
:1039E00071F480819181840F951F029611969C93AA
:1039F0008E938281938113969C938E931297E0E02D
:103A0000F0E0D80112968D919C911397009719F0D0
:103A1000F8018C01F6CF8D919C9198012E5F3F4F5C
:103A2000820F931F2091190830911A08281739071F
:103A300069F4309729F410921C0810921B0802C0F8
:103A40001382128210931A0800931908DF91CF9104
:103A50001F910F9108956F927F928F929F92AF92D4
:103A6000BF92CF92DF92EF92FF920F931F93CF936B
:103A7000DF93EC01009789F4CB01DF91CF911F9187
:103A80000F91FF90EF90DF90CF90BF90AF909F90FD
:103A90008F907F906F900C94FE1BFC01E60FF71F38
:103AA0009C0122503109E217F30708F4ACC0D90198
:103AB0000D911C91119706171707B0F005301105ED
:103AC00008F49FC0C80104978617970708F499C0A7
:103AD00002501109061B170B019311936D937C93F0
:103AE000CF010E94931C8DC05B01A01AB10A4C014A
:103AF000800E911EA0911B08B0911C0840E050E080
:103B0000E12CF12C109709F44AC0A815B905D1F59C
:103B10006D907C901197630182E0C80ED11CCA148D
:103B2000DB0480F1A3014A195B096A0182E0C80E37
:103B3000D11C1296BC9012971396AC91B5E0CB169F
:103B4000D10440F0B282A38351834083D9016D93A5
:103B50007C930AC00E5F1F4FC301800F911FF901B4
:103B600091838083EB2DFA2FE114F10431F0D7011A
:103B70001396FC93EE93129744C0F0931C08E093C5
:103B80001B083FC08D919C9111974817590708F465
:103B9000AC017D0112960D90BC91A02DB3CF809108
:103BA000190890911A0888159905E1F446175707E6
:103BB000C8F48091030290910402009741F48DB7FC
:103BC0009EB74091070250910802841B950BE8179D
:103BD000F907C8F4F0931A08E0931908F901718302
:103BE00060830FC0CB010E94FE1B7C01009759F03F
:103BF000A801BE010E94191ECE010E94931CC7019C
:103C000004C0CE0102C080E090E0DF91CF911F910F
:103C10000F91FF90EF90DF90CF90BF90AF909F906B
:103C20008F907F906F90089581E090E0F8940C94CD
:103C3000291EFB01DC0102C001900D924150504051
:103C4000D8F70895FB01DC0101900D920020E1F707
:103C5000089511E0C2E9D1E000E006C0802FFE0126
:103C60000E94DC1A2196011DC339D10780E00807A4
:063C7000A9F7F894FFCF54
:103C76007D00FF00001D082000000000002C0FFC46
:103C86000E2603D60EF40EE50ED70E0000000090A9
:103C960002C6010A02D7023B0219022D02000000E9
:103CA600005C05C60126032503000000006703C665
:103CB60001260325030D0A002000536572766F2046
:103CC600616E676C65206973206F7574206F66205E
:083CD60072616E6765210000B8
:00000001FF
