:100000000C945D010C948E010C948E010C948E0165
:100010000C948E010C948E010C948E010C948E0124
:100020000C948E010C9434090C9434090C9434090A
:100030000C948E010C9462040C948E010C948E012D
:100040000C948E010C94BB060C948E010C948E01C2
:100050000C948E010C948E010C948E010C94180457
:100060000C948E010C94D3050C94A9050C948E016C
:100070000C948E010C948E010C948E010C948E01C4
:100080000C948E010C948E010C948E010C948E01B4
:100090000C948E010C948E010C948E010C943E09EC
:1000A0000C948E010C948E010C948E010C948E0194
:1000B0000C948E010C948E010C948E010C94FD0511
:1000C0000C948E010C948E010C948E010C947F057F
:1000D0000C9455050C948E010C942B050C94010581
:1000E0000C948E013508380827082B0831086F0852
:1000F0003C08400846084A084E08540858085C085E
:100100006F08620866086A080C94C6030C94B3076B
:100110000C94A4070C946A080C943C080C944202BA
:100120000C9456020C94BB070C94F3030C945C08DB
:100130000C9462080C9438080C946F080C944E08C8
:100140000C9464020C94EB070C9433020C94580842
:100150000C942B080C9446080C9496070C94C50339
:100160000C9495070C944A080C9440080C94EF01E9
:100170000C94AF020C94F6020C9466080C943508AB
:100180000C9427080C94730E0C94790E0C9431087F
:100190000C9454080200002100240027002A002D9E
:1001A000003000330001010000040107010A0100D2
:1001B000002200250028002B002E00310034000210
:1001C000010000050108010B0100002000230026AA
:1001D0000029002C002F003200000100000301065E
:1001E00001090105050505070508080808020202BE
:1001F000020A0A08080404040401010101010101C2
:10020000010303030303030303040707070C0C0C98
:100210000C0C0C0C0C020202020606060606060670
:10022000060B0B0B0B0B0B0B0B010210202008080D
:100230001020401020408002010201080402010148
:100240000204081020408080402010080402018031
:100250000402018040201008040201080402010188
:100260000204081020408001020408102040800091
:10027000000A0B02090C0D0E080703040100000020
:10028000000000000000000000000000000000006E
:10029000000000000000000000000012111000002B
:1002A000000000000000000000000000000000004E
:1002B000000000000000790E730E11241FBECFEF66
:1002C000D1E2DEBFCDBF00E00CBF12E0A0E0B2E0A3
:1002D000E0E1F6E200E00BBF02C007900D92A83506
:1002E000B107D9F727E0A8E5B2E001C01D92AF3011
:1002F000B207E1F711E0CCE5D1E000E006C02197BC
:100300000109802FFE010E94C310CB35D10780E088
:100310000807A9F70E94600B0C94F6120C940000D9
:100320003FB7F89480917F0290918002A091810262
:10033000B091820226B5A89B05C02F3F19F0019607
:10034000A11DB11D3FBFBA2FA92F982F8827820F5B
:10035000911DA11DB11DBC01CD0142E0660F771FAB
:10036000881F991F4A95D1F708958F929F92AF9257
:10037000BF92CF92DF92EF92FF926B017C010E94BD
:1003800090014B015C01C114D104E104F104F1F0CE
:100390000E949001DC01CB0188199909AA09BB09C7
:1003A000883E9340A105B10570F321E0C21AD1083F
:1003B000E108F10888EE880E83E0981EA11CB11CAC
:1003C000C114D104E104F10419F7DDCFFF90EF90DF
:1003D000DF90CF90BF90AF909F908F900895CF9275
:1003E000DF92EF92FF920F931F93CF93DF936C01F5
:1003F0007A018B01C0E0D0E0CE15DF0589F0D8018D
:100400006D918D01D601ED91FC910190F081E02D6F
:10041000C6011995892B11F47E0102C02196ECCFFB
:10042000C701DF91CF911F910F91FF90EF90DF9067
:10043000CF900895FC01A089B1898C91A689B789D4
:1004400082FD0FC09C91818D8F5F8F73228D8217EB
:1004500049F0218DDF01A20FB11D5D969C93818F24
:1004600008958C910895FC01538D448D252F30E023
:10047000842F90E0821B930B541710F0CF960895B1
:1004800001970895FC01918D828D981761F0828DFE
:10049000DF01A80FB11D5D968C91928D9F5F9F73B8
:1004A000928F90E008958FEF9FEF0895FC01918D5A
:1004B000828D981731F0828DE80FF11D858D90E0C7
:1004C00008958FEF9FEF0895FC01918D228D892F64
:1004D00090E0805C9F4F821B91098F73992708954C
:1004E00088E992E00E94640221E0892B09F420E06F
:1004F000822F089585E393E00E94640221E0892B16
:1005000009F420E0822F089582ED93E00E946402B6
:1005100021E0892B09F420E0822F0895FC01848DCD
:10052000DF01A80FB11DA35ABF4F2C91848D90E01D
:1005300001968F739927848FA689B7892C93A089F8
:10054000B1898C9180648C93938D848D981306C0AF
:100550000288F389E02D80818F7D80830895EF925A
:10056000FF920F931F93CF93DF93EC0181E0888F6D
:100570009B8D8C8D981305C0E889F989808185FD54
:1005800024C0F62E0B8D10E00F5F1F4F0F73112745
:10059000E02E8C8DE8120CC00FB607FCFACFE8896C
:1005A000F989808185FFF5CFCE010E948E02F1CFBF
:1005B0008B8DFE01E80FF11DE35AFF4FF0820B8F88
:1005C000EA89FB898081806207C0EE89FF896083A8
:1005D000E889F98980818064808381E090E0DF91FF
:1005E000CF911F910F91FF90EF900895CF93DF93DC
:1005F000EC01888D8823C9F0EA89FB89808185FD1B
:1006000005C0A889B9898C9186FD0FC00FB607FC7B
:10061000F5CF808185FFF2CFA889B9898C9185FFBC
:10062000EDCFCE010E948E02E7CFDF91CF910895EA
:10063000E0E0F0E0199480E090E0892B21F00E9446
:100640008402811119C080E090E0892B41F080E0A4
:1006500090E0892B21F00E940000811110C00E94BF
:100660007A0281110FC080E090E0892B81F00E9416
:10067000700281110AC008950E940000E4CF0E9418
:100680000000EDCF0E941803EECF0C9400000895F7
:10069000CF92DF92EF92FF92CF93DF93FC01C08164
:1006A000CC3008F064C0D0E085E08C9FF0018D9FD5
:1006B000F00D1124EF5BFA4F838128E830E06901E7
:1006C000C81AD10887FDD394CC0CDD1CCC0CDD1CE2
:1006D000683C71053CF50D2C000CEE08FF08848188
:1006E00028E532E0281B310987FD3395220F331F9F
:1006F000220F331FC901330FAA0BBB0B9C01AD01A5
:100700002C193D094E095F09DB010E947E1024EB84
:1007100030E040E050E00E945410C20ED31EE41EB0
:10072000F51E13C06C157D0584F0848128E532E048
:100730006901C81AD10887FDD394CC0CDD1CCC0C00
:10074000DD1C6C157D050CF46B018FB7F89495E0FA
:100750009C9FF0019D9FF00D1124EF5BFA4F96E0F6
:10076000C91AD108CC0CDD1CD282C1828FBFDF91A7
:10077000CF91FF90EF90DF90CF9008958EBD000055
:100780000DB407FEFDCF8EB50895089580E090E08A
:1007900008950E94E112FC01248131E03093880227
:1007A00020938A021092890210928B028485682B12
:1007B0008CE892E00E94EB070C9490080F931F9333
:1007C000CF938C01C62F64600E94CB036C2F6B7F8C
:1007D000C8010E94CB0383EC90E00197F1F7CF9121
:1007E0001F910F9108950F931F93CF93DF938C0167
:1007F000C62FD62FD07FD1606D2F0E94CB036D2FD7
:10080000C8010E94DE0380E1C89FB0011124C62FF9
:10081000C1606C2FC8010E94CB036C2FC8010E94DD
:10082000DE0381E090E0DF91CF911F910F91089559
:100830001F920F920FB60F9211242F933F938F9315
:100840009F93AF93BF9380917B0290917C02A09184
:100850007D02B0917E0230917A0223E0230F2D3782
:1008600020F40196A11DB11D05C026E8230F0296B4
:10087000A11DB11D20937A0280937B0290937C028C
:10088000A0937D02B0937E0280917F0290918002BE
:10089000A0918102B09182020196A11DB11D8093A9
:1008A0007F0290938002A0938102B0938202BF9155
:1008B000AF919F918F913F912F910F900FBE0F900D
:1008C0001F9018951F920F920FB60F9211240BB61E
:1008D0000F922F933F934F935F936F937F938F93D9
:1008E0009F93AF93BF93EF93FF9380917502909185
:1008F0007602A0917702B0917802892B8A2B8B2BFC
:1009000059F180917402E0917202F091730290812A
:10091000892780838091750290917602A091770259
:10092000B0917802181619061A061B060CF056C06C
:100930008091750290917602A0917702B091780231
:100940000197A109B1098093750290937602A09353
:100950007702B093780242C080910002E4E9F1E0AE
:10096000E4919FEF90930002E230C9F050F4EE233F
:1009700099F0E13081F590916F009D7F90936F0029
:100980002AC0E43019F1E0F0E53029F590917300C8
:100990009D7F909373001FC010926E001CC09091B9
:1009A00070009D7F9093700091E09093B0009091C3
:1009B000B100987F94609093B1001092B3000BC087
:1009C000909171009D7F9093710005C0909172008D
:1009D0009D7F9093720060E00E94990AFF91EF91D1
:1009E000BF91AF919F918F917F916F915F914F9147
:1009F0003F912F910F900BBE0F900FBE0F901F9045
:100A000018951F920F920FB60F9211240BB60F92EA
:100A10002F933F934F935F936F937F938F939F9306
:100A2000AF93BF93EF93FF9388E992E00E948E0209
:100A3000FF91EF91BF91AF919F918F917F916F91B6
:100A40005F914F913F912F910F900BBE0F900FBE72
:100A50000F901F9018951F920F920FB60F921124AE
:100A60000BB60F922F933F934F935F936F937F93A8
:100A70008F939F93AF93BF93EF93FF9388E992E097
:100A80000E941A02FF91EF91BF91AF919F918F91B8
:100A90007F916F915F914F913F912F910F900BBE7E
:100AA0000F900FBE0F901F9018951F920F920FB6C8
:100AB0000F9211240BB60F922F933F934F935F9396
:100AC0006F937F938F939F93AF93BF93EF93FF9316
:100AD00085E393E00E948E02FF91EF91BF91AF9169
:100AE0009F918F917F916F915F914F913F912F9146
:100AF0000F900BBE0F900FBE0F901F9018951F9276
:100B00000F920FB60F9211240BB60F922F933F93B3
:100B10004F935F936F937F938F939F93AF93BF9305
:100B2000EF93FF9385E393E00E941A02FF91EF9108
:100B3000BF91AF919F918F917F916F915F914F91F5
:100B40003F912F910F900BBE0F900FBE0F901F90F3
:100B500018951F920F920FB60F9211240BB60F9299
:100B60002F933F934F935F936F937F938F939F93B5
:100B7000AF93BF93EF93FF9382ED93E00E948E02B9
:100B8000FF91EF91BF91AF919F918F917F916F9165
:100B90005F914F913F912F910F900BBE0F900FBE21
:100BA0000F901F9018951F920F920FB60F9211245D
:100BB0000BB60F922F933F934F935F936F937F9357
:100BC0008F939F93AF93BF93EF93FF9382ED93E047
:100BD0000E941A02FF91EF91BF91AF919F918F9167
:100BE0007F916F915F914F913F912F910F900BBE2D
:100BF0000F900FBE0F901F9018951F920F920FB677
:100C00000F9211240BB60F922F933F934F935F9344
:100C10006F937F938F939F93AF93BF93EF93FF93C4
:100C2000809170040E94700A2091740430917504C0
:100C30002F5F3F4F30937504209374049091730499
:100C4000953618F096E090936F0490916F0494306D
:100C5000C9F128F4923069F09330D1F05EC095303C
:100C600009F451C0963009F058C091E090934005C6
:100C700051C0811152C02091740430917504243602
:100C8000310508F442C010924005109273041CC054
:100C9000813009F042C0E091730491E09E0F90937F
:100CA0007304F0E02091740430917504EE0FFF1F7F
:100CB000E159FB4F3087278310927504109274041A
:100CC00094E029C0811117C0E091730491E09E0F58
:100CD00090937304F0E02091740430917504EE0F4A
:100CE000FF1FE159FB4F3087278310927504109244
:100CF000740493E010C0209174043091750425367B
:100D0000310558F007C0811108C010927504109287
:100D1000740403C095E090936F049091720499233A
:100D2000B9F081110AC080917104882321F080916B
:100D3000710461E009C02F9A0BC08091710488236F
:100D400031F08091710460E00E94990A01C02F98EF
:100D5000FF91EF91BF91AF919F918F917F916F9193
:100D60005F914F913F912F910F900BBE0F900FBE4F
:100D70000F901F9018951F920F920FB60F9211248B
:100D80000BB60F922F933F934F935F936F937F9385
:100D90008F939F93AF93BF93EF93FF9380917102D3
:100DA00087FF05C0109285001092840016C0209124
:100DB0007102022E000C330B80917D0590E0281704
:100DC00039075CF43091710225E03203F0011124FF
:100DD000EF5BFA4F808186FD15C0809171028F5FB5
:100DE0008093710220917102022E000C330B8091CE
:100DF0007D0590E02817390794F4809171028C30BA
:100E00002CF10DC0309171023203F0011124EF5B1F
:100E1000FA4F808160E08F730E94990ADECF809143
:100E200084009091850084349C4918F480E49CE906
:100E300005C080918400909185000496909389006C
:100E4000809388008FEF809371022AC040918400C4
:100E5000509185003091710225E03203F001112498
:100E6000EF5BFA4F81819281840F951F90938900E7
:100E700080938800309171023203F0011124EF5BFE
:100E8000FA4F808186FF0CC0309171023203F0016D
:100E90001124EF5BFA4F808161E08F730E94990A01
:100EA000FF91EF91BF91AF919F918F917F916F9142
:100EB0005F914F913F912F910F900BBE0F900FBEFE
:100EC0000F901F90189585ED8093BC008091BC0019
:100ED00084FDFCCF1092870208954091A006262F32
:100EE00030E0240F311D21323105DCF420918702DE
:100EF0002430C9F4FC0180E090E0861758F430916A
:100F0000A0062191DC01A258B94FA30FB11D2C936B
:100F10000196F3CF8091A006680F6093A00680E051
:100F2000089581E0089582E00895089581E090E0B9
:100F30003091840220918302321710F480E090E017
:100F400091958195910908958091840290918302F1
:100F5000891730F48F5F8093840280E090E00895D9
:100F60008FEF9FEF08958091830290E0209184029B
:100F7000821B91090895CF92DF92EF92FF920F9317
:100F80001F93CF93DF937C01262F972F8A018091A7
:100F90008802882391F0C62FD72F6E01C40ED51E6C
:100FA000CC15DD0571F06991D701ED91FC910190AF
:100FB000F081E02DC7011995F3CF642F822F0E9495
:100FC0006D07C801DF91CF911F910F91FF90EF90B6
:100FD000DF90CF900895CF93DF931F92CDB7DEB708
:100FE0006983209188022223D1F020918B02203244
:100FF00040F021E030E0FC013383228380E090E088
:1010000015C080918902E82FF0E0E551F94F9981F0
:1010100090838F5F8093890280938B0205C061E08B
:10102000CE0101960E946D0781E090E00F90DF9164
:10103000CF91089590E0FC013197E231F10508F07D
:101040004EC08827EE58FF4F8F4F0C94C3108091ED
:1010500080008F7703C0809180008F7D8093800017
:10106000089580918000877FF9CF84B58F7702C083
:1010700084B58F7D84BD08958091B0008F7703C0C3
:101080008091B0008F7D8093B00008958091900092
:101090008F7707C0809190008F7D03C08091900072
:1010A000877F8093900008958091A0008F7707C07C
:1010B0008091A0008F7D03C08091A000877F8093E6
:1010C000A0000895809120018F7707C080912001B2
:1010D0008F7D03C080912001877F80932001089538
:1010E000009769F0FC0101900020E9F73197AF010A
:1010F000481B590BBC0182ED93E00C94EF0180E09A
:1011000090E00895CF93DF930E947008EC0184E58E
:1011100092E00E9470088C0F9D1FDF91CF9108957F
:1011200020918B0290918A02213208F04AC080916E
:1011300087028111FCCF32E03093870231E0309397
:1011400086023FEF3093EA061092E9062093E80604
:10115000ABEEB6E048EC56E0FA013E2F341B3217F6
:1011600018F43D913193F9CF1092C7062091C7062C
:10117000990F922B9093C70690918502913061F45C
:10118000109285029091C7069093BB009091BC008D
:1011900093FDF8CF95EC01C095EE9093BC00909133
:1011A00087029230E1F39091EA069F3F79F08091B7
:1011B000EA06803241F08091EA06803331F084E023
:1011C00005C081E003C082E001C083E01092890283
:1011D00010928B02109288020895EF92FF921F9353
:1011E000CF93DF931F92CDB7DEB7162F97E4E92E8A
:1011F00096E0F92ED7011C969C911C9721E0209334
:10120000880290938A021092890210928B021A9699
:101210000D90BC91A02DED91FC9111970190F08162
:10122000E02D682FCD0179831995F701828593858B
:10123000DC01ED91FC910190F081E02D7981672F27
:101240001995F70182859385DC01ED91FC91019060
:10125000F081E02D612F19950F90DF91CF911F91B3
:10126000FF90EF900C9490081F920F920FB60F9280
:1012700011240F900FBE0F901F9018951F920F9280
:101280000FB60F9211240BB60F922F933F934F93EB
:101290005F936F937F938F939F93AF93BF93EF93DE
:1012A000FF938091B900887F803609F49CC068F56F
:1012B000883209F45BC090F4803109F454C038F4EA
:1012C000882309F4F6C0883009F44DC0F6C088318F
:1012D00009F44CC0803209F45DC0EFC0803409F4D9
:1012E00068C048F4803309F455C0883309F0E5C07C
:1012F0008093EA06D8C0803509F44FC0883509F4D8
:101300005DC0883409F0D9C0D6C0883909F4C7C097
:10131000A8F4883709F467C038F4883609F463C044
:10132000803709F460C0C9C0883809F4B8C0803972
:1013300009F45FC0803809F0C0C05BC0803B09F48D
:1013400086C038F4803A09F466C0883A09F47FC050
:10135000B4C0803C09F4A7C0883C09F4A4C0883B11
:1013600009F48AC0AAC08091C70610C09091E9060E
:101370008091E806981770F5E091E90681E08E0FFC
:101380008093E906F0E0E853F94F80818093BB0039
:1013900085EC86C08093EA068EC0E091E90681E084
:1013A0008E0F8093E9068091BB00F0E0E853F94F7F
:1013B00080839091E9068091E8066EC0E091E9068D
:1013C00081E08E0F8093E9068091BB00F0E0E85346
:1013D000F94F80838091860281116DC081E08093F6
:1013E000850284EA61C083E0809387021092C4067C
:1013F000CFCF8091C406803208F051C0E091C4067E
:1014000081E08E0F8093C4068091BB00F0E0EC5524
:10141000F94F8083BDCF85EC8093BC00109287028A
:101420008091C406803230F4E091C406F0E0EC55BF
:10143000F94F10826091C40670E0E091A206F0912D
:10144000A30684EA96E019951092C40636C084E09B
:10145000809387021092A1061092A006E0919E064A
:10146000F0919F0619958091A006811105C081E039
:101470008093A00610927E06E091A10681E08E0F77
:101480008093A106F0E0E258F94F80818093BB0081
:101490009091A1068091A006981708F479CF85E86D
:1014A0008093BC000AC085EC8093BC001092870238
:1014B00004C01092EA060E946307FF91EF91BF916A
:1014C000AF919F918F917F916F915F914F913F91DC
:1014D0002F910F900BBE0F900FBE0F901F9018957D
:1014E000CF93DF93282F30E0F901E159FD4F84912C
:1014F000F901E75DFD4FD491F901ED51FE4FC49123
:10150000CC2391F081110E941A08EC2FF0E0EE0F2D
:10151000FF1FE753FE4FA591B491EC91ED2381E0BD
:1015200090E021F480E002C080E090E0DF91CF9174
:1015300008951F93CF93DF93282F30E0F901E159ED
:10154000FD4F8491F901E75DFD4FD491F901ED5113
:10155000FE4FC491CC23C9F0162F81110E941A08A6
:10156000EC2FF0E0EE0FFF1FE155FE4FA591B49177
:101570008FB7F894111105C09C91ED2FE095E923E8
:1015800002C0EC91ED2BEC938FBFDF91CF911F91B7
:101590000895CF93DF9390E0FC01E75DFD4F249128
:1015A000FC01ED51FE4F8491882361F190E0880F9A
:1015B000991FFC01EB56FE4FC591D491FC01E155FA
:1015C000FE4FA591B491611109C09FB7F89488812D
:1015D000209582238883EC912E230BC0623061F426
:1015E0009FB7F8943881822F809583238883EC916C
:1015F0002E2B2C939FBF06C08FB7F894E8812E2B1B
:1016000028838FBFDF91CF9108951F93CF93DF93EE
:10161000EC01162F88818C3008F04DC061E0812FDD
:101620000E94C90AE88195E09E9FF0011124EF5BBA
:10163000FA4F1F738081807C182B10831382E881FE
:101640009E9FF0011124EF5BFA4F148288816CE0B9
:101650000E94B7109CE0899FA001112420E030E097
:1016600095E0B901640F751F969FF001979FF00DEB
:101670001124EF5BFA4F608166FD13C02F5F3F4F6F
:101680002C30310571F781110CC01092800082E07E
:1016900080938100109285001092840086BB809315
:1016A0006F00E88185E0E89FF0011124EF5BFA4FBD
:1016B0008081806480838881DF91CF911F9108951C
:1016C000CF93DF93CDB7DEB7A1970FB6F894DEBF07
:1016D0000FBECDBF789484B5826084BD84B581602F
:1016E00084BD85B5826085BD85B5816085BD8091ED
:1016F0006E00816080936E00109281008091810065
:10170000826080938100809181008160809381005C
:10171000809180008160809380008091B10084601E
:101720008093B1008091B00081608093B00080917F
:1017300091008260809391008091910081608093FC
:101740009100809190008160809390008091A10031
:1017500082608093A1008091A10081608093A100AC
:101760008091A00081608093A0008091210182601F
:1017700080932101809121018160809321018091DA
:10178000200181608093200180917A0084608093A1
:101790007A0080917A00826080937A0080917A004A
:1017A000816080937A0080917A00806880937A00CB
:1017B0001092C100E091E203F091E30382E08083A4
:1017C000E091DE03F091DF031082E091E003F091FD
:1017D000E1038FEC80831092EA03E091E603F0913D
:1017E000E70386E08083E091E403F091E5038081E4
:1017F00080618083E091E403F091E503808188605B
:101800008083E091E403F091E50380818068808328
:10181000E091E403F091E50380818F7D808361E0B6
:10182000809148060E94C90A60E0809148060E94A3
:10183000990A60E0809147060E94C90A8CE892E00C
:101840009093520680935106109284021092830264
:101850001092890210928B021092870281E080938D
:1018600086021092850261E084E10E94990A61E09B
:1018700085E10E94990A8091B9008E7F8093B9001A
:101880008091B9008D7F8093B90088E48093B8007F
:1018900085E48093BC0080E090E1A0E0B0E080931C
:1018A000540690935506A0935606B09357068AE0C7
:1018B00090E0A0E0B0E08093580690935906A09382
:1018C0005A06B0935B0680E090E0A0E0B0E480931D
:1018D0005C0690935D06A0935E06B0935F0660E0A1
:1018E00070E185E00E94ED086FE979E380E00E94F5
:1018F000ED0804E616E0A12CB12CC12CD12CE8E1B6
:101900002E2EE2E03E2EFBEC8F2EF7E09F2EABE872
:101910006A2E772473949601295B394F2901F901C6
:10192000948182819501295B394F7901F901818F79
:10193000928F61E00E94C90A61E0F701828D0E94E6
:10194000C90AF20190858681F8018083F701968F9C
:1019500061E00E94C90A60E0F701868D0E94C90A11
:1019600061E0F80180810E94990AFFB6F8948091A5
:101970007902811126C0F1018491EEE5F2E09491A3
:10198000E82FF0E0EE0FFF1FEB56FE4FA591B4914C
:101990008C91982321F461E085E30E94990A61E02B
:1019A00085E30E94C90A8CB580618CBD8CB58064CA
:1019B0008CBD61E084E30E94C90A61E083E30E9478
:1019C000C90A809179028F5F80937902FFBEC401BA
:1019D0000197F1F760E0F80180810E94990A88E898
:1019E0000E94BE0383E00E94BE0361E0F801808193
:1019F0000E94990AC4010197F1F760E0F801808123
:101A00000E94990A88E90E94BE0380E00E94BE03FA
:101A100080E00E94BE0380E00E94BE0380E00E943E
:101A2000BE0361E0F80180810E94990AC301019719
:101A3000F1F760E0F80180810E94990A80EE0E942F
:101A4000BE0361E0F80180810E94990AF2E0AF0EC6
:101A5000B11C0E5F1F4FCA94CD2821F0CC24C39433
:101A6000D12C59CF0CE616E054E0F52EF00E60E0D4
:101A7000F80181918F010E94C90AF012F8CF3BE76B
:101A8000E32E36E0F32E06E716E042E0D42ED00E29
:101A9000F8013697608170E0C80102960E94050B3C
:101AA000F80191918F0133978081F70131978083FD
:101AB000F701908360E00E94C90A61E0F70180812C
:101AC0000E94C90A60E0F70180810E94990AF2E051
:101AD000EF0EF11CD012DCCFF8941092200189E0B7
:101AE0008093210180E293E0909329018093280163
:101AF000109225011092240182E080937300789463
:101B000080936F04109273048091700460E00E94CF
:101B1000C90A60E080E40E94C90A60E08FE30E9485
:101B2000C90A60E08CE30E94C90A60E08DE30E946C
:101B3000C90A60E08EE30E94C90A62E080E30E9465
:101B4000C90A68E873E180E090E00E94B5019AE07C
:101B5000492E512C612C712C25E0B22E609170061B
:101B600070E088E796E00E94050B809172068E3740
:101B700020F4809173068D3728F487E392E00E9469
:101B8000820806C06DE770E088E796E00E9448038F
:101B900064E670E080E090E00E94B5018DE7C82E19
:101BA000D12CE12CF12C8601D7FE26C0E091D20386
:101BB000F091D3030190F081E02D6DE282ED93E08E
:101BC000199522273327A9012C193D094E095F09D0
:101BD00019A2CE0181964C01CA01B901A30192015B
:101BE0000E948610605DF40162934F01211531055A
:101BF0004105510589F715C019A2A7019601CE012B
:101C000081964C01CA01B901A30192010E9486107C
:101C1000605DF40162934F012115310541055105C5
:101C200089F7C4010E94700884E592E00E94700860
:101C300090917206C91620F0909173069C1528F4B5
:101C400087E392E00E94820806C0B801772788E700
:101C500096E00E94480360E070E0CB010E94B5016D
:101C600080E30E94700A892B91F5E0917806BE9E70
:101C7000F0011124EF5BFA4F80818F7B8083CA943F
:101C8000CD28CE28CF2851F4E0917806BE9EF001F1
:101C90001124EF5BFA4F80818F7B8083E09178067F
:101CA000BE9EF0011124EF5BFA4F80818F7B808311
:101CB00068E873E180E090E00E94B5016AE070E0BE
:101CC00080E090E00E94B5010E941B0347CF31E005
:101CD000C316D104E104F104B9F221E0C21AD1081B
:101CE000E108F10860CF80917E0590917F050C940A
:101CF000601110928F0210928E0288EE93E0A0E0A5
:101D0000B0E08093900290939102A0939202B093DE
:101D100093022BE032E030938D0220938C021092DC
:101D20009B0210929A0280939C0290939D02A09332
:101D30009E02B0939F022DE132E0309399022093EE
:101D4000980245E351E05093A5024093A40244E376
:101D500051E05093A7024093A60240E351E0509314
:101D6000A9024093A80241E351E05093AB02409393
:101D7000AA0242E351E05093AD024093AC0246E325
:101D800051E05093AF024093AE021092B102109214
:101D9000B2021092B3021092B40210923803109261
:101DA00037038093390390933A03A0933B03B09396
:101DB0003C03309336032093350345ED50E05093B8
:101DC00042034093410344ED50E050934403409359
:101DD000430340ED50E0509346034093450341EDEB
:101DE00050E0509348034093470342ED50E0509336
:101DF0004A034093490346ED50E050934C0340930F
:101E00004B0310924E0310924F0310925003109206
:101E100051031092D5031092D4038093D60390936C
:101E2000D703A093D803B093D9033093D30320935F
:101E3000D20385EC90E09093DF038093DE0384EC83
:101E400090E09093E1038093E00380EC90E0909326
:101E5000E3038093E20381EC90E09093E5038093A9
:101E6000E40382EC90E09093E7038093E60386EC32
:101E700090E09093E9038093E8031092EB031092B3
:101E8000EC031092ED031092EE0386E38093680654
:101E900087E38093690688E380936A0689E38093E9
:101EA0006B068BE180936C068DE180936D068AE171
:101EB00080936E068CE180936F0684E080937006B9
:101EC00087E0809371061092720684EB809373060C
:101ED00086E18093740688E18093750687E180939C
:101EE000760689E180937706E0917D05EC3020F05D
:101EF0008FEF8093780610C081E08E0F80937D0570
:101F0000E093780625E0E29FF0011124EF5BFA4FA1
:101F100088EB9BE092838183E0917D05EC3020F09B
:101F20008FEF8093790610C081E08E0F80937D053E
:101F3000E093790685E0E89FF0011124EF5BFA4F0A
:101F400088EB9BE0928381838CE08093470684E258
:101F50008093480686E08093490685E080934A0690
:101F60008FE180934B068EE180934C0683E2809351
:101F70004D0682E280934E0685E480934F0684E40A
:101F80008093500680E48093530610925806109276
:101F9000590610925A0610925B0610925C06109237
:101FA0005D0610925E0610925F06E9E8F5E08FEF9D
:101FB0009FEFDC011282138214821582168217822F
:101FC0001086118683879487A587B6878787908B2D
:101FD000A18BB28B128611821082739626E0E734B1
:101FE000F20741F78DE090E00E94CB10FC011382D4
:101FF00012828FE292E091838083118687E284834C
:1020000084E1828784E083871486F0938605E093D9
:102010008505109287051092880585E280937004EB
:102020001092720410927F0510927E051092810525
:1020300010928005109283051092820561E070E095
:1020400080E090E00E94F811009789F090937F055E
:1020500080937E0510928105109280052091820563
:1020600030918305232BC1F4FC01108215C08091AF
:102070007E0590917F05009711F00E9460111092EB
:102080007F0510927E0510928305109282051092B2
:1020900081051092800508951092830510928205A3
:1020A00066E572E00C94EF12052E97FB1EF4009487
:1020B0000E946B1057FD07D00E94861007FC03D0CA
:1020C0004EF40C946B1050954095309521953F4FF0
:1020D0004F4F5F4F089590958095709561957F4F14
:1020E0008F4F9F4F08950E94A810A59F900DB49FF9
:1020F000900DA49F800D911D11240895B7FF0C949D
:1021000073100E947310821B930B0895A1E21A2E84
:10211000AA1BBB1BFD010DC0AA1FBB1FEE1FFF1F8B
:10212000A217B307E407F50720F0A21BB30BE40BDB
:10213000F50B661F771F881F991F1A9469F7609522
:102140007095809590959B01AC01BD01CF010895DC
:10215000A29FB001B39FC001A39F700D811D1124E8
:10216000911DB29F700D811D1124911D0895991B21
:1021700079E004C0991F961708F0961B881F7A957E
:10218000C9F780950895EE0FFF1F881F8BBF07903A
:10219000F691E02D1994CF93DF938230910510F4DE
:1021A00082E090E0E0910D07F0910E0720E030E032
:1021B000C0E0D0E0309711F14081518148175907B4
:1021C000C0F04817590761F482819381209719F074
:1021D0009B838A832BC090930E0780930D0726C0A4
:1021E0002115310519F04217530718F49A01BE0161
:1021F000DF01EF010280F381E02DDCCF21153105F5
:1022000009F1281B390B2430310590F412968D9179
:102210009C9113976115710521F0FB0193838283D3
:1022200004C090930E0780930D07FD01329644C0C1
:10223000FD01E20FF31F81939193225031092D93F9
:102240003C933AC020910B0730910C07232B41F4AB
:10225000209103023091040230930C0720930B0766
:1022600020910102309102022115310541F42DB770
:102270003EB74091050250910602241B350BE091B8
:102280000B07F0910C07E217F307A0F42E1B3F0B8E
:102290002817390778F0AC014E5F5F4F24173507D8
:1022A00048F04E0F5F1F50930C0740930B0781932C
:1022B000919302C0E0E0F0E0CF01DF91CF9108956B
:1022C0000F931F93CF93DF93009709F48CC0FC0109
:1022D00032971382128200910D0710910E0701159B
:1022E000110581F420813181820F931F20910B070A
:1022F00030910C072817390779F5F0930C07E09314
:102300000B0771C0D80140E050E0AE17BF0750F492
:1023100012962D913C911397AD012115310509F1CC
:10232000D901F3CF9D01DA0133832283608171816A
:10233000860F971F8217930769F4EC012881398172
:10234000260F371F2E5F3F4F318320838A819B8169
:1023500093838283452B29F4F0930E07E0930D07B6
:1023600042C01396FC93EE931297ED014991599157
:102370009E01240F351FE217F30771F480819181CC
:10238000840F951F029611969C938E938281938160
:1023900013969C938E931297E0E0F0E0D80112968A
:1023A0008D919C911397009719F0F8018C01F6CF4D
:1023B0008D919C9198012E5F3F4F820F931F20912A
:1023C0000B0730910C072817390769F4309729F467
:1023D00010920E0710920D0702C013821282109302
:1023E0000C0700930B07DF91CF911F910F91089578
:1023F0006F927F928F929F92AF92BF92CF92DF9215
:10240000EF92FF920F931F93CF93DF93EC0100970E
:1024100089F4CB01DF91CF911F910F91FF90EF9045
:10242000DF90CF90BF90AF909F908F907F906F90F4
:102430000C94CB10FC01E60FF71F9C0122503109D0
:10244000E217F30708F4ACC0D9010D911C91119764
:1024500006171707B0F00530110508F49FC0C80132
:1024600004978617970708F499C002501109061BB4
:10247000170B019311936D937C93CF010E94601110
:102480008DC05B01A01AB10A4C01800E911EA09173
:102490000D07B0910E0740E050E0E12CF12C1097B1
:1024A00009F44AC0A815B905D1F56D907C90119733
:1024B000630182E0C80ED11CCA14DB0480F1A301C1
:1024C0004A195B096A0182E0C80ED11C1296BC90C1
:1024D00012971396AC91B5E0CB16D10440F0B282BE
:1024E000A38351834083D9016D937C930AC00E5F0F
:1024F0001F4FC301800F911FF90191838083EB2D42
:10250000FA2FE114F10431F0D7011396FC93EE9306
:10251000129744C0F0930E07E0930D073FC08D91D2
:102520009C9111974817590708F4AC017D01129648
:102530000D90BC91A02DB3CF80910B0790910C070B
:1025400088159905E1F446175707C8F480910102F0
:1025500090910202009741F48DB79EB74091050219
:1025600050910602841B950BE817F907C8F4F09305
:102570000C07E0930B07F901718360830FC0CB0157
:102580000E94CB107C01009759F0A801BE010E9467
:10259000E612CE010E946011C70104C0CE0102C044
:1025A00080E090E0DF91CF911F910F91FF90EF902D
:1025B000DF90CF90BF90AF909F908F907F906F9063
:1025C000089581E090E0F8940C94F612FB01DC0190
:1025D00002C001900D9241505040D8F70895FB0180
:1025E000DC0101900D920020E1F7089511E0CCE5A7
:1025F000D1E000E006C0802FFE010E94C3102196AA
:10260000011DCD35D10780E00807A9F7F894FFCF69
:10261000FF00000F07200000000000EB07BB07C60B
:10262000039507B307A407960700000000AF02EF69
:10263000013302F60264024202560200000000F377
:1026400003EF01C603C503536572766F20616E67A1
:102650006C65206973206F7574206F662072616EDF
:08266000676521000D0A00006E
:00000001FF
