:100000000C945F010C9490010C9490010C9490015D
:100010000C9490010C9490010C9490010C9490011C
:100020000C9490010C94000B0C94000B0C94000B9E
:100030000C9490010C94CC040C9490010C949001BD
:100040000C9490010C94FF070C9490010C94900177
:100050000C9490010C9490010C9490010C948204E7
:100060000C9490010C9491060C9467060C949001EA
:100070000C9490010C9490010C9490010C949001BC
:100080000C9490010C9490010C9490010C949001AC
:100090000C943D060C9413060C9490010C940A0BDE
:1000A0000C9490010C9490010C9490010C9490018C
:1000B0000C9490010C9490010C9490010C944107C5
:1000C0000C9490010C9490010C9490010C94E9050F
:1000D0000C94BF050C9490010C9495050C946B0541
:1000E0000C949001C503C803B703BB03C103FF030E
:1000F000CC03D003D603DA03DE03E403E803EC0306
:10010000FF03F203F603FA030C9457030C942F0930
:100110000C94F7080C94F2030C94EC030C94BB03BE
:100120000C94FF030C94DA030C9458020C94DE0335
:100130000C9466020C94DA080C9458030C94440254
:100140000C94D6030C94CB100C94BB020C94850336
:100150000C94F6030C94FF080C9435020C94FA03EB
:100160000C94C1030C94E8080C94CC030C943B074A
:100170000C94C5030C94B7030C94C5100C94D003D5
:100180000C94F1010C94E4030C94E8030C94C80360
:100190000C94D9080C9402030200002100240027CB
:1001A000002A002D00300033000101000004010787
:1001B000010A0100002200250028002B002E00313A
:1001C00000340002010000050108010B01000020BD
:1001D000002300260029002C002F0032000001001F
:1001E00000030106010901050505050705080808C2
:1001F00008020202020A0A080804040404010101B8
:1002000001010101010303030303030303040707BF
:10021000070C0C0C0C0C0C0C0C020202020606065D
:1002200006060606060B0B0B0B0B0B0B0B01021045
:100230002020080810204010204080020102010800
:1002400004020101020408102040808040201008B0
:100250000402018004020180402010080402010809
:100260000402010102040810204080010204081069
:1002700020408000000A0B02090C0D0E0807030441
:10028000010000000000000000000000000000006D
:10029000000000000000000000000000000000124C
:1002A000111000000000000000000000000000002D
:1002B00000000000000000000000CB10C510112459
:1002C0001FBECFEFD1E2DEBFCDBF00E00CBF12E01A
:1002D000A0E0B2E0EAE7FBE200E00BBF02C007905B
:1002E0000D92A636B107D9F727E0A6E6B2E001C025
:1002F0001D92A23DB207E1F711E0CEE5D1E000E0AA
:1003000006C021970109802FFE010E947813CD3588
:10031000D10780E00807A9F70E94880D0C94AB155F
:100320000C9400003FB7F89480918D0290918E025A
:10033000A0918F02B091900226B5A89B05C02F3FD7
:1003400019F00196A11DB11D3FBFBA2FA92F982FFB
:100350008827820F911DA11DB11DBC01CD0142E076
:10036000660F771F881F991F4A95D1F708958F92BE
:100370009F92AF92BF92CF92DF92EF92FF926B016A
:100380007C010E9492014B015C01C114D104E10483
:10039000F104F1F00E949201DC01CB018819990966
:1003A000AA09BB09883E9340A105B10570F321E07D
:1003B000C21AD108E108F10888EE880E83E0981E81
:1003C000A11CB11CC114D104E104F10419F7DDCF63
:1003D000FF90EF90DF90CF90BF90AF909F908F9065
:1003E0000895CF92DF92EF92FF920F931F93CF93D6
:1003F000DF936C017A018B01C0E0D0E0CE15DF0500
:1004000089F0D8016D918D01D601ED91FC9101909B
:10041000F081E02DC6011995892B11F47E0102C0EF
:100420002196ECCFC701DF91CF911F910F91FF90E3
:10043000EF90DF90CF900895FC01A089B1898C9155
:10044000A689B78982FD0FC09C91818D8F5F8F73C4
:10045000228D821749F0218DDF01A20FB11D5D961B
:100460009C93818F08958C910895FC01538D448D48
:10047000252F30E0842F90E0821B930B541710F04F
:10048000CF96089501970895FC01918D828D98175C
:1004900061F0828DDF01A80FB11D5D968C91928D68
:1004A0009F5F9F73928F90E008958FEF9FEF089565
:1004B000FC01918D828D981731F0828DE80FF11D2E
:1004C000858D90E008958FEF9FEF0895FC01918D49
:1004D000228D892F90E0805C9F4F821B91098F7342
:1004E0009927089583E393E00E94660221E0892B17
:1004F00009F420E0822F089580ED93E00E946602C7
:1005000021E0892B09F420E0822F08958DE694E004
:100510000E94660221E0892B09F420E0822F0895D1
:100520008AE095E00E94660221E0892B09F420E030
:10053000822F0895FC01848DDF01A80FB11DA35AFD
:10054000BF4F2C91848D90E001968F739927848FF3
:10055000A689B7892C93A089B1898C9180648C93EA
:10056000938D848D981306C00288F389E02D8081D5
:100570008F7D80830895EF92FF920F931F93CF9307
:10058000DF93EC0181E0888F9B8D8C8D981305C0E3
:10059000E889F989808185FD24C0F62E0B8D10E055
:1005A0000F5F1F4F0F731127E02E8C8DE8120CC0C8
:1005B0000FB607FCFACFE889F989808185FFF5CF6E
:1005C000CE010E949A02F1CF8B8DFE01E80FF11D42
:1005D000E35AFF4FF0820B8FEA89FB8980818062AA
:1005E00007C0EE89FF896083E889F989808180648A
:1005F000808381E090E0DF91CF911F910F91FF9078
:10060000EF900895CF93DF93EC01888D8823C9F094
:10061000EA89FB89808185FD05C0A889B9898C910B
:1006200086FD0FC00FB607FCF5CF808185FFF2CFA6
:10063000A889B9898C9185FFEDCFCE010E949A02DD
:10064000E7CFDF91CF910895E0E0F0E0199480E0EA
:1006500090E0892B21F00E949002811115C080E06A
:1006600090E0892B21F00E948602811110C00E9427
:100670007C0281110FC080E090E0892B81F00E9404
:10068000720281110AC008950E940000E8CF0E9402
:100690000000EDCF0E942403EECF0C9400000895DB
:1006A0008EBD00000DB407FEFDCF8EB508950895F0
:1006B00080E090E008950E949615FC01248131E0CD
:1006C000309396022093980210929702109299020A
:1006D0008485682B87E293E00E942F090C94B90966
:1006E0000F931F93CF938C01C62F64600E945D030C
:1006F0006C2F6B7FC8010E945D0383EC90E0019733
:10070000F1F7CF911F910F9108950F931F93CF93FE
:10071000DF938C01C62FD62FD07FD1606D2F0E9422
:100720005D036D2FC8010E94700380E1C89FB00176
:100730001124C62FC1606C2FC8010E945D036C2F6D
:10074000C8010E94700381E090E0DF91CF911F917A
:100750000F91089590E0FC013197E231F10508F026
:100760004EC08827EE58FF4F8F4F0C94781380911E
:1007700080008F7703C0809180008F7D8093800000
:10078000089580918000877FF9CF84B58F7702C06C
:1007900084B58F7D84BD08958091B0008F7703C0AC
:1007A0008091B0008F7D8093B0000895809190007B
:1007B0008F7707C0809190008F7D03C0809190005B
:1007C000877F8093900008958091A0008F7707C065
:1007D0008091A0008F7D03C08091A000877F8093CF
:1007E000A0000895809120018F7707C0809120019B
:1007F0008F7D03C080912001877F80932001089521
:100800001F93CF93DF93282F30E0F901ED58FD4F70
:100810008491F901E35DFD4FD491F901E951FE4F57
:10082000C491CC23C9F0162F81110E94AA03EC2F8A
:10083000F0E0EE0FFF1FED54FE4FA591B4918FB77E
:10084000F894111105C09C91ED2FE095E92302C0A9
:10085000EC91ED2BEC938FBFDF91CF911F91089519
:10086000CF93DF93EC0160E08E810E94000461E091
:100870008E810E94000460E08E810E9400048BE85B
:1008800091E00197F1F7DF91CF910895CF93DF9336
:1008900090E0FC01E35DFD4F2491FC01E951FE4F26
:1008A0008491882361F190E0880F991FFC01E7563D
:1008B000FE4FC591D491FC01ED54FE4FA591B4912A
:1008C000611109C09FB7F89488812095822388839D
:1008D000EC912E230BC0623061F49FB7F8943881FD
:1008E000822F809583238883EC912E2B2C939FBF9E
:1008F00006C08FB7F894E8812E2B28838FBFDF9135
:10090000CF9108951F920F920FB60F9211242F933B
:100910003F938F939F93AF93BF9380918902909160
:100920008A02A0918B02B0918C023091880223E060
:10093000230F2D3720F40196A11DB11D05C026E817
:10094000230F0296A11DB11D209388028093890276
:1009500090938A02A0938B02B0938C0280918D02B7
:1009600090918E02A0918F02B09190020196A11DEC
:10097000B11D80938D0290938E02A0938F02B0934D
:100980009002BF91AF919F918F913F912F910F90C6
:100990000FBE0F901F9018951F920F920FB60F92D7
:1009A00011240BB60F922F933F934F935F936F9346
:1009B0007F938F939F93AF93BF93EF93FF93809118
:1009C000830290918402A0918502B0918602892BC6
:1009D0008A2B8B2B59F180918202E0918002F09159
:1009E0008102908189278083809183029091840283
:1009F000A0918502B0918602181619061A061B06E8
:100A00000CF056C08091830290918402A0918502DF
:100A1000B09186020197A109B10980938302909356
:100A20008402A0938502B093860242C080910002A6
:100A3000E8E9F1E0E4919FEF90930002E230C9F021
:100A400050F4EE2399F0E13081F590916F009D7F95
:100A500090936F002AC0E43019F1E0F0E53029F5F9
:100A6000909173009D7F909373001FC010926E0051
:100A70001CC0909170009D7F9093700091E09093C6
:100A8000B0009091B100987F94609093B100109263
:100A9000B3000BC0909171009D7F9093710005C0D1
:100AA000909172009D7F9093720060E00E9400041C
:100AB000FF91EF91BF91AF919F918F917F916F9136
:100AC0005F914F913F912F910F900BBE0F900FBEF2
:100AD0000F901F9018951F920F920FB60F9211242E
:100AE0000BB60F922F933F934F935F936F937F9328
:100AF0008F939F93AF93BF93EF93FF9383E393E021
:100B00000E949A02FF91EF91BF91AF919F918F91B7
:100B10007F916F915F914F913F912F910F900BBEFD
:100B20000F900FBE0F901F9018951F920F920FB647
:100B30000F9211240BB60F922F933F934F935F9315
:100B40006F937F938F939F93AF93BF93EF93FF9395
:100B500083E393E00E941C02FF91EF91BF91AF915C
:100B60009F918F917F916F915F914F913F912F91C5
:100B70000F900BBE0F900FBE0F901F9018951F92F5
:100B80000F920FB60F9211240BB60F922F933F9333
:100B90004F935F936F937F938F939F93AF93BF9385
:100BA000EF93FF9380ED93E00E949A02FF91EF9103
:100BB000BF91AF919F918F917F916F915F914F9175
:100BC0003F912F910F900BBE0F900FBE0F901F9073
:100BD00018951F920F920FB60F9211240BB60F9219
:100BE0002F933F934F935F936F937F938F939F9335
:100BF000AF93BF93EF93FF9380ED93E00E941C02AD
:100C0000FF91EF91BF91AF919F918F917F916F91E4
:100C10005F914F913F912F910F900BBE0F900FBEA0
:100C20000F901F9018951F920F920FB60F921124DC
:100C30000BB60F922F933F934F935F936F937F93D6
:100C40008F939F93AF93BF93EF93FF938DE694E0C1
:100C50000E949A02FF91EF91BF91AF919F918F9166
:100C60007F916F915F914F913F912F910F900BBEAC
:100C70000F900FBE0F901F9018951F920F920FB6F6
:100C80000F9211240BB60F922F933F934F935F93C4
:100C90006F937F938F939F93AF93BF93EF93FF9344
:100CA0008DE694E00E941C02FF91EF91BF91AF91FD
:100CB0009F918F917F916F915F914F913F912F9174
:100CC0000F900BBE0F900FBE0F901F9018951F92A4
:100CD0000F920FB60F9211240BB60F922F933F93E2
:100CE0004F935F936F937F938F939F93AF93BF9334
:100CF000EF93FF938AE095E00E949A02FF91EF91B3
:100D0000BF91AF919F918F917F916F915F914F9123
:100D10003F912F910F900BBE0F900FBE0F901F9021
:100D200018951F920F920FB60F9211240BB60F92C7
:100D30002F933F934F935F936F937F938F939F93E3
:100D4000AF93BF93EF93FF938AE095E00E941C025C
:100D5000FF91EF91BF91AF919F918F917F916F9193
:100D60005F914F913F912F910F900BBE0F900FBE4F
:100D70000F901F901895CF92DF92EF92FF920F93F2
:100D80001F93CF93DF937C016C0187E0C80ED11CC9
:100D9000C0E0D0E0062F10E0B8010C2E02C075951F
:100DA00067950A94E2F76170F60181916F010E94E4
:100DB00000042196C430D10579F7C701DF91CF91A6
:100DC0001F910F91FF90EF90DF90CF900C94300423
:100DD000CF92DF92EF92FF920F931F93CF93DF9307
:100DE000EC01F62E642F8C810E9400048D818F3FD0
:100DF00019F060E00E9400048F850F2D10E084FF41
:100E000025C06E0187E0C80ED11CE12CF12CB80181
:100E10000E2C02C0759567950A94E2F76170F60191
:100E200081916F010E940004FFEFEF1AFF0A88E032
:100E3000E816F10461F7CE01DF91CF911F910F9178
:100E4000FF90EF90DF90CF900C943004B80184E0D5
:100E5000759567958A95E1F7CE010E94BB066F2DC7
:100E6000CE01DF91CF911F910F91FF90EF90DF9016
:100E7000CF900C94BB0641E00E94E80681E090E030
:100E800008951F920F920FB60F9211240BB60F9276
:100E90002F933F934F935F936F937F938F939F9382
:100EA000AF93BF93EF93FF938091A8050E943C0CF2
:100EB0002091AC053091AD052F5F3F4F3093AD05CC
:100EC0002093AC059091AB05953618F096E0909381
:100ED000A7059091A7059430C9F128F4923069F0E4
:100EE0009330D1F05EC0953009F451C0963009F0CE
:100EF00058C091E09093780651C0811152C0209162
:100F0000AC053091AD052436310508F442C010928D
:100F100078061092AB051CC0813009F042C0E09108
:100F2000AB0591E09E0F9093AB05F0E02091AC05EE
:100F30003091AD05EE0FFF1FE955FA4F308727833B
:100F40001092AD051092AC0594E029C0811117C034
:100F5000E091AB0591E09E0F9093AB05F0E02091FE
:100F6000AC053091AD05EE0FFF1FE955FA4F308704
:100F700027831092AD051092AC0593E010C020912C
:100F8000AC053091AD052536310558F007C081110B
:100F900008C01092AD051092AC0503C095E0909387
:100FA000A7059091AA059923B9F081110AC08091F3
:100FB000A905882321F08091A90561E009C02F9A35
:100FC0000BC08091A905882331F08091A90560E0CC
:100FD0000E94000401C02F98FF91EF91BF91AF9143
:100FE0009F918F917F916F915F914F913F912F9141
:100FF0000F900BBE0F900FBE0F901F9018951F9271
:101000000F920FB60F9211240BB60F922F933F93AE
:101010004F935F936F937F938F939F93AF93BF9300
:10102000EF93FF9380917F0287FF05C010928500A8
:101030001092840016C020917F02022E000C330B08
:101040008091B50690E0281739075CF430917F0253
:1010500025E03203F0011124E758F94F808186FD25
:1010600015C080917F028F5F80937F0220917F0265
:10107000022E000C330B8091B50690E0281739073B
:1010800094F480917F028C302CF10DC030917F025E
:101090003203F0011124E758F94F808160E08F732B
:1010A0000E940004DECF80918400909185008434FA
:1010B0009C4918F480E49CE905C0809184009091DB
:1010C0008500049690938900809388008FEF809329
:1010D0007F022AC0409184005091850030917F02A8
:1010E00025E03203F0011124E758F94F8181928104
:1010F000840F951F909389008093880030917F0220
:101100003203F0011124E758F94F808186FF0CC0AB
:1011100030917F023203F0011124E758F94F8081AA
:1011200061E08F730E940004FF91EF91BF91AF9136
:101130009F918F917F916F915F914F913F912F91EF
:101140000F900BBE0F900FBE0F901F90189585ED5E
:101150008093BC008091BC0084FDFCCF109295026E
:1011600008954091BC02262F30E0240F311D21321A
:101170003105DCF4209195022430C9F4FC0180E0B3
:1011800090E0861758F43091BC022191DC01A656FC
:10119000BD4FA30FB11D2C930196F3CF8091BC02DC
:1011A000680F6093BC0280E0089581E0089582E0BA
:1011B0000895089581E090E030919202209191028B
:1011C000321710F480E090E091958195910908958F
:1011D0008091920290919102891730F48F5F8093F1
:1011E000920280E090E008958FEF9FEF0895809144
:1011F000910290E020919202821B91090895CF9272
:10120000DF92EF92FF920F931F93CF93DF937C01B6
:10121000262F972F8A0180919602882391F0C62F5E
:10122000D72F6E01C40ED51ECC15DD0571F0699166
:10123000D701ED91FC910190F081E02DC701199546
:10124000F3CF642F822F0E94B108C801DF91CF91A4
:101250001F910F91FF90EF90DF90CF900895CF9363
:10126000DF931F92CDB7DEB76983209196022223C8
:10127000D1F020919902203240F021E030E0FC01D1
:101280003383228380E090E015C080919702E82F9D
:10129000F0E0E95FFC4F998190838F5F8093970224
:1012A0008093990205C061E0CE0101960E94B108C9
:1012B00081E090E00F90DF91CF9108951F93CF933D
:1012C000DF93EC01162F88818C3008F04DC061E06F
:1012D000812F0E944604E88195E09E9FF001112431
:1012E000E758F94F1F738081807C182B108313827D
:1012F000E8819E9FF0011124E758F94F14828881FC
:101300006CE00E946C139CE0899FA001112420E0F6
:1013100030E095E0B901640F751F969FF001979F2B
:10132000F00D1124E758F94F608166FD13C02F5F5F
:101330003F4F2C30310571F781110CC010928000A5
:1013400082E080938100109285001092840086BB19
:1013500080936F00E88185E0E89FF0011124E75851
:10136000F94F8081806480838881DF91CF911F91C4
:1013700008952091990290919802213208F04AC074
:10138000809195028111FCCF32E03093950231E0DB
:10139000309394023FEF309306031092050320939D
:1013A0000403A7E0B3E044EE52E0FA013E2F341B01
:1013B000321718F43D913193F9CF1092E302209146
:1013C000E302990F922B9093E30290919302913054
:1013D00061F4109293029091E3029093BB0090917C
:1013E000BC0093FDF8CF95EC01C095EE9093BC0046
:1013F000909195029230E1F3909106039F3F79F02E
:1014000080910603803241F080910603803331F0F1
:1014100084E005C081E003C082E001C083E0109257
:10142000970210929902109296020895EF92FF92FD
:101430001F93CF93DF931F92CDB7DEB7162F97E997
:10144000E92E97E0F92ED7011C969C911C9721E07C
:10145000209396029093980210929702109299020C
:101460001A960D90BC91A02DED91FC9111970190D1
:10147000F081E02D682FCD0179831995F7018285E0
:101480009385DC01ED91FC910190F081E02D798153
:10149000672F1995F70182859385DC01ED91FC9109
:1014A0000190F081E02D612F19950F90DF91CF9180
:1014B0001F91FF90EF900C94B909CF92DF92EF92B9
:1014C000FF92CF93DF939091C207891720F09091FC
:1014D000C307981770F488E492E00E94760D85E4C3
:1014E00092E0DF91CF91FF90EF90DF90CF900C943E
:1014F000760DC091C807CC3008F07BC0282F30E0B3
:10150000D0E0283C3105E4F595E09C9FF0019D9FDB
:10151000F00D1124E758F94F938128E830E0690174
:10152000C91AD10897FDD394CC0CDD1CCC0CDD1C62
:101530000D2C000CEE08FF08948128E532E0291BF1
:10154000310997FD3395220F331F220F331FA90155
:10155000330F660B770B9A01AB012C193D094E092D
:101560005F09A82FB0E00E94301324EB30E040E088
:1015700050E00E941113C20ED31EE41EF51E27C0B8
:1015800085E08C9FF0018D9FF00D1124E758F94FF5
:10159000838148E850E06A01C81AD10887FDD394D6
:1015A000CC0CDD1CCC0CDD1C2C153D0584F04481DD
:1015B00088E592E0841B910947FD9395880F991F58
:1015C000880F991F69018C159D050CF46C018FB76C
:1015D000F89495E09C9FF0019D9FF00D1124E75831
:1015E000F94F96E0C91AD108CC0CDD1CD282C18219
:1015F0008FBFDF91CF91FF90EF90DF90CF90089554
:101600001F920F920FB60F9211240F900FBE0F90E2
:101610001F9018951F920F920FB60F9211240BB6C0
:101620000F922F933F934F935F936F937F938F937B
:101630009F93AF93BF93EF93FF938091B900887FFF
:10164000803609F49CC068F5883209F45BC090F4D8
:10165000803109F454C038F4882309F4F6C0883086
:1016600009F44DC0F6C0883109F44CC0803209F449
:101670005DC0EFC0803409F468C048F4803309F4D9
:1016800055C0883309F0E5C080930603D8C0803583
:1016900009F44FC0883509F45DC0883409F0D9C019
:1016A000D6C0883909F4C7C0A8F4883709F467C0E0
:1016B00038F4883609F463C0803709F460C0C9C0C3
:1016C000883809F4B8C0803909F45FC0803809F05F
:1016D000C0C05BC0803B09F486C038F4803A09F48E
:1016E00066C0883A09F47FC0B4C0803C09F4A7C042
:1016F000883C09F4A4C0883B09F48AC0AAC0809140
:10170000E30210C09091050380910403981770F5CF
:10171000E091050381E08E0F80930503F0E0EC512A
:10172000FD4F80818093BB0085EC86C080930603CB
:101730008EC0E091050381E08E0F809305038091B8
:10174000BB00F0E0EC51FD4F808390910503809148
:1017500004036EC0E091050381E08E0F80930503C2
:101760008091BB00F0E0EC51FD4F808380919402AA
:1017700081116DC081E08093930284EA61C083E0AF
:10178000809395021092E002CFCF8091E0028032E8
:1017900008F051C0E091E00281E08E0F8093E002FA
:1017A0008091BB00F0E0E054FD4F8083BDCF85EC1D
:1017B0008093BC00109295028091E002803230F458
:1017C000E091E002F0E0E054FD4F10826091E00211
:1017D00070E0E091BE02F091BF0280EC92E01995BA
:1017E0001092E00236C084E0809395021092BD0210
:1017F0001092BC02E091BA02F091BB02199580915F
:10180000BC02811105C081E08093BC0210929A0253
:10181000E091BD0281E08E0F8093BD02F0E0E656BC
:10182000FD4F80818093BB009091BD028091BC02EE
:10183000981708F479CF85E88093BC000AC085EC3E
:101840008093BC001092950204C0109206030E947F
:10185000A708FF91EF91BF91AF919F918F917F91D9
:101860006F915F914F913F912F910F900BBE0F9011
:101870000FBE0F901F901895CF93DF93282F30E065
:10188000F901ED58FD4F8491F901E35DFD4FD491CD
:10189000F901E951FE4FC491CC2391F081110E94CE
:1018A000AA03EC2FF0E0EE0FFF1FE353FE4FA591CC
:1018B000B491EC91ED2381E090E021F480E002C04E
:1018C00080E090E0DF91CF910895EF92FF920F9327
:1018D0001F93CF93DF93EC01623018F08F858860FF
:1018E0008F876B8B1C8A80E48D8B80E18E8B80E5EB
:1018F0008F8B61E08C810E9446048D818F3F19F0AF
:1019000061E00E94460461E08E810E9446047E01EF
:1019100087E0E80EF11C00E010E08F8584FD03C035
:1019200084E090E002C088E090E0081719074CF4CA
:1019300061E0F70181917F010E9446040F5F1F4F14
:10194000ECCF8BE39DE00197F1F760E08C810E9482
:10195000000460E08E810E9400048D818F3F19F0A9
:1019600060E00E9400046F8564FD1DC063E0CE014D
:101970000E94BB060BE416E4C8010197F1F763E08F
:10198000CE010E94BB06C8010197F1F763E0CE01CA
:101990000E94BB0683E592E00197F1F762E0CE0179
:1019A0000E94BB0619C0606240E0CE010E94E806BA
:1019B0008BE496E40197F1F76F85606240E0CE0119
:1019C0000E94E80683E592E00197F1F76F85606277
:1019D00040E0CE010E94E8066F85606240E0CE01E3
:1019E0000E94E80684E0888B40E06CE0CE010E9413
:1019F000E80640E061E0CE010E94E8068BE39FE14B
:101A00000197F1F782E0898B40E066E0CE01DF913B
:101A1000CF911F910F91FF90EF900C94E806CF9219
:101A2000DF92EF92FF920F931F93CF93DF93EC011E
:101A30006A017B01E889F98982E080834115514E72
:101A400061057105B1F060E079E08DE390E0A701F8
:101A500096010E943B1389019A0101501109210945
:101A6000310936952795179507959801011510416D
:101A7000A8F0E889F989108260E874E88EE190E0C6
:101A8000A70196010E943B13DA01C9010197A10940
:101A9000B109B695A795979587959C01EC85FD852D
:101AA0003083EE85FF852083188EEC89FD8986E0E2
:101AB0008083EA89FB89808180618083EA89FB8950
:101AC000808188608083EA89FB8980818068808347
:101AD000EA89FB8980818F7D8083DF91CF911F917F
:101AE0000F91FF90EF90DF90CF900895009769F0ED
:101AF000FC0101900020E9F73197AF01481B590B19
:101B0000BC018AE095E00C94F10180E090E008953A
:101B1000CF93DF93CDB7DEB7A1970FB6F894DEBFB2
:101B20000FBECDBF789484B5826084BD84B58160DA
:101B300084BD85B5826085BD85B5816085BD809198
:101B40006E00816080936E00109281008091810010
:101B50008260809381008091810081608093810008
:101B6000809180008160809380008091B1008460CA
:101B70008093B1008091B00081608093B00080912B
:101B800091008260809391008091910081608093A8
:101B90009100809190008160809390008091A100DD
:101BA00082608093A1008091A10081608093A10058
:101BB0008091A00081608093A000809121018260CB
:101BC0008093210180912101816080932101809186
:101BD000200181608093200180917A00846080934D
:101BE0007A0080917A00826080937A0080917A00F6
:101BF000816080937A0080917A00806880937A0077
:101C00001092C10040E855E260E070E08AE095E0A3
:101C10000E940F0D61E0809198070E94460460E0E9
:101C2000809198070E94000460E0809197070E94CD
:101C3000460487E293E09093A2078093A107109255
:101C400092021092910210929702109299021092B1
:101C5000950281E0809394021092930261E084E106
:101C60000E94000461E085E10E9400048091B900B7
:101C70008E7F8093B9008091B9008D7F8093B900E9
:101C800088E48093B80085E48093BC0080E090E114
:101C9000A0E0B0E08093A4079093A507A093A607C7
:101CA000B093A7078AE090E0A0E0B0E08093A80797
:101CB0009093A907A093AA07B093AB0780E090E0A8
:101CC000A0E0B0E48093AC079093AD07A093AE077B
:101CD000B093AF0760E070E185E00E94160A6FE9FB
:101CE00079E380E00E94160A04EB17E0A12CB12CE6
:101CF000C12CD12CECE12E2EE2E03E2EFBEC8F2EFF
:101D0000F7E09F2EABE86A2E77247394960129564C
:101D1000384F2901F9019481828195012956384F64
:101D20007901F901818F928F61E00E94460461E0A0
:101D3000F701828D0E944604F20190858681F801A8
:101D40008083F701968F61E00E94460460E0F7010E
:101D5000868D0E94460461E0F80180810E940004A3
:101D6000FFB6F89480918702811126C0F101849119
:101D7000E2E6F2E09491E82FF0E0EE0FFF1FE75665
:101D8000FE4FA591B4918C91982321F461E085E3F5
:101D90000E94000461E085E30E9446048CB58061E6
:101DA0008CBD8CB580648CBD61E084E30E944604E8
:101DB00061E083E30E944604809187028F5F8093F5
:101DC0008702FFBEC4010197F1F760E0F80180814E
:101DD0000E94000488E80E94500383E00E945003A0
:101DE00061E0F80180810E940004C4010197F1F7CD
:101DF00060E0F80180810E94000488E90E9450039D
:101E000080E00E94500380E00E94500380E00E9426
:101E1000500380E00E94500361E0F80180810E943D
:101E20000004C3010197F1F760E0F80180810E948E
:101E3000000480EE0E94500361E0F80180810E945E
:101E40000004F2E0AF0EB11C0E5F1F4FCA94CD2804
:101E500021F0CC24C394D12C59CF0CEB17E054E0E3
:101E6000F52EF00E60E0F80181918F010E9446048A
:101E7000F012F8CF3BECE32E37E0F32E06EC17E040
:101E800042E0D42ED00EF8013697608170E0C80190
:101E900002960E945E09F80191918F01339780812B
:101EA000F70131978083F701908360E00E94460438
:101EB00061E0F70180810E94460460E0F7018081C3
:101EC0000E940004F2E0EF0EF11CD012DCCFF89477
:101ED0001092200189E08093210180E293E09093A9
:101EE000290180932801109225011092240182E09B
:101EF0008093730078948093A7051092AB0580912E
:101F0000A80560E00E94460440E855E260E070E009
:101F10008AE095E00E940F0D40E051EE60E070E035
:101F20008DE694E00E940F0D89E190E0A0E0B0E022
:101F30008093710490937204A0937304B09374041B
:101F400060E080E40E94460460E08FE30E94460463
:101F500060E08CE30E94460460E08DE30E9446044A
:101F600060E08EE30E94460462E080E30E94460443
:101F700060E082E00E94460460E083E00E94460444
:101F800060E084E00E94460460E085E00E94460430
:101F900060E08BE00E94460460E08CE00E94460412
:101FA00062E086EB96E00E94650C60E08CE20E94A5
:101FB000460468E873E180E090E00E94B7019DE785
:101FC000A92EB12C2AE0422E512C612C712C80912B
:101FD000BF070E943C0C892B09F4CEC0B0920202CC
:101FE000A09201026091C00770E088EC97E00E9427
:101FF0005E098DE70E945D0A64E670E080E090E093
:102000000E94B70101E010E085E0982E0130110533
:1020100009F081C0809101020E945D0A64E170E0D4
:1020200080E090E00E94B70180E30E943C0C892B85
:1020300009F058C0E091C8079E9EF0011124E758AE
:10204000F94F80818F7B8083C0900102D090020283
:102050000D2C000CEE08FF08F7FE26C0E0910A05E3
:10206000F0910B050190F081E02D6DE28AE095E0A2
:10207000199522273327A9012C193D094E095F091B
:1020800019A28E010F5D1F4FCA01B901A301920170
:102090000E943B13605DF80162938F0121153105A9
:1020A0004105510589F715C0A701960119A28E01B6
:1020B0000F5D1F4FCA01B901A30192010E943B139A
:1020C000605DF80162938F012115310541055105CD
:1020D00089F7C8010E94760D85E492E00E94760D92
:1020E00000E010E08091010290910202019790932C
:1020F0000202809301024B9709F088CFE091C80754
:102100009E9EF0011124E758F94F80818F7B8083D8
:1021100000E010E07BCFE091C80725E0E29FF001EE
:102120001124E758F94F80818F7B80836091C0072D
:1021300070E088EC97E00E945E0964E670E080E061
:1021400090E00E94B70180910102909102028D37C8
:10215000910564F4019690930202809301020E941B
:102160005D0A64E170E080E090E0EBCF64E170E054
:1021700080E090E00E94B7016AE070E080E090E0CB
:102180000E94B7010E94270322CF8091CE06909132
:10219000CF060C94151410922A031092290388EE8E
:1021A00093E0A0E0B0E080932B0390932C03A093E6
:1021B0002D03B0932E032DE032E0309328032093BB
:1021C00027031092360310923503809337039093C0
:1021D0003803A0933903B0933A032FE132E03093F0
:1021E00034032093330345E351E05093400340937D
:1021F0003F0344E351E0509342034093410340E3E3
:1022000051E0509344034093430341E351E0509322
:1022100046034093450342E351E050934803409303
:10222000470346E351E050934A0340934903109219
:102230004C0310924D0310924E0310924F031092D4
:10224000D3031092D2038093D4039093D503A09329
:10225000D603B093D7033093D1032093D00345ED39
:1022600050E05093DD034093DC0344ED50E0509385
:10227000DF034093DE0340ED50E05093E1034093D1
:10228000E00341ED50E05093E3034093E20342ED5D
:1022900050E05093E5034093E40346ED50E0509343
:1022A000E7034093E6031092E9031092EA031092C9
:1022B000EB031092EC031092700410926F04809361
:1022C000710490937204A0937304B09374043093D8
:1022D0006E0420936D044DEC50E050937A044093CB
:1022E00079044CEC50E050937C0440937B0448EC20
:1022F00050E050937E0440937D0449EC50E05093AD
:10230000800440937F044AEC50E050938204409351
:1023100081044EEC50E05093840440938304109267
:1023200086041092870410928804109289041092F7
:102330000D0510920C0580930E0590930F05A09348
:102340001005B093110530930B0520930A0585EC19
:1023500090E0909317058093160584EC90E090939D
:1023600019058093180580EC90E090931B058093ED
:102370001A0581EC90E090931D0580931C0582EC7A
:1023800090E090931F0580931E0586EC90E090935B
:1023900021058093200510922305109224051092A8
:1023A00025051092260586E38093B80787E380937E
:1023B000B90788E38093BA0789E38093BB078BE171
:1023C0008093BC078DE18093BD078AE18093BE07AF
:1023D0008CE18093BF0784E08093C00787E08093FF
:1023E000C1071092C20784EB8093C30786E18093F4
:1023F000C40788E18093C50787E18093C60789E118
:102400008093C707E091B506EC3020F08FEF809302
:10241000C80710C081E08E0F8093B506E093C8070F
:1024200025E0E29FF0011124E758F94F88EB9BE08B
:1024300092838183E091B506EC3020F08FEF80939A
:10244000C90710C081E08E0F8093B506E093C907DD
:1024500085E0E89FF0011124E758F94F88EB9BE0F5
:10246000928381838CE08093970784E2809398071E
:1024700086E08093990785E080939A078FE18093A7
:102480009B078EE180939C0783E280939D0782E205
:1024900080939E0785E480939F0784E48093A00740
:1024A00080E48093A3071092A8071092A9071092C6
:1024B000AA071092AB071092AC071092AD071092CA
:1024C000AE071092AF07E9EDF6E08FEF9FEFDC016A
:1024D0001282138214821582168217821086118648
:1024E00083879487A587B6878787908BA18BB28BCC
:1024F000128611821082739627E0E739F20741F7BE
:102500008DE090E00E948013FC01138212828DE323
:1025100092E091838083118687E2848384E18287BD
:1025200084E083871486F093D606E093D506109254
:10253000D7061092D80685E28093A8051092AA05C6
:102540001092CF061092CE061092D1061092D006AD
:102550001092D3061092D20661E070E080E090E025
:102560000E94AD14009791F09093CF068093CE0611
:102570001092D1061092D0062091D2063091D30647
:10258000232B09F045C0FC01108242C08091CE0689
:102590009091CF06009711F00E9415141092CF066B
:1025A0001092CE061092D3061092D2061092D10647
:1025B0001092D0061092B9061092B80681E392E00C
:1025C0009093B7068093B6068CE08093BA068FEF9F
:1025D0008093BB068BE08093BC0685E08093BD06AC
:1025E00084E08093BE0683E08093BF0682E0809300
:1025F000C0061092C1061092C2061092C306109235
:10260000C4061092C50661E086EB96E00C94650C5A
:102610001092D3061092D20667E472E00E94A415CD
:10262000C9CF052E97FB1EF400940E94281357FD76
:1026300007D00E943B1307FC03D04EF40C942813E0
:1026400050954095309521953F4F4F4F5F4F0895DE
:1026500090958095709561957F4F8F4F9F4F08950E
:102660000E945D13A59F900DB49F900DA49F800DB7
:10267000911D11240895A1E21A2EAA1BBB1BFD0176
:102680000DC0AA1FBB1FEE1FFF1FA217B307E40751
:10269000F50720F0A21BB30BE40BF50B661F771FA9
:1026A000881F991F1A9469F7609570958095909589
:1026B0009B01AC01BD01CF010895A29FB001B39F62
:1026C000C001A39F700D811D1124911DB29F700D3B
:1026D000811D1124911D0895991B79E004C0991F53
:1026E000961708F0961B881F7A95C9F7809508956C
:1026F000EE0FFF1F881F8BBF0790F691E02D1994F6
:10270000CF93DF938230910510F482E090E0E09166
:10271000D007F091D10720E030E0C0E0D0E0309762
:1027200011F14081518148175907C0F048175907E6
:1027300061F482819381209719F09B838A832BC057
:102740009093D1078093D00726C02115310519F049
:102750004217530718F49A01BE01DF01EF0102800E
:10276000F381E02DDCCF2115310509F1281B390B50
:102770002430310590F412968D919C911397611538
:10278000710521F0FB019383828304C09093D107EC
:102790008093D007FD01329644C0FD01E20FF31F84
:1027A00081939193225031092D933C933AC020910B
:1027B000CE073091CF07232B41F4209105023091B1
:1027C00006023093CF072093CE0720910302309169
:1027D00004022115310541F42DB73EB7409107029F
:1027E00050910802241B350BE091CE07F091CF07E2
:1027F000E217F307A0F42E1B3F0B2817390778F0D8
:10280000AC014E5F5F4F2417350748F04E0F5F1F36
:102810005093CF074093CE078193919302C0E0E09D
:10282000F0E0CF01DF91CF9108950F931F93CF93E5
:10283000DF93009709F48CC0FC0132971382128257
:102840000091D0071091D1070115110581F4208165
:102850003181820F931F2091CE073091CF07281727
:10286000390779F5F093CF07E093CE0771C0D8010F
:1028700040E050E0AE17BF0750F412962D913C9106
:102880001397AD012115310509F1D901F3CF9D0150
:10289000DA013383228360817181860F971F82174B
:1028A000930769F4EC0128813981260F371F2E5FC9
:1028B0003F4F318320838A819B8193838283452B81
:1028C00029F4F093D107E093D00742C01396FC930C
:1028D000EE931297ED01499159919E01240F351FF6
:1028E000E217F30771F480819181840F951F02969E
:1028F00011969C938E938281938113969C938E93D1
:102900001297E0E0F0E0D80112968D919C91139718
:10291000009719F0F8018C01F6CF8D919C919801E8
:102920002E5F3F4F820F931F2091CE073091CF072C
:102930002817390769F4309729F41092D1071092BB
:10294000D00702C0138212821093CF070093CE07E4
:10295000DF91CF911F910F9108956F927F928F9287
:102960009F92AF92BF92CF92DF92EF92FF920F931E
:102970001F93CF93DF93EC01009789F4CB01DF9194
:10298000CF911F910F91FF90EF90DF90CF90BF906C
:10299000AF909F908F907F906F900C948013FC016C
:1029A000E60FF71F9C0122503109E217F30708F4E4
:1029B000ACC0D9010D911C91119706171707B0F003
:1029C0000530110508F49FC0C801049786179707C2
:1029D00008F499C002501109061B170B01931193BB
:1029E0006D937C93CF010E9415148DC05B01A01ADA
:1029F000B10A4C01800E911EA091D007B091D10771
:102A000040E050E0E12CF12C109709F44AC0A815E1
:102A1000B905D1F56D907C901197630182E0C80EE5
:102A2000D11CCA14DB0480F1A3014A195B096A01B5
:102A300082E0C80ED11C1296BC9012971396AC91EE
:102A4000B5E0CB16D10440F0B282A383518340831A
:102A5000D9016D937C930AC00E5F1F4FC301800F95
:102A6000911FF90191838083EB2DFA2FE114F1047A
:102A700031F0D7011396FC93EE93129744C0F09374
:102A8000D107E093D0073FC08D919C9111974817D3
:102A9000590708F4AC017D0112960D90BC91A02D50
:102AA000B3CF8091CE079091CF0788159905E1F4B7
:102AB00046175707C8F480910302909104020097CB
:102AC00041F48DB79EB74091070250910802841BD4
:102AD000950BE817F907C8F4F093CF07E093CE07FA
:102AE000F901718360830FC0CB010E9480137C01C8
:102AF000009759F0A801BE010E949B15CE010E94CB
:102B00001514C70104C0CE0102C080E090E0DF913F
:102B1000CF911F910F91FF90EF90DF90CF90BF90DA
:102B2000AF909F908F907F906F90089581E090E09C
:102B3000F8940C94AB15FB01DC0102C001900D92DE
:102B400041505040D8F70895FB01DC0101900D92EF
:102B50000020E1F7089511E0CEE5D1E000E006C0E5
:102B6000802FFE010E9478132196011DCF35D107D9
:0A2B700080E00807A9F7F894FFCFF2
:102B7A00FF7D000000D2072000000000002F09FF9F
:102B8A00085803D908F708E808DA0800000000BB6B
:102B9A0002F10135020203660244025802000000F3
:102BAA00003B07F10158035703000000008503F1B9
:102BBA0001580357030D0A00536572766F20616E40
:102BCA00676C65206973206F7574206F6620726167
:062BDA006E67652100009A
:00000001FF
