:100000000C9495010C94C6010C94C6010C94C60185
:100010000C94C6010C94C6010C94C6010C94C60144
:100020000C94C6010C94AC0C0C94AC0C0C94AC0C61
:100030000C94C6010C94CE080C94C6010C94C60115
:100040000C94C6010C9422050C94C6010C94C601B4
:100050000C94C6010C94C6010C94C6010C94310F8B
:100060000C94C6010C943D0A0C94130A0C94C6011E
:100070000C94C6010C94C6010C94C6010C94C601E4
:100080000C94C6010C94C6010C94C6010C94C601D4
:100090000C94C6010C94C6010C94C6010C94B60CC9
:1000A0000C94C6010C94C6010C94C6010C94C601B4
:1000B0000C94C6010C94C6010C94C6010C94EF027A
:1000C0000C94C6010C94C6010C94C6010C94E90969
:1000D0000C94BF090C94C6010C9495090C946B09FF
:1000E0000C94C6010E041304180422042C04A50465
:1000F00036043E04460450045A04640473047D0428
:10010000A504870491049B04800E830E720E760E64
:100110007C0EBA0E870E8B0E910E950E990E9F0EC9
:10012000A30EA70EBA0EAD0EB10EB50E0C94A5041B
:100130000C94B10E0C9446040C94A70E0C94BA0EB9
:100140000C947C0E0C940E040C9436020C947B0FD1
:100150000C94F60A0C94800E0C94F9010C943E0455
:100160000C9422040C9450040C9439020C94360420
:100170000C94990E0C948B0E0C94C8010C945A0498
:100180000C94870E0C94500B0C9435020C947D0447
:100190000C9484080C94F80A0C94720E0C94760E4D
:1001A0000C94F50A0C9491040C94D5120C948002D2
:1001B0000C94A30E0C94D7010C94AD0E0C949B04DC
:1001C0000C942C040C94230B0C94830E0C94070BAE
:1001D0000C94EB010C9473040C9487040C94CD02E2
:1001E0000C949F0E0C9464040C941B0B0C94910EB5
:1001F0000C9418040C94F70A0C9413040C94B50E88
:100200000C94950E0200002200250028002B002EE1
:10021000003100340002010000050108010B01005B
:100220000020002300260029002C002F00320000AF
:100230000100000301060109010505050507050880
:10024000080808020202020A0A0808040404040159
:10025000010101010101010303030303030303047B
:100260000707070C0C0C0C0C0C0C0C02020202060B
:10027000060606060606060B0B0B0B0B0B0B0B01FB
:1002800002102020080810204010204080020102A7
:10029000010804020101020408102040808040206F
:1002A00010080402018004020180402010080402AA
:1002B0000108040201010204081020408001020428
:1002C000081020408000000A0B02090C0D0E0807E0
:1002D0000304010000000000000000000000000016
:1002E000000000000000000000000000000000000E
:1002F00000121110000000000000000000000000CB
:1003000000000000000000000000000000210024A8
:100310000027002A002D00300033000101000004F6
:100320000107010A0100D5127B0F11241FBECFEF78
:10033000D1E2DEBFCDBF00E00CBF12E0A0E0B2E032
:10034000EEE2F3E300E00BBF02C007900D92A0368F
:10035000B107D9F727E0A0E6B2E001C01D92A533AE
:10036000B207E1F711E0C4E9D1E000E006C021974F
:100370000109802FFE010E944816C339D10780E091
:100380000807A9F70E94810F0C9485190C940000AE
:10039000FC01538D448D252F30E0842F90E0821B8B
:1003A000930B541710F0CF96089501970895FC0110
:1003B000918D828D981761F0828DDF01A80FB11D9C
:1003C0005D968C91928D9F5F9F73928F90E00895C0
:1003D0008FEF9FEF0895FC01918D828D981731F07A
:1003E000828DE80FF11D858D90E008958FEF9FEFCE
:1003F0000895FC01918D228D892F90E0805C9F4FA4
:10040000821B91098F7399270895E0E0F0E0199419
:1004100080E090E0892B21F00E94C408811119C06E
:1004200080E090E0892B41F080E090E0892B21F082
:100430000E940000811110C00E94BA0881110FC0F3
:1004400080E090E0892B81F00E94B00881110AC001
:1004500008950E940000E4CF0E940000EDCF0E94AA
:100460000502EECF0C9400000895089580E090E01E
:1004700008950F931F93CF93DF938C01C62FD62F30
:10048000D07FD1606D2F0E946B0C6D2FC8010E9430
:100490007E0C80E1C89FB0011124C62FC1606C2F73
:1004A000C8010E946B0C6C2FC8010E947E0C81E079
:1004B00090E0DF91CF911F910F910895FC01848D01
:1004C000DF01A80FB11DA35ABF4F2C91848D90E07E
:1004D00001968F739927848FA689B7892C93A08959
:1004E000B1898C91837080648C93938D848D9813E3
:1004F00006C00288F389E02D80818F7D8083089576
:10050000EF92FF920F931F93CF93DF93EC0181E063
:10051000888F9B8D8C8D981305C0E889F98980811F
:1005200085FD26C0F62E0B8D10E00F5F1F4F0F7359
:100530001127E02E8C8DE8120CC00FB607FCFACF05
:10054000E889F989808185FFF5CFCE010E945E029E
:10055000F1CF8B8DFE01E80FF11DE35AFF4FF082C2
:100560009FB7F8940B8FEA89FB89808180620AC06B
:100570009FB7F894EE89FF896083E889F9898081C3
:100580008370806480839FBF81E090E0DF91CF9192
:100590001F910F91FF90EF900895CF93DF93EC019F
:1005A000888D8823C9F0EA89FB89808185FD05C093
:1005B000A889B9898C9186FD0FC00FB607FCF5CFCD
:1005C000808185FFF2CFA889B9898C9185FFEDCF15
:1005D000CE010E945E02E7CFDF91CF9108951F9276
:1005E0000F920FB60F9211240BB60F922F933F93D9
:1005F0004F935F936F937F938F939F93AF93BF932B
:10060000EF93FF9380916F040E94E80D2091730493
:10061000309174042F5F3F4F309374042093730420
:1006200090917204953618F096E090936E04909134
:100630006E049430C9F128F4923069F09330D1F00F
:100640005EC0953009F451C0963009F058C091E071
:1006500090933F0551C0811152C020917304309195
:1006600074042436310508F442C010923F051092FC
:1006700072041CC0813009F042C0E091720491E024
:100680009E0F90937204F0E02091730430917404F3
:10069000EE0FFF1FE259FB4F30872783109274043F
:1006A0001092730494E029C0811117C0E091720484
:1006B00091E09E0F90937204F0E0209173043091CA
:1006C0007404EE0FFF1FE259FB4F3087278310920F
:1006D00074041092730493E010C02091730430915D
:1006E00074042536310558F007C0811108C01092F6
:1006F00074041092730403C095E090936E0490917B
:1007000071049923B9F081110AC080917004882383
:1007100021F08091700461E009C02F9A0BC0809194
:100720007004882331F08091700460E00E94110E03
:1007300001C02F98FF91EF91BF91AF919F918F9141
:100740007F916F915F914F913F912F910F900BBED1
:100750000F900FBE0F901F9018958F929F92AF929F
:10076000BF92CF92DF92EF92FF920F931F93CF939E
:10077000DF938C016A017B0120E030E04FE753E416
:10078000C701B6010E9423154B015C0120E030E057
:10079000A9010E94651718161CF4C501B40103C015
:1007A000C501B40190580E942F17EB0120E030E002
:1007B000A901C701B6010E946517181614F460E07C
:1007C00001C061E0F80181810E94110ECF3FD10587
:1007D00009F014F4DD2702C0CFEFD0E0F80110815A
:1007E00061E0812F0E94BB0E209709F4B1C0CF3F7A
:1007F000D10509F4AFC0E12FF0E0EB53FD4FE491D8
:100800008E2F90E0FC013197E231F10508F09DC098
:100810008827EE58FF4F8F4F0C94481684B5806898
:1008200084BDC7BDA7C084B5806284BDC8BDA2C059
:1008300080918000806880938000D0938900C0936D
:10084000880098C080918000806280938000D0935F
:100850008B00C0938A008EC0809180008860809356
:100860008000D0938D00C0938C0084C08091B00034
:1008700080688093B000C093B3007CC08091B000CA
:1008800080628093B000C093B40074C080919000E7
:10089000806880939000D0939900C09398006AC0BC
:1008A00080919000806280939000D0939B00C093D1
:1008B0009A0060C080919000886080939000D093EF
:1008C0009D00C0939C0056C08091A00080688093DA
:1008D000A0008091A0008F7B8093A000D093A900FE
:1008E000C093A80047C08091A00080628093A000C0
:1008F000D093AB00C093AA003DC08091A000886057
:100900008093A000D093AD00C093AC0033C0809121
:100910002001806880932001D0932901C093280191
:1009200029C080912001806280932001D0932B0107
:10093000C0932A011FC0809120018860809320010C
:10094000D0932D01C0932C0115C0C038D10514F4EB
:1009500060E001C061E0812FDF91CF911F910F9185
:10096000FF90EF90DF90CF90BF90AF909F908F90CF
:100970000C94110EDF91CF911F910F91FF90EF908A
:10098000DF90CF90BF90AF909F908F9008951F936E
:10099000CF93DF93EC01162F88818C3008F04DC087
:1009A00061E0812F0E94BB0EE88195E09E9FF001DF
:1009B0001124E05CFA4F1F738081807C182B108318
:1009C0001382E8819E9FF0011124E05CFA4F1482AB
:1009D00088816CE00E943C169CE0899FA001112454
:1009E00020E030E095E0BA01620F731F969FF0019E
:1009F000979FF00D1124E05CFA4F608166FD13C0F3
:100A00002F5F3F4F2C30310571F781110CC01092D0
:100A1000800082E080938100109285001092840013
:100A200086BB80936F00E88185E0E89FF001112488
:100A3000E05CFA4F8081806480838881DF91CF9170
:100A40001F9108951F920F920FB60F9211240BB6AB
:100A50000F922F933F934F935F936F937F938F9357
:100A60009F93AF93BF93EF93FF938091790287FF9A
:100A700005C0109285001092840016C02091790262
:100A8000022E000C330B80917C0590E0281739076B
:100A90005CF43091790225E03203F0011124E05C2E
:100AA000FA4F808186FD15C0809179028F5F809317
:100AB000790220917902022E000C330B80917C0583
:100AC00090E02817390794F4809179028C302CF14A
:100AD0000DC0309179023203F0011124E05CFA4F2D
:100AE000808160E08F730E94110EDECF80918400C0
:100AF0009091850084349C4918F480E49CE905C0F9
:100B00008091840090918500049690938900809351
:100B100088008FEF809379022AC040918400509121
:100B200085003091790225E03203F0011124E05C68
:100B3000FA4F81819281840F951F90938900809351
:100B40008800309179023203F0011124E05CFA4F01
:100B5000808186FF0CC0309179023203F0011124AC
:100B6000E05CFA4F808161E08F730E94110EFF916B
:100B7000EF91BF91AF919F918F917F916F915F9115
:100B80004F913F912F910F900BBE0F900FBE0F9082
:100B90001F9018958EBD00000DB407FEFDCF8EB5D9
:100BA0000895CF93DF93EC0160E088810E94110EDD
:100BB00088E90E94CA0580E00E94CA0580E00E9480
:100BC000CA0580E00E94CA0580E00E94CA0561E073
:100BD00088810E94110E8BE891E00197F1F760E0A7
:100BE00088810E94110E80EE0E94CA0561E0888112
:100BF000DF91CF910C94110EAF92BF92CF92DF9202
:100C0000EF92FF920F931F93CF93DF93CDB7DEB791
:100C100060970FB6F894DEBF0FBECDBF5C0160E0F9
:100C2000FC0180810E94110E80E60E94CA058E019F
:100C30000F5F1F4F7E01F1E1EF0EF11C680180E0B4
:100C40000E94CA0590E0A0E0B0E0F6018193919384
:100C5000A193B1936F01EE15FF0589F761E0F501EE
:100C600080810E94110E80E090E0DC01F80141914A
:100C70005191619171918F01BA2FA92F982F8827D7
:100C8000840F951FA61FB71FEE15FF0579F79C016E
:100C9000AD0166277727CB01621B730B840B950B85
:100CA00060960FB6F894DEBF0FBECDBFDF91CF9137
:100CB0001F910F91FF90EF90DF90CF90BF90AF907A
:100CC0000895CF93DF93C5EAD5E0688570E085EBA2
:100CD00095E00E94C70464E670E080E090E00E9426
:100CE000F70E88E20E94C80B64EF71E080E090E0AC
:100CF0000E94F70EE88985E0E89FF0011124E05C8E
:100D0000FA4F80818F7B8083DF91CF9108958F92FE
:100D10009F92AF92BF92CF92DF92EF92FF920F938A
:100D20001F93CF93DF93CDB7DEB7A1970FB6F8949B
:100D3000DEBF0FBECDBF6091AD0570E085EB95E0E5
:100D40000E94C70488E20E94C80B64E670E080E05D
:100D500090E00E94F70E89E2C82ED12CE12CF12CF4
:100D60009AE0892E912CA12CB12C19A2A7019601F1
:100D70008E010F5D1F4FCA01B901A50194010E94A8
:100D80000B16605DF80162938F0121153105410555
:100D9000510589F7CF010E947F0B8FE392E00E94FB
:100DA0007F0B8C2D0E94C80B6FE070E080E090E01C
:100DB0000E94F70E8091AA050E94E80D892B59F434
:100DC000EFEFCE1ADE0AEE0AFE0AF9ECCF16D104D6
:100DD000E104F10451F6E091B50585E0E89FF001EA
:100DE0001124E05CFA4F80818F7B808380E090E06B
:100DF000A1960FB6F894DEBF0FBECDBFDF91CF91A5
:100E00001F910F91FF90EF90DF90CF90BF90AF9028
:100E10009F908F90089540E050E0BA018DE995E0F1
:100E20000E94AD0340E050E060E070E88FE995E09B
:100E30000E94AD0381EA95E00E94D10583EA95E026
:100E40000E94D10566E970E080E090E00C94F70E16
:100E50004F925F926F927F928F929F92AF92BF92CA
:100E6000CF92DF92EF92FF92CF93DF9328EB3EE990
:100E70004BE653E40E94BD1620E030E048E455E420
:100E80000E9423152B013C01C0E0D0E081EA95E0EF
:100E90000E94FC0590958095709561957F4F8F4FCE
:100EA0009F4F0E94C414A30192010E94BD14181602
:100EB0000CF41AC1209731F5C4E2D0E0C12CD12C3A
:100EC00076012AE037ED43E25CE3C701B6010E94F8
:100ED00051166B017C01AB01BC018DE995E00E94CC
:100EE000AD03B701A60170588FE995E00E94AD03EC
:100EF00063E270E080E090E00E94F70E219709F72E
:100F0000C1E0D0E081EA95E00E94FC0590958095D3
:100F1000709561957F4F8F4F9F4F0E94C4146B0156
:100F20007C0126E636E646EA5FE3C301B2010E9491
:100F3000BD169B01AC01C701B6010E94651787FD74
:100F400069C081EA95E00E94FC056B017C0183EA9F
:100F500095E00E94FC054B015C0166277727CB01D9
:100F60006C197D098E099F090E94C4146B017C01D4
:100F7000C501B4010E94C4149B01AC01C701B601B4
:100F80000E9450166B017C014AE959E969E97EE348
:100F90008DE995E00E94AD032DEC3CEC4CEC5DE35B
:100FA000C701B6010E94231520E030E0A9010E948C
:100FB000511620E030E0A9010E9423154B015C018D
:100FC0002FE832EC45EF5CE3C701B6010E94231520
:100FD0009B01AC01C501B4010E94511620E030E034
:100FE00048EC52E40E94BD162AE939E949E95EE37A
:100FF0000E945116AB01BC0170588FE995E00E9428
:10100000AD0364E670E080E090E00E94F70EC2E07D
:10101000D0E03CCFC130D105D1F781EA95E00E9404
:10102000FC056B017C0183EA95E00E94FC054B0105
:101030005C0166277727CB016C197D098E099F0912
:101040000E94C4146B017C01C501B4010E94C41448
:101050009B01AC01C701B6010E9450166B017C01D7
:101060004DEC5CEC6CEC7EE38DE995E00E94AD0309
:101070002DEC3CEC4CEC5DE3C701B6010E9423155E
:1010800020E030E0A9010E94511620E030E0A901E3
:101090000E9423154B015C012FE832EC45EF5CE325
:1010A000C701B6010E9423159B01AC01C501B40123
:1010B0000E94511620E030E048EC52E40E94BD1638
:1010C0002DEC3CEC4CEC5EE30E945116AB01BC01F4
:1010D00070588FE995E00E94AD0364E670E080E00F
:1010E00090E00E94F70ED2CEDF91CF91FF90EF906B
:1010F000DF90CF90BF90AF909F908F907F906F9038
:101100005F904F900C940B07CF92DF92EF92FF927B
:101110000F931F93CF93DF936C017A018B01C0E093
:10112000D0E0CE15DF0581F0D8016D918D01D6019B
:10113000ED91FC910190F081E02DC6011995892B6C
:1011400011F02196EECF7E01C701DF91CF911F9163
:101150000F91FF90EF90DF90CF9008950E9470194B
:1011600087E992E00E94F90121E0892B09F420E04F
:10117000822F089584E393E00E94F90121E0892BF6
:1011800009F420E0822F089581ED93E00E94F90197
:1011900021E0892B09F420E0822F08951F920F92FD
:1011A0000FB60F9211240BB60F922F933F934F93CC
:1011B0005F936F937F938F939F93AF93BF93EF93BF
:1011C000FF9380917B0290917C02A0917D02B0916F
:1011D0007E02892B8A2B8B2B49F190917A02809188
:1011E000000089278093000080917B0290917C020F
:1011F000A0917D02B0917E02181619061A061B06F0
:101200000CF056C080917B0290917C02A0917D02EF
:10121000B0917E020197A109B10980937B0290935E
:101220007C02A0937D02B0937E0242C080910002B6
:10123000E4E0F2E0E4919FEF90930002E230C9F025
:1012400050F4EE2399F0E13081F590916F009D7F8D
:1012500090936F002AC0E43019F1E0F0E53029F5F1
:10126000909173009D7F909373001FC010926E0049
:101270001CC0909170009D7F9093700091E09093BE
:10128000B0009091B100987F94609093B10010925B
:10129000B3000BC0909171009D7F9093710005C0C9
:1012A000909172009D7F9093720060E00E94110EF9
:1012B000FF91EF91BF91AF919F918F917F916F912E
:1012C0005F914F913F912F910F900BBE0F900FBEEA
:1012D0000F901F9018951F920F920FB60F92112426
:1012E0000BB60F922F933F934F935F936F937F9320
:1012F0008F939F93AF93BF93EF93FF9387E992E010
:101300000E945E02FF91EF91BF91AF919F918F91EB
:101310007F916F915F914F913F912F910F900BBEF5
:101320000F900FBE0F901F9018951F920F920FB63F
:101330000F9211240BB60F922F933F934F935F930D
:101340006F937F938F939F93AF93BF93EF93FF938D
:1013500087E992E00E94930CFF91EF91BF91AF91CA
:101360009F918F917F916F915F914F913F912F91BD
:101370000F900BBE0F900FBE0F901F9018951F92ED
:101380000F920FB60F9211240BB60F922F933F932B
:101390004F935F936F937F938F939F93AF93BF937D
:1013A000EF93FF9384E393E00E945E02FF91EF913D
:1013B000BF91AF919F918F917F916F915F914F916D
:1013C0003F912F910F900BBE0F900FBE0F901F906B
:1013D00018951F920F920FB60F9211240BB60F9211
:1013E0002F933F934F935F936F937F938F939F932D
:1013F000AF93BF93EF93FF9384E393E00E94930C2A
:10140000FF91EF91BF91AF919F918F917F916F91DC
:101410005F914F913F912F910F900BBE0F900FBE98
:101420000F901F9018951F920F920FB60F921124D4
:101430000BB60F922F933F934F935F936F937F93CE
:101440008F939F93AF93BF93EF93FF9381ED93E0BF
:101450000E945E02FF91EF91BF91AF919F918F919A
:101460007F916F915F914F913F912F910F900BBEA4
:101470000F900FBE0F901F9018951F920F920FB6EE
:101480000F9211240BB60F922F933F934F935F93BC
:101490006F937F938F939F93AF93BF93EF93FF933C
:1014A00081ED93E00E94930CFF91EF91BF91AF917A
:1014B0009F918F917F916F915F914F913F912F916C
:1014C0000F900BBE0F900FBE0F901F90189530918C
:1014D0008A02313208F04BC0809188028111FCCF22
:1014E0009091650622E02093880221E020938702F4
:1014F0002FEF209343061092420630934106E5E415
:10150000F6E0A1E2B6E020E0321721F041914D93E0
:101510002F5FFACF1092200620912006990F922B70
:101520009093200690918602913061F41092860289
:10153000909120069093BB009091BC0093FDF8CF52
:1015400095EC01C095EE9093BC009091880292308A
:10155000E1F3909143069F3F79F0809143068032FA
:1015600041F080914306803331F084E005C081E092
:1015700003C082E001C083E01092890210928A02C7
:1015800010924406089585ED8093BC008091BC00C4
:1015900084FDFCCF1092880208954091FB05262F10
:1015A00030E0240F311D21323105DCF42091880216
:1015B0002430C9F4FC0180E090E0861758F43091A3
:1015C000FB052191DC01A552BA4FA30FB11D2C934D
:1015D0000196F3CF8091FB05680F6093FB0580E0D7
:1015E000089581E0089582E008950895089508958A
:1015F000E091810280918002E81730F4F0E0E55438
:10160000FA4F808190E008958FEF9FEF08959091B9
:10161000810280918002981750F4E92FF0E0E554A0
:10162000FA4F208130E09F5F9093810202C02FEF3C
:101630003FEFC90108958091800290E020918102DE
:10164000821B91090895CF92DF92EF92FF920F9340
:101650001F93CF93DF937C01CB018A012091440635
:10166000222389F0EB016B01C40ED51ECC15DD05DC
:1016700069F06991D701ED91FC910190F081E02D25
:10168000C7011995F3CF642F0E94CD0AC801DF91DD
:10169000CF911F910F91FF90EF90DF90CF90089521
:1016A000CF93DF931F92CDB7DEB7698320914406B5
:1016B0002223D1F020918A02203240F021E030E054
:1016C000FC013383228380E090E015C08091890281
:1016D000E82FF0E0EB5BF94F998190838F5F809367
:1016E000890280938A0205C061E0CE0101960E94C2
:1016F000CD0A81E090E00F90DF91CF91089500979F
:1017000069F0FC0101900020E9F73197AF01481B17
:10171000590BBC0181ED93E00C94840880E090E0CB
:1017200008950F931F93CF93DF93162F072FC4E8CD
:10173000D5E09C8521E020934406909365061092A5
:10174000890210928A02AA85BB85ED91FC911197BE
:101750000190F081E02D682FCD0119958A859B8538
:10176000DC01ED91FC910190F081E02D602F199545
:101770008A859B85DC01ED91FC910190F081E02D43
:10178000612F1995DF91CF911F910F910C94670AEA
:10179000CF92DF92EF92FF92CF93DF939091AF05BC
:1017A000891720F09091B005981770F482E492E0C8
:1017B0000E947F0B8FE392E0DF91CF91FF90EF903B
:1017C000DF90CF900C947F0BC091B505CC3008F022
:1017D0007BC0282F30E0D0E0283C3105E4F595E0CF
:1017E0009C9FF0019D9FF00D1124E05CFA4F9381C6
:1017F00028E830E06901C91AD10897FDD394CC0CD0
:10180000DD1CCC0CDD1C0D2C000CEE08FF089481B7
:1018100028E532E0291B310997FD3395220F331F4C
:10182000220F331FA901330F660B770B9A01AB010F
:101830002C193D094E095F09A82FB0E00E9400163F
:1018400024EB30E040E050E00E94E115C20ED31ED0
:10185000E41EF51E27C085E08C9FF0018D9FF00DE2
:101860001124E05CFA4F838148E850E06A01C81A0D
:10187000D10887FDD394CC0CDD1CCC0CDD1C2C15C1
:101880003D0584F0448188E592E0841B910947FD81
:101890009395880F991F880F991F69018C159D05D5
:1018A0000CF46C018FB7F89495E09C9FF0019D9F1C
:1018B000F00D1124E05CFA4F96E0C91AD108CC0C67
:1018C000DD1CD282C1828FBFDF91CF91FF90EF905C
:1018D000DF90CF900895FC01248131E030934406DD
:1018E000209365061092890210928A028485682BE3
:1018F0008BE892E00E94500B0C94670A0F931F93A1
:10190000CF938C01C62F64600E946B0C6C2F6B7F91
:10191000C8010E946B0C83EC90E00197F1F7CF9126
:101920001F910F910895FC01A089B1898C91A6891E
:10193000B78982FD0FC09C91818D8F5F8F73228D3F
:10194000821749F0218DDF01A20FB11D5D969C9396
:10195000818F08958C9108951F920F920FB60F9268
:1019600011240F900FBE0F901F9018951F920F9289
:101970000FB60F9211240BB60F922F933F934F93F4
:101980005F936F937F938F939F93AF93BF93EF93E7
:10199000FF938091B900887F803609F49CC068F578
:1019A000883209F45BC090F4803109F454C038F4F3
:1019B000882309F4F6C0883009F44DC0F6C0883198
:1019C00009F44CC0803209F45DC0EFC0803409F4E2
:1019D00068C048F4803309F455C0883309F0E5C085
:1019E00080934306D8C0803509F44FC0883509F488
:1019F0005DC0883409F0D9C0D6C0883909F4C7C0A1
:101A0000A8F4883709F467C038F4883609F463C04D
:101A1000803709F460C0C9C0883809F4B8C080397B
:101A200009F45FC0803809F0C0C05BC0803B09F496
:101A300086C038F4803A09F466C0883A09F47FC059
:101A4000B4C0803C09F4A7C0883C09F4A4C0883B1A
:101A500009F48AC0AAC08091200610C09091420665
:101A600080914106981770F5E091420681E08E0F53
:101A700080934206F0E0EF5DF94F80818093BB00D8
:101A800085EC86C0809343068EC0E091420681E0DB
:101A90008E0F809342068091BB00F0E0EF5DF94F1E
:101AA000808390914206809141066EC0E09142068B
:101AB00081E08E0F809342068091BB00F0E0EF5DE5
:101AC000F94F80838091870281116DC081E08093FE
:101AD000860284EA61C083E08093880210921D062A
:101AE000CFCF80911D06803208F051C0E0911D06D5
:101AF00081E08E0F80931D068091BB00F0E0E350E3
:101B0000FA4F8083BDCF85EC8093BC001092880291
:101B100080911D06803230F4E0911D06F0E0E35024
:101B2000FA4F108260911D0670E0E0918402F091FE
:101B300085028DEF95E0199510921D0636C084E060
:101B4000809388021092FC051092FB05E0918202BE
:101B5000F091830219958091FB05811105C081E008
:101B60008093FB051092DB05E091FC0581E08E0F70
:101B70008093FC05F0E0E552FA4F80818093BB0032
:101B80009091FC058091FB05981708F479CF85E8C2
:101B90008093BC000AC085EC8093BC001092880240
:101BA00004C0109243060E94C30AFF91EF91BF91B7
:101BB000AF919F918F917F916F915F914F913F91E5
:101BC0002F910F900BBE0F900FBE0F901F90189586
:101BD000CF93DF93282F30E0F901EB53FD4F849131
:101BE000F901E158FD4FD491F901E75CFD4FC49133
:101BF000CC2391F081110E94650EEC2FF0E0EE0FE6
:101C0000FF1FE15EFD4FA591B491EC91ED2381E0C2
:101C100090E021F480E002C080E090E0DF91CF917D
:101C200008951F93CF93DF93282F30E0F901EB53F2
:101C3000FD4F8491F901E158FD4FD491F901E75C22
:101C4000FD4FC491CC23C1F0162F81110E94650E67
:101C5000EC2FF0E0EE0FFF1FEB5FFD4FA591B4916D
:101C60009FB7F894111104C08C91D095D82302C06D
:101C7000EC91DE2BDC939FBFDF91CF911F910895F4
:101C80003FB7F89480912D0790912E07A0912F07D0
:101C9000B091300726B5A89B05C02F3F19F00196DB
:101CA000A11DB11D3FBFBA2FA92F982F8827820FE2
:101CB000911DA11DB11DBC01CD0142E0660F771F32
:101CC000881F991F4A95D1F7089590E0FC0131973C
:101CD000E231F10508F04EC08827EC57FF4F8F4FD7
:101CE0000C944816809180008F7703C0809180000B
:101CF0008F7D80938000089580918000877FF9CF49
:101D000084B58F7702C084B58F7D84BD089580919E
:101D1000B0008F7703C08091B0008F7D8093B000BA
:101D20000895809190008F7707C0809190008F7DFB
:101D300003C080919000877F8093900008958091E8
:101D4000A0008F7707C08091A0008F7D03C0809195
:101D5000A000877F8093A0000895809120018F7755
:101D600007C0809120018F7D03C080912001877F73
:101D7000809320010895CF93DF9390E0FC01E15818
:101D8000FD4F2491FC01E75CFD4F8491882361F1B4
:101D900090E0880F991FFC01E55FFC4FC591D4913D
:101DA000FC01EB5FFD4FA591B491611109C09FB794
:101DB000F8948881209582238883EC912E230BC090
:101DC000623061F49FB7F8948881322F3095832375
:101DD0008883EC912E2B2C939FBF06C08FB7F8946D
:101DE000E8812E2B28838FBFDF91CF9108958F92AA
:101DF0009F92AF92BF92CF92DF92EF92FF926B01D0
:101E00007C010E94400E4B015C01C114D104E1042D
:101E1000F104F1F00E94400EDC01CB018819990910
:101E2000AA09BB09883E9340A105B10570F321E0E2
:101E3000C21AD108E108F10888EE880E83E0981EE6
:101E4000A11CB11CC114D104E104F10419F7DDCFC8
:101E5000FF90EF90DF90CF90BF90AF909F908F90CA
:101E600008951F920F920FB60F9211242F933F9354
:101E70008F939F93AF93BF938091290790912A07E7
:101E8000A0912B07B0912C073091280723E0230F56
:101E90002D3720F40196A11DB11D05C026E8230FA2
:101EA0000296A11DB11D20932807809329079093C6
:101EB0002A07A0932B07B0932C0780912D079091B0
:101EC0002E07A0912F07B09130070196A11DB11DDB
:101ED00080932D0790932E07A0932F07B093300780
:101EE000BF91AF919F918F913F912F910F900FBE16
:101EF0000F901F90189580917D0590917E050C9410
:101F00000218789484B5826084BD84B5816084BDF4
:101F100085B5826085BD85B5816085BD80916E0087
:101F2000816080936E0010928100809181008260B8
:101F300080938100809181008160809381008091F5
:101F400080008160809380008091B10084608093E4
:101F5000B1008091B00081608093B00080919100C9
:101F600082608093910080919100816080939100C4
:101F7000809190008160809390008091A1008260A8
:101F80008093A1008091A10081608093A100809145
:101F9000A00081608093A0008091210182608093E5
:101FA0002101809121018160809321018091200194
:101FB00081608093200180917A00846080937A0010
:101FC00080917A00826080937A0080917A008160AB
:101FD00080937A0080917A00806880937A001092D2
:101FE000C100E091E103F091E20382E08083E0919F
:101FF000DD03F091DE031082E091DF03F091E00356
:102000008FEC80831092E903E091E503F091E60301
:1020100086E08083E091E303F091E40380818061B6
:102020008083E091E303F091E40380818860808302
:10203000E091E303F091E403808180688083E09184
:10204000E303F091E40380818F7D808361E08091E0
:1020500085050E94BB0E60E0809185050E94110EEF
:1020600060E0809184050E94BB0E8BE892E0909323
:102070008F0580938E05109281021092800210923B
:10208000890210928A021092880281E0809387026E
:102090001092860261E084E10E94110E61E085E108
:1020A0000E94110E8091B9008E7F8093B9008091BB
:1020B000B9008D7F8093B90088E48093B80085E4EF
:1020C0008093BC0085EF9AE0909383028093820214
:1020D00086EF9AE0909385028093840280E090E1FD
:1020E000A0E0B0E08093910590939205A0939305B2
:1020F000B09394058AE090E0A0E0B0E0809395056D
:1021000090939605A0939705B093980580E090E092
:10211000A0E0B0E48093990590939A05A0939B0565
:10212000B0939C0560E070E185E00E94910B6FE93F
:1021300079E380E00E94910BC4E8D5E08E0192E043
:10214000792E2EE6A22E22E0B22E34EB832E32E040
:10215000932E4BECE42E47E0F42EF801948182811B
:10216000898F9A8F61E00E94BB0E61E08A8D0E9488
:10217000BB0EF801908586816E01FDE1CF0ED11C6A
:102180008D8F9E8F61E00E94BB0E60E08E8D0E945D
:10219000BB0E61E08D8D0E94110E6FB6F894809198
:1021A0007F02811126C0F5018491F4012491E82F6A
:1021B000F0E0EE0FFF1FE55FFC4FA591B4919C91FD
:1021C000822F892321F461E085E30E94110E61E0F2
:1021D00085E30E94BB0E8CB580618CBD8CB580649C
:1021E0008CBD61E084E30E94BB0E61E083E30E944A
:1021F000BB0E80917F028F5F80937F026FBEC7010D
:102200000197F1F760E08D8D0E94110E88E80E9421
:10221000CA0583E00E94CA0561E08D8D0E94110EFF
:10222000C7010197F1F7C6010E94D1057A940F5FAB
:102230001F4F2296711091CF09EA15E0CDEAD5E043
:1022400060E0F80181918F010E94BB0EC017D10799
:10225000B9F705EA15E07E01FFEFEF1AFF0A688182
:1022600070E0CE0108960E94C704F7019581838132
:10227000F801828B938B60E00E94BB0E61E0F80155
:1022800083890E94BB0E60E0F80183890E94110ED1
:102290000E5F1F4FE701F5E0CF3ADF07E1F6F89454
:1022A0001092200189E08093210180E293E09093D5
:1022B000290180932801109225011092240182E0C7
:1022C00080937300789480936E04109272048091CE
:1022D0006F0460E00E94BB0E60E080E40E94BB0ED1
:1022E00060E08FE30E94BB0E60E08CE30E94BB0EB7
:1022F00060E08DE30E94BB0E60E08EE30E94BB0EA7
:1023000068E873E180E090E00E94F70E02E010E0E0
:1023100060E070E088EC92E40E9428070E94610669
:1023200060E070E08CE892E40E94280783EA95E080
:102330000E94FC050E94C41425E535E549E755E4F3
:102340000E94BD1418168CF040E050E060E87EEB6F
:102350008DE995E00E94AD0340E050E060E87EEB3F
:102360008FE995E00E94AD03E1CF0E940B07C0E02A
:10237000D0E081EA95E00E94FC05909580957095EB
:1023800061957F4F8F4F9F4F0E94C4142BEB3BEA08
:102390004DE654EC0E94651787FDECC0209711F4C0
:1023A000C1E0D0E081EA95E00E94FC05909580951F
:1023B000709561957F4F8F4F9F4F0E94C4142FEDF2
:1023C00032ED46E354E40E94651787FD69C081EA57
:1023D00095E00E94FC056B017C0183EA95E00E9478
:1023E000FC054B015C0166277727CB016C197D0941
:1023F0008E099F090E94C4146B017C01C501B401C0
:102400000E94C4149B01AC01C701B6010E94501682
:102410006B017C014AE959E969E97EE38DE995E0C0
:102420000E94AD032DEC3CEC4CEC5DE3C701B60122
:102430000E94231520E030E0A9010E94511620E0FF
:1024400030E0A9010E9423154B015C012FE832EC1A
:1024500045EF5CE3C701B6010E9423159B01AC0167
:10246000C501B4010E94511620E030E048EC52E46E
:102470000E94BD162AE939E949E95EE30E94511636
:10248000AB01BC0170588FE995E00E94AD0364E692
:1024900070E080E090E00E94F70EC2E0D0E069CFEB
:1024A000C130D105D1F781EA95E00E94FC056B01AE
:1024B0007C0183EA95E00E94FC054B015C016627E4
:1024C0007727CB016C197D098E099F090E94C414DE
:1024D0006B017C01C501B4010E94C4149B01AC01D5
:1024E000C701B6010E9450166B017C014DEC5CECFB
:1024F0006CEC7EEB8DE995E00E94AD032DEC3CEC9D
:102500004CEC5DE3C701B6010E94231520E030E0EA
:10251000A9010E94511620E030E0A9010E94231574
:102520004B015C012FE832EC45EF5CE3C701B601DB
:102530000E9423159B01AC01C501B4010E945116F4
:1025400020E030E048EC52E40E94BD162DEC3CEC5B
:102550004CEC5EE30E945016AB01BC0170588FE951
:1025600095E00E94AD0364E670E080E090E00E9498
:10257000F70EFFCE0E940B070E948706015011093B
:1025800009F0C6CE8091AC050E94E80D892B21F0A0
:102590000E9487060E9461066AE070E080E090E099
:1025A0000E94F70E0E940802B1CE10928E02109285
:1025B0008D0288EE93E0A0E0B0E080938F029093CC
:1025C0009002A0939102B093920223E132E0309303
:1025D0008C0220938B0210929A021092990280939F
:1025E0009B0290939C02A0939D02B0939E0225E2D1
:1025F00032E0309398022093970245E351E05093E4
:10260000A4024093A30244E351E05093A6024093F6
:10261000A50240E351E05093A8024093A70241E392
:1026200051E05093AA024093A90242E351E0509333
:10263000AC024093AB0246E351E05093AE024093AC
:10264000AD021092B0021092B1021092B20210923A
:10265000B30210923703109236038093380390939D
:102660003903A0933A03B0933B033093350320938F
:10267000340345ED50E0509341034093400344ED53
:1026800050E0509343034093420340ED50E0509399
:1026900045034093440341ED50E05093470340937A
:1026A000460342ED50E0509349034093480346ED02
:1026B00050E050934B0340934A0310924D03109205
:1026C0004E0310924F03109250031092D4031092B5
:1026D000D3038093D5039093D603A093D703B093ED
:1026E000D8033093D2032093D10385EC90E09093EC
:1026F000DE038093DD0384EC90E09093E00380930D
:10270000DF0380EC90E09093E2038093E10381EC9F
:1027100090E09093E4038093E30382EC90E0909345
:10272000E6038093E50386EC90E09093E8038093C2
:10273000E7031092EA031092EB031092EC0310925D
:10274000ED038091070290910802A0910902B091D7
:102750000A028093A5059093A605A093A705B093C0
:10276000A80580910B0290910C02A0910D02B091EE
:102770000E028093A9059093AA05A093AB05B09390
:10278000AC0584E08093AD0587E08093AE051092A0
:10279000AF0584EB8093B00586E18093B10588E1B5
:1027A0008093B20587E18093B30589E18093B405F6
:1027B000E0917C05EC3020F08FEF8093B50510C0E0
:1027C00081E08E0F80937C05E093B50585E0E89F5E
:1027D000F0011124E05CFA4F88EB9BE09283818347
:1027E000E0917C05EC3020F08FEF8093B60510C0AF
:1027F00081E08E0F80937C05E093B60585E0E89F2D
:10280000F0011124E05CFA4F88EB9BE09283818316
:102810008CE08093840584E28093850586E0809334
:10282000860585E0809387058FE1809388058EE19A
:102830008093890583E280938A0582E280938B05E9
:1028400085E480938C0584E480938D0580E48093F7
:10285000900510929505109296051092970510928A
:1028600098051092990510929A0510929B05109266
:102870009C05EAE6F6E028E237E08FEF9FEFDC0107
:102880001282138214821582168217821086118694
:1028900083879487A587B6878787908BA18BB28B18
:1028A00012861182108273962E173F0749F78DE02A
:1028B00090E00E946A17FC011382128287E392E083
:1028C00091838083118687E2848384E1828784E018
:1028D00083871486F0936706E09366061092680675
:1028E0001092690685E280936F0410927104109231
:1028F0007E0510927D051092800510927F05109242
:1029000082051092810561E070E080E090E00E9415
:102910008B18009789F090937E0580937D05109227
:10292000800510927F052091810530918205232B2F
:10293000C1F4FC01108215C080917D0590917E0547
:10294000009711F00E94021810927E0510927D05EA
:1029500010928205109281051092800510927F05D9
:102960000895109282051092810561E472E08091D1
:102970007D0590917E050C947E190E94FF1408F449
:1029800081E00895E89409C097FB3EF49095809506
:10299000709561957F4F8F4F9F4F9923A9F0F92F25
:1029A00096E9BB279395F695879577956795B795A3
:1029B000F111F8CFFAF4BB0F11F460FF1BC06F5F89
:1029C0007F4F8F4F9F4F16C0882311F096E911C09B
:1029D000772321F09EE8872F762F05C0662371F0BC
:1029E00096E8862F70E060E02AF09A95660F771FD0
:1029F000881FDAF7880F9695879597F90895990FAC
:102A00000008550FAA0BE0E8FEEF16161706E807B8
:102A1000F907C0F012161306E407F50798F0621BD9
:102A2000730B840B950B39F40A2661F0232B242BAE
:102A3000252B21F408950A2609F4A140A6958FEFCD
:102A4000811D811D08950E9436150C94A7150E94C2
:102A5000991538F00E94A01520F0952311F00C94E0
:102A600090150C94961511240C94DB150E94B81542
:102A700070F3959FC1F3950F50E0551F629FF001D1
:102A8000729FBB27F00DB11D639FAA27F00DB11DEA
:102A9000AA1F649F6627B00DA11D661F829F222773
:102AA000B00DA11D621F739FB00DA11D621F839FFA
:102AB000A00D611D221F749F3327A00D611D231FD0
:102AC000849F600D211D822F762F6A2F11249F571E
:102AD00050409AF0F1F088234AF0EE0FFF1FBB1F21
:102AE000661F771F881F91505040A9F79E3F5105E0
:102AF00080F00C9490150C94DB155F3FE4F3983E46
:102B0000D4F3869577956795B795F795E7959F5F89
:102B1000C1F7FE2B880F911D9695879597F908951B
:102B200097F99F6780E870E060E008959FEF80EC80
:102B3000089500240A941616170618060906089523
:102B400000240A9412161306140605060895092E89
:102B50000394000C11F4882352F0BB0F40F4BF2BF8
:102B600011F460FF04C06F5F7F4F8F4F9F4F089538
:102B700057FD9058440F551F59F05F3F71F047952E
:102B8000880F97FB991F61F09F3F79F08795089513
:102B9000121613061406551FF2CF4695F1DF08C032
:102BA000161617061806991FF1CF8695710561054F
:102BB00008940895E894BB2766277727CB0197F9F7
:102BC0000895052E97FB1EF400940E94F81557FDFA
:102BD00007D00E940B1607FC03D04EF40C94F81596
:102BE00050954095309521953F4F4F4F5F4F089539
:102BF00090958095709561957F4F8F4F9F4F089569
:102C00000E942D16A59F900DB49F900DA49F800D3E
:102C1000911D11240895A1E21A2EAA1BBB1BFD01D0
:102C20000DC0AA1FBB1FEE1FFF1FA217B307E407AB
:102C3000F50720F0A21BB30BE40BF50B661F771F03
:102C4000881F991F1A9469F76095709580959095E3
:102C50009B01AC01BD01CF010895A29FB001B39FBC
:102C6000C001A39F700D811D1124911DB29F700D95
:102C7000811D1124911D0895991B79E004C0991FAD
:102C8000961708F0961B881F7A95C9F780950895C6
:102C9000EE0FFF1F881F8BBF0790F691E02D199450
:102CA0005058BB27AA270E9468160C94A7150E94AB
:102CB000991538F00E94A01520F039F49F3F19F4BF
:102CC00026F40C9496150EF4E095E7FB0C94901501
:102CD000E92F0E94B81558F3BA17620773078407E3
:102CE000950720F079F4A6F50C94DA150EF4E0952A
:102CF0000B2EBA2FA02D0B01B90190010C01CA01B6
:102D0000A0011124FF27591B99F0593F50F4503E60
:102D100068F11A16F040A22F232F342F4427585F52
:102D2000F3CF469537952795A795F0405395C9F76A
:102D30007EF41F16BA0B620B730B840BBAF0915022
:102D4000A1F0FF0FBB1F661F771F881FC2F70EC0C1
:102D5000BA0F621F731F841F48F487957795679594
:102D6000B795F7959E3F08F0B0CF9395880F08F080
:102D70009927EE0F9795879508950E94D1160C9488
:102D8000A7150E94A01558F00E94991540F029F44B
:102D90005F3F29F00C94901551110C94DB150C94A5
:102DA00096150E94B81568F39923B1F3552391F352
:102DB000951B550BBB27AA2762177307840738F0AA
:102DC0009F5F5F4F220F331F441FAA1FA9F335D007
:102DD0000E2E3AF0E0E832D091505040E695001CBB
:102DE000CAF72BD0FE2F29D0660F771F881FBB1F75
:102DF000261737074807AB07B0E809F0BB0B802D53
:102E0000BF01FF2793585F4F3AF09E3F510578F07E
:102E10000C9490150C94DB155F3FE4F3983ED4F3CB
:102E2000869577956795B795F7959F5FC9F7880F52
:102E3000911D9695879597F90895E1E0660F771FA4
:102E4000881FBB1F621773078407BA0720F0621B35
:102E5000730B840BBA0BEE1F88F7E09508950E9460
:102E600036176894B1110C94DB1508950E94C015B3
:102E700088F09F5798F0B92F9927B751B0F0E1F03B
:102E8000660F771F881F991F1AF0BA95C9F714C0EB
:102E9000B13091F00E94DA15B1E008950C94DA1582
:102EA000672F782F8827B85F39F0B93FCCF3869524
:102EB00077956795B395D9F73EF490958095709581
:102EC00061957F4F8F4F9F4F08950E94FF1408F424
:102ED0008FEF08950F931F93CF93DF938230910567
:102EE00010F482E090E0E0913307F091340720E0A5
:102EF00030E0A0E0B0E0309719F1408151810281CB
:102F0000138148175907C8F08417950769F410977B
:102F100031F012960C93129713961C9327C00093CE
:102F200033071093340722C02115310519F04217D9
:102F3000530718F49A01BD01EF01DF01F801DBCF5F
:102F400021153105F9F0281B390B2430310580F4A7
:102F50008A819B816115710521F0FB019383828336
:102F600004C09093340780933307FE01329644C027
:102F7000FE01E20FF31F81939193225031093983AF
:102F800028833AC02091310730913207232B41F436
:102F900020910302309104023093320720933107CD
:102FA00020910102309102022115310541F42DB723
:102FB0003EB74091050250910602241B350BE0916B
:102FC0003107F0913207E217F307A0F42E1B3F0BF5
:102FD0002817390778F0AC014E5F5F4F241735078B
:102FE00048F04E0F5F1F5093320740933107819393
:102FF000919302C0E0E0F0E0CF01DF91CF911F910B
:103000000F910895CF93DF93009709F481C0FC01DD
:10301000329713821282A0913307B0913407109730
:1030200081F420813181820F931F209131073091EB
:1030300032072817390751F5F0933207E09331072B
:1030400067C0ED0120E030E0CE17DF0740F44A8191
:103050005B819E0141155105F1F0EA01F5CFD38363
:10306000C28340815181840F951FC817D90759F435
:1030700088819981840F951F0296918380838A812C
:103080009B81938382832115310529F4F0933407C2
:10309000E09333073DC0E901FB83EA8349915991ED
:1030A000C40FD51FEC17FD0761F480819181840F57
:1030B000951F0296E90199838883828193819B837E
:1030C0008A83E0E0F0E012968D919C91139700972F
:1030D00019F0FD01DC01F7CF8D919C9111979D01B5
:1030E0002E5F3F4F820F931F20913107309132079F
:1030F0002817390769F4309729F410923407109291
:10310000330702C013821282B0933207A0933107B3
:10311000DF91CF9108956F927F928F929F92AF929D
:10312000BF92CF92DF92EF92FF920F931F93CF93B4
:10313000DF93009789F4CB01DF91CF911F910F911D
:10314000FF90EF90DF90CF90BF90AF909F908F90C7
:103150007F906F900C946A17FC01E60FF71F9C019B
:1031600022503109E217F30708F4A9C0EC01D90194
:103170000D911C91119706171707B0F00530110536
:1031800008F49BC0C80104978617970708F495C0F8
:1031900002501109061B170B019311936D937C9339
:1031A000CF010E94021889C05B01A01AB10A4C012C
:1031B000800E911EA0913307B0913407612C712CC1
:1031C000E12CF12C109709F446C08D919C91119738
:1031D000A815B905B1F56C0142E0C40ED11CCA14A2
:1031E000DB0478F14C018A189B08640142E0C40EAC
:1031F000D11C1296BC9012971396AC91B5E0CB16E9
:10320000D10440F0B282A38391828082D9016D9370
:103210007C9309C00E5F1F4F800F911FF9019183AE
:103220008083EB2DFA2FE114F10431F0D7011396CE
:10323000FC93EE93129741C0F0933407E093330769
:103240003CC06816790608F43C017D0112960D9089
:10325000BC91A02DB7CF809131079091320788168D
:103260009906E1F466167706C8F480910102909100
:103270000202009741F48DB79EB74091050250912C
:103280000602841B950BE817F907C8F4F093320780
:10329000E0933107F901718360830FC0CB010E9475
:1032A0006A177C01009759F0A801BE010E947519A8
:1032B000CE010E940218C70104C0CE0102C080E006
:1032C00090E0DF91CF911F910F91FF90EF90DF90F1
:1032D000CF90BF90AF909F908F907F906F90089508
:1032E00081E090E0F8940C948519FB01DC0102C0A8
:1032F00001900D9241505040D8F70895FB01DC0138
:1033000001900D920020E1F7089511E0C4E9D1E0A9
:1033100000E006C0802FFE010E9448162196011D84
:0E332000C539D10780E00807A9F7F894FFCF60
:10332E00FF000035078000363738391B1D1A1C0088
:10333E00000000500B230B3602F70A1B0B070BF88D
:10334E000A0000000080028408C801CD02F901D7EE
:10335E0001EB010000000039028408360235020D2F
:10336E000A00536572766F20616E676C6520697313
:10337E00206F7574206F662072616E676521000084
:00000001FF
