:100000000C945D010C948E010C948E010C948E0165
:100010000C948E010C948E010C948E010C948E0124
:100020000C948E010C9466080C9466080C94660877
:100030000C948E010C94F6030C948E010C948E019A
:100040000C948E010C9439060C948E010C948E0144
:100050000C948E010C948E010C948E010C94AC03C4
:100060000C948E010C9428050C94FE040C948E01C3
:100070000C948E010C948E010C948E010C948E01C4
:100080000C948E010C948E010C948E010C948E01B4
:100090000C948E010C948E010C948E010C947008BB
:1000A0000C948E010C948E010C948E010C948E0194
:1000B0000C948E010C948E010C948E010C945205BC
:1000C0000C948E010C948E010C948E010C94D4042B
:1000D0000C94AA040C948E010C9480040C94560485
:1000E0000C948E01BD09C009AF09B309B909F7091C
:1000F000C409C809CE09D209D609DC09E009E40916
:10010000F709EA09EE09F2090C94460F0C94D2099A
:100110000C94B9090C94D6090C9462030C94EA0966
:100120000C94C4090C9490010C94F7010C94DC0914
:100130000C94CE090C9469070C94F1020C940502FE
:100140000C9413070C9497020C944C0F0C94BD095B
:100150000C9431070C94F2090C94AF090C94C0096B
:100160000C94C8090C94E4090C94B3090C94D401C0
:100170000C94E0090C94F0020C94E3010C94220717
:100180000C9450020C9439070C94EE090C94F70966
:100190000C941407000020002300260029002C00E6
:1001A0002F003200000100000301060109010200D6
:1001B000002100240027002A002D00300033000118
:1001C000010000040107010A0100002200250028A7
:1001D000002B002E00310034000201000005010850
:1001E000010B0105050505070508080808020202BC
:1001F000020A0A08080404040401010101010101C2
:10020000010303030303030303040707070C0C0C98
:100210000C0C0C0C0C020202020606060606060670
:10022000060B0B0B0B0B0B0B0B010210202008080D
:100230001020401020408002010201080402010148
:100240000204081020408080402010080402018031
:100250000402018040201008040201080402010188
:100260000204081020408001020408102040800091
:10027000000A0B02090C0D0E080703040100000020
:10028000000000000000000000000000000000006E
:10029000000000000000000000000012111000002B
:1002A000000000000000000000000000000000004E
:1002B0000000000000004C0F460F11241FBECFEFBE
:1002C000D1E2DEBFCDBF00E00CBF12E0A0E0B2E0A3
:1002D000E4E3F7E200E00BBF02C007900D92AA33FF
:1002E000B107D9F726E0AAE3B2E001C01D92AB3F07
:1002F000B207E1F711E0CCE5D1E000E006C02197BC
:100300000109802FFE010E945511CB35D10780E0F5
:100310000807A9F70E949E0A0C9488130C94000009
:10032000CF92DF92EF92FF920F931F93CF93DF93C1
:100330006C017A018B01C0E0D0E0CE15DF0589F0B9
:10034000D8016D918D01D601ED91FC910190F08164
:10035000E02DC6011995892B11F47E0102C021966A
:10036000ECCFC701DF91CF911F910F91FF90EF90DC
:10037000DF90CF900895FC01A089B1898C91A68966
:10038000B78982FD0FC09C91818D8F5F8F73228D05
:10039000821749F0218DDF01A20FB11D5D969C935C
:1003A000818F08958C910895FC01538D448D252FE4
:1003B00030E0842F90E0821B930B541710F0CF96FF
:1003C000089501970895FC01918D828D981761F031
:1003D000828DDF01A80FB11D5D968C91928D9F5F7C
:1003E0009F73928F90E008958FEF9FEF0895FC0127
:1003F000918D828D981731F0828DE80FF11D858DDA
:1004000090E008958FEF9FEF0895FC01918D228D6C
:10041000892F90E0805C9F4F821B91098F739927F1
:10042000089584E892E00E94050221E0892B09F4F6
:1004300020E0822F089581E293E00E94050221E0EE
:10044000892B09F420E0822F08958EEB93E00E941F
:10045000050221E0892B09F420E0822F0895FC0198
:10046000848DDF01A80FB11DA35ABF4F2C91848D3D
:1004700090E001968F739927848FA689B7892C9372
:10048000A089B1898C9180648C93938D848D98130D
:1004900006C00288F389E02D80818F7D80830895D6
:1004A000EF92FF920F931F93CF93DF93EC0181E0C4
:1004B000888F9B8D8C8D981305C0E889F989808180
:1004C00085FD24C0F62E0B8D10E00F5F1F4F0F73BC
:1004D0001127E02E8C8DE8120CC00FB607FCFACF66
:1004E000E889F989808185FFF5CFCE010E942F022E
:1004F000F1CF8B8DFE01E80FF11DE35AFF4FF08223
:100500000B8FEA89FB898081806207C0EE89FF89B1
:100510006083E889F98980818064808381E090E04C
:10052000DF91CF911F910F91FF90EF900895CF939E
:10053000DF93EC01888D8823C9F0EA89FB898081EB
:1005400085FD05C0A889B9898C9186FD0FC00FB6BD
:1005500007FCF5CF808185FFF2CFA889B9898C91FE
:1005600085FFEDCFCE010E942F02E7CFDF91CF9123
:100570000895E0E0F0E0199480E090E0892B21F00C
:100580000E942502811119C080E090E0892B41F082
:1005900080E090E0892B21F00E940000811110C0C2
:1005A0000E941B0281110FC080E090E0892B81F036
:1005B0000E94110281110AC008950E940000E4CF38
:1005C0000E940000EDCF0E94B902EECF0C94000013
:1005D00008958EBD00000DB407FEFDCF8EB50895C1
:1005E000089580E090E008959091000298133DC036
:1005F000EEEAF1E0E4919FEF90930002E230C9F05F
:1006000050F4EE2399F0E13081F590916F009D7FD9
:1006100090936F002AC0E43019F1E0F0E53029F53D
:10062000909173009D7F909373001FC010926E0095
:100630001CC0909170009D7F9093700091E090930A
:10064000B0009091B100987F94609093B1001092A7
:10065000B3000BC0909171009D7F9093710005C015
:10066000909172009D7F9093720060E00C94F80965
:100670000E947313FC01248131E0309374022093B3
:10068000760210927502109277028485682B88E7B3
:1006900092E00E9469070C94AA070F931F93CF93CF
:1006A0008C01C62F64600E943A036C2F6B7FC801D7
:1006B0000E943A0383EC90E00197F1F7CF911F91EC
:1006C0000F9108950F931F93CF93DF938C01C62F43
:1006D000D62FD07FD1606D2F0E943A036D2FC801B5
:1006E0000E944D0380E1C89FB0011124C62FC16054
:1006F0006C2FC8010E943A036C2FC8010E944D0361
:1007000081E090E0DF91CF911F910F9108953FB765
:10071000F89480916B0290916C02A0916D02B0915F
:100720006E0226B5A89B05C02F3F19F00196A11DAA
:10073000B11D3FBFBA2FA92F982F8827820F911D77
:10074000A11DB11DBC01CD0142E0660F771F881FBE
:10075000991F4A95D1F708951F920F920FB60F92E5
:1007600011242F933F938F939F93AF93BF938091C7
:10077000670290916802A0916902B0916A0230917B
:10078000660223E0230F2D3720F40196A11DB11D31
:1007900005C026E8230F0296A11DB11D2093660215
:1007A0008093670290936802A0936902B0936A02F3
:1007B00080916B0290916C02A0916D02B0916E02DB
:1007C0000196A11DB11D80936B0290936C02A093C2
:1007D0006D02B0936E02BF91AF919F918F913F9147
:1007E0002F910F900FBE0F901F9018951F920F9290
:1007F0000FB60F9211240BB60F922F933F934F9386
:100800005F936F937F938F939F93AF93BF93EF9378
:10081000FF9380915A0290915B02A0915C02B0918B
:100820005D02892B8A2B8B2B51F180914502E0913F
:100830004602F091470290818927808380915A0275
:1008400090915B02A0915C02B0915D0218161906AE
:100850001A061B06C4F480915A0290915B02A09183
:100860005C02B0915D020197A109B10980935A021F
:1008700090935B02A0935C02B0935D0204C08091F0
:1008800000020E94F402FF91EF91BF91AF919F91FE
:100890008F917F916F915F914F913F912F910F9029
:1008A0000BBE0F900FBE0F901F9018951F920F92C6
:1008B0000FB60F9211240BB60F922F933F934F93C5
:1008C0005F936F937F938F939F93AF93BF93EF93B8
:1008D000FF9384E892E00E942F02FF91EF91BF9175
:1008E000AF919F918F917F916F915F914F913F91C8
:1008F0002F910F900BBE0F900FBE0F901F90189569
:100900001F920F920FB60F9211240BB60F922F93D6
:100910003F934F935F936F937F938F939F93AF9387
:10092000BF93EF93FF9384E892E00E94BB01FF9195
:10093000EF91BF91AF919F918F917F916F915F9157
:100940004F913F912F910F900BBE0F900FBE0F90C4
:100950001F9018951F920F920FB60F9211240BB68D
:100960000F922F933F934F935F936F937F938F9348
:100970009F93AF93BF93EF93FF9381E293E00E9425
:100980002F02FF91EF91BF91AF919F918F917F9136
:100990006F915F914F913F912F910F900BBE0F90F0
:1009A0000FBE0F901F9018951F920F920FB60F92C7
:1009B00011240BB60F922F933F934F935F936F9336
:1009C0007F938F939F93AF93BF93EF93FF9381E2B6
:1009D00093E00E94BB01FF91EF91BF91AF919F9176
:1009E0008F917F916F915F914F913F912F910F90D8
:1009F0000BBE0F900FBE0F901F9018951F920F9275
:100A00000FB60F9211240BB60F922F933F934F9373
:100A10005F936F937F938F939F93AF93BF93EF9366
:100A2000FF938EEB93E00E942F02FF91EF91BF9115
:100A3000AF919F918F917F916F915F914F913F9176
:100A40002F910F900BBE0F900FBE0F901F90189517
:100A50001F920F920FB60F9211240BB60F922F9385
:100A60003F934F935F936F937F938F939F93AF9336
:100A7000BF93EF93FF938EEB93E00E94BB01FF9136
:100A8000EF91BF91AF919F918F917F916F915F9106
:100A90004F913F912F910F900BBE0F900FBE0F9073
:100AA0001F9018951F920F920FB60F9211240BB63C
:100AB0000F922F933F934F935F936F937F938F93F7
:100AC0009F93AF93BF93CF93DF93EF93FF932091C7
:100AD0005C0430E0F901E159FD4F8491F901E75DD3
:100AE000FD4FD491F901ED51FE4FC491CC23A1F0FB
:100AF00081110E94A209EC2FF0E0EE0FFF1FEC56CF
:100B0000FE4FA591B491EC91ED2331E020E009F482
:100B100030E0832F922F02C080E090E020916004AB
:100B2000309161042F5F3F4F309361042093600444
:100B300020915F04253618F026E020935B04209175
:100B40005B042430D9F128F4223069F02330D9F045
:100B500060C0253009F453C0263009F05AC021E0A6
:100B600020932C0553C0009709F053C020916004D6
:100B7000309161042436310508F443C010922C05ED
:100B800010925F041DC08130910509F042C0E091D0
:100B90005F0421E02E0F20935F04F0E020916004B9
:100BA00030916104EE0FFF1FE55AFB4F308727831A
:100BB000109261041092600424E029C00097B9F4F7
:100BC000E0915F0421E02E0F20935F04F0E020917C
:100BD000600430916104EE0FFF1FE55AFB4F308730
:100BE0002783109261041092600423E010C02091CA
:100BF0006004309161042536310558F007C0009734
:100C000041F4109261041092600403C025E0209327
:100C10005B0420915E042223B9F0892B51F480916A
:100C20005D04882321F080915D0461E009C02F9A62
:100C30000BC080915D04882331F080915D0460E0F9
:100C40000E94F80901C02F98FF91EF91DF91CF9199
:100C5000BF91AF919F918F917F916F915F914F91D4
:100C60003F912F910F900BBE0F900FBE0F901F90D2
:100C700018951F920F920FB60F9211240BB60F9278
:100C80002F933F934F935F936F937F938F939F9394
:100C9000AF93BF93EF93FF9380913A0287FF05C014
:100CA000109285001092840016C020913A02022E04
:100CB000000C330B8091690590E0281739075CF42C
:100CC00030913A0225E03203F0011124E35DFA4F3E
:100CD000808186FD15C080913A028F5F80933A0231
:100CE00020913A02022E000C330B8091690590E0AE
:100CF0002817390794F480913A028C302CF10DC0FA
:100D000030913A023203F0011124E35DFA4F808101
:100D100060E08F730E94F809DECF8091840090918B
:100D2000850084349C4918F480E49CE905C08091D6
:100D300084009091850004969093890080938800A8
:100D40008FEF80933A022AC0409184005091850031
:100D500030913A0225E03203F0011124E35DFA4FAD
:100D600081819281840F951F9093890080938800E0
:100D700030913A023203F0011124E35DFA4F808191
:100D800086FF0CC030913A023203F0011124E35D7A
:100D9000FA4F808161E08F730E94F809FF91EF9113
:100DA000BF91AF919F918F917F916F915F914F9183
:100DB0003F912F910F900BBE0F900FBE0F901F9081
:100DC000189585ED8093BC008091BC0084FDFCCF1C
:100DD00010927302089540918C06262F30E0240F64
:100DE000311D21323105DCF4209173022430C9F425
:100DF000FC0180E090E0861758F430918C06219138
:100E0000DC01A659B94FA30FB11D2C930196F3CF66
:100E100080918C06680F60938C0680E0089581E0D5
:100E2000089582E00895089581E090E03091700285
:100E300020916F02321710F480E090E09195819537
:100E4000910908958091700290916F02891730F492
:100E50008F5F8093700280E090E008958FEF9FEFA6
:100E6000089580916F0290E020917002821B910999
:100E70000895CF92DF92EF92FF920F931F93CF933B
:100E8000DF937C01262F972F8A018091740288239B
:100E900091F0C62FD72F6E01C40ED51ECC15DD05DF
:100EA00071F06991D701ED91FC910190F081E02DF5
:100EB000C7011995F3CF642F822F0E94EB06C8015A
:100EC000DF91CF911F910F91FF90EF90DF90CF9026
:100ED0000895CF93DF931F92CDB7DEB7698320913A
:100EE00074022223D1F020917702203240F021E0D9
:100EF00030E0FC013383228380E090E015C08091D4
:100F00007502E82FF0E0E952F94F998190838F5FE5
:100F1000809375028093770205C061E0CE0101964F
:100F20000E94EB0681E090E00F90DF91CF91089551
:100F3000009769F0FC0101900020E9F73197AF01BB
:100F4000481B590BBC018EEB93E00C94900180E0A0
:100F500090E008952091770290917602213208F076
:100F60004AC0809173028111FCCF32E0309373024A
:100F700031E0309372023FEF3093D6061092D506DF
:100F80002093D406A7EDB6E044EB56E0FA013E2FDD
:100F9000341B321718F43D913193F9CF1092B306F8
:100FA0002091B306990F922B9093B3069091710202
:100FB000913061F4109271029091B3069093BB004E
:100FC0009091BC0093FDF8CF95EC01C095EE909305
:100FD000BC00909173029230E1F39091D6069F3F4E
:100FE00079F08091D606803241F08091D606803328
:100FF00031F084E005C081E003C082E001C083E0FD
:101000001092750210927702109274020895EF9276
:10101000FF921F93CF93DF931F92CDB7DEB7162FAA
:1010200093E3E92E96E0F92ED7011C969C911C972C
:1010300021E0209374029093760210927502109230
:1010400077021A960D90BC91A02DED91FC9111970D
:101050000190F081E02D682FCD0179831995F7017A
:1010600082859385DC01ED91FC910190F081E02D6A
:101070007981672F1995F70182859385DC01ED91C0
:10108000FC910190F081E02D612F19950F90DF9177
:10109000CF911F91FF90EF900C94AA0780917B0055
:1010A000877F80937B0086E480937C0080917A0028
:1010B000806480937A0080917A0086FDFCCF8091D5
:1010C00078002091790090E0922B08951F920F9262
:1010D0000FB60F9211240F900FBE0F901F9018950E
:1010E0001F920F920FB60F9211240BB60F922F93EF
:1010F0003F934F935F936F937F938F939F93AF93A0
:10110000BF93EF93FF938091B900887F803609F4F5
:101110009CC068F5883209F45BC090F4803109F412
:1011200054C038F4882309F4F6C0883009F44DC05F
:10113000F6C0883109F44CC0803209F45DC0EFC0BC
:10114000803409F468C048F4803309F455C088330A
:1011500009F0E5C08093D606D8C0803509F44FC0A9
:10116000883509F45DC0883409F0D9C0D6C0883903
:1011700009F4C7C0A8F4883709F467C038F4883682
:1011800009F463C0803709F460C0C9C0883809F425
:10119000B8C0803909F45FC0803809F0C0C05BC0B6
:1011A000803B09F486C038F4803A09F466C0883A76
:1011B00009F47FC0B4C0803C09F4A7C0883C09F49E
:1011C000A4C0883B09F48AC0AAC08091B30610C0AD
:1011D0009091D5068091D406981770F5E091D506C8
:1011E00081E08E0F8093D506F0E0EC54F94F8081BA
:1011F0008093BB0085EC86C08093D6068EC0E091BC
:10120000D50681E08E0F8093D5068091BB00F0E07B
:10121000EC54F94F80839091D5068091D4066EC02E
:10122000E091D50681E08E0F8093D5068091BB00BA
:10123000F0E0EC54F94F80838091720281116DC00F
:1012400081E08093710284EA61C083E0809373023D
:101250001092B006CFCF8091B006803208F051C016
:10126000E091B00681E08E0F8093B0068091BB00C4
:10127000F0E0E057F94F8083BDCF85EC8093BC0050
:10128000109273028091B006803230F4E091B00683
:10129000F0E0E057F94F10826091B00670E0E09105
:1012A0008E06F0918F0680E996E019951092B006AF
:1012B00036C084E08093730210928D0610928C06E3
:1012C000E0918A06F0918B06199580918C06811128
:1012D00005C081E080938C0610926A06E0918D062D
:1012E00081E08E0F80938D06F0E0E659F94F808102
:1012F0008093BB0090918D0680918C06981708F41E
:1013000079CF85E88093BC000AC085EC8093BC004F
:101310001092730204C01092D6060E94E106FF915B
:10132000EF91BF91AF919F918F917F916F915F915D
:101330004F913F912F910F900BBE0F900FBE0F90CA
:101340001F90189590E0FC013197E231F10508F00B
:101350004EC08827EE58FF4F8F4F0C945511809147
:1013600080008F7703C0809180008F7D8093800004
:10137000089580918000877FF9CF84B58F7702C070
:1013800084B58F7D84BD08958091B0008F7703C0B0
:101390008091B0008F7D8093B0000895809190007F
:1013A0008F7707C0809190008F7D03C0809190005F
:1013B000877F8093900008958091A0008F7707C069
:1013C0008091A0008F7D03C08091A000877F8093D3
:1013D000A0000895809120018F7707C0809120019F
:1013E0008F7D03C080912001877F80932001089525
:1013F0001F93CF93DF93282F30E0F901E159FD4F80
:101400008491F901E75DFD4FD491F901ED51FE4F53
:10141000C491CC23C9F0162F81110E94A209EC2F90
:10142000F0E0EE0FFF1FE753FE4FA591B4918FB789
:10143000F894111105C09C91ED2FE095E92302C0AD
:10144000EC91ED2BEC938FBFDF91CF911F9108951D
:10145000CF93DF9390E0FC01E75DFD4F2491FC0109
:10146000ED51FE4F8491882361F190E0880F991F20
:10147000FC01E155FE4FC591D491FC01E753FE4FAD
:10148000A591B491611109C09FB7F8948881209506
:1014900082238883EC912E230BC0623061F49FB7C6
:1014A000F8943881822F809583238883EC912E2BAA
:1014B0002C939FBF06C08FB7F894E8812E2B28830A
:1014C0008FBFDF91CF9108958F929F92AF92BF927D
:1014D000CF92DF92EF92FF926B017C010E94870313
:1014E0004B015C01C114D104E104F104F1F00E944C
:1014F0008703DC01CB0188199909AA09BB09883E39
:101500009340A105B10570F321E0C21AD108E108AA
:10151000F10888EE880E83E0981EA11CB11CC1144E
:10152000D104E104F10419F7DDCFFF90EF90DF90D3
:10153000CF90BF90AF909F908F900895CF93DF93FF
:10154000CDB7DEB7A4970FB6F894DEBF0FBECDBF00
:10155000789484B5826084BD84B5816084BD85B58E
:10156000826085BD85B5816085BD80916E0081609A
:1015700080936E0010928100809181008260809340
:101580008100809181008160809381008091800042
:101590008160809380008091B10084608093B1006D
:1015A0008091B00081608093B00080919100826052
:1015B000809391008091910081608093910080914F
:1015C00090008160809390008091A1008260809360
:1015D000A1008091A10081608093A1008091A00072
:1015E00081608093A000809121018260809321011D
:1015F000809121018160809321018091200181608F
:101600008093200180917A00846080937A00809199
:101610007A00826080937A0080917A008160809362
:101620007A0080917A00806880937A001092C100DD
:10163000E091CE03F091CF0382E08083E091CA0372
:10164000F091CB031082E091CC03F091CD038FECAD
:1016500080831092D603E091D203F091D30386E009
:101660008083E091D003F091D103808180618083F9
:10167000E091D003F091D103808188608083E09174
:10168000D003F091D103808180688083E091D00302
:10169000F091D10380818F7D808361E08091340659
:1016A0000E94280A60E0809134060E94F80960E0F8
:1016B000809133060E94280A88E792E090933E06C4
:1016C00080933D061092700210926F021092750284
:1016D000109277021092730281E08093720210924E
:1016E000710261E084E10E94F80961E085E10E94F5
:1016F000F8098091B9008E7F8093B9008091B9007C
:101700008D7F8093B90088E48093B80085E480934E
:10171000BC0080E090E1A0E0B0E0809340069093B0
:101720004106A0934206B09343068AE090E0A0E011
:10173000B0E08093440690934506A0934606B0938C
:10174000470680E090E0A0E0B0E4809348069093E4
:101750004906A0934A06B0934B0660E070E185E02D
:101760000E9407086FE979E380E00E94070800E51E
:1017700016E0812C912CA12CB12C7EE5272E72E055
:10178000372EEBEC6E2EE7E07E2EFBE84F2E552435
:10179000539495012D5C394F6901D90114969C91A0
:1017A000149712968C91F401ED5CF94F7F01818FB3
:1017B000928F61E00E94280A61E0D7015A968C91CD
:1017C0000E94280AF60190858681D8018C93F70142
:1017D000968F61E00E94280A60E0D7015E968C91A6
:1017E0000E94280A61E0F80180810E94F809FFB692
:1017F000F89480913B02811126C0E8E1F2E09491D7
:10180000F1018491E92FF0E0EE0FFF1FE155FE4F4B
:10181000A591B4919C91892321F461E085E30E9414
:10182000F80961E085E30E94280A8CB580618CBDCF
:101830008CB580648CBD61E084E30E94280A61E07D
:1018400083E30E94280A80913B028F5F80933B02D2
:10185000FFBEC3010197F1F760E0D8018C910E94AF
:10186000F80988E80E94E90283E00E94E90261E049
:10187000F80180810E94F809C3010197F1F760E047
:10188000D8018C910E94F80988E90E94E90280E061
:101890000E94E90280E00E94E90280E00E94E902E1
:1018A00080E00E94E90261E0F80180810E94F8096D
:1018B000C2010197F1F760E0D8018C910E94F8090C
:1018C00080EE0E94E90261E0F80180810E94F8093F
:1018D000F2E08F0E911C0E5F1F4FAA94AB2821F0EF
:1018E000AA24A394B12C55CF08E516E044E0F42EC9
:1018F000F00E60E0D8018D918D010E94280AF0124F
:10190000F8CFB7E6EB2EB6E0FB2E04E616E085E056
:10191000A82E9CE0C92E22E0922E32E0B32EB00E0B
:10192000F8013897D080F80180818C3008F046C0EB
:1019300061E08D2D0E94280AD8018C91A89EF001AB
:101940001124E35DFA4F9D2D9F732081207CD22EC0
:10195000D92AD082138214826C2D0E944911BCE0D6
:101960008B9FA001112420E030E0B901640F751FA6
:10197000A69EF001A79EF00D1124E35DFA4F908121
:1019800096FD12C02F5F3F4F2C30310571F781114A
:101990000BC01092800090928100109285001092EE
:1019A000840096BA90926F00D801EC91AE9EF0013F
:1019B0001124E35DFA4F808180648083F8013297BF
:1019C000908132978081F70131978083F70190836E
:1019D00060E00E94280A61E0D7018C910E94280AE9
:1019E00060E0F70180810E94F8090F5F1F4FF2E06D
:1019F000EF0EF11CB01294CFF8941092200189E000
:101A00008093210180E293E0909329018093280143
:101A1000109225011092240182E080937300789443
:101A200080935B0410925F0480915C0460E00E94EC
:101A3000280A60E080E40E94280A60E08FE30E94A8
:101A4000280A60E08CE30E94280A60E08DE30E948F
:101A5000280A60E08EE30E94280A62E080E30E9488
:101A6000280A60E08CE20E94280A68E873E180E0BE
:101A700090E00E94640A09E61AE0FFE02F2EF2E0EF
:101A80003F2EA8EBCA2EABE0DA2EE12CF12C0E94FF
:101A90004E08843691050CF0DAC1412C512C3201EC
:101AA00043940E944E085C015BA24AA219A2A301C2
:101AB0009201CE0181964C01CA01B9012AE030E0C1
:101AC00040E050E00E942711605DD4016E934D010B
:101AD000211531054105510579F7CD010E9498077F
:101AE00087E392E00E949807B4E6AB16B10464F471
:101AF000EFEF4E1A5E0A6E0A7E0AFAEC4F16510498
:101B00006104710471F606C02AA13BA1273C31058E
:101B10000CF49DC168E2962E75E5672E72E0772E73
:101B2000F4E6AF16B1040CF092C1809100028C3241
:101B300021F4EEEAF1E09491E4C08F3F09F07DC119
:101B40008CE280930002EEEAF1E094919F3F09F469
:101B500074C1923009F46FC044F5992309F44FC061
:101B6000913009F0CEC010928000109281008091D7
:101B700081008860809381008091810081608093E2
:101B80008100F1018491E82FF0E0EE0FFF1FE75391
:101B9000FE4F8591949190934A0280934902F301FC
:101BA00084918093480291E0AEC0943009F487C0DC
:101BB0000CF463C0953009F0A4C01092200110927B
:101BC0002101809121018860809321018091210170
:101BD000816080932101F1018491E82FF0E0EE0F04
:101BE000FF1FE753FE4F8591949190933E0280939F
:101BF0003D02F301849180933C0295E084C014BCC3
:101C000015BC84B5826084BD85B5816085BDF10158
:101C10008491E82FF0E0EE0FFF1FE753FE4F859110
:101C2000949190934D0280934C02F30184918093A0
:101C30004B0290E068C01092B0001092B100809109
:101C4000B00082608093B0008091B1008160809389
:101C5000B100F1018491E82FF0E0EE0FFF1FE75390
:101C6000FE4F859194919093470280934602F30131
:101C700084918093450292E046C0109290001092A9
:101C800091008091910088608093910080919100F3
:101C9000816080939100F1018491E82FF0E0EE0FD4
:101CA000FF1FE753FE4F85919491909344028093D8
:101CB0004302F30184918093420293E024C0109286
:101CC000A0001092A1008091A10088608093A100E3
:101CD0008091A10081608093A100F1018491E82F9F
:101CE000F0E0EE0FFF1FE753FE4F85919491909324
:101CF000410280934002F301849180933F0294E07B
:101D000002C097FD9AC061E08CE29CA30E94280A61
:101D10009CA1992309F4A7C0923009F442C09130E4
:101D2000C1F480918100887F81608093810010934D
:101D3000890000938800C0925E02D0925F02E09218
:101D40006002F092610280916F00826080936F0068
:101D500074C0933039F480919100887F81608093C2
:101D6000910036C0943039F48091A100887F816061
:101D70008093A1003FC0953039F480912101887F84
:101D800081608093210148C0933011F12CF492308E
:101D900009F053C089E60CC0943061F19530E1F14F
:101DA0004CC08091B100887F83608093B10082E550
:101DB0008093B300C0925A02D0925B02E0925C0220
:101DC000F0925D028091700082608093700035C057
:101DD0001093990000939800C0925602D092570237
:101DE000E0925802F09259028091710082608093D3
:101DF000710023C01093A9000093A800C092520262
:101E0000D0925302E0925402F092550280917200F7
:101E100082608093720011C0109329010093280101
:101E2000C0924E02D0924F02E0925002F0925102C4
:101E30008091730082608093730068EE73E080E0AD
:101E400090E00E94640A0E944E085C0169CE8CE218
:101E50000E94F4026AE070E080E090E00E94640A70
:101E60000E94BC0214CE85B5887F836085BD97BC77
:101E7000C0926202D0926302E0926402F092650224
:101E800080916E00826080936E00D7CF80916A054A
:101E900090916B050C94F21110927B0210927A02D1
:101EA00088EE93E0A0E0B0E080937C0290937D0206
:101EB000A0937E02B0937F022BE032E03093790250
:101EC00020937802109287021092860280938802F3
:101ED00090938902A0938A02B0938B022DE132E0A5
:101EE000309385022093840245E351E050939102A0
:101EF0004093900244E351E0509393024093920246
:101F000040E351E0509395024093940241E351E045
:101F1000509397024093960242E351E05093990206
:101F20004093980246E351E050939B0240939A02FB
:101F300010929D0210929E0210929F021092A00297
:101F40001092240310922303809325039093260379
:101F5000A0932703B09328033093220320932103F7
:101F600045ED50E050932E0340932D0344ED50E097
:101F70005093300340932F0340ED50E050933203D1
:101F80004093310341ED50E05093340340933303C9
:101F900042ED50E0509336034093350346ED50E058
:101FA000509338034093370310923A0310923B0347
:101FB00010923C0310923D031092C1031092C00393
:101FC0008093C2039093C303A093C403B093C5034B
:101FD0003093BF032093BE0385EC90E09093CB0336
:101FE0008093CA0384EC90E09093CD038093CC035C
:101FF00080EC90E09093CF038093CE0381EC90E04F
:102000009093D1038093D00382EC90E09093D3031C
:102010008093D20386EC90E09093D5038093D40311
:102020001092D7031092D8031092D9031092DA03BA
:1020300086E38093540687E38093550688E3809374
:10204000560689E3809357068BE1809358068DE10D
:10205000809359068AE180935A068CE180935B064F
:1020600084E080935C0687E080935D0610925E06B4
:1020700084EB80935F0686E18093600688E180931D
:10208000610687E18093620689E180936306E091AF
:102090006905EC3020F08FEF8093640610C081E07A
:1020A0008E0F80936905E093640625E0E29FF001BE
:1020B0001124E35DFA4F88EB9BE092838183E091EA
:1020C0006905EC3020F08FEF8093650610C081E049
:1020D0008E0F80936905E093650685E0E89FF00127
:1020E0001124E35DFA4F88EB9BE0928381838CE0BF
:1020F0008093330684E28093340686E0809335062D
:1021000085E0809336068FE1809337068EE18093D9
:10211000380683E28093390682E280933A0685E4AA
:1021200080933B0684E480933C0680E480933F06E2
:1021300010924406109245061092460610924706E9
:10214000109248061092490610924A0610924B06C9
:10215000E5E7F5E08FEF9FEFDC0112821382148236
:102160001582168217821086118683879487A58729
:10217000B6878787908BA18BB28B128611821082D3
:10218000739626E0E333F20741F78DE090E00E947A
:102190005D11FC01138212828FE292E091838083B1
:1021A000118687E2848384E1828784E083871486B2
:1021B000F0937205E0937105109273051092740507
:1021C00085E280935C0410925E0410926B0510927D
:1021D0006A0510926D0510926C0510926F051092B1
:1021E0006E0561E070E080E090E00E948A12009746
:1021F00089F090936B0580936A0510926D0510929B
:102200006C0520916E0530916F05232BC1F4FC0104
:10221000108215C080916A0590916B05009711F0AE
:102220000E94F21110926B0510926A0510926F05D0
:1022300010926E0510926D0510926C050895109223
:102240006F0510926E0569E372E00C948113A1E2B0
:102250001A2EAA1BBB1BFD010DC0AA1FBB1FEE1F20
:10226000FF1FA217B307E407F50720F0A21BB30B6B
:10227000E40BF50B661F771F881F991F1A9469F7E7
:1022800060957095809590959B01AC01BD01CF0143
:102290000895991B79E004C0991F961708F0961BC2
:1022A000881F7A95C9F780950895EE0FFF1F881F44
:1022B0008BBF0790F691E02D1994CF93DF93823076
:1022C000910510F482E090E0E091F906F091FA06B1
:1022D00020E030E0C0E0D0E0309711F14081518142
:1022E00048175907C0F04817590761F48281938154
:1022F000209719F09B838A832BC09093FA068093D2
:10230000F90626C02115310519F04217530718F4B4
:102310009A01BE01DF01EF010280F381E02DDCCFE5
:102320002115310509F1281B390B2430310590F4B2
:1023300012968D919C9113976115710521F0FB0107
:102340009383828304C09093FA068093F906FD017B
:10235000329644C0FD01E20FF31F81939193225006
:1023600031092D933C933AC02091F7063091F8063D
:10237000232B41F420910302309104023093F8069C
:102380002093F706209101023091020221153105B8
:1023900041F42DB73EB74091050250910602241B2F
:1023A000350BE091F706F091F806E217F307A0F479
:1023B0002E1B3F0B2817390778F0AC014E5F5F4F9B
:1023C0002417350748F04E0F5F1F5093F8064093CF
:1023D000F7068193919302C0E0E0F0E0CF01DF9136
:1023E000CF9108950F931F93CF93DF93009709F434
:1023F0008CC0FC013297138212820091F906109171
:10240000FA060115110581F420813181820F931F95
:102410002091F7063091F8062817390779F5F093DF
:10242000F806E093F70671C0D80140E050E0AE171F
:10243000BF0750F412962D913C911397AD012115D1
:10244000310509F1D901F3CF9D01DA0133832283EC
:1024500060817181860F971F8217930769F4EC01E1
:1024600028813981260F371F2E5F3F4F318320830C
:102470008A819B8193838283452B29F4F093FA060A
:10248000E093F90642C01396FC93EE931297ED0188
:10249000499159919E01240F351FE217F30771F4FA
:1024A00080819181840F951F029611969C938E9343
:1024B0008281938113969C938E931297E0E0F0E0D3
:1024C000D80112968D919C911397009719F0F801FD
:1024D0008C01F6CF8D919C9198012E5F3F4F820F1A
:1024E000931F2091F7063091F8062817390769F4F1
:1024F000309729F41092FA061092F90602C013825E
:1025000012821093F8060093F706DF91CF911F9186
:102510000F9108956F927F928F929F92AF92BF9288
:10252000CF92DF92EF92FF920F931F93CF93DF939F
:10253000EC01009789F4CB01DF91CF911F910F91AE
:10254000FF90EF90DF90CF90BF90AF909F908F90D3
:102550007F906F900C945D11FC01E60FF71F9C01BA
:1025600022503109E217F30708F4ACC0D9010D91EC
:102570001C91119706171707B0F00530110508F4E4
:102580009FC0C80104978617970708F499C00250A6
:102590001109061B170B019311936D937C93CF01C7
:1025A0000E94F2118DC05B01A01AB10A4C01800E8D
:1025B000911EA091F906B091FA0640E050E0E12C9E
:1025C000F12C109709F44AC0A815B905D1F56D9002
:1025D0007C901197630182E0C80ED11CCA14DB0401
:1025E00080F1A3014A195B096A0182E0C80ED11C7F
:1025F0001296BC9012971396AC91B5E0CB16D1040D
:1026000040F0B282A38351834083D9016D937C93C0
:102610000AC00E5F1F4FC301800F911FF901918304
:102620008083EB2DFA2FE114F10431F0D7011396DA
:10263000FC93EE93129744C0F093FA06E093F906E8
:102640003FC08D919C9111974817590708F4AC0130
:102650007D0112960D90BC91A02DB3CF8091F7060D
:102660009091F80688159905E1F446175707C8F4C4
:102670008091010290910202009741F48DB79EB7BC
:102680004091050250910602841B950BE817F9074B
:10269000C8F4F093F806E093F706F90171836083BC
:1026A0000FC0CB010E945D117C01009759F0A80179
:1026B000BE010E947813CE010E94F211C70104C02E
:1026C000CE0102C080E090E0DF91CF911F910F9189
:1026D000FF90EF90DF90CF90BF90AF909F908F9042
:1026E0007F906F90089581E090E0F8940C948813A7
:1026F000FB01DC0102C001900D9241505040D8F71F
:102700000895FB01DC0101900D920020E1F708958E
:1027100011E0CCE5D1E000E006C0802FFE010E9470
:1027200055112196011DCD35D10780E00807A9F785
:04273000F894FFCF4B
:10273400FF0000FB0620000000000069073907F1D4
:10274400021307310722071407000000005002900B
:1027540001D40197020502E301F7010000000062C1
:0A276400039001F102F0020D0A00DB
:00000001FF
