:100000000C945D010C948E010C948E010C948E0165
:100010000C948E010C948E010C948E010C948E0124
:100020000C948E010C9459080C9459080C9459089E
:100030000C948E010C94B2030C948E010C948E01DE
:100040000C948E010C9434060C948E010C948E0149
:100050000C948E010C948E010C948E010C94680308
:100060000C948E010C9423050C94F9040C948E01CD
:100070000C948E010C948E010C948E010C948E01C4
:100080000C948E010C948E010C948E010C948E01B4
:100090000C948E010C948E010C948E010C946308C8
:1000A0000C948E010C948E010C948E010C948E0194
:1000B0000C948E010C948E010C948E010C944D05C1
:1000C0000C948E010C948E010C948E010C94CF0430
:1000D0000C94A5040C948E010C947B040C94510494
:1000E0000C948E01B009B309A209A609AC09EA096A
:1000F000B709BB09C109C509C909CF09D309D7097E
:10010000EA09DD09E109E5090C9434070C941E03A2
:100110000C94C9090C94C5090C94AC090C94DD0924
:100120000C94A2090C9450020C940F070C94F70144
:100130000C943A0D0C942C070C94D4010C9490015F
:100140000C94CF090C94F1020C94B7090C94D309C8
:100150000C940E070C9405020C94EA090C94B30954
:100160000C9497020C9464070C94340D0C94BB0906
:100170000C94C1090C94B0090C941D070C94E5096A
:100180000C94E1090C94E3010C94D7090C94A60992
:100190000C94F002000020002300260029002C000F
:1001A0002F003200000100000301060109010200D6
:1001B000002100240027002A002D00300033000118
:1001C000010000040107010A0100002200250028A7
:1001D000002B002E00310034000201000005010850
:1001E000010B0105050505070508080808020202BC
:1001F000020A0A08080404040401010101010101C2
:10020000010303030303030303040707070C0C0C98
:100210000C0C0C0C0C020202020606060606060670
:10022000060B0B0B0B0B0B0B0B010210202008080D
:100230001020401020408002010201080402010148
:100240000204081020408080402010080402018031
:100250000402018040201008040201080402010188
:100260000204081020408001020408102040800091
:10027000000A0B02090C0D0E080703040100000020
:10028000000000000000000000000000000000006E
:10029000000000000000000000000012111000002B
:1002A000000000000000000000000000000000004E
:1002B0000000000000003A0D340D11241FBECFEFE6
:1002C000D1E2DEBFCDBF00E00CBF12E0A0E0B2E0A3
:1002D000ECECF2E200E00BBF02C007900D92AE35ED
:1002E000B107D9F727E0AEE5B2E001C01D92A53114
:1002F000B207E1F711E0CCE5D1E000E006C02197BC
:100300000109802FFE010E94210FCB35D10780E02B
:100310000807A9F70E94910A0C9454110C9400004C
:10032000CF92DF92EF92FF920F931F93CF93DF93C1
:100330006C017A018B01C0E0D0E0CE15DF0589F0B9
:10034000D8016D918D01D601ED91FC910190F08164
:10035000E02DC6011995892B11F47E0102C021966A
:10036000ECCFC701DF91CF911F910F91FF90EF90DC
:10037000DF90CF900895FC01A089B1898C91A68966
:10038000B78982FD0FC09C91818D8F5F8F73228D05
:10039000821749F0218DDF01A20FB11D5D969C935C
:1003A000818F08958C910895FC01538D448D252FE4
:1003B00030E0842F90E0821B930B541710F0CF96FF
:1003C000089501970895FC01918D828D981761F031
:1003D000828DDF01A80FB11D5D968C91928D9F5F7C
:1003E0009F73928F90E008958FEF9FEF0895FC0127
:1003F000918D828D981731F0828DE80FF11D858DDA
:1004000090E008958FEF9FEF0895FC01918D228D6C
:10041000892F90E0805C9F4F821B91098F739927F1
:1004200008958EE992E00E94050221E0892B09F4EB
:1004300020E0822F08958BE393E00E94050221E0E3
:10044000892B09F420E0822F089588ED93E00E9423
:10045000050221E0892B09F420E0822F0895FC0198
:10046000848DDF01A80FB11DA35ABF4F2C91848D3D
:1004700090E001968F739927848FA689B7892C9372
:10048000A089B1898C9180648C93938D848D98130D
:1004900006C00288F389E02D80818F7D80830895D6
:1004A000EF92FF920F931F93CF93DF93EC0181E0C4
:1004B000888F9B8D8C8D981305C0E889F989808180
:1004C00085FD24C0F62E0B8D10E00F5F1F4F0F73BC
:1004D0001127E02E8C8DE8120CC00FB607FCFACF66
:1004E000E889F989808185FFF5CFCE010E942F022E
:1004F000F1CF8B8DFE01E80FF11DE35AFF4FF08223
:100500000B8FEA89FB898081806207C0EE89FF89B1
:100510006083E889F98980818064808381E090E04C
:10052000DF91CF911F910F91FF90EF900895CF939E
:10053000DF93EC01888D8823C9F0EA89FB898081EB
:1005400085FD05C0A889B9898C9186FD0FC00FB6BD
:1005500007FCF5CF808185FFF2CFA889B9898C91FE
:1005600085FFEDCFCE010E942F02E7CFDF91CF9123
:100570000895E0E0F0E0199480E090E0892B21F00C
:100580000E942502811119C080E090E0892B41F082
:1005900080E090E0892B21F00E940000811110C0C2
:1005A0000E941B0281110FC080E090E0892B81F036
:1005B0000E94110281110AC008950E940000E4CF38
:1005C0000E940000EDCF0E94B902EECF0C94000013
:1005D00008958EBD00000DB407FEFDCF8EB50895C1
:1005E000089580E090E008950E943F11FC0124816D
:1005F00031E030938E022093900210928F0210927D
:1006000091028485682B82E992E00E9464070C9431
:10061000B5070F931F93CF938C01C62F64600E9480
:10062000F6026C2F6B7FC8010E94F60283EC90E00B
:100630000197F1F7CF911F910F9108950F931F9399
:10064000CF93DF938C01C62FD62FD07FD1606D2F33
:100650000E94F6026D2FC8010E94090380E1C89F25
:10066000B0011124C62FC1606C2FC8010E94F60290
:100670006C2FC8010E94090381E090E0DF91CF91C7
:100680001F910F9108953FB7F89480918502909142
:100690008602A0918702B091880226B5A89B05C06A
:1006A0002F3F19F00196A11DB11D3FBFBA2FA92FF1
:1006B000982F8827820F911DA11DB11DBC01CD016E
:1006C00042E0660F771F881F991F4A95D1F708955A
:1006D0001F920F920FB60F9211242F933F938F9377
:1006E0009F93AF93BF938091810290918202A091DA
:1006F0008302B09184023091800223E0230F2D37D2
:1007000020F40196A11DB11D05C026E8230F029615
:10071000A11DB11D209380028093810290938202DB
:10072000A0938302B0938402809185029091860207
:10073000A0918702B09188020196A11DB11D8093FE
:10074000850290938602A0938702B0938802BF919E
:10075000AF919F918F913F912F910F900FBE0F906E
:100760001F9018951F920F920FB60F9211240BB67F
:100770000F922F933F934F935F936F937F938F933A
:100780009F93AF93BF93EF93FF9380917B029091E0
:100790007C02A0917D02B0917E02892B8A2B8B2B4B
:1007A00059F180917A02E0917802F091790290817A
:1007B0008927808380917B0290917C02A0917D02A9
:1007C000B0917E02181619061A061B060CF056C0C8
:1007D00080917B0290917C02A0917D02B0917E027B
:1007E0000197A109B10980937B0290937C02A093A9
:1007F0007D02B0937E0242C080910002EEEAF1E0F9
:10080000E4919FEF90930002E230C9F050F4EE23A0
:1008100099F0E13081F590916F009D7F90936F008A
:100820002AC0E43019F1E0F0E53029F59091730029
:100830009D7F909373001FC010926E001CC090911A
:1008400070009D7F9093700091E09093B000909124
:10085000B100987F94609093B1001092B3000BC0E8
:10086000909171009D7F9093710005C090917200EE
:100870009D7F9093720060E00E94EB09FF91EF91E1
:10088000BF91AF919F918F917F916F915F914F91A8
:100890003F912F910F900BBE0F900FBE0F901F90A6
:1008A00018951F920F920FB60F9211240BB60F924C
:1008B0002F933F934F935F936F937F938F939F9368
:1008C000AF93BF93EF93FF938EE992E00E942F02C4
:1008D000FF91EF91BF91AF919F918F917F916F9118
:1008E0005F914F913F912F910F900BBE0F900FBED4
:1008F0000F901F9018951F920F920FB60F92112410
:100900000BB60F922F933F934F935F936F937F9309
:100910008F939F93AF93BF93EF93FF938EE992E0F2
:100920000E94BB01FF91EF91BF91AF919F918F9179
:100930007F916F915F914F913F912F910F900BBEDF
:100940000F900FBE0F901F9018951F920F920FB629
:100950000F9211240BB60F922F933F934F935F93F7
:100960006F937F938F939F93AF93BF93EF93FF9377
:100970008BE393E00E942F02FF91EF91BF91AF9123
:100980009F918F917F916F915F914F913F912F91A7
:100990000F900BBE0F900FBE0F901F9018951F92D7
:1009A0000F920FB60F9211240BB60F922F933F9315
:1009B0004F935F936F937F938F939F93AF93BF9367
:1009C000EF93FF938BE393E00E94BB01FF91EF91C4
:1009D000BF91AF919F918F917F916F915F914F9157
:1009E0003F912F910F900BBE0F900FBE0F901F9055
:1009F00018951F920F920FB60F9211240BB60F92FB
:100A00002F933F934F935F936F937F938F939F9316
:100A1000AF93BF93EF93FF9388ED93E00E942F0273
:100A2000FF91EF91BF91AF919F918F917F916F91C6
:100A30005F914F913F912F910F900BBE0F900FBE82
:100A40000F901F9018951F920F920FB60F921124BE
:100A50000BB60F922F933F934F935F936F937F93B8
:100A60008F939F93AF93BF93EF93FF9388ED93E0A2
:100A70000E94BB01FF91EF91BF91AF919F918F9128
:100A80007F916F915F914F913F912F910F900BBE8E
:100A90000F900FBE0F901F9018951F920F920FB6D8
:100AA0000F9211240BB60F922F933F934F935F93A6
:100AB0006F937F938F939F93AF93BF93CF93DF9366
:100AC000EF93FF932091760430E0F901E159FD4F57
:100AD0008491F901E75DFD4FD491F901ED51FE4F8D
:100AE000C491CC23A1F081110E949509EC2FF0E074
:100AF000EE0FFF1FEC56FE4FA591B491EC91ED2344
:100B000031E020E009F430E0832F922F02C080E032
:100B100090E020917A0430917B042F5F3F4F309317
:100B20007B0420937A0420917904253618F026E07E
:100B300020937504209175042430D9F128F42230D3
:100B400069F02330D9F060C0253009F453C0263055
:100B500009F05AC021E02093460553C0009709F0E0
:100B600053C020917A0430917B042436310508F477
:100B700043C010924605109279041DC08130910542
:100B800009F042C0E091790421E02E0F209379040E
:100B9000F0E020917A0430917B04EE0FFF1FEB58B8
:100BA000FB4F3087278310927B0410927A0424E055
:100BB00029C00097B9F4E091790421E02E0F209329
:100BC0007904F0E020917A0430917B04EE0FFF1F4E
:100BD000EB58FB4F3087278310927B0410927A04E6
:100BE00023E010C020917A0430917B042536310532
:100BF00058F007C0009741F410927B0410927A04D9
:100C000003C025E020937504209178042223B9F0D5
:100C1000892B51F480917704882321F08091770407
:100C200061E009C02F9A0BC080917704882331F0CE
:100C30008091770460E00E94EB0901C02F98FF913A
:100C4000EF91DF91CF91BF91AF919F918F917F9164
:100C50006F915F914F913F912F910F900BBE0F902D
:100C60000FBE0F901F9018951F920F920FB60F9204
:100C700011240BB60F922F933F934F935F936F9373
:100C80007F938F939F93AF93BF93EF93FF93809145
:100C9000770287FF05C0109285001092840016C06D
:100CA00020917702022E000C330B8091830590E097
:100CB000281739075CF43091770225E03203F00100
:100CC0001124E95BFA4F808186FD15C0809177027F
:100CD0008F5F8093770220917702022E000C330BF6
:100CE0008091830590E02817390794F4809177026A
:100CF0008C302CF10DC0309177023203F0011124B9
:100D0000E95BFA4F808160E08F730E94EB09DECFD0
:100D1000809184009091850084349C4918F480E48B
:100D20009CE905C080918400909185000496909381
:100D30008900809388008FEF809377022AC04091CA
:100D40008400509185003091770225E03203F00154
:100D50001124E95BFA4F81819281840F951F909352
:100D6000890080938800309177023203F0011124CA
:100D7000E95BFA4F808186FF0CC030917702320325
:100D8000F0011124E95BFA4F808161E08F730E94CA
:100D9000EB09FF91EF91BF91AF919F918F917F915F
:100DA0006F915F914F913F912F910F900BBE0F90DC
:100DB0000FBE0F901F90189585ED8093BC00809119
:100DC000BC0084FDFCCF10928D0208954091A606D0
:100DD000262F30E0240F311D21323105DCF4209123
:100DE0008D022430C9F4FC0180E090E0861758F4AD
:100DF0003091A6062191DC01AC57B94FA30FB11D6C
:100E00002C930196F3CF8091A606680F6093A606F7
:100E100080E0089581E0089582E00895089581E0DA
:100E200090E030918A0220918902321710F480E01C
:100E300090E0919581959109089580918A02909111
:100E40008902891730F48F5F80938A0280E090E0F6
:100E500008958FEF9FEF08958091890290E020918F
:100E60008A02821B91090895CF92DF92EF92FF923E
:100E70000F931F93CF93DF937C01262F972F8A0127
:100E800080918E02882391F0C62FD72F6E01C40E59
:100E9000D51ECC15DD0571F06991D701ED91FC915E
:100EA0000190F081E02DC7011995F3CF642F822FB7
:100EB0000E94E606C801DF91CF911F910F91FF902C
:100EC000EF90DF90CF900895CF93DF931F92CDB72F
:100ED000DEB7698320918E022223D1F02091910206
:100EE000203240F021E030E0FC013383228380E0B7
:100EF00090E015C080918F02E82FF0E0EF50F94F9D
:100F0000998190838F5F80938F028093910205C0B7
:100F100061E0CE0101960E94E60681E090E00F902C
:100F2000DF91CF910895CF93DF93009779F0FC0183
:100F300001900020E9F73197AF01481B590BBC0124
:100F400088ED93E00E949001EC0102C0C0E0D0E087
:100F500042E050E06BE572E088ED93E00E94900182
:100F60008C0F9D1FDF91CF91089520919102909158
:100F70009002213208F04AC080918D028111FCCF8D
:100F800032E030938D0231E030938C023FEF3093AA
:100F9000F0061092EF062093EE06A1EFB6E04EECBD
:100FA00056E0FA013E2F341B321718F43D9131936D
:100FB000F9CF1092CD062091CD06990F922B9093E8
:100FC000CD0690918B02913061F410928B0290913A
:100FD000CD069093BB009091BC0093FDF8CF95ECAB
:100FE00001C095EE9093BC0090918D029230E1F398
:100FF0009091F0069F3F79F08091F006803241F0A9
:101000008091F006803331F084E005C081E003C0B8
:1010100082E001C083E010928F0210929102109240
:101020008E020895EF92FF921F93CF93DF931F924A
:10103000CDB7DEB7162F9DE4E92E96E0F92ED70145
:101040001C969C911C9721E020938E029093900215
:1010500010928F02109291021A960D90BC91A02DC1
:10106000ED91FC9111970190F081E02D682FCD0159
:1010700079831995F70182859385DC01ED91FC91C7
:101080000190F081E02D7981672F1995F701828514
:101090009385DC01ED91FC910190F081E02D612FB1
:1010A00019950F90DF91CF911F91FF90EF900C94C5
:1010B000B5071F920F920FB60F9211240F900FBE1B
:1010C0000F901F9018951F920F920FB60F92112438
:1010D0000BB60F922F933F934F935F936F937F9332
:1010E0008F939F93AF93BF93EF93FF938091B9003A
:1010F000887F803609F49CC068F5883209F45BC0AB
:1011000090F4803109F454C038F4882309F4F6C00F
:10111000883009F44DC0F6C0883109F44CC08032E3
:1011200009F45DC0EFC0803409F468C048F480332E
:1011300009F455C0883309F0E5C08093F006D8C0A3
:10114000803509F44FC0883509F45DC0883409F052
:10115000D9C0D6C0883909F4C7C0A8F4883709F4C3
:1011600067C038F4883609F463C0803709F460C07A
:10117000C9C0883809F4B8C0803909F45FC0803824
:1011800009F0C0C05BC0803B09F486C038F4803AE7
:1011900009F466C0883A09F47FC0B4C0803C09F401
:1011A000A7C0883C09F4A4C0883B09F48AC0AAC03F
:1011B0008091CD0610C09091EF068091EE069817B1
:1011C00070F5E091EF0681E08E0F8093EF06F0E07E
:1011D000E253F94F80818093BB0085EC86C08093F9
:1011E000F0068EC0E091EF0681E08E0F8093EF064F
:1011F0008091BB00F0E0E253F94F80839091EF06BD
:101200008091EE066EC0E091EF0681E08E0F809334
:10121000EF068091BB00F0E0E253F94F80838091AC
:101220008C0281116DC081E080938B0284EA61C0E1
:1012300083E080938D021092CA06CFCF8091CA06B8
:10124000803208F051C0E091CA0681E08E0F809391
:10125000CA068091BB00F0E0E655F94F8083BDCF10
:1012600085EC8093BC0010928D028091CA0680327A
:1012700030F4E091CA06F0E0E655F94F1082609133
:10128000CA0670E0E091A806F091A9068AEA96E005
:1012900019951092CA0636C084E080938D02109290
:1012A000A7061092A606E091A406F091A50619954E
:1012B0008091A606811105C081E08093A606109258
:1012C0008406E091A70681E08E0F8093A706F0E0E8
:1012D000EC57F94F80818093BB009091A7068091D5
:1012E000A606981708F479CF85E88093BC000AC059
:1012F00085EC8093BC0010928D0204C01092F00621
:101300000E94DC06FF91EF91BF91AF919F918F9169
:101310007F916F915F914F913F912F910F900BBEF5
:101320000F900FBE0F901F90189590E0FC01319721
:10133000E231F10508F04EC08827EE58FF4F8F4F7D
:101340000C94210F809180008F7703C080918000E2
:101350008F7D80938000089580918000877FF9CFF2
:1013600084B58F7702C084B58F7D84BD0895809148
:10137000B0008F7703C08091B0008F7D8093B00064
:101380000895809190008F7707C0809190008F7DA5
:1013900003C080919000877F809390000895809192
:1013A000A0008F7707C08091A0008F7D03C080913F
:1013B000A000877F8093A0000895809120018F77FF
:1013C00007C0809120018F7D03C080912001877F1D
:1013D0008093200108951F93CF93DF93282F30E04F
:1013E000F901E159FD4F8491F901E75DFD4FD49179
:1013F000F901ED51FE4FC491CC23C9F0162F811194
:101400000E949509EC2FF0E0EE0FFF1FE753FE4F0F
:10141000A591B4918FB7F894111105C09C91ED2F4F
:10142000E095E92302C0EC91ED2BEC938FBFDF91A7
:10143000CF911F910895CF93DF9390E0FC01E75D7A
:10144000FD4F2491FC01ED51FE4F8491882361F101
:1014500090E0880F991FFC01E155FE4FC591D49192
:10146000FC01E753FE4FA591B491611109C09FB7EC
:10147000F8948881209582238883EC912E230BC0D9
:10148000623061F49FB7F8943881822F809583236E
:101490008883EC912E2B2C939FBF06C08FB7F894B6
:1014A000E8812E2B28838FBFDF91CF9108958F92F3
:1014B0009F92AF92BF92CF92DF92EF92FF926B0119
:1014C0007C010E9443034B015C01C114D104E1047F
:1014D000F104F1F00E944303DC01CB018819990962
:1014E000AA09BB09883E9340A105B10570F321E02C
:1014F000C21AD108E108F10888EE880E83E0981E30
:10150000A11CB11CC114D104E104F10419F7DDCF11
:10151000FF90EF90DF90CF90BF90AF909F908F9013
:101520000895789484B5826084BD84B5816084BD5B
:1015300085B5826085BD85B5816085BD80916E0071
:10154000816080936E0010928100809181008260A2
:1015500080938100809181008160809381008091DF
:1015600080008160809380008091B10084608093CE
:10157000B1008091B00081608093B00080919100B3
:1015800082608093910080919100816080939100AE
:10159000809190008160809390008091A100826092
:1015A0008093A1008091A10081608093A10080912F
:1015B000A00081608093A0008091210182608093CF
:1015C000210180912101816080932101809120017E
:1015D00081608093200180917A00846080937A00FA
:1015E00080917A00826080937A0080917A00816095
:1015F00080937A0080917A00806880937A001092BC
:10160000C100E091E803F091E90382E08083E0917A
:10161000E403F091E5031082E091E603F091E70323
:101620008FEC80831092F003E091EC03F091ED03D6
:1016300086E08083E091EA03F091EB038081806192
:101640008083E091EA03F091EB03808188608083DE
:10165000E091EA03F091EB03808180688083E09160
:10166000EA03F091EB0380818F7D808361E08091BC
:101670004E060E941B0A60E080914E060E94EB0914
:1016800060E080914D060E941B0A82E992E09093EF
:1016900058068093570610928A021092890210927F
:1016A0008F021092910210928D0281E080938C0241
:1016B00010928B0261E084E10E94EB0961E085E118
:1016C0000E94EB098091B9008E7F8093B9008091D0
:1016D000B9008D7F8093B90088E48093B80085E4D9
:1016E0008093BC0080E090E1A0E0B0E080935A06D7
:1016F00090935B06A0935C06B0935D068AE090E051
:10170000A0E0B0E080935E0690935F06A093600631
:10171000B093610680E090E0A0E0B0E480936206C0
:1017200090936306A0936406B093650660E070E151
:1017300085E00E9412086FE979E380E00E941208B8
:10174000CAE6D6E0C12CD12CE12CF12C58E1452E73
:1017500052E0552E6EE5662E62E0762E7BECA72ECB
:1017600077E0B72EEBE88E2E99249394C701835B24
:10177000994F1C01FC01948182818601035B194F02
:10178000F801818F928F61E00E941B0A61E0F801ED
:10179000828D0E941B0AF101908586818883F80161
:1017A000968F61E00E941B0A60E0F801868D0E941E
:1017B0001B0A61E088810E94EB091FB7F8948091B1
:1017C0007F02811125C0F2018491F3019491E82FE9
:1017D000F0E0EE0FFF1FE155FE4FA591B4918C9103
:1017E000982321F461E085E30E94EB0961E085E341
:1017F0000E941B0A8CB580618CBD8CB580648CBD49
:1018000061E084E30E941B0A61E083E30E941B0AFB
:1018100080917F028F5F80937F021FBFC501019778
:10182000F1F760E088810E94EB0988E80E94E902F4
:1018300083E00E94E90261E088810E94EB09C50112
:101840000197F1F760E088810E94EB0988E90E9426
:10185000E90280E00E94E90280E00E94E90280E063
:101860000E94E90280E00E94E90261E088810E9412
:10187000EB09C4010197F1F760E088810E94EB0950
:1018800080EE0E94E90261E088810E94EB09F2E0AB
:10189000CF0ED11C2296EA94EF2821F0EE24E39497
:1018A000F12C64CFC2E7D6E01C2F1C5F60E0899169
:1018B0000E941B0A1C13FACF01E816E0CEE7D6E01F
:1018C00085E0C82E9CE0E92E22E0B22EDC2ED394D7
:1018D000D394FE013897F08088818C3008F044C0A2
:1018E00061E08F2D0E941B0A8881C89EF00111249F
:1018F000E95BFA4F9F2D9F732081207CF22EF92AFD
:10190000F082138214826E2D0E94150FECE08E9FE0
:10191000A001112420E030E0B901640F751FC69EBC
:10192000F001C79EF00D1124E95BFA4F908196FDFE
:1019300012C02F5F3F4F2C30310571F781110BC062
:1019400010928000B0928100109285001092840065
:10195000B6BAB0926F00E881CE9EF0011124E95B27
:10196000FA4F808180648083FE01329790813297A4
:101970008081F80131978083F801908360E00E94B4
:101980001B0A61E0F80180810E941B0A60E0F801F7
:1019900080810E94EB0921960E5F1F4FDC1299CFC8
:1019A000F8941092200189E08093210180E293E075
:1019B000909329018093280110922501109224010F
:1019C00082E0809373007894809375041092790478
:1019D0008091760460E00E941B0A60E080E40E942F
:1019E0001B0A60E08FE30E941B0A60E08CE30E9408
:1019F0001B0A60E08DE30E941B0A60E08EE30E94F8
:101A00001B0A62E080E30E941B0A68E873E180E041
:101A100090E00E94570AC6E480917B00877F809304
:101A20007B00C0937C0080917A00806480937A0070
:101A300080917A0086FDFCCF80917800209179001A
:101A400090E0922B019719F487E392E002C087E4BB
:101A500092E00E94930768EE73E080E090E00E94BD
:101A6000570A0E94BC02D8CF8091840590918505C9
:101A70000C94BE0F109295021092940288EE93E09F
:101A8000A0E0B0E08093960290939702A093980212
:101A9000B09399022BE032E03093930220939202AC
:101AA0001092A1021092A0028093A2029093A3022E
:101AB000A093A402B093A5022DE132E030939F02DF
:101AC00020939E0245E351E05093AB024093AA025B
:101AD00044E351E05093AD024093AC0240E351E047
:101AE0005093AF024093AE0241E351E05093B102F4
:101AF0004093B00242E351E05093B3024093B202EC
:101B000046E351E05093B5024093B4021092B702FD
:101B10001092B8021092B9021092BA0210923E03CB
:101B200010923D0380933F0390934003A0934103A1
:101B3000B093420330933C0320933B0345ED50E0C8
:101B4000509348034093470344ED50E050934A03B9
:101B50004093490340ED50E050934C0340934B03B6
:101B600041ED50E050934E0340934D0342ED50E061
:101B70005093500340934F0346ED50E0509352036F
:101B80004093510310925403109255031092560340
:101B9000109257031092DB031092DA038093DC0358
:101BA0009093DD03A093DE03B093DF033093D9035A
:101BB0002093D80385EC90E09093E5038093E403B1
:101BC00084EC90E09093E7038093E60380EC90E050
:101BD0009093E9038093E80381EC90E09093EB030A
:101BE0008093EA0382EC90E09093ED038093EC0302
:101BF00086EC90E09093EF038093EE031092F10354
:101C00001092F2031092F3031092F40386E3809390
:101C10006E0687E380936F0688E38093700689E3FE
:101C2000809371068BE1809372068DE18093730639
:101C30008AE1809374068CE18093750684E080933A
:101C4000760687E0809377061092780684EB80937F
:101C5000790686E180937A0688E180937B0687E1A6
:101C600080937C0689E180937D06E0918305EC30CA
:101C700020F08FEF80937E0610C081E08E0F80935E
:101C80008305E0937E0625E0E29FF0011124E95BE5
:101C9000FA4F88EB9BE092838183E0918305EC30DF
:101CA00020F08FEF80937F0610C081E08E0F80932D
:101CB0008305E0937F0685E0E89FF0011124E95B4E
:101CC000FA4F88EB9BE0928381838CE080934D06F2
:101CD00084E280934E0686E080934F0685E08093F1
:101CE00050068FE1809351068EE18093520683E285
:101CF0008093530682E28093540685E480935506D0
:101D000084E48093560680E48093590610925E0620
:101D100010925F06109260061092610610926206A1
:101D2000109263061092640610926506EFE8F5E0E3
:101D30008FEF9FEFDC0112821382148215821682CC
:101D400017821086118683879487A587B687878731
:101D5000908BA18BB28B128611821082739626E033
:101D6000ED34F20741F78DE090E00E94290FFC016D
:101D7000138212828FE292E091838083118687E240
:101D8000848384E1828784E083871486F0938C05C2
:101D9000E0938B0510928D0510928E0585E280935D
:101DA00076041092780410928505109284051092A2
:101DB000870510928605109289051092880561E0CA
:101DC00070E080E090E00E945610009789F09093B8
:101DD00085058093840510928705109286052091D1
:101DE000880530918905232BC1F4FC01108215C0B0
:101DF0008091840590918505009711F00E94BE0F97
:101E0000109285051092840510928905109288051C
:101E100010928705109286050895109289051092F8
:101E200088056DE572E00C944D11991B79E004C0B2
:101E3000991F961708F0961B881F7A95C9F7809509
:101E40000895EE0FFF1F881F8BBF0790F691E02DBE
:101E50001994CF93DF938230910510F482E090E0E3
:101E6000E0911307F091140720E030E0C0E0D0E0EB
:101E7000309711F14081518148175907C0F0481738
:101E8000590761F482819381209719F09B838A839B
:101E90002BC0909314078093130726C0211531059A
:101EA00019F04217530718F49A01BE01DF01EF0140
:101EB0000280F381E02DDCCF2115310509F1281BCB
:101EC000390B2430310590F412968D919C91139723
:101ED0006115710521F0FB019383828304C0909307
:101EE000140780931307FD01329644C0FD01E20FF1
:101EF000F31F81939193225031092D933C933AC063
:101F00002091110730911207232B41F420910302F5
:101F1000309104023093120720931107209101029F
:101F2000309102022115310541F42DB73EB74091A1
:101F3000050250910602241B350BE0911107F09128
:101F40001207E217F307A0F42E1B3F0B28173907DF
:101F500078F0AC014E5F5F4F2417350748F04E0F05
:101F60005F1F50931207409311078193919302C012
:101F7000E0E0F0E0CF01DF91CF9108950F931F9340
:101F8000CF93DF93009709F48CC0FC013297138242
:101F9000128200911307109114070115110581F4A5
:101FA00020813181820F931F2091110730911207F8
:101FB0002817390779F5F0931207E093110771C0DC
:101FC000D80140E050E0AE17BF0750F412962D91B3
:101FD0003C911397AD012115310509F1D901F3CFDA
:101FE0009D01DA013383228360817181860F971FFF
:101FF0008217930769F4EC0128813981260F371F76
:102000002E5F3F4F318320838A819B81938382831C
:10201000452B29F4F0931407E093130742C013965D
:10202000FC93EE931297ED01499159919E01240F73
:10203000351FE217F30771F480819181840F951F9A
:10204000029611969C938E938281938113969C9312
:102050008E931297E0E0F0E0D80112968D919C915A
:102060001397009719F0F8018C01F6CF8D919C9190
:1020700098012E5F3F4F820F931F209111073091DF
:1020800012072817390769F4309729F410921407BA
:102090001092130702C0138212821093120700934A
:1020A0001107DF91CF911F910F9108956F927F9249
:1020B0008F929F92AF92BF92CF92DF92EF92FF9258
:1020C0000F931F93CF93DF93EC01009789F4CB011B
:1020D000DF91CF911F910F91FF90EF90DF90CF9004
:1020E000BF90AF909F908F907F906F900C94290F2E
:1020F000FC01E60FF71F9C0122503109E217F3079C
:1021000008F4ACC0D9010D911C911197061717075F
:10211000B0F00530110508F49FC0C8010497861778
:10212000970708F499C002501109061B170B019379
:1021300011936D937C93CF010E94BE0F8DC05B0104
:10214000A01AB10A4C01800E911EA0911307B09104
:10215000140740E050E0E12CF12C109709F44AC03C
:10216000A815B905D1F56D907C901197630182E0B7
:10217000C80ED11CCA14DB0480F1A3014A195B0903
:102180006A0182E0C80ED11C1296BC901297139679
:10219000AC91B5E0CB16D10440F0B282A383518359
:1021A0004083D9016D937C930AC00E5F1F4FC3011A
:1021B000800F911FF90191838083EB2DFA2FE11499
:1021C000F10431F0D7011396FC93EE93129744C0BB
:1021D000F0931407E09313073FC08D919C911197E2
:1021E0004817590708F4AC017D0112960D90BC9177
:1021F000A02DB3CF809111079091120788159905F2
:10220000E1F446175707C8F4809101029091020249
:10221000009741F48DB79EB7409105025091060298
:10222000841B950BE817F907C8F4F0931207E093A5
:102230001107F901718360830FC0CB010E94290F40
:102240007C01009759F0A801BE010E944411CE0103
:102250000E94BE0FC70104C0CE0102C080E090E022
:10226000DF91CF911F910F91FF90EF90DF90CF9072
:10227000BF90AF909F908F907F906F90089581E076
:1022800090E0F8940C945411FB01DC0102C0019021
:102290000D9241505040D8F70895FB01DC010190A8
:1022A0000D920020E1F7089511E0CCE5D1E000E0C7
:1022B00006C0802FFE010E94210F2196011DCD3501
:0C22C000D10780E00807A9F7F894FFCFD1
:1022CC00FF0000150720000000000064073407F130
:1022DC00020E072C071D070F07000000005002908C
:1022EC0001D40197020502E301F701000000001E72
:1022FC00039001F102F0025375726661636520620E
:10230C006C616E63686500537572666163652070FD
:0E231C00617320626C616E636865000D0A00DB
:00000001FF
