:100000000C9495010C94C6010C94C6010C94C60185
:100010000C94C6010C94C6010C94C6010C94C60144
:100020000C94C6010C940F0B0C940F0B0C940F0B3B
:100030000C94C6010C9408020C94C6010C94C601E1
:100040000C94C6010C94CB060C94C6010C94C6010A
:100050000C94C6010C94C6010C94C6010C94460D78
:100060000C94C6010C94C3030C9439040C94C6017F
:100070000C94C6010C94C6010C94C6010C94C601E4
:100080000C94C6010C94C6010C94C6010C94C601D4
:100090000C94C6010C94C6010C94C6010C94190B67
:1000A0000C94C6010C94C6010C94C6010C94C601B4
:1000B0000C94C6010C94C6010C94C6010C94D20495
:1000C0000C94C6010C94C6010C94C6010C949903BF
:1000D0000C940F040C94C6010C94CF020C94A5024E
:1000E0000C94C601120617061C0626063006A90641
:1000F0003A0642064A0654065E06680677068106F8
:10010000A9068B0695069F06660C690C580C5C0CBC
:10011000620CA00C6D0C710C770C7B0C7F0C850CA9
:10012000890C8D0CA00C930C970C9B0C0C94C801A3
:100130000C946D0C0C94A9060C94600A0C94260681
:100140000C9413110C948E0A0C94B0040C94850C2E
:100150000C94860A0C94970C0C94770C0C949F06C4
:100160000C94BB0A0C941C030C9408030C949B0C79
:100170000C94890C0C94720A0C944A060C94770621
:100180000C9468060C945E060C94A00C0C94620A05
:100190000C9442060C9471030C94690C0C94740337
:1001A0000C9463040C947B0C0C942A030C94700341
:1001B0000C94620C0C9481060C94F9020C94580C6B
:1001C0000C948B060C9412060C945C0C0C94540644
:1001D0000C9430060C941C060C94610A0C94950641
:1001E0000C947F0C0C948D0C0C94660C0C941706DC
:1001F0000C94710C0C9419110C94630A0C94930CCC
:100200000C943A0602000020002300260029002C4E
:10021000002F003200000100000301060109010067
:10022000002100240027002A002D003000330001A7
:10023000010000040107010A010000220025002836
:10024000002B002E003100340002010000050108DF
:10025000010B01050505050705080808080202024B
:10026000020A0A0808040404040101010101010151
:10027000010303030303030303040707070C0C0C28
:100280000C0C0C0C0C020202020606060606060600
:10029000060B0B0B0B0B0B0B0B010210202008089D
:1002A00010204010204080020102010804020101D8
:1002B00002040810204080804020100804020180C1
:1002C0000402018040201008040201080402010118
:1002D0000204081020408001020408102040800021
:1002E000000A0B02090C0D0E0807030401000000B0
:1002F00000000000000000000000000000000000FE
:1003000000000000000000000000001211100000BA
:1003100000000000000000000000000000000000DD
:100320000000000000001911131111241FBECFEFAF
:10033000D1E2DEBFCDBF00E00CBF12E0A0E0B2E032
:10034000EEE4FFE200E00BBF02C007900D92A6357D
:10035000B107D9F727E0A6E5B2E001C01D92AB32A4
:10036000B207E1F711E0C4E9D1E000E006C021974F
:100370000109802FFE010E945314C339D10780E088
:100380000807A9F70E94900D0C9495170C94000093
:10039000CF92DF92EF92FF920F931F93CF93DF9351
:1003A0006C017A018B01C0E0D0E0CE15DF0581F051
:1003B000D8016D918D01D601ED91FC910190F081F4
:1003C000E02DC6011995892B11F02196EECF7E0103
:1003D000C701DF91CF911F910F91FF90EF90DF90B8
:1003E000CF9008950E9480178CEC92E00E942A031F
:1003F00021E0892B09F420E0822F089589E693E01B
:100400000E942A0321E0892B09F420E0822F08951D
:100410001F920F920FB60F9211240BB60F922F93CB
:100420003F934F935F936F937F938F939F93AF937C
:10043000BF93EF93FF938091570290915802A09140
:100440005902B0915A02892B8A2B8B2B49F190913A
:100450005602809100008927809300008091570206
:1004600090915802A0915902B0915A02181619069B
:100470001A061B060CF056C0809157029091580244
:10048000A0915902B0915A020197A109B109809334
:10049000570290935802A0935902B0935A0242C057
:1004A00080910002E4E0F2E0E4919FEF909300027B
:1004B000E230C9F050F4EE2399F0E13081F59091EB
:1004C0006F009D7F90936F002AC0E43019F1E0F037
:1004D000E53029F5909173009D7F909373001FC0C4
:1004E00010926E001CC0909170009D7F90937000E0
:1004F00091E09093B0009091B100987F94609093B8
:10050000B1001092B3000BC0909171009D7F909349
:10051000710005C0909172009D7F9093720060E021
:100520000E94A10CFF91EF91BF91AF919F918F918C
:100530007F916F915F914F913F912F910F900BBEE3
:100540000F900FBE0F901F9018951F920F920FB62D
:100550000F9211240BB60F922F933F934F935F93FB
:100560006F937F938F939F93AF93BF93EF93FF937B
:100570008CEC92E00E94ED03FF91EF91BF91AF915F
:100580009F918F917F916F915F914F913F912F91AB
:100590000F900BBE0F900FBE0F901F9018951F92DB
:1005A0000F920FB60F9211240BB60F922F933F9319
:1005B0004F935F936F937F938F939F93AF93BF936B
:1005C000EF93FF938CEC92E00E94150AFF91EF915C
:1005D000BF91AF919F918F917F916F915F914F915B
:1005E0003F912F910F900BBE0F900FBE0F901F9059
:1005F0001895FC01538D448D252F30E0842F90E019
:10060000821B930B541710F0CF960895019708950D
:10061000FC01918D828D981761F0828DDF01A80F0A
:10062000B11D5D968C91928D9F5F9F73928F90E02C
:1006300008958FEF9FEF0895FC01918D828D98179B
:1006400031F0828DE80FF11D858D90E008958FEFD8
:100650009FEF0895FC01918D228D892F90E0805CA1
:100660009F4F821B91098F739927089586E094E02C
:100670000E942A0321E0892B09F420E0822F0895AB
:10068000E0E0F0E0199480E090E0892B21F00E94F6
:100690003603811119C080E090E0892B41F080E0A1
:1006A00090E0892B21F00E940000811110C00E946F
:1006B000FE0181110FC080E090E0892B81F00E9443
:1006C000F40181110AC008950E940000E4CF0E9445
:1006D0000000EDCF0E944003EECF0C94000008957F
:1006E000089580E090E008950F931F93CF93DF93D8
:1006F0008C01C62FD62FD07FD1606D2F0E94ED09BF
:100700006D2FC8010E94000A80E1C89FB00111242A
:10071000C62FC1606C2FC8010E94ED096C2FC80163
:100720000E94000A81E090E0DF91CF911F910F912C
:1007300008951F920F920FB60F9211240BB60F92CD
:100740002F933F934F935F936F937F938F939F93D9
:10075000AF93BF93EF93FF9389E693E00E94150A4E
:10076000FF91EF91BF91AF919F918F917F916F9189
:100770005F914F913F912F910F900BBE0F900FBE45
:100780000F901F9018951F920F920FB60F92112481
:100790000BB60F922F933F934F935F936F937F937B
:1007A0008F939F93AF93BF93EF93FF9386E094E073
:1007B0000E94150AFF91EF91BF91AF919F918F9188
:1007C0007F916F915F914F913F912F910F900BBE51
:1007D0000F900FBE0F901F901895FC01848DDF01C4
:1007E000A80FB11DA35ABF4F2C91848D90E00196A4
:1007F0008F739927848FA689B7892C93A089B18993
:100800008C91837080648C93938D848D981306C033
:100810000288F389E02D80818F7D808308951F9267
:100820000F920FB60F9211240BB60F922F933F9396
:100830004F935F936F937F938F939F93AF93BF93E8
:10084000EF93FF9389E693E00E94ED03FF91EF9110
:10085000BF91AF919F918F917F916F915F914F91D8
:100860003F912F910F900BBE0F900FBE0F901F90D6
:1008700018951F920F920FB60F9211240BB60F927C
:100880002F933F934F935F936F937F938F939F9398
:10089000AF93BF93EF93FF9386E094E00E94ED0344
:1008A000FF91EF91BF91AF919F918F917F916F9148
:1008B0005F914F913F912F910F900BBE0F900FBE04
:1008C0000F901F901895EF92FF920F931F93CF9365
:1008D000DF93EC0181E0888F9B8D8C8D981305C090
:1008E000E889F989808185FD26C0F62E0B8D10E000
:1008F0000F5F1F4F0F731127E02E8C8DE8120CC075
:100900000FB607FCFACFE889F989808185FFF5CF1A
:10091000CE010E94ED03F1CF8B8DFE01E80FF11D9A
:10092000E35AFF4FF0829FB7F8940B8FEA89FB8957
:10093000808180620AC09FB7F894EE89FF89608346
:10094000E889F98980818370806480839FBF81E01A
:1009500090E0DF91CF911F910F91FF90EF9008955C
:10096000CF93DF93EC01888D8823C9F0EA89FB8956
:10097000808185FD05C0A889B9898C9186FD0FC04D
:100980000FB607FCF5CF808185FFF2CFA889B98922
:100990008C9185FFEDCFCE010E94ED03E7CFDF9173
:1009A000CF9108951F920F920FB60F9211240BB69C
:1009B0000F922F933F934F935F936F937F938F93F8
:1009C0009F93AF93BF93CF93DF93EF93FF932091C8
:1009D000A40430E0F901E152FD4F8491F901E7569A
:1009E000FD4FD491F901ED5AFD4FC491CC2379F01C
:1009F00081110E944B0CEC2FF0E0EE0FFF1FEB5F1C
:100A0000FD4FA591B491EC91ED2381E009F480E0D4
:100A10002091A8043091A9042F5F3F4F3093A9047F
:100A20002093A8049091A704953618F096E090932F
:100A3000A3049091A3049430C9F128F4923069F092
:100A40009330D1F05EC0953009F451C0963009F072
:100A500058C091E09093740551C0811152C020910B
:100A6000A8043091A9042436310508F442C010923C
:100A700074051092A7041CC0813009F042C0E091B7
:100A8000A70491E09E0F9093A704F0E02091A804A2
:100A90003091A904EE0FFF1FED55FB4F30872783E0
:100AA0001092A9041092A80494E029C0811117C0E3
:100AB000E091A70491E09E0F9093A704F0E02091AD
:100AC000A8043091A904EE0FFF1FED55FB4F3087AE
:100AD00027831092A9041092A80493E010C02091DB
:100AE000A8043091A9042536310558F007C08111BA
:100AF00008C01092A9041092A80403C095E0909336
:100B0000A3049091A6049923B9F081110AC08091A1
:100B1000A504882321F08091A50461E009C02F9AE3
:100B20000BC08091A504882331F08091A50460E07A
:100B30000E94A10C01C02F98FF91EF91DF91CF91FE
:100B4000BF91AF919F918F917F916F915F914F91E5
:100B50003F912F910F900BBE0F900FBE0F901F90E3
:100B600018958F929F92AF92BF92CF92DF92EF92A1
:100B7000FF920F931F93CF93DF938C016A017B0148
:100B800020E030E04FE753E4C701B6010E9467134D
:100B90004B015C0120E030E0A9010E94701518169D
:100BA0001CF4C501B40103C0C501B40190580E94F2
:100BB0003A15EB0120E030E0A901C701B6010E941F
:100BC0007015181614F460E001C061E0F80181812D
:100BD0000E94A10CCF3FD10509F014F4DD2702C01B
:100BE000CFEFD0E0F801108161E0812F0E94D00C9E
:100BF000209709F4B1C0CF3FD10509F4AFC0E12F70
:100C0000F0E0E152FD4FE4918E2F90E0FC0131972E
:100C1000E231F10508F09DC08827EE58FF4F8F4F55
:100C20000C94531484B5806884BDC7BDA7C084B537
:100C3000806284BDC8BDA2C080918000806880931E
:100C40008000D0938900C093880098C08091800074
:100C5000806280938000D0938B00C0938A008EC006
:100C600080918000886080938000D0938D00C09335
:100C70008C0084C08091B00080688093B000C093E5
:100C8000B3007CC08091B00080628093B000C093BC
:100C9000B40074C080919000806880939000D093DD
:100CA0009900C09398006AC0809190008062809300
:100CB0009000D0939B00C0939A0060C080919000F8
:100CC000886080939000D0939D00C0939C0056C094
:100CD0008091A00080688093A0008091A0008F7B0D
:100CE0008093A000D093A900C093A80047C0809132
:100CF000A00080628093A000D093AB00C093AA00B4
:100D00003DC08091A00088608093A000D093AD008A
:100D1000C093AC0033C08091200180688093200193
:100D2000D0932901C093280129C0809120018062BD
:100D300080932001D0932B01C0932A011FC0809182
:100D40002001886080932001D0932D01C0932C0155
:100D500015C0C038D10514F460E001C061E0812FF6
:100D6000DF91CF911F910F91FF90EF90DF90CF9087
:100D7000BF90AF909F908F900C94A10CDF91CF917A
:100D80001F910F91FF90EF90DF90CF90BF90AF90A9
:100D90009F908F9008951F920F920FB60F9211247B
:100DA0000BB60F922F933F934F935F936F937F9365
:100DB0008F939F93AF93BF93EF93FF9380917502AF
:100DC00087FF05C0109285001092840016C0209104
:100DD0007502022E000C330B8091B10590E02817AC
:100DE00039075CF43091750225E03203F0011124DB
:100DF000EB58FA4F808186FD15C0809175028F5F98
:100E00008093750220917502022E000C330B8091A5
:100E1000B10590E02817390794F4809175028C3061
:100E20002CF10DC0309175023203F0011124EB5802
:100E3000FA4F808160E08F730E94A10CDECF809119
:100E400084009091850084349C4918F480E49CE9E6
:100E500005C080918400909185000496909389004C
:100E6000809388008FEF809375022AC040918400A0
:100E7000509185003091750225E03203F001112474
:100E8000EB58FA4F81819281840F951F90938900CE
:100E900080938800309175023203F0011124EB58E1
:100EA000FA4F808186FF0CC0309175023203F00149
:100EB0001124EB58FA4F808161E08F730E94A10CDE
:100EC000FF91EF91BF91AF919F918F917F916F9122
:100ED0005F914F913F912F910F900BBE0F900FBEDE
:100EE0000F901F9018958EBD00000DB407FEFDCF2A
:100EF0008EB50895CF93DF93EC0160E088810E9466
:100F0000A10C88E90E94730780E00E94730780E0CB
:100F10000E94730780E00E94730780E00E947307BD
:100F200061E088810E94A10C8BE891E00197F1F7C4
:100F300060E088810E94A10C80EE0E94730761E04E
:100F40008881DF91CF910C94A10CAF92BF92CF9288
:100F5000DF92EF92FF920F931F93CF93DF93CDB762
:100F6000DEB760970FB6F894DEBF0FBECDBF5C0151
:100F700060E0FC0180810E94A10C80E60E94730762
:100F80008E010F5F1F4F7E01F1E1EF0EF11C680132
:100F900080E00E94730790E0A0E0B0E0F60181934A
:100FA0009193A193B1936F01EE15FF0589F761E06D
:100FB000F50180810E94A10C80E090E0DC01F80145
:100FC00041915191619171918F01BA2FA92F982F61
:100FD0008827840F951FA61FB71FEE15FF0579F709
:100FE0009C01AD0166277727CB01621B730B840B35
:100FF000950B60960FB6F894DEBF0FBECDBFDF91A4
:10100000CF911F910F91FF90EF90DF90CF90BF9005
:10101000AF90089540E050E0BA0182ED95E00E9463
:10102000B10540E050E060E070E884ED95E00E949A
:10103000B10586ED95E00E947A0788ED95E00E9463
:101040007A0766E970E080E090E00C940C0D309136
:10105000BF02313208F04BC080919C028111FCCF5D
:101060009091F00522E020939C0221E020939B02C6
:101070002FEF20939A021092990230939802EFE991
:10108000F2E0A8E7B2E020E0321721F041914D9361
:101090002F5FFACF1092770220917702990F922B4F
:1010A0009093770290917602913061F410927602DB
:1010B000909177029093BB009091BC0093FDF8CF84
:1010C00095EC01C095EE9093BC0090919C029230FB
:1010D000E1F390919A029F3F79F080919A028032D9
:1010E00041F080919A02803331F084E005C081E0C4
:1010F00003C082E001C083E010929E021092BF0202
:1011000010929D020895009769F0FC010190002063
:10111000E9F73197AF01481B590BBC0186E094E019
:101120000C94C80180E090E008950F931F93CF9333
:10113000DF93162F072FC9EBD5E09C8521E0209384
:101140009D029093F00510929E021092BF02AA8514
:10115000BB85ED91FC9111970190F081E02D682FF6
:10116000CD0119958A859B85DC01ED91FC9101905B
:10117000F081E02D602F19958A859B85DC01ED912A
:10118000FC910190F081E02D612F1995DF91CF91B5
:101190001F910F910C9427082F923F924F925F92CC
:1011A0006F927F928F929F92AF92BF92CF92DF9277
:1011B000EF92FF920F931F93CF93DF93CDB7DEB7DC
:1011C000A4970FB6F894DEBF0FBECDBF4B015C01F4
:1011D000F42E9B01AC010E947515882319F08AE456
:1011E00092E027C024013501E89477F82FEF3FEF14
:1011F0004FE75FE7C301B2010E94751581110DC071
:101200002FEF3FEF4FE75FE7C301B2010E940113E9
:1012100018161CF48EE492E00CC02FEF3FEF4FE75E
:101220005FE4C501B4010E94701518162CF482E524
:1012300092E00E948308B8C02FEF3FEF4FE75FECCA
:10124000C501B4010E94011387FDF1CF20E030E019
:10125000A901C501B4010E94011387FF0BC06DE213
:1012600086E094E00E9463043C01B7FAB094B7F8BA
:10127000B09402C0612C712C10E060E070E080E05E
:101280009FE3F11641F020E030E040E251E40E949B
:10129000C8141F5FF6CFA50194010E945C144B0196
:1012A0005C010E9441156AA3C72ED82EE92E19A20F
:1012B000262F372F482F592F8E010F5D1F4F0BA35D
:1012C0001CA39AE0292E312C412C512CCA01B901C2
:1012D000A20191010E942514605DF80162938F01C3
:1012E000211531054105510589F7CF010E94830879
:1012F0008301080F191FFF2009F455C06AA17C2D36
:101300008D2D9E2D0E9406139B01AC01C501B401D9
:101310000E945B144B015C016EE286E094E00E9447
:101320006304080F191F8AE0282E312C412C512C00
:1013300020E030E040E251E4C501B4010E946713AF
:101340004B015C010E9441159B0140E050E019A255
:10135000CBA0DCA0762E3AA3642EE52ECA01B901FB
:10136000A20191010E942514605DF60162936F0154
:10137000211531054105510589F7CF010E948308E8
:10138000080F191F672D7AA1862D9E2D0E94061326
:101390009B01AC01C501B4010E945B144B015C01CF
:1013A000FA94F110C5CFC801A4960FB6F894DEBF29
:1013B0000FBECDBFDF91CF911F910F91FF90EF90A6
:1013C000DF90CF90BF90AF909F908F907F906F9065
:1013D0005F904F903F902F900895FC01248131E061
:1013E00030939D022093F00510929E021092BF024E
:1013F0008485682B80EC92E00E94BB0A0C9427083D
:101400000F931F93CF938C01C62F64600E94ED0948
:101410006C2F6B7FC8010E94ED0983EC90E001976F
:10142000F1F7CF911F910F910895FC01A089B18927
:101430008C91A689B78982FD0FC09C91818D8F5FA9
:101440008F73228D821749F0218DDF01A20FB11D0C
:101450005D969C93818F08958C91089585ED80937E
:10146000BC008091BC0084FDFCCF10929C020895CA
:1014700040910207262F30E0240F311D2132310523
:10148000DCF420919C022430C9F4FC0180E090E05F
:10149000861758F4309102072191DC01AE51B94F03
:1014A000A30FB11D2C930196F3CF80910207680F13
:1014B0006093020780E0089581E0089582E0089536
:1014C000089508950895E091B4068091B306E81751
:1014D00030F4F0E0EE53F94F808190E008958FEF03
:1014E0009FEF08959091B4068091B306981750F439
:1014F000E92FF0E0EE53F94F208130E09F5F9093A9
:10150000B40602C02FEF3FEFC90108958091B306E2
:1015100090E02091B406821B91090895CF92DF924A
:10152000EF92FF920F931F93CF93DF937C01CB0138
:101530008A0120919D02222389F0EB016B01C40EE8
:10154000D51ECC15DD0569F06991D701ED91FC91AF
:101550000190F081E02DC7011995F3CF642F0E940F
:10156000380AC801DF91CF911F910F91FF90EF9042
:10157000DF90CF900895CF93DF931F92CDB7DEB762
:10158000698320919D022223D1F02091BF02203255
:1015900040F021E030E0FC013383228380E090E0E2
:1015A00015C080919E02E82FF0E0E156FD4F998131
:1015B00090838F5F80939E028093BF0205C061E09D
:1015C000CE0101960E94380A81E090E00F90DF91F1
:1015D000CF9108953FB7F8948091BE069091BF06D1
:1015E000A091C006B091C10626B5A89B05C02F3FAB
:1015F00019F00196A11DB11D3FBFBA2FA92F982F39
:101600008827820F911DA11DB11DBC01CD0142E0B3
:10161000660F771F881F991F4A95D1F708951F926B
:101620000F920FB60F9211240F900FBE0F901F90C4
:1016300018951F920F920FB60F9211240BB60F92AE
:101640002F933F934F935F936F937F938F939F93CA
:10165000AF93BF93EF93FF938091B900887F80365B
:1016600009F49CC068F5883209F45BC090F48031BD
:1016700009F454C038F4882309F4F6C0883009F41A
:101680004DC0F6C0883109F44CC0803209F45DC009
:10169000EFC0803409F468C048F4803309F455C0C1
:1016A000883309F0E5C080939A02D8C0803509F4E8
:1016B0004FC0883509F45DC0883409F0D9C0D6C060
:1016C000883909F4C7C0A8F4883709F467C038F42A
:1016D000883609F463C0803709F460C0C9C088380F
:1016E00009F4B8C0803909F45FC0803809F0C0C07F
:1016F0005BC0803B09F486C038F4803A09F466C0C8
:10170000883A09F47FC0B4C0803C09F4A7C0883C83
:1017100009F4A4C0883B09F48AC0AAC0809177026A
:1017200010C09091990280919802981770F5E091FD
:10173000990281E08E0F80939902F0E0E858FD4F06
:1017400080818093BB0085EC86C080939A028EC016
:10175000E091990281E08E0F809399028091BB0005
:10176000F0E0E858FD4F80839091990280919802B3
:101770006EC0E091990281E08E0F80939902809172
:10178000BB00F0E0E858FD4F808380919B028111FF
:101790006DC081E08093760284EA61C083E080932B
:1017A0009C0210922407CFCF80912407803208F04A
:1017B00051C0E091240781E08E0F8093240780912F
:1017C000BB00F0E0EC5FF84F8083BDCF85EC8093E9
:1017D000BC0010929C0280912407803230F4E0918A
:1017E0002407F0E0EC5FF84F10826091240770E06E
:1017F000E091B706F091B80684E097E01995109251
:10180000240736C084E080939C0210920307109254
:101810000207E091B506F091B6061995809102078E
:10182000811105C081E0809302071092E206E091E9
:10183000030781E08E0F80930307F0E0EE51F94F2C
:1018400080818093BB0090910307809102079817D5
:1018500008F479CF85E88093BC000AC085EC8093BA
:10186000BC0010929C0204C010929A020E942E0AA0
:10187000FF91EF91BF91AF919F918F917F916F9168
:101880005F914F913F912F910F900BBE0F900FBE24
:101890000F901F90189590E0FC013197E231F1050F
:1018A00008F04EC08827EC57FF4F8F4F0C9453140D
:1018B000809180008F7703C0809180008F7D80931E
:1018C0008000089580918000877FF9CF84B58F775D
:1018D00002C084B58F7D84BD08958091B0008F775C
:1018E00003C08091B0008F7D8093B00008958091F7
:1018F00090008F7707C0809190008F7D03C080910A
:101900009000877F8093900008958091A0008F774A
:1019100007C08091A0008F7D03C08091A000877FC9
:101920008093A0000895809120018F7707C0809157
:1019300020018F7D03C080912001877F809320014B
:1019400008951F93CF93DF93282F30E0F901E152E0
:10195000FD4F8491F901E756FD4FD491F901ED5AFD
:10196000FD4FC491CC23C1F0162F81110E944B0C66
:10197000EC2FF0E0EE0FFF1FE75CFD4FA591B49157
:101980009FB7F894111104C08C91D095D82302C050
:10199000EC91DE2BDC939FBFDF91CF911F910895D7
:1019A000CF93DF9390E0FC01E756FD4F2491FC01BB
:1019B000ED5AFD4F8491882361F190E0880F991FC3
:1019C000FC01E15EFD4FC591D491FC01E75CFD4F48
:1019D000A591B491611109C09FB7F89488812095B1
:1019E00082238883EC912E230BC0623061F49FB771
:1019F000F8948881322F309583238883EC912E2BA5
:101A00002C939FBF06C08FB7F894E8812E2B2883B4
:101A10008FBFDF91CF9108958F929F92AF92BF9227
:101A2000CF92DF92EF92FF926B017C010E94EA0A53
:101A30004B015C01C114D104E104F104F1F00E94F6
:101A4000EA0ADC01CB0188199909AA09BB09883E79
:101A50009340A105B10570F321E0C21AD108E10855
:101A6000F10888EE880E83E0981EA11CB11CC114F9
:101A7000D104E104F10419F7DDCFFF90EF90DF907E
:101A8000CF90BF90AF909F908F9008951F920F922C
:101A90000FB60F9211242F933F938F939F93AF9381
:101AA000BF938091BA069091BB06A091BC06B091FD
:101AB000BD063091B90623E0230F2D3720F401969F
:101AC000A11DB11D05C026E8230F0296A11DB11D61
:101AD0002093B9068093BA069093BB06A093BC06E8
:101AE000B093BD068091BE069091BF06A091C0063E
:101AF000B091C1060196A11DB11D8093BE069093C1
:101B0000BF06A093C006B093C106BF91AF919F914D
:101B10008F913F912F910F900FBE0F901F901895AE
:101B2000789484B5826084BD84B5816084BD85B5B8
:101B3000826085BD85B5816085BD80916E008160C4
:101B400080936E001092810080918100826080936A
:101B5000810080918100816080938100809180006C
:101B60008160809380008091B10084608093B10097
:101B70008091B00081608093B0008091910082607C
:101B80008093910080919100816080939100809179
:101B900090008160809390008091A100826080938A
:101BA000A1008091A10081608093A1008091A0009C
:101BB00081608093A0008091210182608093210147
:101BC00080912101816080932101809120018160B9
:101BD0008093200180917A00846080937A008091C4
:101BE0007A00826080937A0080917A00816080938D
:101BF0007A0080917A00806880937A001092C10008
:101C0000E0911604F091170482E08083E0911204C1
:101C1000F09113041082E0911404F09115048FECFC
:101C2000808310921E04E0911A04F0911B0486E058
:101C30008083E0911804F091190480818061808391
:101C4000E0911804F0911904808188608083E0910C
:101C50001804F0911904808180688083E091180451
:101C6000F091190480818F7D808361E08091BA05B5
:101C70000E94D00C60E08091BA050E94A10C60E047
:101C80008091B9050E94D00C80EC92E09093C4053D
:101C90008093C3051092B4061092B30610929E0270
:101CA0001092BF0210929C0281E080939B021092DE
:101CB000760261E084E10E94A10C61E085E10E946E
:101CC000A10C8091B9008E7F8093B9008091B900FA
:101CD0008D7F8093B90088E48093B80085E4809379
:101CE000BC0080E69AE09093B6068093B50681E644
:101CF0009AE09093B8068093B70680E090E1A0E068
:101D0000B0E08093C6059093C705A093C805B09333
:101D1000C9058AE090E0A0E0B0E08093CA05909306
:101D2000CB05A093CC05B093CD0580E090E0A0E07A
:101D3000B0E48093CE059093CF05A093D005B093E7
:101D4000D10560E070E185E00E9495086FE979E3D4
:101D500080E00E949508C9EBD5E08E0142E0742E28
:101D600058E8A52E52E0B52E6EEC862E62E0962E37
:101D70007BECE72E77E0F72EF80194818281898F42
:101D80009A8F61E00E94D00C61E08A8D0E94D00C95
:101D9000F801908586816E01FDE1CF0ED11C8D8FFB
:101DA0009E8F61E00E94D00C60E08E8D0E94D00C6E
:101DB00061E08D8D0E94A10C6FB6F89480915B025A
:101DC000811126C0F5018491F4012491E82FF0E0FF
:101DD000EE0FFF1FE15EFD4FA591B4919C91822F04
:101DE000892321F461E085E30E94A10C61E085E391
:101DF0000E94D00C8CB580618CBD8CB580648CBD8C
:101E000061E084E30E94D00C61E083E30E94D00C87
:101E100080915B028F5F80935B026FBEC701019769
:101E2000F1F760E08D8D0E94A10C88E80E94730795
:101E300083E00E94730761E08D8D0E94A10CC701B1
:101E40000197F1F7C6010E947A077A940F5F1F4F3E
:101E50002296711091CF0EED15E0C2EED5E060E054
:101E6000F80181918F010E94D00CF5E0023E1F071E
:101E7000B1F70AED15E085E0E82E9CE0C92E22E0DE
:101E8000D22EF9908F818C3008F044C061E08F2D04
:101E90000E94D00C8F81E89EF0011124EB58FA4F7C
:101EA0009F2D9F732081207CF22EF92AF0821382CD
:101EB00014826C2D0E9447142CE0829FA0011124F3
:101EC00020E030E0BA01620F731FE69EF001E79E4A
:101ED000F00D1124EB58FA4F908196FD12C02F5F40
:101EE0003F4F2C30310571F781110BC010928000EB
:101EF000D09281001092850010928400D6BAD092C0
:101F00006F00EF81EE9EF0011124EB58FA4F8081B3
:101F1000806480839D818B81F801828B938B60E04C
:101F20000E94D00C61E0F80183890E94D00C60E02F
:101F3000F80183890E94A10C0E5F1F4FF5E0C43E9B
:101F4000DF0709F09ECFF8941092200189E080937A
:101F5000210180E293E0909329018093280110925F
:101F600025011092240182E080937300789480937D
:101F7000A3041092A7048091A40460E00E94D00CF6
:101F800002E010E0C0E0D0E086ED95E00E94A507F9
:101F900090958095709561957F4F8F4F9F4F0E94D0
:101FA00008132FEC33EC49E255E40E940113181694
:101FB0000CF40AC1209711F4C1E0D0E086ED95E061
:101FC0000E94A50790958095709561957F4F8F4FE2
:101FD0009F4F0E94081320EA36E942E055E40E9430
:101FE000701587FD78C086ED95E00E94A5076B010E
:101FF0007C0188ED95E00E94A5074B015C016627F6
:102000007727CB016C197D098E099F090E9408135F
:102010006B017C01C501B4010E9408139B01AC0156
:10202000C701B6010E945B146B017C012DEC3CECF6
:102030004CEC5DE30E94671320E030E0A9010E94B0
:102040005C1420E030E0A9010E9467134B015C01A1
:102050002FE832EC45EF5CE3C701B6010E9467133D
:102060009B01AC01C501B4010E945C1420E030E08A
:1020700048EC52E40E94C8146B017C018FE392E0AB
:102080000E94830842E0C701B6010E94CC0887E4A1
:1020900092E00E9483084AE959E969E97EE382ED0A
:1020A00095E00E94B1052AE939E949E95EE3C701F3
:1020B000B6010E945C14AB01BC01705884ED95E040
:1020C0000E94B10564E670E080E090E00E940C0D93
:1020D000C2E0D0E059CFC130D105D1F786ED95E00F
:1020E0000E94A5076B017C0188ED95E00E94A50781
:1020F0004B015C0166277727CB016C197D098E099E
:102100009F090E9408136B017C01C501B4010E9464
:1021100008139B01AC01C701B6010E945B146B015F
:102120007C012DEC3CEC4CEC5DE30E94671320E05D
:1021300030E0A9010E945C1420E030E0A9010E9477
:1021400067134B015C012FE832EC45EF5CE3C701FC
:10215000B6010E9467139B01AC01C501B4010E9446
:102160005C1420E030E048EC52E40E94C8146B019B
:102170007C018FE392E00E94830842E0C701B60130
:102180000E94CC0887E492E00E9483084DEC5CEC4E
:102190006CEC7EE382ED95E00E94B1052DEC3CEC09
:1021A0004CEC5EE3C701B6010E945C14AB01BC01BC
:1021B000705884ED95E00E94B10564E670E080E01F
:1021C00090E00E940C0DE0CE0E940A0888ED95E098
:1021D0000E94A5070E94081320E030E0A9010E9498
:1021E000011318168CF040E050E060E87EEB82EDC1
:1021F00095E00E94B10540E050E060E87EEB84EDA0
:1022000095E00E94B105E2CF0E940A080150110931
:1022100009F0B8CE6AE070E080E090E00E940C0D1A
:102220000E944303ADCE8091B2059091B3050C940A
:1022300012161092C3021092C20288EE93E0A0E040
:10224000B0E08093C4029093C502A093C602B093FD
:10225000C70223E132E03093C1022093C002109202
:10226000CF021092CE028093D0029093D102A0931D
:10227000D202B093D30225E232E03093CD02209314
:10228000CC0245E351E05093D9024093D80244E395
:1022900051E05093DB024093DA0240E351E0509367
:1022A000DD024093DC0241E351E05093DF024093B2
:1022B000DE0242E351E05093E1024093E00246E344
:1022C00051E05093E3024093E2021092E502109233
:1022D000E6021092E7021092E80210926C0310924C
:1022E0006B0380936D0390936E03A0936F03B09381
:1022F000700330936A032093690345ED50E05093D7
:1023000076034093750344ED50E050937803409377
:10231000770340ED50E050937A034093790341ED09
:1023200050E050937C0340937B0342ED50E0509388
:102330007E0340937D0346ED50E05093800340932D
:102340007F031092820310928303109284031092F1
:102350008503109209041092080480930A04909354
:102360000B04A0930C04B0930D0430930704209346
:10237000060485EC90E0909313048093120484EC9F
:1023800090E0909315048093140480EC90E0909377
:1023900017048093160481EC90E0909319048093C5
:1023A000180482EC90E090931B0480931A0486EC4E
:1023B00090E090931D0480931C0410921F041092CF
:1023C000200410922104109222048091070290911F
:1023D0000802A0910902B0910A028093DA05909355
:1023E000DB05A093DC05B093DD0580910B02909195
:1023F0000C02A0910D02B0910E028093DE05909325
:10240000DF05A093E005B093E10584E08093E20549
:1024100087E08093E3051092E40584EB8093E50563
:1024200086E18093E60588E18093E70587E1809364
:10243000E80589E18093E905E091B105EC3020F0F1
:102440008FEF8093EA0510C081E08E0F8093B10575
:10245000E093EA0585E0E89FF0011124EB58FA4F7C
:1024600088EB9BE092838183E091B105EC3020F012
:102470008FEF8093EB0510C081E08E0F8093B10544
:10248000E093EB0585E0E89FF0011124EB58FA4F4B
:1024900088EB9BE0928381838CE08093B90584E292
:1024A0008093BA0586E08093BB0585E08093BC05E8
:1024B0008FE18093BD058EE18093BE0583E280931A
:1024C000BF0582E28093C00585E48093C10584E462
:1024D0008093C20580E48093C5051092CA051092CE
:1024E000CB051092CC051092CD051092CE0510921E
:1024F000CF051092D0051092D105E5EFF5E023EB62
:1025000036E08FEF9FEFDC01128213821482158276
:10251000168217821086118683879487A587B687CF
:102520008787908BA18BB28B128611821082739653
:102530002E173F0749F78DE090E00E947A15FC01C5
:102540001382128287E392E091838083118687E26F
:10255000848384E1828784E083871486F093F20584
:10256000E093F1051092F3051092F40585E2809353
:10257000A4041092A6041092B3051092B205109212
:10258000B5051092B4051092B7051092B60561E03A
:1025900070E080E090E00E949B16009789F0909395
:1025A000B3058093B2051092B5051092B405209141
:1025B000B6053091B705232BC1F4FC01108215C07C
:1025C0008091B2059091B305009711F00E94121608
:1025D0001092B3051092B2051092B7051092B6058D
:1025E0001092B5051092B40508951092B705109297
:1025F000B60569E472E08091B2059091B3050C9440
:102600008E170E94431308F481E00895E89409C0EE
:1026100097FB3EF490958095709561957F4F8F4F15
:102620009F4F9923A9F0F92F96E9BB279395F6952B
:10263000879577956795B795F111F8CFFAF4BB0FA9
:1026400011F460FF1BC06F5F7F4F8F4F9F4F16C00D
:10265000882311F096E911C0772321F09EE8872F97
:10266000762F05C0662371F096E8862F70E060E053
:102670002AF09A95660F771F881FDAF7880F9695CC
:10268000879597F90895990F0008550FAA0BE0E870
:10269000FEEF16161706E807F907C0F01216130624
:1026A000E407F50798F0621B730B840B950B39F464
:1026B0000A2661F0232B242B252B21F408950A26CA
:1026C00009F4A140A6958FEF811D811D08950E94F8
:1026D0007A130C94EB130E94DD1338F00E94E4137C
:1026E00020F0952311F00C94D4130C94DA131124D8
:1026F0000C941F140E94FC1370F3959FC1F3950F67
:1027000050E0551F629FF001729FBB27F00DB11D75
:10271000639FAA27F00DB11DAA1F649F6627B00D05
:10272000A11D661F829F2227B00DA11D621F739FEE
:10273000B00DA11D621F839FA00D611D221F749FFC
:102740003327A00D611D231F849F600D211D822F43
:10275000762F6A2F11249F5750409AF0F1F088236A
:102760004AF0EE0FFF1FBB1F661F771F881F915097
:102770005040A9F79E3F510580F00C94D4130C945F
:102780001F145F3FE4F3983ED4F3869577956795E1
:10279000B795F795E7959F5FC1F7FE2B880F911DC1
:1027A0009695879597F9089597F99F6780E870E067
:1027B00060E008959FEF80EC089500240A941616B7
:1027C000170618060906089500240A94121613061F
:1027D000140605060895092E0394000C11F48823AD
:1027E00052F0BB0F40F4BF2B11F460FF04C06F5FC9
:1027F0007F4F8F4F9F4F089557FD9058440F551F9F
:1028000059F05F3F71F04795880F97FB991F61F072
:102810009F3F79F087950895121613061406551FE9
:10282000F2CF4695F1DF08C0161617061806991F55
:10283000F1CF86957105610508940895E894BB274A
:1028400066277727CB0197F90895A1E21A2EAA1BD4
:10285000BB1BFD010DC0AA1FBB1FEE1FFF1FA21750
:10286000B307E407F50720F0A21BB30BE40BF50B4D
:10287000661F771F881F991F1A9469F760957095D6
:10288000809590959B01AC01BD01CF010895991BE6
:1028900079E004C0991F961708F0961B881F7A9557
:1028A000C9F780950895EE0FFF1F881F8BBF079013
:1028B000F691E02D19945058BB27AA270E94731453
:1028C0000C94EB130E94DD1338F00E94E41320F007
:1028D00039F49F3F19F426F40C94DA130EF4E095C2
:1028E000E7FB0C94D413E92F0E94FC1358F3BA179A
:1028F000620773078407950720F079F4A6F50C9416
:102900001E140EF4E0950B2EBA2FA02D0B01B90169
:1029100090010C01CA01A0011124FF27591B99F055
:10292000593F50F4503E68F11A16F040A22F232F61
:10293000342F4427585FF3CF469537952795A795B1
:10294000F0405395C9F77EF41F16BA0B620B730B58
:10295000840BBAF09150A1F0FF0FBB1F661F771FC9
:10296000881FC2F70EC0BA0F621F731F841F48F47E
:10297000879577956795B795F7959E3F08F0B0CF07
:102980009395880F08F09927EE0F979587950895EE
:102990000E94DC140C94EB130E94E41358F00E9484
:1029A000DD1340F029F45F3F29F00C94D41351114A
:1029B0000C941F140C94DA130E94FC1368F39923EF
:1029C000B1F3552391F3951B550BBB27AA2762172B
:1029D0007307840738F09F5F5F4F220F331F441F38
:1029E000AA1FA9F335D00E2E3AF0E0E832D091506C
:1029F0005040E695001CCAF72BD0FE2F29D0660F59
:102A0000771F881FBB1F261737074807AB07B0E89B
:102A100009F0BB0B802DBF01FF2793585F4F3AF0A1
:102A20009E3F510578F00C94D4130C941F145F3F13
:102A3000E4F3983ED4F3869577956795B795F79527
:102A40009F5FC9F7880F911D9695879597F908950F
:102A5000E1E0660F771F881FBB1F621773078407AB
:102A6000BA0720F0621B730B840BBA0BEE1F88F7BA
:102A7000E09508950E9441156894B1110C941F14BB
:102A800008950E94041488F09F5798F0B92F992751
:102A9000B751B0F0E1F0660F771F881F991F1AF049
:102AA000BA95C9F714C0B13091F00E941E14B1E07C
:102AB00008950C941E14672F782F8827B85F39F07B
:102AC000B93FCCF3869577956795B395D9F73EF4E2
:102AD00090958095709561957F4F8F4F9F4F08958A
:102AE0000E94431308F48FEF08950E944313880B4C
:102AF000990B08950F931F93CF93DF938230910525
:102B000010F482E090E0E0912907F0912A0720E09C
:102B100030E0A0E0B0E0309719F1408151810281AE
:102B2000138148175907C8F08417950769F410975F
:102B300031F012960C93129713961C9327C00093B2
:102B4000290710932A0722C02115310519F04217D1
:102B5000530718F49A01BD01EF01DF01F801DBCF43
:102B600021153105F9F0281B390B2430310580F48B
:102B70008A819B816115710521F0FB01938382831A
:102B800004C090932A0780932907FE01329644C01F
:102B9000FE01E20FF31F8193919322503109398393
:102BA00028833AC02091270730912807232B41F42E
:102BB00020910302309104023093280720932707C5
:102BC00020910102309102022115310541F42DB707
:102BD0003EB74091050250910602241B350BE0914F
:102BE0002707F0912807E217F307A0F42E1B3F0BED
:102BF0002817390778F0AC014E5F5F4F241735076F
:102C000048F04E0F5F1F509328074093270781938A
:102C1000919302C0E0E0F0E0CF01DF91CF911F91EE
:102C20000F910895CF93DF93009709F481C0FC01C1
:102C3000329713821282A0912907B0912A07109728
:102C400081F420813181820F931F209127073091D9
:102C500028072817390751F5F0932807E09327072D
:102C600067C0ED0120E030E0CE17DF0740F44A8175
:102C70005B819E0141155105F1F0EA01F5CFD38347
:102C8000C28340815181840F951FC817D90759F419
:102C900088819981840F951F0296918380838A8110
:102CA0009B81938382832115310529F4F0932A07B0
:102CB000E09329073DC0E901FB83EA8349915991DB
:102CC000C40FD51FEC17FD0761F480819181840F3B
:102CD000951F0296E90199838883828193819B8362
:102CE0008A83E0E0F0E012968D919C911397009713
:102CF00019F0FD01DC01F7CF8D919C9111979D0199
:102D00002E5F3F4F820F931F209127073091280796
:102D10002817390769F4309729F410922A0710927E
:102D2000290702C013821282B0932807A0932707B5
:102D3000DF91CF9108956F927F928F929F92AF9281
:102D4000BF92CF92DF92EF92FF920F931F93CF9398
:102D5000DF93009789F4CB01DF91CF911F910F9101
:102D6000FF90EF90DF90CF90BF90AF909F908F90AB
:102D70007F906F900C947A15FC01E60FF71F9C0171
:102D800022503109E217F30708F4A9C0EC01D90178
:102D90000D911C91119706171707B0F0053011051A
:102DA00008F49BC0C80104978617970708F495C0DC
:102DB00002501109061B170B019311936D937C931D
:102DC000CF010E94121689C05B01A01AB10A4C0102
:102DD000800E911EA0912907B0912A07612C712CB9
:102DE000E12CF12C109709F446C08D919C9111971C
:102DF000A815B905B1F56C0142E0C40ED11CCA1486
:102E0000DB0478F14C018A189B08640142E0C40E8F
:102E1000D11C1296BC9012971396AC91B5E0CB16CC
:102E2000D10440F0B282A38391828082D9016D9354
:102E30007C9309C00E5F1F4F800F911FF901918392
:102E40008083EB2DFA2FE114F10431F0D7011396B2
:102E5000FC93EE93129741C0F0932A07E093290761
:102E60003CC06816790608F43C017D0112960D906D
:102E7000BC91A02DB7CF8091270790912807881685
:102E80009906E1F466167706C8F4809101029091E4
:102E90000202009741F48DB79EB740910502509110
:102EA0000602841B950BE817F907C8F4F09328076E
:102EB000E0932707F901718360830FC0CB010E9463
:102EC0007A157C01009759F0A801BE010E94851770
:102ED000CE010E941216C70104C0CE0102C080E0DC
:102EE00090E0DF91CF911F910F91FF90EF90DF90D5
:102EF000CF90BF90AF909F908F907F906F900895EC
:102F000081E090E0F8940C949517FB01DC0102C07D
:102F100001900D9241505040D8F70895FB01DC011B
:102F200001900D920020E1F7089511E0C4E9D1E08D
:102F300000E006C0802FFE010E9453142196011D5F
:0E2F4000C539D10780E00807A9F7F894FFCF44
:102F4E00FF00002B078000363738391B1D1A1C0076
:102F5E00000000BB0A8E0A7103620A860A720A63B7
:102F6E000A000000006304C801F902B0042A030835
:102F7E00031C03000000007403C8017103700350AA
:102F8E00494F55543A20000D0A006E616E00696E6D
:062F9E0066006F7666007C
:00000001FF
