:100000000C9463010C9494010C9494010C9494014D
:100010000C9494010C9494010C9494010C9494010C
:100020000C9494010C94740B0C94740B0C94740B3E
:100030000C9494010C944F020C9494010C94940130
:100040000C9494010C946B060C9494010C94940100
:100050000C9494010C9494010C9494010C9405025A
:100060000C9494010C94C0030C9496030C9494018A
:100070000C9494010C9494010C9494010C949401AC
:100080000C9494010C9494010C9494010C9494019C
:100090000C9494010C9494010C9494010C947E0B98
:1000A0000C9494010C9494010C9494010C9494017C
:1000B0000C9494010C9494010C9494010C94AD054F
:1000C0000C9494010C9494010C9494010C946C0382
:1000D0000C9442030C9494010C9418030C94EE02BB
:1000E0000C949401DD09E009CF09D309D909170A55
:1000F000E409E809EE09F209F609FC09000A040A14
:10010000170A0A0A0E0A120A0C9419120C945704C0
:100110000C940E0A0C944A090C94D3090C94F60919
:100120000C9496010C94040A0C94B8040C940505E4
:100130000C94F2090C9439090C9466090C949309F7
:100140000C945E090C94CF090C940D040C94580483
:100150000C94DD090C940A0A0C94E8090C94000A2A
:100160000C94EA030C9438090C941B040C94E009D9
:100170000C94D9090C94A7050C94E4090C9471040F
:100180000C94F9030C9413120C943B090C943A0947
:100190000C94EE090C94120A0C94170A0C94FC09A6
:1001A0000200002100240027002A002D0030003327
:1001B0000001010000040107010A010000220025DE
:1001C0000028002B002E0031003400020100000541
:1001D0000108010B01000020002300260029002C4B
:1001E000002F003200000100000301060109010593
:1001F000050505070508080808020202020A0A08A0
:1002000008040404040101010101010101030303C5
:100210000303030303040707070C0C0C0C0C0C0C62
:100220000C0202020206060606060606060B0B0B69
:100230000B0B0B0B0B0102102020080810204010A4
:10024000204080020102010804020101020408109A
:1002500020408080402010080402018004020180B8
:1002600040201008040201080402010102040810E1
:10027000204080010204081020408000000A0B0288
:10028000090C0D0E08070304010000000000000027
:10029000000000000000000000000000000000005E
:1002A000000000000000001211100000000000001B
:1002B000000000000000000000000000000000003E
:1002C00000001912131211241FBECFEFD1E2DEBFBE
:1002D000CDBF00E00CBF12E0A0E0B2E0E4E9FDE237
:1002E00000E00BBF02C007900D92AE36B107D9F700
:1002F00027E0AEE6B2E001C01D92AD35B207E1F7EE
:1003000011E0C2E6D1E000E006C021970109802F8C
:10031000FE010E949514C136D10780E00807A9F7B5
:100320000E94020F0C94B8160C940000CF92DF923A
:10033000EF92FF920F931F93CF93DF936C017A019B
:100340008B01C0E0D0E0CE15DF0581F0D8016D91C2
:100350008D01D601ED91FC910190F081E02DC60157
:100360001995892B11F02196EECF7E01C701DF91FF
:10037000CF911F910F91FF90EF90DF90CF90089554
:100380000E94A3168BE593E00E941B0421E0892BB9
:1003900009F420E0822F089588EF93E00E941B0467
:1003A00021E0892B09F420E0822F089585E994E06B
:1003B0000E941B0421E0892B09F420E0822F08957C
:1003C0003FB7F89480917B0290917C02A0917D02CE
:1003D000B0917E0226B5A89B05C02F3F19F001966B
:1003E000A11DB11D3FBFBA2FA92F982F8827820FBB
:1003F000911DA11DB11DBC01CD0142E0660F771F0B
:10040000881F991F4A95D1F708951F920F920FB632
:100410000F9211242F933F938F939F93AF93BF938A
:100420008091770290917802A0917902B0917A023E
:100430003091760223E0230F2D3720F40196A11D81
:10044000B11D05C026E8230F0296A11DB11D209302
:1004500076028093770290937802A0937902B0930A
:100460007A0280917B0290917C02A0917D02B091F2
:100470007E020196A11DB11D80937B0290937C02A8
:10048000A0937D02B0937E02BF91AF919F918F9117
:100490003F912F910F900FBE0F901F9018951F92B4
:1004A0000F920FB60F9211240BB60F922F933F931A
:1004B0004F935F936F937F938F939F93AF93BF936C
:1004C000EF93FF938091710290917202A091730259
:1004D000B0917402892B8A2B8B2B59F19091700269
:1004E000E0916E02F0916F02808189278083809174
:1004F000710290917202A0917302B0917402181669
:1005000019061A061B060CF056C0809171029091D4
:100510007202A0917302B09174020197A109B1090E
:100520008093710290937202A0937302B09374024D
:1005300042C080910002E0EAF1E0E4919FEF9093E5
:100540000002E230C9F050F4EE2399F0E13081F579
:1005500090916F009D7F90936F002AC0E43019F155
:10056000E0F0E53029F5909173009D7F9093730042
:100570001FC010926E001CC0909170009D7F9093E0
:10058000700091E09093B0009091B100987F9460DA
:100590009093B1001092B3000BC0909171009D7FB9
:1005A0009093710005C0909172009D7F90937200AE
:1005B00060E00E94D90CFF91EF91BF91AF919F91A4
:1005C0008F917F916F915F914F913F912F910F90FC
:1005D0000BBE0F900FBE0F901F9018951F920F9299
:1005E0000FB60F9211240BB60F922F933F934F9398
:1005F0005F936F937F938F939F93AF93BF93EF938B
:10060000FF938BE593E00E949604FF91EF91BF91D9
:10061000AF919F918F917F916F915F914F913F919A
:100620002F910F900BBE0F900FBE0F901F9018953B
:100630001F920F920FB60F9211240BB60F922F93A9
:100640003F934F935F936F937F938F939F93AF935A
:10065000BF93EF93FF938BE593E00E945B0BFF91B9
:10066000EF91BF91AF919F918F917F916F915F912A
:100670004F913F912F910F900BBE0F900FBE0F9097
:100680001F9018951F920F920FB60F9211240BB660
:100690000F922F933F934F935F936F937F938F931B
:1006A0009F93AF93BF93EF93FF9388EF93E00E94E4
:1006B0009604FF91EF91BF91AF919F918F917F91A0
:1006C0006F915F914F913F912F910F900BBE0F90C3
:1006D0000FBE0F901F9018951F920F920FB60F929A
:1006E00011240BB60F922F933F934F935F936F9309
:1006F0007F938F939F93AF93BF93EF93FF9388EF75
:1007000093E00E945B0BFF91EF91BF91AF919F919E
:100710008F917F916F915F914F913F912F910F90AA
:100720000BBE0F900FBE0F901F9018951F920F9247
:100730000FB60F9211240BB60F922F933F934F9346
:100740005F936F937F938F939F93AF93BF93EF9339
:10075000FF9385E994E00E949604FF91EF91BF9189
:10076000AF919F918F917F916F915F914F913F9149
:100770002F910F900BBE0F900FBE0F901F901895EA
:100780001F920F920FB60F9211240BB60F922F9358
:100790003F934F935F936F937F938F939F93AF9309
:1007A000BF93EF93FF9385E994E00E945B0BFF9169
:1007B000EF91BF91AF919F918F917F916F915F91D9
:1007C0004F913F912F910F900BBE0F900FBE0F9046
:1007D0001F901895FC01538D448D252F30E0842FF8
:1007E00090E0821B930B541710F0CF960895019759
:1007F0000895FC01918D828D981761F0828DDF0143
:10080000A80FB11D5D968C91928D9F5F9F73928F03
:1008100090E008958FEF9FEF0895FC01918D828DF8
:10082000981731F0828DE80FF11D858D90E00895C5
:100830008FEF9FEF0895FC01918D228D892F90E01D
:10084000805C9F4F821B91098F7399270895E0E088
:10085000F0E0199480E090E0892B21F00E94D6010D
:10086000811119C080E090E0892B41F080E090E098
:10087000892B21F00E940000811110C00E94CC0140
:1008800081110FC080E090E0892B81F00E94C201AD
:1008900081110AC008950E940000E4CF0E94000068
:1008A000EDCF0E942704EECF0C9400000895089528
:1008B00080E090E00895CF93DF93EC0160E08E81BB
:1008C0000E94D90C61E08E810E94D90C60E08E817B
:1008D0000E94D90C8BE891E00197F1F7DF91CF915D
:1008E00008950F931F93CF93DF938C01C62FD62FBC
:1008F000D07FD1606D2F0E94330B6D2FC8010E94F5
:10090000460B80E1C89FB0011124C62FC1606C2F37
:10091000C8010E94330B6C2FC8010E94460B81E076
:1009200090E0DF91CF911F910F910895FC01848D8C
:10093000DF01A80FB11DA35ABF4F2C91848D90E009
:1009400001968F739927848FA689B7892C93A089E4
:10095000B1898C91837080648C93938D848D98136E
:1009600006C00288F389E02D80818F7D8083089501
:10097000EF92FF920F931F93CF93DF93EC0181E0EF
:10098000888F9B8D8C8D981305C0E889F9898081AB
:1009900085FD26C0F62E0B8D10E00F5F1F4F0F73E5
:1009A0001127E02E8C8DE8120CC00FB607FCFACF91
:1009B000E889F989808185FFF5CFCE010E949604F0
:1009C000F1CF8B8DFE01E80FF11DE35AFF4FF0824E
:1009D0009FB7F8940B8FEA89FB89808180620AC0F7
:1009E0009FB7F894EE89FF896083E889F98980814F
:1009F0008370806480839FBF81E090E0DF91CF911E
:100A00001F910F91FF90EF900895CF93DF93EC012A
:100A1000888D8823C9F0EA89FB89808185FD05C01E
:100A2000A889B9898C9186FD0FC00FB607FCF5CF58
:100A3000808185FFF2CFA889B9898C9185FFEDCFA0
:100A4000CE010E949604E7CFDF91CF910895CF9217
:100A5000DF92EF92FF920F931F93CF93DF936C017E
:100A60007C0187E0E80EF11CC0E0D0E0062F10E02A
:100A7000B8010C2E02C0759567950A94E2F7617073
:100A8000F70181917F010E94D90C2196C430D105D4
:100A900079F7C601DF91CF911F910F91FF90EF90F1
:100AA000DF90CF900C945B04CF92DF92EF92FF9295
:100AB0000F931F93CF93DF93EC01F62E642F8C815D
:100AC0000E94D90C8D818F3F19F060E00E94D90CF3
:100AD0008F850F2D10E084FF25C06E0187E0C80EC2
:100AE000D11CE12CF12CB8010E2C02C07595679534
:100AF0000A94E2F76170F60181916F010E94D90CAE
:100B0000FFEFEF1AFF0A88E0E816F10461F7CE0163
:100B1000DF91CF911F910F91FF90EF90DF90CF90D9
:100B20000C945B04B80184E0759567958A95E1F7AC
:100B3000CE010E9427056F2DCE01DF91CF911F912D
:100B40000F91FF90EF90DF90CF900C94270541E03C
:100B50000E94540581E090E008951F920F920FB615
:100B60000F9211240BB60F922F933F934F935F93E5
:100B70006F937F938F939F93AF93BF93EF93FF9365
:100B8000809133050E94B00C2091370530913805D3
:100B90002F5F3F4F309338052093370590913605EE
:100BA000953618F096E09093320590913205943086
:100BB000C9F128F4923069F09330D1F05EC09530DD
:100BC00009F451C0963009F058C091E090930306A3
:100BD00051C0811152C0209137053091380524361B
:100BE000310508F442C010920306109236051CC06D
:100BF000813009F042C0E091360591E09E0F90935C
:100C00003605F0E02091370530913805EE0FFF1FD3
:100C1000EE5CFA4F30872783109238051092370523
:100C200094E029C0811117C0E091360591E09E0F34
:100C300090933605F0E02091370530913805EE0F9E
:100C4000FF1FEE5CFA4F3087278310923805109211
:100C5000370593E010C020913705309138052536CF
:100C6000310558F007C0811108C010923805109264
:100C7000370503C095E0909332059091350599238F
:100C8000B9F081110AC080913405882321F0809148
:100C9000340561E009C02F9A0BC080913405882388
:100CA00031F08091340560E00E94D90C01C02F988A
:100CB000FF91EF91BF91AF919F918F917F916F9134
:100CC0005F914F913F912F910F900BBE0F900FBEF0
:100CD0000F901F9018951F920F920FB60F9211242C
:100CE0000BB60F922F933F934F935F936F937F9326
:100CF0008F939F93AF93BF93EF93FF93809198024D
:100D000087FF05C0109285001092840016C02091C4
:100D10009802022E000C330B8091400690E02817B9
:100D200039075CF43091980225E03203F001112478
:100D3000EC5FF94F808186FD15C0809198028F5F2E
:100D40008093980220919802022E000C330B809120
:100D5000400690E02817390794F4809198028C306F
:100D60002CF10DC0309198023203F0011124EC5F98
:100D7000F94F808160E08F730E94D90CDECF8091A3
:100D800084009091850084349C4918F480E49CE9A7
:100D900005C080918400909185000496909389000D
:100DA000809388008FEF809398022AC0409184003E
:100DB000509185003091980225E03203F001112412
:100DC000EC5FF94F81819281840F951F9093890088
:100DD00080938800309198023203F0011124EC5F77
:100DE000F94F808186FF0CC0309198023203F001E8
:100DF0001124EC5FF94F808161E08F730E94D90C60
:100E0000FF91EF91BF91AF919F918F917F916F91E2
:100E10005F914F913F912F910F900BBE0F900FBE9E
:100E20000F901F9018958EBD00000DB407FEFDCFEA
:100E30008EB50895CF93809100028A3221F08F3FC2
:100E400009F0B7C104C0E0EAF1E0C491E3C08AE26E
:100E500080930002E0EAF1E0E491EF3F09F4A9C1D8
:100E6000E23009F46CC040F5EE2309F44FC0E130E4
:100E700009F0CFC010928000109281008091810013
:100E800088608093810080918100816080938100DF
:100E9000E9E1F2E0E491F0E0EE0FFF1FE554FE4FD0
:100EA00085919491EFE5F2E0E491E093820261E0B4
:100EB0008AE20E94080DDBC0E43009F488C008F41F
:100EC00064C0E53009F0A5C0109220011092210104
:100ED00080912101886080932101809121018160AE
:100EE00080932101E9E1F2E0E491F0E0EE0FFF1FD1
:100EF000E554FE4F85919491EFE5F2E0E491E093A3
:100F00007F0261E08AE20E94080DE3C014BC15BCB8
:100F100084B5826084BD85B5816085BDE9E1F2E07C
:100F2000E491F0E0EE0FFF1FE554FE4F85919491A0
:100F3000EFE5F2E0E491E0938302C0E06DC010922F
:100F4000B0001092B1008091B00082608093B00038
:100F50008091B10081608093B100E9E1F2E0E49119
:100F6000F0E0EE0FFF1FE554FE4F859194919093B2
:100F70006F0280936E02EFE5F2E0E491E09370027D
:100F800061E08AE20E94080D68C010929000109201
:100F900091008091910088608093910080919100F0
:100FA000816080939100E9E1F2E0E491F0E0EE0FDE
:100FB000FF1FE554FE4F85919491EFE5F2E0E49137
:100FC000E093810261E08AE20E94080D70C01092F5
:100FD000A0001092A1008091A10088608093A100E0
:100FE0008091A10081608093A100E9E1F2E0E491A9
:100FF000F0E0EE0FFF1FE554FE4F85919491EFE571
:10100000F2E0E491E093800261E08AE20E94080D40
:1010100057C0CE2FC7FDCDC061E08AE20E94080D07
:10102000CC2319F0C230C9F020C085B5887F836019
:1010300085BD88E287BD88EB9BE0A0E0B0E08093AF
:10104000940290939502A0939602B0939702809198
:101050006E00826080936E00ACC08091B100887F8A
:1010600083608093B10082E549C0C130F1F4809182
:101070008100887F81608093810089E69AE0909367
:1010800089008093880088EB9BE0A0E0B0E080932B
:10109000900290939102A0939202B0939302809158
:1010A0006F00826080936F0084C0C33039F48091F8
:1010B0009100887F81608093910034C0C43039F4FE
:1010C0008091A100887F81608093A10043C0C530DA
:1010D00039F480912101887F81608093210152C081
:1010E000C33001F12CF4C23009F063C089E606C0B8
:1010F000C43081F1C53009F445C05BC08093B300B2
:1011000088EB9BE0A0E0B0E08093710290937202C4
:10111000A0937302B09374028091700082608093F8
:10112000700047C089E69AE09093990080939800F8
:1011300088EB9BE0A0E0B0E080938C0290938D025E
:10114000A0938E02B0938F02809171008260809391
:1011500071002FC089E69AE09093A9008093A800BF
:1011600088EB9BE0A0E0B0E0809388029093890236
:10117000A0938A02B0938B02809172008260809368
:10118000720017C089E69AE09093290180932801A4
:1011900088EB9BE0A0E0B0E080938402909385020E
:1011A000A0938602B093870280917300826080933F
:1011B000730062E370E080E090E0CF910C94440D06
:1011C0006091890670E081E996E00E944B0E64E62A
:1011D00070E080E090E00E94440D809101029091C7
:1011E00002028D37910564F4019690930202809378
:1011F00001020E944F0A64E170E080E090E0EBCFD2
:1012000064E170E080E090E00C94440D85ED809303
:10121000BC008091BC0084FDFCCF10922A0308958D
:101220004091DF02262F30E0240F311D213231059D
:10123000DCF420912A032430C9F4FC0180E090E022
:10124000861758F43091DF022191DC01A154BD4F83
:10125000A30FB11D2C930196F3CF8091DF02680F8D
:101260006093DF0280E0089581E0089582E00895B0
:10127000089508950895E0919A0280919902E817DF
:1012800030F4F0E0E156FD4F808190E008958FEF5B
:101290009FEF089590919A0280919902981750F4C7
:1012A000E92FF0E0E156FD4F208130E09F5F909301
:1012B0009A0202C02FEF3FEFC90108958091990271
:1012C00090E020919A02821B91090895CF92DF92BB
:1012D000EF92FF920F931F93CF93DF937C01CB018B
:1012E0008A0120912B03222389F0EB016B01C40EAC
:1012F000D51ECC15DD0569F06991D701ED91FC9102
:101300000190F081E02DC7011995F3CF642F0E9461
:101310001009C801DF91CF911F910F91FF90EF90BD
:10132000DF90CF900895CF93DF931F92CDB7DEB7B4
:10133000698320912B032223D1F020914E03203288
:1013400040F021E030E0FC013383228380E090E034
:1013500015C080912C03E82FF0E0E35DFC4F9981EC
:1013600090838F5F80932C0380934E0305C061E0D0
:10137000CE0101960E94100981E090E00F90DF916C
:10138000CF91089590E0FC013197E231F10508F02A
:101390004EC08827EE58FF4F8F4F0C9495148091C4
:1013A00080008F7703C0809180008F7D80938000C4
:1013B000089580918000877FF9CF84B58F7702C030
:1013C00084B58F7D84BD08958091B0008F7703C070
:1013D0008091B0008F7D8093B0000895809190003F
:1013E0008F7707C0809190008F7D03C0809190001F
:1013F000877F8093900008958091A0008F7707C029
:101400008091A0008F7D03C08091A000877F809392
:10141000A0000895809120018F7707C0809120015E
:101420008F7D03C080912001877F809320010895E4
:101430000F931F93CF93DF93162F072FC0E6D6E0AD
:101440009C8521E020932B0390934D0310922C0355
:1014500010924E03AA85BB85ED91FC9111970190E6
:10146000F081E02D682FCD0119958A859B85DC01DF
:10147000ED91FC910190F081E02D602F19958A8506
:101480009B85DC01ED91FC910190F081E02D612FB5
:101490001995DF91CF911F910F910C94A60ECF92C9
:1014A000DF92EF92FF92CF93DF9390918B06891793
:1014B00020F090918C06981770F480E592E00E94DD
:1014C000390E8DE492E0DF91CF91FF90EF90DF90A5
:1014D000CF900C94390EC0919106CC3008F07BC0AF
:1014E000282F30E0D0E0283C3105E4F595E09C9FC2
:1014F000F0019D9FF00D1124EC5FF94F938128E8D6
:1015000030E06901C91AD10897FDD394CC0CDD1CD9
:10151000CC0CDD1C0D2C000CEE08FF08948128E596
:1015200032E0291B310997FD3395220F331F220F1B
:10153000331FA901330F660B770B9A01AB012C19EE
:101540003D094E095F09A82FB0E00E944D1424EB1D
:1015500030E040E050E00E942E14C20ED31EE41E84
:10156000F51E27C085E08C9FF0018D9FF00D1124A2
:10157000EC5FF94F838148E850E06A01C81AD1084E
:1015800087FDD394CC0CDD1CCC0CDD1C2C153D054B
:1015900084F0448188E592E0841B910947FD93958E
:1015A000880F991F880F991F69018C159D050CF4F0
:1015B0006C018FB7F89495E09C9FF0019D9FF00D12
:1015C0001124EC5FF94F96E0C91AD108CC0CDD1C50
:1015D000D282C1828FBFDF91CF91FF90EF90DF90D9
:1015E000CF9008958F929F92AF92BF920F931F93C7
:1015F000CF93DF93CDB7DEB7A1970FB6F894DEBFD8
:101600000FBECDBF19A2423008F44AE08E010F5D33
:101610001F4F842E912CA12CB12CA50194010E9466
:101620005814E62FB901CA0101501109EA3014F427
:10163000E05D01C0E95CD801EC93232B242B252B22
:1016400061F7C8010E94390EA1960FB6F894DEBF6B
:101650000FBECDBFDF91CF911F910F91BF90AF9083
:101660009F908F900895FC01248131E030932B03EB
:1016700020934D0310922C0310924E038485682B07
:101680008FE493E00E9493090C94A60E0F931F938E
:10169000CF938C01C62F64600E94330B6C2F6B7F3D
:1016A000C8010E94330B83EC90E00197F1F7CF91D2
:1016B0001F910F910895FC01A089B1898C91A68991
:1016C000B78982FD0FC09C91818D8F5F8F73228DB2
:1016D000821749F0218DDF01A20FB11D5D969C9309
:1016E000818F08958C9108951F920F920FB60F92DB
:1016F00011240F900FBE0F901F9018951F920F92FC
:101700000FB60F9211240BB60F922F933F934F9366
:101710005F936F937F938F939F93AF93BF93EF9359
:10172000FF938091B900887F803609F49CC068F5EA
:10173000883209F45BC090F4803109F454C038F465
:10174000882309F4F6C0883009F44DC0F6C088310A
:1017500009F44CC0803209F45DC0EFC0803409F454
:1017600068C048F4803309F455C0883309F0E5C0F7
:1017700080932803D8C0803509F44FC0883509F418
:101780005DC0883409F0D9C0D6C0883909F4C7C013
:10179000A8F4883709F467C038F4883609F463C0C0
:1017A000803709F460C0C9C0883809F4B8C08039EE
:1017B00009F45FC0803809F0C0C05BC0803B09F409
:1017C00086C038F4803A09F466C0883A09F47FC0CC
:1017D000B4C0803C09F4A7C0883C09F4A4C0883B8D
:1017E00009F48AC0AAC08091050310C09091270314
:1017F00080912603981770F5E091270381E08E0F02
:1018000080932703F0E0EA5FFC4F80818093BB0068
:1018100085EC86C0809328038EC0E091270381E089
:101820008E0F809327038091BB00F0E0EA5FFC4FAE
:10183000808390912703809126036EC0E091270357
:1018400081E08E0F809327038091BB00F0E0EA5F78
:10185000FC4F80838091290381116DC081E08093CA
:10186000040384EA61C083E080932A031092010399
:10187000CFCF80910103803208F051C0E091010385
:1018800081E08E0F809301038091BB00F0E0EF5167
:10189000FD4F8083BDCF85EC8093BC0010922A035E
:1018A00080910103803230F4E0910103F0E0EF51C8
:1018B000FD4F10826091010370E0E0919D02F09174
:1018C0009E0281EE92E019951092010336C084E0E9
:1018D00080932A031092E0021092DF02E0919B02B3
:1018E000F0919C0219958091DF02811105C081E081
:1018F0008093DF021092BF02E091E00281E08E0F40
:101900008093E002F0E0E154FD4F80818093BB00C2
:101910009091E0028091DF02981708F479CF85E872
:101920008093BC000AC085EC8093BC0010922A030F
:1019300004C0109228030E940609FF91EF91BF9105
:10194000AF919F918F917F916F915F914F913F9157
:101950002F910F900BBE0F900FBE0F901F901895F8
:10196000CF93DF93282F30E0F901E558FD4F8491A4
:10197000F901EB5CFD4FD491F901E151FE4FC491A7
:10198000CC2391F081110E94C209EC2FF0E0EE0F00
:10199000FF1FEB52FE4FA591B491EC91ED2381E036
:1019A00090E021F480E002C080E090E0DF91CF91F0
:1019B00008951F93CF93DF93282F30E0F901E55866
:1019C000FD4F8491F901EB5CFD4FD491F901E15198
:1019D000FE4FC491CC23C1F0162F81110E94C20981
:1019E000EC2FF0E0EE0FFF1FE554FE4FA591B491F0
:1019F0009FB7F894111104C08C91D095D82302C0E0
:101A0000EC91DE2BDC939FBFDF91CF911F91089566
:101A1000CF93DF9390E0FC01EB5CFD4F2491FC0140
:101A2000E151FE4F8491882361F190E0880F991F66
:101A3000FC01EF55FE4FC591D491FC01E554FE4FDA
:101A4000A591B491611109C09FB7F8948881209540
:101A500082238883EC912E230BC0623061F49FB700
:101A6000F8948881322F309583238883EC912E2B34
:101A70002C939FBF06C08FB7F894E8812E2B288344
:101A80008FBFDF91CF9108958F929F92AF92BF92B7
:101A9000CF92DF92EF92FF926B017C010E94E001F6
:101AA0004B015C01C114D104E104F104F1F00E9486
:101AB000E001DC01CB0188199909AA09BB09883E1C
:101AC0009340A105B10570F321E0C21AD108E108E5
:101AD000F10888EE880E83E0981EA11CB11CC11489
:101AE000D104E104F10419F7DDCFFF90EF90DF900E
:101AF000CF90BF90AF909F908F900895CF93DF933A
:101B0000823028F090915006986090935006809310
:101B100054061092550680E48093560680E1809327
:101B2000570680E58093580661E0809145060E9443
:101B3000080D809146068F3F19F061E00E94080D64
:101B400061E0809147060E94080DC1E4D6E09E0145
:101B5000215436408091500684FD03C084E090E01B
:101B600002C088E090E02196281739072CF461E044
:101B70008E810E94080DEBCF8BE39DE00197F1F77A
:101B800060E0809145060E94D90C60E08091470694
:101B90000E94D90C809146068F3F19F060E00E94A8
:101BA000D90C6091500664FD20C063E081E496E0AA
:101BB0000E942705CBE4D6E4CE010197F1F763E05C
:101BC00081E496E00E9427052197F1F763E081E424
:101BD00096E00E94270583E592E00197F1F762E025
:101BE00081E496E00E9427051EC0606240E081E427
:101BF00096E00E9454058BE496E40197F1F760911A
:101C00005006606240E081E496E00E94540583E55E
:101C100092E00197F1F760915006606240E081E444
:101C200096E00E94540560915006606240E081E4B5
:101C300096E00E94540584E08093510640E06CE0F9
:101C400081E496E00E94540540E061E081E496E082
:101C50000E9454058BE39FE10197F1F782E08093A6
:101C6000520640E066E081E496E0DF91CF910C946B
:101C70005405009769F0FC0101900020E9F73197C5
:101C8000AF01481B590BBC0185E994E00C94960107
:101C900080E090E008951F93CF93DF93EC01162F1F
:101CA00088818C3008F04DC061E0812F0E94080DC2
:101CB000E88195E09E9FF0011124EC5FF94F1F73BE
:101CC0008081807C182B10831382E8819E9FF00115
:101CD0001124EC5FF94F148288816CE00E94891412
:101CE0009CE0899FA001112420E030E095E0BA013A
:101CF000620F731F969FF001979FF00D1124EC5F08
:101D0000F94F608166FD13C02F5F3F4F2C303105C6
:101D100071F781110CC01092800082E080938100E5
:101D2000109285001092840086BB80936F00E8813A
:101D300085E0E89FF0011124EC5FF94F8081806419
:101D400080838881DF91CF911F91089530914E0358
:101D5000313208F04BC080912A038111FCCF909161
:101D60004D0322E020932A0321E0209329032FEF43
:101D7000209328031092270330932603EDE2F3E02B
:101D8000A6E0B3E020E0321721F041914D932F5FA0
:101D9000FACF1092050320910503990F922B90938F
:101DA000050390910403913061F410920403909123
:101DB00005039093BB009091BC0093FDF8CF95EC88
:101DC00001C095EE9093BC0090912A039230E1F30C
:101DD000909128039F3F79F080912803803241F051
:101DE00080912803803331F084E005C081E003C096
:101DF00082E001C083E010922C0310924E031092F7
:101E00002B030895789484B5826084BD84B5816085
:101E100084BD85B5826085BD85B5816085BD8091B5
:101E20006E00816080936E0010928100809181002D
:101E30008260809381008091810081608093810025
:101E4000809180008160809380008091B1008460E7
:101E50008093B1008091B00081608093B000809148
:101E600091008260809391008091910081608093C5
:101E70009100809190008160809390008091A100FA
:101E800082608093A1008091A10081608093A10075
:101E90008091A00081608093A000809121018260E8
:101EA00080932101809121018160809321018091A3
:101EB000200181608093200180917A00846080936A
:101EC0007A0080917A00826080937A0080917A0013
:101ED000816080937A0080917A00806880937A0094
:101EE0001092C100E091A504F091A60482E08083E5
:101EF000E091A104F091A2041082E091A304F0917A
:101F0000A4048FEC80831092AD04E091A904F091B9
:101F1000AA0486E08083E091A704F091A804808160
:101F200080618083E091A704F091A804808188609B
:101F30008083E091A704F091A80480818068808369
:101F4000E091A704F091A80480818F7D808361E0F7
:101F5000809161060E94080D60E0809161060E94F8
:101F6000D90C60E0809160060E94080D8FE493E038
:101F700090936B0680936A0610929A0210929902CF
:101F800010922C0310924E0310922A0381E080934A
:101F900029031092040361E084E10E94D90C61E0FE
:101FA00085E10E94D90C8091B9008E7F8093B900A1
:101FB0008091B9008D7F8093B90088E48093B80048
:101FC00085E48093BC0088E399E090939C02809321
:101FD0009B0289E399E090939E0280939D0280E0AA
:101FE00090E1A0E0B0E080936D0690936E06A09320
:101FF0006F06B09370068AE090E0A0E0B0E08093B6
:10200000710690937206A0937306B093740680E0F5
:1020100090E0A0E0B0E48093750690937606A093DC
:102020007706B093780660E070E185E00E94180AB8
:102030006FE979E380E00E94180AC0E6D6E08E01DD
:1020400042E0742E54E2A52E52E0B52E6AE6862EAA
:1020500062E0962E7BECE72E77E0F72EEBE8CE2EB3
:10206000DD24D394F80194818281898F9A8F61E075
:102070000E94080D61E08A8D0E94080DF80190858C
:1020800086818D8F9E8F61E00E94080D60E08E8DAD
:102090000E94080D61E08D8D0E94D90C6FB6F894F6
:1020A00080917502811126C0F5018491F40124917B
:1020B000E82FF0E0EE0FFF1FEF55FE4FA591B49112
:1020C0009C91822F892321F461E085E30E94D90C41
:1020D00061E085E30E94080D8CB580618CBD8CB5F4
:1020E00080648CBD61E084E30E94080D61E083E3BD
:1020F0000E94080D809175028F5F809375026FBEFC
:10210000C7010197F1F760E08D8D0E94D90C88E836
:102110000E94130783E00E94130761E08D8D0E94E7
:10212000D90CC7010197F1F760E08D8D0E94D90CA1
:1021300088E90E94130780E00E94130780E00E9454
:10214000130780E00E94130780E00E94130761E0FC
:102150008D8D0E94D90CC6010197F1F760E08D8D3D
:102160000E94D90C80EE0E94130761E08D8D0E94C1
:10217000D90C7A940F5F1F4F2296711073CF05E828
:1021800016E0C9E8D6E060E0F80181918F010E9475
:10219000080DC017D107B9F701E816E07E01FFEF7F
:1021A000EF1AFF0A688170E0CE0108960E944B0E7C
:1021B000F70195818381F801828B938B60E00E9407
:1021C000080D61E0F80183890E94080D60E0F801C4
:1021D00083890E94D90C0E5F1F4FE701F6E0CB38D0
:1021E000DF07E1F6F8941092200189E08093210145
:1021F00080E293E0909329018093280110922501B9
:102200001092240182E080937300789480933205C9
:10221000109236058091330560E00E94080D60E061
:1022200080E40E94080D60E08FE30E94080D60E0EA
:102230008CE30E94080D60E08DE30E94080D60E0D1
:102240008EE30E94080D62E080E30E94080D60E0CA
:1022500082E00E94080D60E083E00E94080D60E0CB
:1022600084E00E94080D60E085E00E94080D60E0B7
:102270008BE00E94080D60E08CE00E94080D82E077
:102280000E947E0D68E873E180E090E00E94440DBA
:1022900086E4A82ECDE7D0E095E0B92E80917B00B2
:1022A000877F80937B00A0927C0080917A0080647D
:1022B00080937A0080917A0086FDFCCF00917800AF
:1022C0008091790010E0182B043611050CF5680197
:1022D000012E000CEE08FF088824992454018C1864
:1022E0009D08AE08BF0817FF09C06DE285E994E0BC
:1022F0000E94B8044AE0C501B40103C04AE0C70126
:10230000B6010E94F20A8DE492E00E94390EEBCFF2
:10231000809188060E94B00C892B09F47BC0D09371
:102320000202C09301026091890670E081E996E0A3
:102330000E944B0E8DE70E944F0A64E670E080E039
:1023400090E00E94440D01E010E00130110509F019
:1023500055C0809101020E944F0A64E170E080E064
:1023600090E00E94440D80E30E94B00C892B69F537
:10237000E0919106BE9EF0011124EC5FF94F80813F
:102380008F7B8083C0900102D09002020D2C000C44
:10239000EE08FF08F7FE0EC06DE285E994E00E94AA
:1023A000B80466277727CB016C197D098E099F0930
:1023B0004AE003C04AE0C701B6010E94F20A8DE478
:1023C00092E00E94390E00E010E0809101029091AD
:1023D0000202019790930202809301024B9709F049
:1023E000B4CFE0919106BE9EF0011124EC5FF94F4D
:1023F00080818F7B808300E010E0A7CFE091910681
:10240000BE9EF0011124EC5FF94F80818F7B8083A9
:102410000E94E0086AE070E080E090E00E94440DD5
:102420000E942A043BCF8091590690915A060C9441
:102430003515109252031092510388EE93E0A0E0FC
:10244000B0E08093530390935403A0935503B0934B
:10245000560325E132E03093500320934F0310924E
:102460005E0310925D0380935F0390936003A093DB
:102470006103B093620327E232E030935C03209360
:102480005B0345E351E0509368034093670344E3E3
:1024900051E050936A034093690340E351E0509345
:1024A0006C0340936B0341E351E050936E03409300
:1024B0006D0342E351E05093700340936F0346E392
:1024C00051E0509372034093710310927403109281
:1024D000750310927603109277031092FB0310920B
:1024E000FA038093FC039093FD03A093FE03B09343
:1024F000FF033093F9032093F80345ED50E0509328
:1025000005044093040444ED50E0509307044093C5
:10251000060440ED50E0509309044093080441ED57
:1025200050E050930B0440930A0442ED50E0509366
:102530000D0440930C0446ED50E050930F0440937B
:102540000E041092110410921204109213041092AF
:102550001404109298041092970480939904909315
:102560009A04A0939B04B0939C0430939604209308
:10257000950485EC90E09093A2048093A10484ECF0
:1025800090E09093A4048093A30480EC90E0909357
:10259000A6048093A50481EC90E09093A804809316
:1025A000A70482EC90E09093AA048093A90486EC9F
:1025B00090E09093AC048093AB041092AE04109220
:1025C000AF041092B0041092B1048091090290916E
:1025D0000A02A0910B02B0910C02809381069093A5
:1025E0008206A0938306B093840680910D02909199
:1025F0000E02A0910F02B091100280938506909375
:102600008606A0938706B093880684E080938906A7
:1026100087E080938A0610928B0684EB80938C0669
:1026200086E180938D0688E180938E0687E1809312
:102630008F0689E180939006E0914006EC3020F00F
:102640008FEF8093910610C081E08E0F809340063B
:10265000E093910685E0E89FF0011124EC5FF94FCB
:1026600088EB9BE092838183E0914006EC3020F080
:102670008FEF8093920610C081E08E0F809340060A
:10268000E093920685E0E89FF0011124EC5FF94F9A
:1026900088EB9BE0928381838CE08093600684E2E8
:1026A0008093610686E08093620685E080936306EE
:1026B0008FE1809364068EE18093650683E28093C8
:1026C000660682E28093670685E48093680684E468
:1026D0008093690680E480936C06109271061092D4
:1026E000720610927306109274061092750610927C
:1026F00076061092770610927806EBE9F6E029E567
:1027000037E08FEF9FEFDC01128213821482158273
:10271000168217821086118683879487A587B687CD
:102720008787908BA18BB28B128611821082739651
:102730002E173F0749F78DE090E00E949D14FC01A1
:102740001382128285E492E091838083118687E26E
:10275000848384E1828784E083871486F0939806DB
:10276000E09397061092990610929A0685E280935C
:1027700033051092350510925A06109259061092A0
:102780005C0610925B0610925E0610925D0661E098
:1027900070E080E090E00E94BE15009791F0909369
:1027A0005A068093590610925C0610925B0620919F
:1027B0005D0630915E06232B09F043C0FC011082B8
:1027C00040C08091590690915A06009711F00E94DE
:1027D000351510925A061092590610925E06109204
:1027E0005D0610925C0610925B06109244061092F1
:1027F000430689E392E090934206809341068CE081
:10280000809345068FEF809346068BE080934706C2
:1028100085E08093480684E08093490683E08093B6
:102820004A0682E080934B0610924C0610924D06A9
:1028300010924E0610924F061092500681E00C94B2
:102840007E0D10925E0610925D066FE472E080913C
:10285000590690915A060E94B116C7CF052E97FBD4
:102860001EF400940E94451457FD07D00E9458148E
:1028700007FC03D04EF40C944514509540953095C8
:1028800021953F4F4F4F5F4F0895909580957095DC
:1028900061957F4F8F4F9F4F08950E947A14A59F97
:1028A000900DB49F900DA49F800D911D112408954B
:1028B000A1E21A2EAA1BBB1BFD010DC0AA1FBB1F44
:1028C000EE1FFF1FA217B307E407F50720F0A21BB6
:1028D000B30BE40BF50B661F771F881F991F1A9423
:1028E00069F760957095809590959B01AC01BD014D
:1028F000CF010895A29FB001B39FC001A39F700DA7
:10290000811D1124911DB29F700D811D1124911DF7
:102910000895991B79E004C0991F961708F0961B3B
:10292000881F7A95C9F780950895EE0FFF1F881FBD
:102930008BBF0790F691E02D19940F931F93CF93BF
:10294000DF938230910510F482E090E0E0915B0724
:10295000F0915C0720E030E0A0E0B0E0309719F1A2
:10296000408151810281138148175907C8F08417AB
:10297000950769F4109731F012960C9312971396FD
:102980001C9327C000935B0710935C0722C021159E
:10299000310519F04217530718F49A01BD01EF01F0
:1029A000DF01F801DBCF21153105F9F0281B390BC8
:1029B0002430310580F48A819B816115710521F0F5
:1029C000FB019383828304C090935C0780935B0731
:1029D000FE01329644C0FE01E20FF31F81939193F2
:1029E00022503109398328833AC020915907309108
:1029F0005A07232B41F420910502309106023093AF
:102A00005A0720935907209103023091040221159F
:102A1000310541F42DB73EB74091070250910802AD
:102A2000241B350BE0915907F0915A07E217F30781
:102A3000A0F42E1B3F0B2817390778F0AC014E5F2E
:102A40005F4F2417350748F04E0F5F1F50935A070A
:102A5000409359078193919302C0E0E0F0E0CF01E9
:102A6000DF91CF911F910F910895CF93DF9300973E
:102A700009F481C0FC01329713821282A0915B0796
:102A8000B0915C07109781F420813181820F931FF0
:102A90002091590730915A072817390751F5F093BB
:102AA0005A07E093590767C0ED0120E030E0CE17E8
:102AB000DF0740F44A815B819E0141155105F1F029
:102AC000EA01F5CFD383C28340815181840F951FE2
:102AD000C817D90759F488819981840F951F0296E8
:102AE000918380838A819B81938382832115310521
:102AF00029F4F0935C07E0935B073DC0E901FB8399
:102B0000EA8349915991C40FD51FEC17FD0761F471
:102B100080819181840F951F0296E90199838883B2
:102B2000828193819B838A83E0E0F0E012968D910D
:102B30009C911397009719F0FD01DC01F7CF8D915F
:102B40009C9111979D012E5F3F4F820F931F209103
:102B5000590730915A072817390769F4309729F433
:102B600010925C0710925B0702C013821282B0932E
:102B70005A07A0935907DF91CF9108956F927F92E2
:102B80008F929F92AF92BF92CF92DF92EF92FF927D
:102B90000F931F93CF93DF93009789F4CB01DF91BD
:102BA000CF911F910F91FF90EF90DF90CF90BF904A
:102BB000AF909F908F907F906F900C949D14FC012C
:102BC000E60FF71F9C0122503109E217F30708F4C2
:102BD000A9C0EC01D9010D911C9111970617170797
:102BE000B0F00530110508F49BC0C80104978617A2
:102BF000970708F495C002501109061B170B0193A3
:102C000011936D937C93CF010E94351589C05B01B0
:102C1000A01AB10A4C01800E911EA0915B07B091E1
:102C20005C07612C712CE12CF12C109709F446C043
:102C30008D919C911197A815B905B1F56C0142E0F1
:102C4000C40ED11CCA14DB0478F14C018A189B080D
:102C5000640142E0C40ED11C1296BC9012971396E8
:102C6000AC91B5E0CB16D10440F0B282A38391823F
:102C70008082D9016D937C9309C00E5F1F4F800F36
:102C8000911FF90191838083EB2DFA2FE114F10458
:102C900031F0D7011396FC93EE93129741C0F09355
:102CA0005C07E0935B073CC06816790608F43C01BA
:102CB0007D0112960D90BC91A02DB7CF8091590740
:102CC00090915A0788169906E1F466167706C8F4BB
:102CD0008091030290910402009741F48DB79EB752
:102CE0004091070250910802841B950BE817F907E1
:102CF000C8F4F0935A07E0935907F9017183608390
:102D00000FC0CB010E949D147C01009759F0A801CF
:102D1000BE010E94A816CE010E943515C70104C04D
:102D2000CE0102C080E090E0DF91CF911F910F9122
:102D3000FF90EF90DF90CF90BF90AF909F908F90DB
:102D40007F906F90089581E090E0F8940C94B8160D
:102D5000FB01DC0102C001900D9241505040D8F7B8
:102D60000895FB01DC0101900D920020E1F7089528
:102D700011E0C2E6D1E000E006C0802FFE010E9413
:102D800095142196011DC336D10780E00807A9F7E5
:042D9000F894FFCFE5
:102D9400FF7D0000005D078000363738391B1D1A9F
:102DA4001C000000009309660958043A095E094AA8
:102DB400093B0900000000B8049601EA0305051B5D
:102DC40004F9030D0400000000A7059601580457F8
:102DD400040000000071049601580457040D0A0011
:102DE400536572766F20616E676C65206973206F1E
:0E2DF4007574206F662072616E6765210000A5
:00000001FF
