:100000000C9463010C9494010C9494010C9494014D
:100010000C9494010C9494010C9494010C9494010C
:100020000C9494010C94FF0A0C94FF0A0C94FF0AA0
:100030000C9494010C94DD030C9494010C949401A1
:100040000C9494010C94F2060C9494010C94940179
:100050000C9494010C9494010C9494010C949303CB
:100060000C9494010C9463050C9439050C94940140
:100070000C9494010C9494010C9494010C949401AC
:100080000C9494010C9494010C9494010C9494019C
:100090000C940F050C94E5040C9494010C94090B3A
:1000A0000C9494010C9494010C9494010C9494017C
:1000B0000C9494010C9494010C9494010C941306E8
:1000C0000C9494010C9494010C9494010C94BB0432
:1000D0000C9491040C9494010C9467040C943D04CA
:1000E0000C949401560C590C480C4C0C520C900C6E
:1000F0005D0C610C670C6B0C6F0C750C790C7D0C36
:10010000900C830C870C8B0C0C94BC090C9447024C
:100110000C94E3010C94790C0C947D0C0C94900CD1
:100120000C9446120C94BA090C94870C0C94490355
:100130000C94520C0C94670C0C94C0010C948B0C16
:100140000C94590C0C94EA020C94BD090C94CF0148
:100150000C946B0C0C9494020C945D0C0C94610C3C
:100160000C94480C0C94E8090C94560C0C946F0CED
:100170000C94E0090C94F1010C94830C0C94150A76
:100180000C940D060C94CC090C94E9020C94750C9B
:100190000C944C0C0C94BB090C9496010C944012DA
:1001A000000020002300260029002C002F00320030
:1001B00000010000030106010901020000210024E2
:1001C0000027002A002D0030003300010100000448
:1001D0000107010A0100002200250028002B002E43
:1001E000003100340002010000050108010B010587
:1001F000050505070508080808020202020A0A08A0
:1002000008040404040101010101010101030303C5
:100210000303030303040707070C0C0C0C0C0C0C62
:100220000C0202020206060606060606060B0B0B69
:100230000B0B0B0B0B0102102020080810204010A4
:10024000204080020102010804020101020408109A
:1002500020408080402010080402018004020180B8
:1002600040201008040201080402010102040810E1
:10027000204080010204081020408000000A0B0288
:10028000090C0D0E08070304010000000000000027
:10029000000000000000000000000000000000005E
:1002A000000000000000001211100000000000001B
:1002B000000000000000000000000000000000003E
:1002C00000004612401211241FBECFEFD1E2DEBF64
:1002D000CDBF00E00CBF12E0A0E0B2E0E2EFFDE233
:1002E00000E00BBF02C007900D92AC37B107D9F701
:1002F00028E0ACE7B2E001C01D92A734B207E1F7F5
:1003000011E0C2E6D1E000E006C021970109802F8C
:10031000FE010E94C414C136D10780E00807A9F786
:100320000E94360D0C94E7160C940000CF92DF92D9
:10033000EF92FF920F931F93CF93DF936C017A019B
:100340008B01C0E0D0E0CE15DF0581F0D8016D91C2
:100350008D01D601ED91FC910190F081E02DC60157
:100360001995892B11F02196EECF7E01C701DF91FF
:10037000CF911F910F91FF90EF90DF90CF90089554
:10038000FC01538D448D252F30E0842F90E0821B9B
:10039000930B541710F0CF96089501970895FC0120
:1003A000918D828D981761F0828DDF01A80FB11DAC
:1003B0005D968C91928D9F5F9F73928F90E00895D0
:1003C0008FEF9FEF0895FC01918D828D981731F08A
:1003D000828DE80FF11D858D90E008958FEF9FEFDE
:1003E0000895FC01918D228D892F90E0805C9F4FB4
:1003F000821B91098F73992708958DE393E00E94E2
:10040000F10121E0892B09F420E0822F08958AED83
:1004100093E00E94F10121E0892B09F420E0822F72
:10042000089587E794E00E94F10121E0892B09F407
:1004300020E0822F089584E195E00E94F10121E0FF
:10044000892B09F420E0822F0895FC01848DDF01BF
:10045000A80FB11DA35ABF4F2C91848D90E0019637
:100460008F739927848FA689B7892C93A089B18926
:100470008C91837080648C93938D848D981306C0C7
:100480000288F389E02D80818F7D80830895EF922B
:10049000FF920F931F93CF93DF93EC0181E0888F3E
:1004A0009B8D8C8D981305C0E889F989808185FD25
:1004B00026C0F62E0B8D10E00F5F1F4F0F73112714
:1004C000E02E8C8DE8120CC00FB607FCFACFE8893D
:1004D000F989808185FFF5CFCE010E942502F1CFF9
:1004E0008B8DFE01E80FF11DE35AFF4FF0829FB79D
:1004F000F8940B8FEA89FB89808180620AC09FB7DC
:10050000F894EE89FF896083E889F9898081837096
:10051000806480839FBF81E090E0DF91CF911F9145
:100520000F91FF90EF900895CF93DF93EC01888DAA
:100530008823C9F0EA89FB89808185FD05C0A889E7
:10054000B9898C9186FD0FC00FB607FCF5CF80816D
:1005500085FFF2CFA889B9898C9185FFEDCFCE01B7
:100560000E942502E7CFDF91CF910895E0E0F0E00F
:10057000199480E090E0892B21F00E941B028111E8
:1005800015C080E090E0892B21F00E9411028111BA
:1005900010C00E94070281110FC080E090E0892BFB
:1005A00081F00E94FD0181110AC008950E9400009F
:1005B000E8CF0E940000EDCF0E94B602EECF0C946F
:1005C000000008958EBD00000DB407FEFDCF8EB56E
:1005D0000895089580E090E00895909100028913B5
:1005E0003DC0EAEBF1E0E4919FEF90930002E2302E
:1005F000C9F050F4EE2399F0E13081F590916F004D
:100600009D7F90936F002AC0E43019F1E0F0E5304F
:1006100029F5909173009D7F909373001FC01092F5
:100620006E001CC0909170009D7F9093700091E0CF
:100630009093B0009091B100987F94609093B10036
:100640001092B3000BC0909171009D7F9093710048
:1006500005C0909172009D7F9093720060E00C94B1
:10066000910CCF93DF93EC0160E08E810E94910C9E
:1006700061E08E810E94910C60E08E810E94910C5D
:100680008BE891E00197F1F7DF91CF9108950E94F7
:10069000D2160F931F93CF93DF938C01C62FD62FC3
:1006A000D07FD1606D2F0E94BE0A6D2FC8010E94BD
:1006B000D10A80E1C89FB0011124C62FC1606C2F00
:1006C000C8010E94BE0A6C2FC8010E94D10A81E0B5
:1006D00090E0DF91CF911F910F9108953FB7F8946B
:1006E0008091E2029091E302A091E402B091E502D0
:1006F00026B5A89B05C02F3F19F00196A11DB11D7D
:100700003FBFBA2FA92F982F8827820F911DA11DB7
:10071000B11DBC01CD0142E0660F771F881F991FF4
:100720004A95D1F708951F920F920FB60F92112498
:100730002F933F938F939F93AF93BF938091DE024C
:100740009091DF02A091E002B091E1023091DD02D0
:1007500023E0230F2D3720F40196A11DB11D05C004
:1007600026E8230F0296A11DB11D2093DD02809380
:10077000DE029093DF02A093E002B093E102809149
:10078000E2029091E302A091E402B091E5020196A9
:10079000A11DB11D8093E2029093E302A093E402B5
:1007A000B093E502BF91AF919F918F913F912F91AF
:1007B0000F900FBE0F901F9018951F920F920FB6BB
:1007C0000F9211240BB60F922F933F934F935F9389
:1007D0006F937F938F939F93AF93BF93EF93FF9309
:1007E0008091920290919302A0919402B09195020F
:1007F000892B8A2B8B2B51F190918102E0918202FF
:10080000F091830280818927808380919202909168
:100810009302A0919402B0919502181619061A0637
:100820001B06C4F48091920290919302A0919402CD
:10083000B09195020197A109B1098093920290931A
:100840009302A0939402B093950204C08091000299
:100850000E94ED02FF91EF91BF91AF919F918F9117
:100860007F916F915F914F913F912F910F900BBEB0
:100870000F900FBE0F901F9018951F920F920FB6FA
:100880000F9211240BB60F922F933F934F935F93C8
:100890006F937F938F939F93AF93BF93EF93FF9348
:1008A0008DE393E00E942502FF91EF91BF91AF91FC
:1008B0009F918F917F916F915F914F913F912F9178
:1008C0000F900BBE0F900FBE0F901F9018951F92A8
:1008D0000F920FB60F9211240BB60F922F933F93E6
:1008E0004F935F936F937F938F939F93AF93BF9338
:1008F000EF93FF938DE393E00E94E60AFF91EF915F
:10090000BF91AF919F918F917F916F915F914F9127
:100910003F912F910F900BBE0F900FBE0F901F9025
:1009200018951F920F920FB60F9211240BB60F92CB
:100930002F933F934F935F936F937F938F939F93E7
:10094000AF93BF93EF93FF938AED93E00E9425024C
:10095000FF91EF91BF91AF919F918F917F916F9197
:100960005F914F913F912F910F900BBE0F900FBE53
:100970000F901F9018951F920F920FB60F9211248F
:100980000BB60F922F933F934F935F936F937F9389
:100990008F939F93AF93BF93EF93FF938AED93E071
:1009A0000E94E60AFF91EF91BF91AF919F918F91C5
:1009B0007F916F915F914F913F912F910F900BBE5F
:1009C0000F900FBE0F901F9018951F920F920FB6A9
:1009D0000F9211240BB60F922F933F934F935F9377
:1009E0006F937F938F939F93AF93BF93EF93FF93F7
:1009F00087E794E00E942502FF91EF91BF91AF91AC
:100A00009F918F917F916F915F914F913F912F9126
:100A10000F900BBE0F900FBE0F901F9018951F9256
:100A20000F920FB60F9211240BB60F922F933F9394
:100A30004F935F936F937F938F939F93AF93BF93E6
:100A4000EF93FF9387E794E00E94E60AFF91EF910E
:100A5000BF91AF919F918F917F916F915F914F91D6
:100A60003F912F910F900BBE0F900FBE0F901F90D4
:100A700018951F920F920FB60F9211240BB60F927A
:100A80002F933F934F935F936F937F938F939F9396
:100A9000AF93BF93EF93FF9384E195E00E9425020B
:100AA000FF91EF91BF91AF919F918F917F916F9146
:100AB0005F914F913F912F910F900BBE0F900FBE02
:100AC0000F901F9018951F920F920FB60F9211243E
:100AD0000BB60F922F933F934F935F936F937F9338
:100AE0008F939F93AF93BF93EF93FF9384E195E030
:100AF0000E94E60AFF91EF91BF91AF919F918F9174
:100B00007F916F915F914F913F912F910F900BBE0D
:100B10000F900FBE0F901F901895CF92DF92EF921B
:100B2000FF920F931F93CF93DF936C017C0187E0BB
:100B3000E80EF11CC0E0D0E0062F10E0B8010C2E4A
:100B400002C0759567950A94E2F76170F70181918B
:100B50007F010E94910C2196C430D10579F7C6011E
:100B6000DF91CF911F910F91FF90EF90DF90CF9089
:100B70000C943103CF92DF92EF92FF920F931F9369
:100B8000CF93DF93EC01F62E642F8C810E94910CA1
:100B90008D818F3F19F060E00E94910C8F850F2DA1
:100BA00010E084FF25C06E0187E0C80ED11CE12C47
:100BB000F12CB8010E2C02C0759567950A94E2F7E6
:100BC0006170F60181916F010E94910CFFEFEF1AA5
:100BD000FF0A88E0E816F10461F7CE01DF91CF91BA
:100BE0001F910F91FF90EF90DF90CF900C94310305
:100BF000B80184E0759567958A95E1F7CE010E946A
:100C00008D056F2DCE01DF91CF911F910F91FF9038
:100C1000EF90DF90CF900C948D0541E00E94BA05D3
:100C200081E090E008951F920F920FB60F92112469
:100C30000BB60F922F933F934F935F936F937F93D6
:100C40008F939F93AF93BF93CF93DF93EF93FF93D4
:100C50002091B20530E0F901E558FD4F8491F9018A
:100C6000EB5CFD4FD491F901E151FE4FC491CC23CF
:100C700079F081110E943B0CEC2FF0E0EE0FFF1F8A
:100C8000E056FE4FA591B491EC91ED2381E009F47B
:100C900080E02091B6053091B7052F5F3F4F30932C
:100CA000B7052093B6059091B505953618F096E0F6
:100CB0009093B1059091B1059430C9F128F4923028
:100CC00069F09330D1F05EC0953009F451C0963090
:100CD00009F058C091E09093820651C0811152C032
:100CE0002091B6053091B7052436310508F442C08D
:100CF000109282061092B5051CC0813009F042C0E6
:100D0000E091B50591E09E0F9093B505F0E020913C
:100D1000B6053091B705EE0FFF1FEF54FA4F30873D
:100D200027831092B7051092B60594E029C081116F
:100D300017C0E091B50591E09E0F9093B505F0E0E6
:100D40002091B6053091B705EE0FFF1FEF54FA4F13
:100D5000308727831092B7051092B60593E010C034
:100D60002091B6053091B7052536310558F007C0FA
:100D7000811108C01092B7051092B60503C095E026
:100D80009093B1059091B4059923B9F081110AC0EF
:100D90008091B305882321F08091B30561E009C0FB
:100DA0002F9A0BC08091B305882331F08091B30551
:100DB00060E00E94910C01C02F98FF91EF91DF91AC
:100DC000CF91BF91AF919F918F917F916F915F91E3
:100DD0004F913F912F910F900BBE0F900FBE0F9030
:100DE0001F9018951F920F920FB60F9211240BB6F9
:100DF0000F922F933F934F935F936F937F938F93B4
:100E00009F93AF93BF93EF93FF9380917C0287FFF3
:100E100005C0109285001092840016C020917C02BB
:100E2000022E000C330B8091BF0690E02817390783
:100E30005CF430917C0225E03203F0011124ED577F
:100E4000F94F808186FD15C080917C028F5F809371
:100E50007C0220917C02022E000C330B8091BF0695
:100E600090E02817390794F480917C028C302CF1A3
:100E70000DC030917C023203F0011124ED57F94F7F
:100E8000808160E08F730E94910CDECF809184009E
:100E90009091850084349C4918F480E49CE905C055
:100EA00080918400909185000496909389008093AE
:100EB00088008FEF80937C022AC04091840050917B
:100EC000850030917C0225E03203F0011124ED57BA
:100ED000F94F81819281840F951F909389008093AF
:100EE000880030917C023203F0011124ED57F94F54
:100EF000808186FF0CC030917C023203F001112406
:100F0000ED57F94F808161E08F730E94910CFF9142
:100F1000EF91BF91AF919F918F917F916F915F9171
:100F20004F913F912F910F900BBE0F900FBE0F90DE
:100F30001F901895CF92DF92EF92FF92CF93DF939D
:100F4000EC016A017B01E889F98982E0808341151F
:100F5000514E61057105B1F060E079E08DE390E0FC
:100F6000A70196010E949614DA01C9010197A1090F
:100F7000B109B695A795979587959C01211580E1B4
:100F80003807A8F0E889F989108260E874E88EE1F2
:100F900090E0A70196010E949614DA01C901019719
:100FA000A109B109B695A795979587959C01EC8500
:100FB000FD853083EE85FF852083188EEC89FD89C1
:100FC00086E08083EA89FB89808180618083EA8969
:100FD000FB89808188608083EA89FB8980818068C1
:100FE0008083EA89FB8980818F7D8083DF91CF9127
:100FF000FF90EF90DF90CF900895CF93DF938230F2
:1010000028F09091CF0698609093CF068093D306F6
:101010001092D40680E48093D50680E18093D606B2
:1010200080E58093D70661E08091C4060E94C00CE1
:101030008091C5068F3F19F061E00E94C00C61E00D
:101040008091C6060E94C00CC0ECD6E09E01205CD8
:1010500036408091CF0684FD03C084E090E002C05A
:1010600088E090E02196281739072CF461E08E8102
:101070000E94C00CEBCF8BE39DE00197F1F760E09D
:101080008091C4060E94910C60E08091C6060E9487
:10109000910C8091C5068F3F19F060E00E94910C81
:1010A0006091CF0664FD20C063E080EC96E00E9472
:1010B0008D05CBE4D6E4CE010197F1F763E080EC37
:1010C00096E00E948D052197F1F763E080EC96E0B1
:1010D0000E948D0583E592E00197F1F762E080ECD4
:1010E00096E00E948D051EC0606240E080EC96E0B4
:1010F0000E94BA058BE496E40197F1F76091CF0660
:10110000606240E080EC96E00E94BA0583E592E0E0
:101110000197F1F76091CF06606240E080EC96E0C5
:101120000E94BA056091CF06606240E080EC96E0D4
:101130000E94BA0584E08093D00640E06CE080EC29
:1011400096E00E94BA0540E061E080EC96E00E94E3
:10115000BA058BE39FE10197F1F782E08093D10616
:1011600040E066E080EC96E0DF91CF910C94BA0508
:10117000009769F0FC0101900020E9F73197AF0179
:10118000481B590BBC0184E195E00C94960180E06A
:1011900090E00895CF93DF930E94B808EC0183E5B7
:1011A00092E00E94B8088C0F9D1FDF91CF910895A7
:1011B00030913003313208F04BC080910C03811123
:1011C000FCCF90912F0322E020930C0321E0209389
:1011D0000B032FEF20930A031092090330930803A7
:1011E000EFE0F3E0A8EEB2E020E0321721F0419109
:1011F0004D932F5FFACF1092E7022091E702990FEB
:10120000922B9093E7029091E602913061F4109254
:10121000E6029091E7029093BB009091BC0093FD91
:10122000F8CF95EC01C095EE9093BC0090910C0323
:101230009230E1F390910A039F3F79F080910A0385
:10124000803241F080910A03803331F084E005C0A0
:1012500081E003C082E001C083E010920E0310928F
:10126000300310920D0308950F931F93CF93DF93D4
:10127000162F072FCFEDD6E09C8521E020930D039C
:1012800090932F0310920E0310923003AA85BB8512
:10129000ED91FC9111970190F081E02D682FCD0127
:1012A00019958A859B85DC01ED91FC910190F08177
:1012B000E02D602F19958A859B85DC01ED91FC91CD
:1012C0000190F081E02D612F1995DF91CF911F9151
:1012D0000F910C94D80880917B00877F80937B00CE
:1012E00086E480937C0080917A00806480937A0009
:1012F00080917A0086FDFCCF809178002091790062
:1013000090E0922B0895682F84E195E00C944702B9
:1013100085ED8093BC008091BC0084FDFCCF1092D1
:101320000C03089540911E08262F30E0240F311D34
:1013300021323105DCF420910C032430C9F4FC0186
:1013400080E090E0861758F430911E082191DC016E
:10135000A250B84FA30FB11D2C930196F3CF8091EB
:101360001E08680F60931E0880E0089581E00895CC
:1013700082E00895089508950895E091D907809135
:10138000D807E81730F4F0E0E252F84F808190E09F
:1013900008958FEF9FEF08959091D9078091D80716
:1013A000981750F4E92FF0E0E252F84F208130E036
:1013B0009F5F9093D90702C02FEF3FEFC9010895B7
:1013C0008091D80790E02091D907821B9109089558
:1013D000CF92DF92EF92FF920F931F93CF93DF9301
:1013E0007C01CB018A0120910D03222389F0EB01BE
:1013F0006B01C40ED51ECC15DD0569F06991D701CE
:10140000ED91FC910190F081E02DC7011995F3CF8A
:10141000642F0E949209C801DF91CF911F910F9113
:10142000FF90EF90DF90CF900895CF93DF931F92BE
:10143000CDB7DEB7698320910D032223D1F020912F
:101440003003203240F021E030E0FC01338322837E
:1014500080E090E015C080910E03E82FF0E0E15F9E
:10146000FC4F998190838F5F80930E0380933003AC
:1014700005C061E0CE0101960E94920981E090E0F2
:101480000F90DF91CF9108958F929F92AF92BF926C
:10149000CF92DF92EF92FF920F931F93CF93DF9340
:1014A000CDB7DEB7A1970FB6F894DEBF0FBECDBFA4
:1014B0006C01990FEE08FF08F7FE29C08DE20E942B
:1014C00083098C0122273327A9012C193D094E09D4
:1014D0005F0919A2CE0181967C019AE0892E912C98
:1014E000A12CB12CCA01B901A50194010E94961446
:1014F000605DF70162937F012115310541055105BA
:1015000089F7CF010E94B808080F191F1EC0A70154
:10151000960119A28E010F5D1F4F8AE0C82ED12CB3
:10152000E12CF12CCA01B901A70196010E94961481
:10153000605DF80162938F01211531054105510568
:1015400089F7CF010E94B8088C0183E592E00E94E0
:10155000B808800F911FA1960FB6F894DEBF0FBE9A
:10156000CDBFDF91CF911F910F91FF90EF90DF9052
:10157000CF90BF90AF909F908F900895FC012481F1
:1015800031E030930D0320932F0310920E0310923D
:1015900030038485682B81E393E00E94150A0C9444
:1015A000D8080F931F93CF938C01C62F64600E94BD
:1015B000BE0A6C2F6B7FC8010E94BE0A83EC90E0CC
:1015C0000197F1F7CF911F910F910895FC01A08928
:1015D000B1898C91A689B78982FD0FC09C91818DBC
:1015E0008F5F8F73228D821749F0218DDF01A20F4B
:1015F000B11D5D969C93818F08958C9108951F92E3
:101600000F920FB60F9211240F900FBE0F901F90E4
:1016100018951F920F920FB60F9211240BB60F92CE
:101620002F933F934F935F936F937F938F939F93EA
:10163000AF93BF93EF93FF938091B900887F80367B
:1016400009F49CC068F5883209F45BC090F48031DD
:1016500009F454C038F4882309F4F6C0883009F43A
:101660004DC0F6C0883109F44CC0803209F45DC029
:10167000EFC0803409F468C048F4803309F455C0E1
:10168000883309F0E5C080930A03D8C0803509F497
:101690004FC0883509F45DC0883409F0D9C0D6C080
:1016A000883909F4C7C0A8F4883709F467C038F44A
:1016B000883609F463C0803709F460C0C9C088382F
:1016C00009F4B8C0803909F45FC0803809F0C0C09F
:1016D0005BC0803B09F486C038F4803A09F466C0E8
:1016E000883A09F47FC0B4C0803C09F4A7C0883CA4
:1016F00009F4A4C0883B09F48AC0AAC08091E7021B
:1017000010C09091090380910803981770F5E0913B
:10171000090381E08E0F80930903F0E0E851FD4F4B
:1017200080818093BB0085EC86C080930A038EC0C5
:10173000E091090381E08E0F809309038091BB0043
:10174000F0E0E851FD4F80839091090380910803F8
:101750006EC0E091090381E08E0F809309038091B0
:10176000BB00F0E0E851FD4F808380910B038111B5
:101770006DC081E08093E60284EA61C083E08093DB
:101780000C0310924008CFCF80914008803208F0BF
:1017900051C0E091400881E08E0F80934008809115
:1017A000BB00F0E0E05EF74F8083BDCF85EC809317
:1017B000BC0010920C0380914008803230F4E0911C
:1017C0004008F0E0E05EF74F10826091400870E062
:1017D000E091DC07F091DD0780E298E01995109226
:1017E000400836C084E080930C0310921F081092CA
:1017F0001E08E091DA07F091DB07199580911E0829
:10180000811105C081E080931E081092FE07E091CF
:101810001F0881E08E0F80931F08F0E0E250F84F20
:1018200080818093BB0090911F0880911E089817BB
:1018300008F479CF85E88093BC000AC085EC8093DA
:10184000BC0010920C0304C010920A030E94880985
:10185000FF91EF91BF91AF919F918F917F916F9188
:101860005F914F913F912F910F900BBE0F900FBE44
:101870000F901F90189590E0FC013197E231F1052F
:1018800008F04EC08827EE58FF4F8F4F0C94C414B9
:10189000809180008F7703C0809180008F7D80933E
:1018A0008000089580918000877FF9CF84B58F777D
:1018B00002C084B58F7D84BD08958091B0008F777C
:1018C00003C08091B0008F7D8093B0000895809117
:1018D00090008F7707C0809190008F7D03C080912A
:1018E0009000877F8093900008958091A0008F776B
:1018F00007C08091A0008F7D03C08091A000877FEA
:101900008093A0000895809120018F7707C0809177
:1019100020018F7D03C080912001877F809320016B
:1019200008951F93CF93DF93282F30E0F901E558F6
:10193000FD4F8491F901EB5CFD4FD491F901E15128
:10194000FE4FC491CC23C1F0162F81110E943B0C95
:10195000EC2FF0E0EE0FFF1FEB52FE4FA591B4917C
:101960009FB7F894111104C08C91D095D82302C070
:10197000EC91DE2BDC939FBFDF91CF911F910895F7
:10198000CF93DF9390E0FC01EB5CFD4F2491FC01D1
:10199000E151FE4F8491882361F190E0880F991FF7
:1019A000FC01E554FE4FC591D491FC01EB52FE4F72
:1019B000A591B491611109C09FB7F89488812095D1
:1019C00082238883EC912E230BC0623061F49FB791
:1019D000F8948881322F309583238883EC912E2BC5
:1019E0002C939FBF06C08FB7F894E8812E2B2883D5
:1019F0008FBFDF91CF9108958F929F92AF92BF9248
:101A0000CF92DF92EF92FF926B017C010E946E03F6
:101A10004B015C01C114D104E104F104F1F00E9416
:101A20006E03DC01CB0188199909AA09BB09883E1C
:101A30009340A105B10570F321E0C21AD108E10875
:101A4000F10888EE880E83E0981EA11CB11CC11419
:101A5000D104E104F10419F7DDCFFF90EF90DF909E
:101A6000CF90BF90AF909F908F900895789484B559
:101A7000826084BD84B5816084BD85B5826085BD8A
:101A800085B5816085BD80916E00816080936E0018
:101A9000109281008091810082608093810080910A
:101AA00081008160809381008091800081608093BB
:101AB00080008091B10084608093B1008091B0007B
:101AC00081608093B000809191008260809391004A
:101AD000809191008160809391008091900081605D
:101AE000809390008091A10082608093A1008091FA
:101AF000A10081608093A1008091A000816080930B
:101B0000A0008091210182608093210180912101B8
:101B10008160809321018091200181608093200168
:101B200080917A00846080937A0080917A0082604C
:101B300080937A0080917A00816080937A0080910E
:101B40007A00806880937A001092C10040E855E2E4
:101B500060E070E084E195E00E949A0761E0809186
:101B6000E0060E94C00C60E08091E0060E94910CAB
:101B700060E08091DF060E94C00C81E393E09093C7
:101B8000EA068093E9061092D9071092D8071092BE
:101B90000E031092300310920C0381E080930B032C
:101BA0001092E60261E084E10E94910C61E085E11F
:101BB0000E94910C8091B9008E7F8093B900809132
:101BC000B9008D7F8093B90088E48093B80085E4E4
:101BD0008093BC008AEB99E09093DB078093DA074F
:101BE0008BEB99E09093DD078093DC0780E090E138
:101BF000A0E0B0E08093EC069093ED06A093EE0693
:101C0000B093EF068AE090E0A0E0B0E08093F006A9
:101C10009093F106A093F206B093F30680E090E073
:101C2000A0E0B0E48093F4069093F506A093F60646
:101C3000B093F70660E070E185E00E9434096FE937
:101C400079E380E00E943409CFEDD6E08E0142E0D6
:101C5000742E54E2A52E52E0B52E6AE6862E62E07E
:101C6000962E7BECE72E77E0F72EEBE8CE2EDD24E8
:101C7000D394F80194818281898F9A8F61E00E94C8
:101C8000C00C61E08A8D0E94C00CF80190858681AD
:101C90008D8F9E8F61E00E94C00C60E08E8D0E944F
:101CA000C00C61E08D8D0E94910C6FB6F89480910C
:101CB0007D02811126C0F5018491F4012491E82F61
:101CC000F0E0EE0FFF1FE554FE4FA591B4919C91FB
:101CD000822F892321F461E085E30E94910C61E069
:101CE00085E30E94C00C8CB580618CBD8CB580648E
:101CF0008CBD61E084E30E94C00C61E083E30E943C
:101D0000C00C80917D028F5F80937D026FBEC70102
:101D10000197F1F760E08D8D0E94910C88E80E9498
:101D2000E20283E00E94E20261E08D8D0E94910C4C
:101D3000C7010197F1F760E08D8D0E94910C88E951
:101D40000E94E20280E00E94E20280E00E94E20241
:101D500080E00E94E20280E00E94E20261E08D8D5C
:101D60000E94910CC6010197F1F760E08D8D0E94F1
:101D7000910C80EE0E94E20261E08D8D0E94910C38
:101D80007A940F5F1F4F2296711073CF04E017E013
:101D9000C8E0D7E060E0F80181918F010E94C00C9B
:101DA000C017D107B9F700E017E0BAE0EB2EB7E0B3
:101DB000FB2E85E0D82E9CE0B92E22E0C22EA99001
:101DC0008F818C3008F044C061E08A2D0E94C00CE5
:101DD0008F81D89EF0011124ED57F94F9A2D9F73F2
:101DE0002081207CA22EA92AA082138214826B2D2E
:101DF0000E94B814FCE08F9FA001112420E030E085
:101E0000BA01620F731FD69EF001D79EF00D112408
:101E1000ED57F94F908196FD12C02F5F3F4F2C3048
:101E2000310571F781110BC010928000C0928100C2
:101E30001092850010928400C6BAC0926F00EF81A4
:101E4000DE9EF0011124ED57F94F8081806480837C
:101E50009D818B81F801828B938B60E00E94C00C86
:101E600061E0F80183890E94C00C60E0F801838979
:101E70000E94910C0E5F1F4FEC16FD0609F09FCFDC
:101E8000F8941092200189E08093210180E293E090
:101E9000909329018093280110922501109224012A
:101EA00082E08093730078948093B1051092B50519
:101EB0008091B20560E00E94C00C40E855E260E00D
:101EC00070E084E195E00E949A0740E051EE60E006
:101ED00070E087E794E00E949A0789E190E0A0E033
:101EE000B0E080937B0490937C04A0937D04B09336
:101EF0007E0460E080E40E94C00C60E08FE30E94FA
:101F0000C00C60E08CE30E94C00C60E08DE30E9496
:101F1000C00C60E08EE30E94C00C62E080E30E948F
:101F2000C00C60E082E00E94C00C60E083E00E9490
:101F3000C00C60E084E00E94C00C60E085E00E947C
:101F4000C00C60E08BE00E94C00C60E08CE00E945E
:101F5000C00C82E00E94FD0760E08CE20E94C00C91
:101F600068E873E180E090E00E94FC0C69E6E62EF0
:101F70006AE0F62E7BE1472E72E0572EE1E66E2EE8
:101F8000E2E07E2EF8EB8F2EFBE09F2EA12CB12CF1
:101F9000AEED2A2EA2E03A2E0E946B0984369105FE
:101FA0000CF0B2C1C0E0D0E00E946B098C01219618
:101FB000CE010E94440A043611050CF0A5C1C93CAB
:101FC000D10591F7809100028C3221F08F3F09F00A
:101FD0008FC104C0EAEBF1E0C491DCC08CE28093D5
:101FE0000002EAEBF1E0C491CF3F09F481C1C230B5
:101FF00009F469C038F5CC2309F44DC0C13009F0AB
:10200000C9C0109280001092810080918100886088
:102010008093810080918100816080938100F20132
:102020008491E82FF0E0EE0FFF1FEB52FE4F8591F9
:102030009491F30184918093840261E08CE20E9488
:10204000C00CD1C0C43009F484C008F461C0C530EC
:1020500009F0A0C01092200110922101809121016D
:10206000886080932101809121018160809321010A
:10207000F2018491E82FF0E0EE0FFF1FEB52FE4FCC
:1020800085919491F301849180937E0261E08CE2CA
:102090000E94C00CD4C014BC15BC84B5826084BD41
:1020A00085B5816085BDF2018491E82FF0E0EE0FE7
:1020B000FF1FEB52FE4F85919491F3018491809321
:1020C0008502C0E069C01092B0001092B10080910A
:1020D000B00082608093B0008091B10081608093F5
:1020E000B100F2018491E82FF0E0EE0FFF1FEB52F8
:1020F000FE4F859194919093830280938202F30125
:1021000084918093810261E08CE20E94C00C61C0E6
:1021100010929000109291008091910088608093BD
:10212000910080919100816080939100F2018491EF
:10213000E82FF0E0EE0FFF1FEB52FE4F85919491D8
:10214000F30184918093800261E08CE20E94C00CD4
:1021500064C01092A0001092A1008091A10088603C
:102160008093A1008091A10081608093A100F20181
:102170008491E82FF0E0EE0FFF1FEB52FE4F8591A8
:102180009491F301849180937F0261E08CE20E943C
:10219000C00C4CC0C7FDACC061E08CE20E94C00C1A
:1021A000CC2319F0C230A9F01CC085B5887F8360AC
:1021B00085BDF8E2F7BD80929A0290929B02A092B0
:1021C0009C02B0929D0280916E00826080936E00AE
:1021D0008FC08091B100887F83608093B10082E5D9
:1021E00042C0C130C1F480918100887F81608093BA
:1021F0008100F0928900E09288008092960290928D
:102200009702A0929802B092990280916F0082602A
:1022100080936F006DC0C33039F480919100887F46
:102220008160809391002FC0C43039F48091A10067
:10223000887F81608093A10038C0C53039F48091D7
:102240002101887F81608093210141C0C330D9F092
:102250002CF4C23009F04CC089E605C0C43029F125
:10226000C530A9F145C08093B3008092920290924C
:102270009302A0929402B0929502809170008260C5
:102280008093700035C0F0929900E092980080929F
:102290008E0290928F02A0929002B0929102809151
:1022A000710082608093710023C0F092A900E092D7
:1022B000A80080928A0290928B02A0928C02B09227
:1022C0008D028091720082608093720011C0F09242
:1022D0002901E09228018092860290928702A092C2
:1022E0008802B092890280917300826080937300AB
:1022F00068EE73E080E090E00E94FC0C0E946B09A5
:10230000843691050CF45ECE8CE20E94ED02CEE99B
:10231000D2E08E012FB7F8948091DE029091DF0217
:10232000A091E002B091E1022FBF80937F049093CF
:102330008004A0938104B093820487E794E00E9414
:10234000CF0197FF95C02FB7F8948091DE0290914E
:10235000DF02A091E002B091E1022FBF40917F0423
:10236000509180046091810470918204841B950BCC
:10237000A60BB70B40917B0450917C0460917D04C7
:1023800070917E0484179507A607B707B0F288817D
:10239000833269F021962C163D06C9F76AE070E099
:1023A00080E090E00E94FC0C0E94B902F5CD8BE425
:1023B00092E00E94CA0888810E94830989810E9454
:1023C00083098A810E9483098B810E9483098C8101
:1023D0000E9483098D810E94830983E592E00E9417
:1023E000B8088E01C12CD12C84E692E00E94CA0864
:1023F00086E592E00E94B808F80180810E94830976
:10240000F80181810E948309F80182810E94830979
:10241000F80183810E948309F80184810E94830965
:1024200083E592E00E94B80884E692E00E94CA0820
:1024300086E692E00E94B8088FEF9FEF0E94440A60
:1024400084E692E00E94CA0882E792E00E94B808FF
:102450008FEF9FEF0E94440AF80111928F01FFEF66
:10246000CF1ADF0A80E4C816D10409F0BDCF92CF9D
:10247000F80181938F012E163F0609F04BCF87CFCD
:102480008091D8069091D9060C946415109234036B
:102490001092330388EE93E0A0E0B0E08093350320
:1024A00090933603A0933703B093380323E132E0CF
:1024B00030933203209331031092400310923F0374
:1024C0008093410390934203A0934303B09344034A
:1024D00025E232E030933E0320933D0345E351E093
:1024E00050934A034093490344E351E050934C0313
:1024F00040934B0340E351E050934E0340934D0310
:1025000041E351E05093500340934F0342E351E0C5
:10251000509352034093510346E351E050935403C8
:10252000409353031092560310925703109258038E
:10253000109259031092DD031092DC038093DE03A6
:102540009093DF03A093E003B093E1033093DB03A8
:102550002093DA0345ED50E05093E7034093E60300
:1025600044ED50E05093E9034093E80340ED50E020
:102570005093EB034093EA0341ED50E05093ED0399
:102580004093EC0342ED50E05093EF034093EE0391
:1025900046ED50E05093F1034093F0031092F303A3
:1025A0001092F4031092F5031092F60310927A043D
:1025B0001092790480937B0490937C04A0937D0413
:1025C000B0937E0430937804209377044DEC50E070
:1025D00050938404409383044CEC50E05093860461
:1025E0004093850448EC50E050938804409387045E
:1025F00049EC50E050938A04409389044AEC50E03F
:1026000050938C0440938B044EEC50E050938E0416
:1026100040938D04109290041092910410929204B1
:1026200010929304109217051092160580931805C6
:1026300090931905A0931A05B0931B0530931505C7
:102640002093140585EC90E090932105809320055C
:1026500084EC90E0909323058093220580EC90E039
:10266000909325058093240581EC90E090932705B5
:102670008093260582EC90E09093290580932805AD
:1026800086EC90E090932B0580932A0510922D05FF
:1026900010922E0510922F0510923005809107029E
:1026A00090910802A0910902B0910A02809300075C
:1026B00090930107A0930207B093030780910B0248
:1026C00090910C02A0910D02B0910E02809304072C
:1026D00090930507A0930607B093070784E08093C3
:1026E000080787E08093090710920A0784EB80931C
:1026F0000B0786E180930C0788E180930D0787E143
:1027000080930E0789E180930F07E091BF06EC30BC
:1027100020F08FEF8093100710C081E08E0F809320
:10272000BF06E093100725E0E29FF0011124ED576A
:10273000F94F88EB9BE092838183E091BF06EC30F8
:1027400020F08FEF8093110710C081E08E0F8093EF
:10275000BF06E093110785E0E89FF0011124ED57D3
:10276000F94F88EB9BE0928381838CE08093DF06B6
:1027700084E28093E00686E08093E10685E0809322
:10278000E2068FE18093E3068EE18093E40683E224
:102790008093E50682E28093E60685E48093E7066F
:1027A00084E48093E80680E48093EB061092F006C0
:1027B0001092F1061092F2061092F3061092F406AF
:1027C0001092F5061092F6061092F706EAE1F7E08D
:1027D0008FEF9FEFDC011282138214821582168222
:1027E00017821086118683879487A587B687878787
:1027F000908BA18BB28B128611821082739627E088
:10280000E83DF20741F78DE090E00E94CC14FC0116
:102810001382128283E492E091838083118687E29F
:10282000848384E1828784E083871486F09317078A
:10283000E0931607109218071092190785E280930B
:10284000B2051092B4051092D9061092D8061092D3
:10285000DB061092DA061092DD061092DC0661E0CB
:1028600070E080E090E00E94ED15009791F0909369
:10287000D9068093D8061092DB061092DA062091D2
:10288000DC063091DD06232B09F043C0FC011082E9
:1028900040C08091D8069091D906009711F00E940F
:1028A00064151092D9061092D8061092DD06109287
:1028B000DC061092DB061092DA061092C306109224
:1028C000C20687E392E09093C1068093C0068CE035
:1028D0008093C4068FEF8093C5068BE08093C60675
:1028E00085E08093C70684E08093C80683E08093E8
:1028F000C90682E08093CA061092CB061092CC06DD
:102900001092CD061092CE061092CF0681E00C9464
:10291000FD071092DD061092DC0665E572E08091FD
:10292000D8069091D9060E94E016C7CFA1E21A2ED0
:10293000AA1BBB1BFD010DC0AA1FBB1FEE1FFF1F63
:10294000A217B307E407F50720F0A21BB30BE40BB3
:10295000F50B661F771F881F991F1A9469F76095FA
:102960007095809590959B01AC01BD01CF010895B4
:10297000991B79E004C0991F961708F0961B881FD1
:102980007A95C9F780950895EE0FFF1F881F8BBFBA
:102990000790F691E02D19940F931F93CF93DF9337
:1029A0008230910510F482E090E0E0914508F091CA
:1029B000460820E030E0A0E0B0E0309719F1408117
:1029C00051810281138148175907C8F08417950770
:1029D00069F4109731F012960C93129713961C938A
:1029E00027C0009345081093460822C021153105E1
:1029F00019F04217530718F49A01BD01EF01DF01E6
:102A0000F801DBCF21153105F9F0281B390B2430F3
:102A1000310580F48A819B816115710521F0FB01EC
:102A20009383828304C09093460880934508FE01F7
:102A3000329644C0FE01E20FF31F8193919322501E
:102A40003109398328833AC02091430830914408E2
:102A5000232B41F420910302309104023093440867
:102A60002093430820910102309102022115310583
:102A700041F42DB73EB74091050250910602241B48
:102A8000350BE0914308F0914408E217F307A0F4F6
:102A90002E1B3F0B2817390778F0AC014E5F5F4FB4
:102AA0002417350748F04E0F5F1F5093440840939A
:102AB00043088193919302C0E0E0F0E0CF01DF9101
:102AC000CF911F910F910895CF93DF93009709F451
:102AD00081C0FC01329713821282A0914508B09107
:102AE0004608109781F420813181820F931F209135
:102AF0004308309144082817390751F5F0934408EA
:102B0000E093430867C0ED0120E030E0CE17DF0717
:102B100040F44A815B819E0141155105F1F0EA01C3
:102B2000F5CFD383C28340815181840F951FC8178D
:102B3000D90759F488819981840F951F0296918352
:102B400080838A819B81938382832115310529F4B7
:102B5000F0934608E09345083DC0E901FB83EA8312
:102B600049915991C40FD51FEC17FD0761F480817D
:102B70009181840F951F0296E90199838883828150
:102B800093819B838A83E0E0F0E012968D919C9183
:102B90001397009719F0FD01DC01F7CF8D919C91FF
:102BA00011979D012E5F3F4F820F931F2091430885
:102BB000309144082817390769F4309729F41092A6
:102BC00046081092450802C013821282B09344084E
:102BD000A0934308DF91CF9108956F927F928F92D7
:102BE0009F92AF92BF92CF92DF92EF92FF920F939C
:102BF0001F93CF93DF93009789F4CB01DF91CF919F
:102C00001F910F91FF90EF90DF90CF90BF90AF900A
:102C10009F908F907F906F900C94CC14FC01E60FE6
:102C2000F71F9C0122503109E217F30708F4A9C0ED
:102C3000EC01D9010D911C91119706171707B0F0FF
:102C40000530110508F49BC0C80104978617970743
:102C500008F495C002501109061B170B019311933C
:102C60006D937C93CF010E94641589C05B01A01A0B
:102C7000B10A4C01800E911EA0914508B091460802
:102C8000612C712CE12CF12C109709F446C08D9128
:102C90009C911197A815B905B1F56C0142E0C40EDD
:102CA000D11CCA14DB0478F14C018A189B0864011A
:102CB00042E0C40ED11C1296BC9012971396AC91B0
:102CC000B5E0CB16D10440F0B282A383918280821A
:102CD000D9016D937C9309C00E5F1F4F800F911F28
:102CE000F90191838083EB2DFA2FE114F10431F087
:102CF000D7011396FC93EE93129741C0F0934608C8
:102D0000E09345083CC06816790608F43C017D0153
:102D100012960D90BC91A02DB7CF80914308909151
:102D2000440888169906E1F466167706C8F480917F
:102D3000010290910202009741F48DB79EB7409135
:102D4000050250910602841B950BE817F907C8F499
:102D5000F0934408E0934308F901718360830FC046
:102D6000CB010E94CC147C01009759F0A801BE0150
:102D70000E94D716CE010E946415C70104C0CE017F
:102D800002C080E090E0DF91CF911F910F91FF9002
:102D9000EF90DF90CF90BF90AF909F908F907F90FB
:102DA0006F90089581E090E0F8940C94E716FB0191
:102DB000DC0102C001900D9241505040D8F70895B7
:102DC000FB01DC0101900D920020E1F7089511E074
:102DD000C2E6D1E000E006C0802FFE010E94C414CC
:102DE0002196011DC336D10780E00807A9F7F894A2
:022DF000FFCF13
:102DF200FF000047088000363738391B1D1A1C00B7
:102E0200000000150AE809EA02BC09E009CC09BD84
:102E1200090000000047029601C0019402F101CFAF
:102E220001E301000000000D069601EA02E902003A
:102E320000000049039601EA02E902232072656359
:102E42007565000D0A004C656374757265205472D5
:102E5200616D653A200074797065466F726D653AEE
:0C2E620020006E6F466F726D653A200014
:00000001FF
