:100000000C9495010C94C6010C94C6010C94C60185
:100010000C94C6010C94C6010C94C6010C94C60144
:100020000C94C6010C94350C0C94350C0C94350CC6
:100030000C94C6010C9438080C94C6010C94C601AB
:100040000C94C6010C9427040C94C6010C94C601B0
:100050000C94C6010C94C6010C94C6010C94EE07D6
:100060000C94C6010C94A7090C947D090C94C6014C
:100070000C94C6010C94C6010C94C6010C94C601E4
:100080000C94C6010C94C6010C94C6010C94C601D4
:100090000C94C6010C94C6010C94C6010C943F0C40
:1000A0000C94C6010C94C6010C94C6010C94C601B4
:1000B0000C94C6010C94C6010C94C6010C944F021A
:1000C0000C94C6010C94C6010C94C6010C945309FF
:1000D0000C9429090C94C6010C94FF080C94D508C3
:1000E0000C94C6016E037303780382038C0305042A
:1000F00096039E03A603B003BA03C403D303DD0330
:100100000504E703F103FB03A80AAB0A9A0A9E0A57
:10011000A40AE20AAF0AB30AB90ABD0AC10AC70AA9
:10012000CB0ACF0AE20AD50AD90ADD0A0C94820367
:100130000C94A7070C946E030C94B0030C94DD0A86
:100140000C94A80A0C9418070C94DF060C94150A5A
:100150000C94B90A0C94E7030C94050A0C94E20A77
:100160000C94FB030C945E0A0C94290A0C94D50A97
:100170000C94270F0C94C10A0C9409070C948C035F
:100180000C945A070C94BD0A0C94CF0A0C94C40327
:100190000C94B30A0C94B4110C94060A0C94BA0390
:1001A0000C94A40A0C94D3030C942C070C94A6036F
:1001B0000C94030A0C94AB0A0C9405020C94AF0A3D
:1001C0000C94D90A0C94310A0C9473030C94C80152
:1001D0000C94F1030C9408020C949E030C940402FA
:1001E0000C94DD030C9478030C94C70A0C949A0ABF
:1001F0000C94CB0A0C9496030C9405040C949E0A60
:100200000C94040A0200002100240027002A002D7B
:10021000003000330001010000040107010A010061
:10022000002200250028002B002E0031003400029F
:10023000010000050108010B010000200023002639
:100240000029002C002F00320000010000030106ED
:10025000010901050505050705080808080202024D
:10026000020A0A0808040404040101010101010151
:10027000010303030303030303040707070C0C0C28
:100280000C0C0C0C0C020202020606060606060600
:10029000060B0B0B0B0B0B0B0B010210202008089D
:1002A00010204010204080020102010804020101D8
:1002B00002040810204080804020100804020180C1
:1002C0000402018040201008040201080402010118
:1002D0000204081020408001020408102040800021
:1002E000000A0B02090C0D0E0807030401000000B0
:1002F00000000000000000000000000000000000FE
:1003000000000000000000000000001211100000BA
:1003100000000000000000000000000000000000DD
:10032000000000000000B411270F11241FBECFEF02
:10033000D1E2DEBFCDBF00E00CBF12E0A0E0B2E032
:10034000E4E8F0E300E00BBF02C007900D92A43692
:10035000B107D9F727E0A4E6B2E001C01D92A933A6
:10036000B207E1F711E0C4E9D1E000E006C021974F
:100370000109802FFE010E94EE14C339D10780E0ED
:100380000807A9F70E942D0F0C9430180C94000058
:10039000FC01918D228D892F90E0805C9F4F821B04
:1003A00091098F7399270895E0E0F0E0199480E0B7
:1003B00090E0892B21F00E945007811119C080E044
:1003C00090E0892B41F080E090E0892B21F00E94A1
:1003D0000000811110C00E94460781110FC080E00B
:1003E00090E0892B81F00E943C0781110AC008959A
:1003F0000E940000E4CF0E940000EDCF0E94D401D3
:10040000EECF0C9400000895089580E090E00895E8
:100410000F931F93CF93DF938C01C62FD62FD07FDE
:10042000D1606D2F0E94F40B6D2FC8010E94070C44
:1004300080E1C89FB0011124C62FC1606C2FC80194
:100440000E94F40B6C2FC8010E94070C81E090E021
:10045000DF91CF911F910F910895FC01848DDF01F1
:10046000A80FB11DA35ABF4F2C91848D90E0019627
:100470008F739927848FA689B7892C93A089B18916
:100480008C91837080648C93938D848D981306C0B7
:100490000288F389E02D80818F7D808308951F92EB
:1004A0000F920FB60F9211240BB60F922F933F931A
:1004B0004F935F936F937F938F939F93AF93BF936C
:1004C000EF93FF93809127050E94710D20912B05DA
:1004D00030912C052F5F3F4F30932C0520932B0537
:1004E00090912A05953618F096E090932605909104
:1004F00026059430C9F128F4923069F09330D1F098
:100500005EC0953009F451C0963009F058C091E0B2
:100510009093F70551C0811152C020912B05309165
:100520002C052436310508F442C01092F7051092CC
:100530002A051CC0813009F042C0E0912A0591E0F3
:100540009E0F90932A05F0E020912B0530912C0509
:10055000EE0FFF1FEA5DFA4F3087278310922C05BC
:1005600010922B0594E029C0811117C0E0912A0553
:1005700091E09E0F90932A05F0E020912B05309199
:100580002C05EE0FFF1FEA5DFA4F3087278310928C
:100590002C0510922B0593E010C020912B05309173
:1005A0002C052536310558F007C0811108C010927E
:1005B0002C0510922B0503C095E090932605909191
:1005C00029059923B9F081110AC080912805882353
:1005D00021F08091280561E009C02F9A0BC080911D
:1005E0002805882331F08091280560E00E949A0D4B
:1005F00001C02F98FF91EF91BF91AF919F918F9183
:100600007F916F915F914F913F912F910F900BBE12
:100610000F900FBE0F901F9018958F929F92AF92E0
:10062000BF92CF92DF92EF92FF920F931F93CF93DF
:10063000DF938C016A017B0120E030E04FE753E457
:10064000C701B6010E9402144B015C0120E030E0BA
:10065000A9010E940B1618161CF4C501B40103C0B1
:10066000C501B40190580E94D515EB0120E030E09F
:10067000A901C701B6010E940B16181614F460E018
:1006800001C061E0F80181810E949A0DCF3FD10540
:1006900009F014F4DD2702C0CFEFD0E0F80110819B
:1006A00061E0812F0E94C90D209709F4B1C0CF3FAE
:1006B000D10509F4AFC0E12FF0E0E152FD4FE49124
:1006C0008E2F90E0FC013197E231F10508F09DC0DA
:1006D0008827EE58FF4F8F4F0C94EE1484B5806836
:1006E00084BDC7BDA7C084B5806284BDC8BDA2C09B
:1006F00080918000806880938000D0938900C093AF
:10070000880098C080918000806280938000D093A0
:100710008B00C0938A008EC0809180008860809397
:100720008000D0938D00C0938C0084C08091B00075
:1007300080688093B000C093B3007CC08091B0000B
:1007400080628093B000C093B40074C08091900028
:10075000806880939000D0939900C09398006AC0FD
:1007600080919000806280939000D0939B00C09312
:100770009A0060C080919000886080939000D09330
:100780009D00C0939C0056C08091A000806880931B
:10079000A0008091A0008F7B8093A000D093A9003F
:1007A000C093A80047C08091A00080628093A00001
:1007B000D093AB00C093AA003DC08091A000886098
:1007C0008093A000D093AD00C093AC0033C0809163
:1007D0002001806880932001D0932901C0932801D3
:1007E00029C080912001806280932001D0932B0149
:1007F000C0932A011FC0809120018860809320014E
:10080000D0932D01C0932C0115C0C038D10514F42C
:1008100060E001C061E0812FDF91CF911F910F91C6
:10082000FF90EF90DF90CF90BF90AF909F908F9010
:100830000C949A0DDF91CF911F910F91FF90EF9043
:10084000DF90CF90BF90AF909F908F9008951F92B0
:100850000F920FB60F9211240BB60F922F933F9366
:100860004F935F936F937F938F939F93AF93BF93B8
:10087000EF93FF9380917D0287FF05C01092850062
:100880001092840016C020917D02022E000C330BC2
:100890008091340690E0281739075CF430917D028E
:1008A00025E03203F0011124E850FA4F808186FDE3
:1008B00015C080917D028F5F80937D0220917D0223
:1008C000022E000C330B8091340690E02817390774
:1008D00094F480917D028C302CF10DC030917D021A
:1008E0003203F0011124E850FA4F808160E08F73E9
:1008F0000E949A0DDECF809184009091850084340F
:100900009C4918F480E49CE905C080918400909192
:100910008500049690938900809388008FEF8093E0
:100920007D022AC0409184005091850030917D0263
:1009300025E03203F0011124E850FA4F81819281C1
:10094000840F951F909389008093880030917D02D9
:100950003203F0011124E850FA4F808186FF0CC069
:1009600030917D023203F0011124E850FA4F80816A
:1009700061E08F730E949A0DFF91EF91BF91AF914B
:100980009F918F917F916F915F914F913F912F91A7
:100990000F900BBE0F900FBE0F901F9018958EBD3D
:1009A00000000DB407FEFDCF8EB50895CF93DF9301
:1009B000EC0160E088810E949A0D88E90E94CF04D2
:1009C00080E00E94CF0480E00E94CF0480E00E947B
:1009D000CF0480E00E94CF0461E088810E949A0DDC
:1009E0008BE891E00197F1F760E088810E949A0D11
:1009F00080EE0E94CF0461E08881DF91CF910C945A
:100A00009A0DAF92BF92CF92DF92EF92FF920F9327
:100A10001F93CF93DF93CDB7DEB760970FB6F894EF
:100A2000DEBF0FBECDBF5C0160E0FC0180810E9493
:100A30009A0D80E60E94CF048E010F5F1F4F7E014A
:100A4000F1E1EF0EF11C680180E00E94CF0490E01C
:100A5000A0E0B0E0F60181939193A193B1936F016F
:100A6000EE15FF0589F761E0F50180810E949A0D7E
:100A700080E090E0DC01F801419151916191719128
:100A80008F01BA2FA92F982F8827840F951FA61F93
:100A9000B71FEE15FF0579F79C01AD016627772793
:100AA000CB01621B730B840B950B60960FB6F89409
:100AB000DEBF0FBECDBFDF91CF911F910F91FF9091
:100AC000EF90DF90CF90BF90AF90089540E050E05E
:100AD000BA0185E596E00E940D0340E050E060E039
:100AE00070E887E596E00E940D0389E596E00E9494
:100AF000D6048BE596E00E94D60466E970E080E0BB
:100B000090E00C94050E4F925F926F927F928F92BD
:100B10009F92AF92BF92CF92DF92EF92FF92CF93CC
:100B2000DF9328EB3EE94BE653E40E94631520E097
:100B300030E048E455E40E9402142B013C01C0E07F
:100B4000D0E089E596E00E9401059095809570952A
:100B500061957F4F8F4F9F4F0E94A313A301920176
:100B60000E949C1318160CF41AC1209731F5C4E2A8
:100B7000D0E0C12CD12C76012AE037ED43E25CE3D2
:100B8000C701B6010E94F7146B017C01AB01BC01E7
:100B900085E596E00E940D03B701A601705887E530
:100BA00096E00E940D0363E270E080E090E00E9416
:100BB000050E219709F7C1E0D0E089E596E00E9493
:100BC000010590958095709561957F4F8F4F9F4F50
:100BD0000E94A3136B017C0126E636E646EA5FE33A
:100BE000C301B2010E9463159B01AC01C701B601AC
:100BF0000E940B1687FD69C089E596E00E940105F9
:100C00006B017C018BE596E00E9401054B015C01C4
:100C100066277727CB016C197D098E099F090E94F1
:100C2000A3136B017C01C501B4010E94A3139B01B6
:100C3000AC01C701B6010E94F6146B017C014AE9C0
:100C400059E969E97EE385E596E00E940D032DEC04
:100C50003CEC4CEC5DE3C701B6010E94021420E0BD
:100C600030E0A9010E94F71420E030E0A9010E94C1
:100C700002144B015C012FE832EC45EF5CE3C70145
:100C8000B6010E9402149B01AC01C501B4010E948F
:100C9000F71420E030E048EC52E40E9463152AE9A2
:100CA00039E949E95EE30E94F714AB01BC017058D1
:100CB00087E596E00E940D0364E670E080E090E036
:100CC0000E94050EC2E0D0E03CCFC130D105D1F783
:100CD00089E596E00E9401056B017C018BE596E0B9
:100CE0000E9401054B015C0166277727CB016C1937
:100CF0007D098E099F090E94A3136B017C01C50128
:100D0000B4010E94A3139B01AC01C701B6010E946C
:100D1000F6146B017C014DEC5CEC6CEC7EE385E53C
:100D200096E00E940D032DEC3CEC4CEC5DE3C7011A
:100D3000B6010E94021420E030E0A9010E94F714DD
:100D400020E030E0A9010E9402144B015C012FE871
:100D500032EC45EF5CE3C701B6010E9402149B012F
:100D6000AC01C501B4010E94F71420E030E048EC6A
:100D700052E40E9463152DEC3CEC4CEC5EE30E94C7
:100D8000F714AB01BC01705887E596E00E940D0393
:100D900064E670E080E090E00E94050ED2CEDF9124
:100DA000CF91FF90EF90DF90CF90BF90AF909F904A
:100DB0008F907F906F905F904F900C946605CF92CC
:100DC000DF92EF92FF920F931F93CF93DF936C010B
:100DD0007A018B01C0E0D0E0CE15DF0581F0D801AB
:100DE0006D918D01D601ED91FC910190F081E02D86
:100DF000C6011995892B11F02196EECF7E01C7010E
:100E0000DF91CF911F910F91FF90EF90DF90CF90E6
:100E10000895FC01538D448D252F30E0842F90E000
:100E2000821B930B541710F0CF96089501970895E5
:100E3000FC01918D828D981761F0828DDF01A80FE2
:100E4000B11D5D968C91928D9F5F9F73928F90E004
:100E500008958FEF9FEF0895FC01918D828D981773
:100E600031F0828DE80FF11D858D90E008958FEFB0
:100E70009FEF08950E941B188FE493E00E94C80121
:100E800021E0892B09F420E0822F08958CEE93E075
:100E90000E94C80121E0892B09F420E0822F0895E7
:100EA00089E894E00E94C80121E0892B09F420E040
:100EB000822F0895EF92FF920F931F93CF93DF93AA
:100EC000EC0181E0888F9B8D8C8D981305C0E8899B
:100ED000F989808185FD26C0F62E0B8D10E00F5F0D
:100EE0001F4F0F731127E02E8C8DE8120CC00FB628
:100EF00007FCFACFE889F989808185FFF5CFCE011B
:100F00000E942D02F1CF8B8DFE01E80FF11DE35AF7
:100F1000FF4FF0829FB7F8940B8FEA89FB8980819D
:100F200080620AC09FB7F894EE89FF896083E889E0
:100F3000F98980818370806480839FBF81E090E025
:100F4000DF91CF911F910F91FF90EF900895CF9374
:100F5000DF93EC01888D8823C9F0EA89FB898081C1
:100F600085FD05C0A889B9898C9186FD0FC00FB693
:100F700007FCF5CF808185FFF2CFA889B9898C91D4
:100F800085FFEDCFCE010E942D02E7CFDF91CF91FB
:100F900008953FB7F8948091890290918A02A091B8
:100FA0008B02B0918C0226B5A89B05C02F3F19F08B
:100FB0000196A11DB11D3FBFBA2FA92F982F8827D9
:100FC000820F911DA11DB11DBC01CD0142E0660F34
:100FD000771F881F991F4A95D1F708951F920F9286
:100FE0000FB60F9211242F933F938F939F93AF933C
:100FF000BF938091850290918602A0918702B09163
:1010000088023091840223E0230F2D3720F40196CB
:10101000A11DB11D05C026E8230F0296A11DB11D1B
:10102000209384028093850290938602A093870286
:10103000B09388028091890290918A02A0918B02DC
:10104000B0918C020196A11DB11D809389029093ED
:101050008A02A0938B02B0938C02BF91AF919F91B3
:101060008F913F912F910F900FBE0F901F90189569
:101070001F920F920FB60F9211240BB60F922F935F
:101080003F934F935F936F937F938F939F93AF9310
:10109000BF93EF93FF9380917F0290918002A09184
:1010A0008102B0918202892B8A2B8B2B49F190917E
:1010B0007E028091000089278093000080917F024A
:1010C00090918002A0918102B091820218161906B7
:1010D0001A061B060CF056C080917F029091800288
:1010E000A0918102B09182020197A109B109809378
:1010F0007F0290938002A0938102B093820242C04B
:1011000080910002E4E0F2E0E4919FEF909300020E
:10111000E230C9F050F4EE2399F0E13081F590917E
:101120006F009D7F90936F002AC0E43019F1E0F0CA
:10113000E53029F5909173009D7F909373001FC057
:1011400010926E001CC0909170009D7F9093700073
:1011500091E09093B0009091B100987F946090934B
:10116000B1001092B3000BC0909171009D7F9093DD
:10117000710005C0909172009D7F9093720060E0B5
:101180000E949A0DFF91EF91BF91AF919F918F9126
:101190007F916F915F914F913F912F910F900BBE77
:1011A0000F900FBE0F901F9018951F920F920FB6C1
:1011B0000F9211240BB60F922F933F934F935F938F
:1011C0006F937F938F939F93AF93BF93EF93FF930F
:1011D0008FE493E00E942D02FF91EF91BF91AF91B8
:1011E0009F918F917F916F915F914F913F912F913F
:1011F0000F900BBE0F900FBE0F901F9018951F926F
:101200000F920FB60F9211240BB60F922F933F93AC
:101210004F935F936F937F938F939F93AF93BF93FE
:10122000EF93FF938FE493E00E941C0CFF91EF91EA
:10123000BF91AF919F918F917F916F915F914F91EE
:101240003F912F910F900BBE0F900FBE0F901F90EC
:1012500018951F920F920FB60F9211240BB60F9292
:101260002F933F934F935F936F937F938F939F93AE
:10127000AF93BF93EF93FF938CEE93E00E942D0208
:10128000FF91EF91BF91AF919F918F917F916F915E
:101290005F914F913F912F910F900BBE0F900FBE1A
:1012A0000F901F9018951F920F920FB60F92112456
:1012B0000BB60F922F933F934F935F936F937F9350
:1012C0008F939F93AF93BF93EF93FF938CEE93E035
:1012D0000E941C0CFF91EF91BF91AF919F918F9154
:1012E0007F916F915F914F913F912F910F900BBE26
:1012F0000F900FBE0F901F9018951F920F920FB670
:101300000F9211240BB60F922F933F934F935F933D
:101310006F937F938F939F93AF93BF93EF93FF93BD
:1013200089E894E00E942D02FF91EF91BF91AF9167
:101330009F918F917F916F915F914F913F912F91ED
:101340000F900BBE0F900FBE0F901F9018951F921D
:101350000F920FB60F9211240BB60F922F933F935B
:101360004F935F936F937F938F939F93AF93BF93AD
:10137000EF93FF9389E894E00E941C0CFF91EF919A
:10138000BF91AF919F918F917F916F915F914F919D
:101390003F912F910F900BBE0F900FBE0F901F909B
:1013A000189585ED8093BC008091BC0084FDFCCF36
:1013B00010921E0308954091D302262F30E0240F8F
:1013C000311D21323105DCF420911E032430C9F493
:1013D000FC0180E090E0861758F43091D30221910F
:1013E000DC01AD54BD4FA30FB11D2C930196F3CF7B
:1013F0008091D302680F6093D30280E0089581E06A
:10140000089582E00895089508950895E0918E0268
:1014100080918D02E81730F4F0E0ED56FD4F8081A9
:1014200090E008958FEF9FEF089590918E02809144
:101430008D02981750F4E92FF0E0ED56FD4F208112
:1014400030E09F5F90938E0202C02FEF3FEFC90103
:10145000089580918D0290E020918E02821B910967
:101460000895CF92DF92EF92FF920F931F93CF9345
:10147000DF937C01CB018A0120911F03222389F095
:10148000EB016B01C40ED51ECC15DD0569F0699129
:10149000D701ED91FC910190F081E02DC7011995E4
:1014A000F3CF642F0E94DB09C801DF91CF911F9118
:1014B0000F91FF90EF90DF90CF900895CF93DF933F
:1014C0001F92CDB7DEB7698320911F032223D1F08D
:1014D00020914203203240F021E030E0FC013383D0
:1014E000228380E090E015C080912003E82FF0E097
:1014F000EF5DFC4F998190838F5F809320038093F1
:10150000420305C061E0CE0101960E94DB0981E043
:1015100090E00F90DF91CF91089590E0FC0131971A
:10152000E231F10508F04EC08827EC57FF4F8F4F8E
:101530000C94EE14809180008F7703C0809180001E
:101540008F7D80938000089580918000877FF9CF00
:1015500084B58F7702C084B58F7D84BD0895809156
:10156000B0008F7703C08091B0008F7D8093B00072
:101570000895809190008F7707C0809190008F7DB3
:1015800003C080919000877F8093900008958091A0
:10159000A0008F7707C08091A0008F7D03C080914D
:1015A000A000877F8093A0000895809120018F770D
:1015B00007C0809120018F7D03C080912001877F2B
:1015C0008093200108952F923F924F925F926F92E5
:1015D0007F928F929F92AF92BF92CF92DF92EF92C3
:1015E000FF920F931F93CF93DF93CDB7DEB7A497EE
:1015F0000FB6F894DEBF0FBECDBF4B015C019B015F
:10160000AC010E941016882319F085E592E01AC0FB
:1016100075016401E894F7F82FEF3FEF4FE75FE7BC
:10162000C701B6010E941016811110C02FEF3FEFC5
:101630004FE75FE7C701B6010E949C13181634F408
:1016400089E592E00E943F0E8C01AFC02FEF3FEF83
:101650004FE75FE4C501B4010E940B1618161CF495
:101660008DE592E0EFCF2FEF3FEF4FE75FECC50145
:10167000B4010E949C1387FDF3CF20E030E0A90164
:10168000C501B4010E949C1387FF0BC06DE289E87D
:1016900094E00E945A076C01B7FAB094B7F8B0947E
:1016A00002C0C12CD12C2AE037ED43EA5BE3C5012F
:1016B000B4010E94F7144B015C010E94DC152B0160
:1016C0003C010E94A1139B01AC01C501B4010E9421
:1016D000F6144B015C0119A27E0181E2E80EF11CB7
:1016E000EAA2FBA2C301B2012AE030E040E050E0F0
:1016F0000E94C01429013A01605DF70162937F01E5
:10170000232B242B252B71F7CF010E943F0E8C0138
:101710006EE289E894E00E945A07800F911F8C01C5
:101720000C0D1D1D83E0F82E9AE0292E312C412C42
:10173000512CFA94FF20C9F120E030E040E251E45E
:10174000C501B4010E9402144B015C010E94DC152A
:101750009B0140E050E019A26AA07BA06CA3C32EBD
:10176000D42EE52ECA01B901A20191010E94C01434
:10177000605DF30162933F0121153105410551057B
:1017800089F7CF010E943F0E080F191F6CA17C2D15
:101790008D2D9E2D0E94A1139B01AC01C501B401AA
:1017A0000E94F6144B015C01C4CF81E692E00E94D6
:1017B0003F0E800F911FA4960FB6F894DEBF0FBEA8
:1017C000CDBFDF91CF911F910F91FF90EF90DF90F0
:1017D000CF90BF90AF909F908F907F906F905F90D1
:1017E0004F903F902F900895FC01248131E0309379
:1017F0001F0320934103109220031092420384851B
:10180000682B83E493E00E945E0A0C94510E0F93C0
:101810001F93CF938C01C62F64600E94F40B6C2F32
:101820006B7FC8010E94F40B83EC90E00197F1F705
:10183000CF911F910F910895FC01A089B1898C91DE
:10184000A689B78982FD0FC09C91818D8F5F8F73B0
:10185000228D821749F0218DDF01A20FB11D5D9607
:101860009C93818F08958C9108951F920F920FB6CB
:101870000F9211240F900FBE0F901F9018951F927A
:101880000F920FB60F9211240BB60F922F933F9326
:101890004F935F936F937F938F939F93AF93BF9378
:1018A000EF93FF938091B900887F803609F49CC044
:1018B00068F5883209F45BC090F4803109F454C0B3
:1018C00038F4882309F4F6C0883009F44DC0F6C016
:1018D000883109F44CC0803209F45DC0EFC0803417
:1018E00009F468C048F4803309F455C0883309F01E
:1018F000E5C080931C03D8C0803509F44FC08835FB
:1019000009F45DC0883409F0D9C0D6C0883909F41B
:10191000C7C0A8F4883709F467C038F4883609F4DA
:1019200063C0803709F460C0C9C0883809F4B8C002
:10193000803909F45FC0803809F0C0C05BC0803BCB
:1019400009F486C038F4803A09F466C0883A09F48C
:101950007FC0B4C0803C09F4A7C0883C09F4A4C08F
:10196000883B09F48AC0AAC08091F90210C0909106
:101970001B0380911A03981770F5E0911B0381E017
:101980008E0F80931B03F0E0E650FD4F8081809323
:10199000BB0085EC86C080931C038EC0E0911B03C6
:1019A00081E08E0F80931B038091BB00F0E0E65036
:1019B000FD4F808390911B0380911A036EC0E091CC
:1019C0001B0381E08E0F80931B038091BB00F0E02E
:1019D000E650FD4F808380911D0381116DC081E031
:1019E0008093F80284EA61C083E080931E03109222
:1019F000F502CFCF8091F502803208F051C0E0911E
:101A0000F50281E08E0F8093F5028091BB00F0E03B
:101A1000EB52FD4F8083BDCF85EC8093BC001092CC
:101A20001E038091F502803230F4E091F502F0E07F
:101A3000EB52FD4F10826091F50270E0E09191024F
:101A4000F091920285ED92E019951092F50236C060
:101A500084E080931E031092D4021092D302E0918E
:101A60008F02F091900219958091D302811105C0E7
:101A700081E08093D3021092B302E091D40281E01E
:101A80008E0F8093D402F0E0ED54FD4F808180935F
:101A9000BB009091D4028091D302981708F479CFBB
:101AA00085E88093BC000AC085EC8093BC0010924E
:101AB0001E0304C010921C030E94D109FF91EF91F4
:101AC000BF91AF919F918F917F916F915F914F9156
:101AD0003F912F910F900BBE0F900FBE0F901F9054
:101AE0001895CF93DF93282F30E0F901E152FD4F95
:101AF0008491F901E756FD4FD491F901ED5AFD4F5C
:101B0000C491CC2391F081110E948D0AEC2FF0E05A
:101B1000EE0FFF1FE75CFD4FA591B491EC91ED2313
:101B200081E090E021F480E002C080E090E0DF916D
:101B3000CF9108951F93CF93DF93282F30E0F901C1
:101B4000E152FD4F8491F901E756FD4FD491F9011F
:101B5000ED5AFD4FC491CC23C1F0162F81110E9484
:101B60008D0AEC2FF0E0EE0FFF1FE15EFD4FA59117
:101B7000B4919FB7F894111104C08C91D095D823DB
:101B800002C0EC91DE2BDC939FBFDF91CF911F91C0
:101B90000895CF93DF9390E0FC01E756FD4F249129
:101BA000FC01ED5AFD4F8491882361F190E0880F8C
:101BB000991FFC01EB5FFD4FC591D491FC01E15EE3
:101BC000FD4FA591B491611109C09FB7F894888128
:101BD000209582238883EC912E230BC0623061F420
:101BE0009FB7F8948881322F309583238883EC91B6
:101BF0002E2B2C939FBF06C08FB7F894E8812E2B15
:101C000028838FBFDF91CF9108958F929F92AF92DB
:101C1000BF92CF92DF92EF92FF926B017C010E9404
:101C2000C9074B015C01C114D104E104F104F1F0D6
:101C30000E94C907DC01CB0188199909AA09BB09CF
:101C4000883E9340A105B10570F321E0C21AD10886
:101C5000E108F10888EE880E83E0981EA11CB11CF3
:101C6000C114D104E104F10419F7DDCFFF90EF9026
:101C7000DF90CF90BF90AF909F908F900895009786
:101C800069F0FC0101900020E9F73197AF01481B92
:101C9000590BBC0189E894E00C94DF0680E090E0E9
:101CA000089530914203313208F04BC080911E03F9
:101CB0008111FCCF9091410322E020931E0321E08B
:101CC00020931D032FEF20931C0310921B033093CE
:101CD0001A03E1E2F3E0AAEFB2E020E0321721F0CC
:101CE00041914D932F5FFACF1092F9022091F902A2
:101CF000990F922B9093F9029091F802913061F430
:101D00001092F8029091F9029093BB009091BC0060
:101D100093FDF8CF95EC01C095EE9093BC009091A7
:101D20001E039230E1F390911C039F3F79F0809164
:101D30001C03803241F080911C03803331F084E039
:101D400005C081E003C082E001C083E0109220035F
:101D50001092420310921F0308950F931F93CF9385
:101D6000DF93162F072FCCE3D6E09C8521E020934C
:101D70001F03909341031092200310924203AA85FF
:101D8000BB85ED91FC9111970190F081E02D682FBA
:101D9000CD0119958A859B85DC01ED91FC9101901F
:101DA000F081E02D602F19958A859B85DC01ED91EE
:101DB000FC910190F081E02D612F1995DF91CF9179
:101DC0001F910F910C94510E8F929F92AF92BF92E0
:101DD000CF92DF92EF92FF922FEB3DE441E352E48A
:101DE0000E9402146B017C018BE596E00E940105C4
:101DF0000E94A3134B015C0120E030E040E05FE370
:101E0000C701B6010E9402149B01AC01C501B401D7
:101E10000E949C1318168CF040E050E060E87EEBC6
:101E200085E596E00E940D0340E050E060E87EEB1F
:101E300087E596E00E940D03D7CFFF90EF90DF90EB
:101E4000CF90BF90AF909F908F900C94660580913B
:101E50003506909136060C94AD16789484B5826060
:101E600084BD84B5816084BD85B5826085BD85B53E
:101E7000816085BD80916E00816080936E001092BC
:101E80008100809181008260809381008091810037
:101E900081608093810080918000816080938000C8
:101EA0008091B10084608093B1008091B000816026
:101EB0008093B00080919100826080939100809126
:101EC0009100816080939100809190008160809367
:101ED00090008091A10082608093A1008091A10078
:101EE00081608093A1008091A00081608093A00018
:101EF0008091210182608093210180912101816084
:101F00008093210180912001816080932001809144
:101F10007A00846080937A0080917A008260809356
:101F20007A0080917A00816080937A0080917A00B3
:101F3000806880937A001092C100E0919904F0913A
:101F40009A0482E08083E0919504F09196041082D7
:101F5000E0919704F09198048FEC80831092A10493
:101F6000E0919D04F0919E0486E08083E0919B04C3
:101F7000F0919C04808180618083E0919B04F091CA
:101F80009C04808188608083E0919B04F0919C0494
:101F9000808180688083E0919B04F0919C04808123
:101FA0008F7D808361E080913D060E94C90D60E0D5
:101FB00080913D060E949A0D60E080913C060E944F
:101FC000C90D83E493E090934706809346061092F0
:101FD0008E0210928D0210922003109242031092F2
:101FE0001E0381E080931D031092F80261E084E1FA
:101FF0000E949A0D61E085E10E949A0D8091B900DE
:102000008E7F8093B9008091B9008D7F8093B90055
:1020100088E48093B80085E48093BC0083E09AE074
:102020009093900280938F0284E09AE090939202C2
:102030008093910280E090E1A0E0B0E080934906B7
:1020400090934A06A0934B06B0934C068AE090E02A
:10205000A0E0B0E080934D0690934E06A0934F060B
:10206000B093500680E090E0A0E0B0E48093510689
:1020700090935206A0935306B093540660E070E12B
:1020800085E00E94AD0E6FE979E380E00E94AD0E1D
:10209000CCE3D6E08E0152E0752E68E8A62E62E011
:1020A000B62E7EEC872E72E0972EEBECEE2EE7E05C
:1020B000FE2EF80194818281898F9A8F61E00E94BF
:1020C000C90D61E08A8D0E94C90DF8019085868155
:1020D0006E01FDE1CF0ED11C8D8F9E8F61E00E94BD
:1020E000C90D60E08E8D0E94C90D61E08D8D0E944A
:1020F0009A0D6FB6F89480918302811126C0F50184
:102100008491F4012491E82FF0E0EE0FFF1FEB5FC4
:10211000FD4FA591B4919C91822F892321F461E018
:1021200085E30E949A0D61E085E30E94C90D8CB59C
:1021300080618CBD8CB580648CBD61E084E30E94BD
:10214000C90D61E083E30E94C90D809183028F5F16
:10215000809383026FBEC7010197F1F760E08D8D18
:102160000E949A0D88E80E94CF0483E00E94CF0469
:1021700061E08D8D0E949A0DC7010197F1F7C601AC
:102180000E94D6047A940F5F1F4F2296711091CF50
:1021900001E616E0C5E6D6E060E0F80181918F0126
:1021A0000E94C90DC017D107B9F70DE516E087E603
:1021B000E82E86E0F82E95E0D92E2CE0B22E32E003
:1021C000C32EA9908F818C3008F044C061E08A2D25
:1021D0000E94C90D8F81D89EF0011124E850FA4F5A
:1021E0009A2D9F732081207CA22EA92AA08213827F
:1021F00014826B2D0E94E214FCE08F9FA001112439
:1022000020E030E0BA01620F731FD69EF001D79E26
:10221000F00D1124E850FA4F908196FD12C02F5F07
:102220003F4F2C30310571F781110BC010928000A7
:10223000C09281001092850010928400C6BAC092AC
:102240006F00EF81DE9EF0011124E850FA4F80818B
:10225000806480839D818B81F801828B938B60E009
:102260000E94C90D61E0F80183890E94C90D60E0F8
:10227000F80183890E949A0D0E5F1F4FEC16FD0630
:1022800009F09FCFF8941092200189E080932101FA
:1022900080E293E090932901809328011092250118
:1022A0001092240182E08093730078948093260535
:1022B00010922A058091270560E00E94C90D809147
:1022C00064060E94710D892B49F46AE070E080E099
:1022D00090E00E94050E0E94D701F1CFC2E0D0E04D
:1022E00060E070E088EC92E40E9483058FE392E066
:1022F0000E943F0E60E070E088EC92E40E94E30AE6
:1023000060E070E080E792E40E94E40E8AE492E0EC
:102310000E943F0E60E070E080E792E40E94E30AD2
:102320006EE878EA81E893E40E9483058FE392E007
:102330000E943F0E6EE878EA81E893E40E94E30A87
:1023400060E070E080EF92E40E94E40E8AE492E0A4
:102350000E943F0E60E070E080EF92E40E94E30A8A
:10236000219709F0BDCFB1CF1092460310924503DB
:1023700088EE93E0A0E0B0E0809347039093480399
:10238000A0934903B0934A0323E132E0309344031E
:1023900020934303109252031092510380935303EE
:1023A00090935403A0935503B093560325E232E073
:1023B0003093500320934F0345E351E050935C0367
:1023C00040935B0344E351E050935E0340935D030D
:1023D00040E351E05093600340935F0341E351E0D9
:1023E000509362034093610342E351E050936403CE
:1023F0004093630346E351E05093660340936503C3
:10240000109268031092690310926A0310926B0392
:102410001092EF031092EE038093F0039093F10378
:10242000A093F203B093F3033093ED032093EC03F6
:1024300045ED50E05093F9034093F80344ED50E02C
:102440005093FB034093FA0340ED50E05093FD039B
:102450004093FC0341ED50E05093FF034093FE0393
:1024600042ED50E0509301044093000446ED50E0EB
:102470005093030440930204109205041092060442
:10248000109207041092080410928C0410928B048E
:1024900080938D0490938E04A0938F04B093900446
:1024A00030938A042093890485EC90E090939604FD
:1024B0008093950484EC90E0909398048093970423
:1024C00080EC90E090939A048093990481EC90E0E2
:1024D00090939C0480939B0482EC90E090939E04E4
:1024E00080939D0486EC90E09093A00480939F04D9
:1024F0001092A2041092A3041092A4041092A504B6
:102500008091070290910802A0910902B0910A02FD
:1025100080935D0690935E06A0935F06B09360067D
:1025200080910B0290910C02A0910D02B0910E02CD
:102530008093610690936206A0936306B09364064D
:1025400084E08093650687E08093660610926706B4
:1025500084EB8093680686E18093690688E1809326
:102560006A0687E180936B0689E180936C06E091AF
:102570003406EC3020F08FEF80936D0610C081E0C0
:102580008E0F80933406E0936D0685E0E89FF0019E
:102590001124E850FA4F88EB9BE092838183E0910D
:1025A0003406EC3020F08FEF80936E0610C081E08F
:1025B0008E0F80933406E0936E0685E0E89FF0016D
:1025C0001124E850FA4F88EB9BE0928381838CE0E2
:1025D00080933C0684E280933D0686E080933E062D
:1025E00085E080933F068FE1809340068EE18093E3
:1025F000410683E28093420682E28093430685E4AB
:102600008093440684E48093450680E480934806E2
:1026100010924D0610924E0610924F0610925006E0
:1026200010925106109252061092530610925406C0
:10263000E7E7F6E025E337E08FEF9FEFDC0112825A
:102640001382148215821682178210861186838760
:102650009487A587B6878787908BA18BB28B1286CC
:102660001182108273962E173F0749F78DE090E094
:102670000E941516FC011382128287E392E0918377
:102680008083118687E2848384E1828784E0838764
:102690001486F0937406E0937306109275061092F8
:1026A000760685E28093270510922905109236065A
:1026B00010923506109238061092370610923A069C
:1026C0001092390661E070E080E090E00E943617D9
:1026D000009789F09093360680933506109238065D
:1026E000109237062091390630913A06232BC1F417
:1026F000FC01108215C08091350690913606009736
:1027000011F00E94AD161092360610923506109206
:102710003A0610923906109238061092370608953C
:1027200010923A061092390663E672E080913506FF
:10273000909136060C9429180E94DE1308F481E06B
:102740000895E89409C097FB3EF4909580957095A4
:1027500061957F4F8F4F9F4F9923A9F0F92F96E9ED
:10276000BB279395F695879577956795B795F11162
:10277000F8CFFAF4BB0F11F460FF1BC06F5F7F4FFF
:102780008F4F9F4F16C0882311F096E911C0772311
:1027900021F09EE8872F762F05C0662371F096E81A
:1027A000862F70E060E02AF09A95660F771F881FE9
:1027B000DAF7880F9695879597F90895990F00088D
:1027C000550FAA0BE0E8FEEF16161706E807F90703
:1027D000C0F012161306E407F50798F0621B730B9E
:1027E000840B950B39F40A2661F0232B242B252B1F
:1027F00021F408950A2609F4A140A6958FEF811DC2
:10280000811D08950E9415140C9486140E9478145A
:1028100038F00E947F1420F0952311F00C946F146F
:102820000C94751411240C94BA140E94971470F32C
:10283000959FC1F3950F50E0551F629FF001729F65
:10284000BB27F00DB11D639FAA27F00DB11DAA1F74
:10285000649F6627B00DA11D661F829F2227B00DC1
:10286000A11D621F739FB00DA11D621F839FA00D4C
:10287000611D221F749F3327A00D611D231F849F9C
:10288000600D211D822F762F6A2F11249F575040F3
:102890009AF0F1F088234AF0EE0FFF1FBB1F661F6E
:1028A000771F881F91505040A9F79E3F510580F037
:1028B0000C946F140C94BA145F3FE4F3983ED4F375
:1028C000869577956795B795F795E7959F5FC1F7DB
:1028D000FE2B880F911D9695879597F9089597F986
:1028E0009F6780E870E060E008959FEF80EC0895B6
:1028F00000240A94161617061806090608950024DF
:102900000A9412161306140605060895092E039458
:10291000000C11F4882352F0BB0F40F4BF2B11F4CC
:1029200060FF04C06F5F7F4F8F4F9F4F089557FD2B
:102930009058440F551F59F05F3F71F04795880F2D
:1029400097FB991F61F09F3F79F0879508951216C4
:1029500013061406551FF2CF4695F1DF08C0161670
:1029600017061806991FF1CF869571056105089421
:102970000895E894BB2766277727CB0197F9089538
:10298000A1E21A2EAA1BBB1BFD010DC0AA1FBB1F73
:10299000EE1FFF1FA217B307E407F50720F0A21BE5
:1029A000B30BE40BF50B661F771F881F991F1A9452
:1029B00069F760957095809590959B01AC01BD017C
:1029C000CF010895991B79E004C0991F961708F06C
:1029D000961B881F7A95C9F780950895EE0FFF1F03
:1029E000881F8BBF0790F691E02D19945058BB2794
:1029F000AA270E940E150C9486140E94781438F0B1
:102A00000E947F1420F039F49F3F19F426F40C94AF
:102A100075140EF4E095E7FB0C946F14E92F0E94F7
:102A2000971458F3BA17620773078407950720F0C5
:102A300079F4A6F50C94B9140EF4E0950B2EBA2F88
:102A4000A02D0B01B90190010C01CA01A0011124B4
:102A5000FF27591B99F0593F50F4503E68F11A1660
:102A6000F040A22F232F342F4427585FF3CF4695F1
:102A700037952795A795F0405395C9F77EF41F1613
:102A8000BA0B620B730B840BBAF09150A1F0FF0FDD
:102A9000BB1F661F771F881FC2F70EC0BA0F621FC9
:102AA000731F841F48F4879577956795B795F795B9
:102AB0009E3F08F0B0CF9395880F08F09927EE0F4E
:102AC0009795879508950E9477150C9486140E9417
:102AD0007F1458F00E94781440F029F45F3F29F0E9
:102AE0000C946F1451110C94BA140C9475140E9428
:102AF000971468F39923B1F3552391F3951B550B64
:102B0000BB27AA2762177307840738F09F5F5F4FC0
:102B1000220F331F441FAA1FA9F335D00E2E3AF0FF
:102B2000E0E832D091505040E695001CCAF72BD017
:102B3000FE2F29D0660F771F881FBB1F2617370768
:102B40004807AB07B0E809F0BB0B802DBF01FF279A
:102B500093585F4F3AF09E3F510578F00C946F14F4
:102B60000C94BA145F3FE4F3983ED4F386957795BE
:102B70006795B795F7959F5FC9F7880F911D969553
:102B8000879597F90895E1E0660F771F881FBB1FAF
:102B9000621773078407BA0720F0621B730B840B5C
:102BA000BA0BEE1F88F7E09508950E94DC15689433
:102BB000B1110C94BA1408950E949F1488F09F5785
:102BC00098F0B92F9927B751B0F0E1F0660F771F51
:102BD000881F991F1AF0BA95C9F714C0B13091F047
:102BE0000E94B914B1E008950C94B914672F782F9E
:102BF0008827B85F39F0B93FCCF38695779567950C
:102C0000B395D9F73EF490958095709561957F4F77
:102C10008F4F9F4F08950E94DE1308F48FEF0895A1
:102C20000E94DE13880B990B08950F931F93CF9387
:102C3000DF938230910510F482E090E0E091370755
:102C4000F091380720E030E0A0E0B0E0309719F1D3
:102C5000408151810281138148175907C8F08417B8
:102C6000950769F4109731F012960C93129713960A
:102C70001C9327C0009337071093380722C02115F3
:102C8000310519F04217530718F49A01BD01EF01FD
:102C9000DF01F801DBCF21153105F9F0281B390BD5
:102CA0002430310580F48A819B816115710521F002
:102CB000FB019383828304C0909338078093370786
:102CC000FE01329644C0FE01E20FF31F81939193FF
:102CD00022503109398328833AC020913507309139
:102CE0003607232B41F420910302309104023093E4
:102CF00036072093350720910102309102022115F9
:102D0000310541F42DB73EB74091050250910602BE
:102D1000241B350BE0913507F0913607E217F307D6
:102D2000A0F42E1B3F0B2817390778F0AC014E5F3B
:102D30005F4F2417350748F04E0F5F1F509336073B
:102D4000409335078193919302C0E0E0F0E0CF011A
:102D5000DF91CF911F910F910895CF93DF9300974B
:102D600009F481C0FC01329713821282A0913707C7
:102D7000B0913807109781F420813181820F931F21
:102D800020913507309136072817390751F5F09310
:102D90003607E093350767C0ED0120E030E0CE173D
:102DA000DF0740F44A815B819E0141155105F1F036
:102DB000EA01F5CFD383C28340815181840F951FEF
:102DC000C817D90759F488819981840F951F0296F5
:102DD000918380838A819B8193838283211531052E
:102DE00029F4F0933807E09337073DC0E901FB83EE
:102DF000EA8349915991C40FD51FEC17FD0761F47F
:102E000080819181840F951F0296E90199838883BF
:102E1000828193819B838A83E0E0F0E012968D911A
:102E20009C911397009719F0FD01DC01F7CF8D916C
:102E30009C9111979D012E5F3F4F820F931F209110
:102E40003507309136072817390769F4309729F488
:102E5000109238071092370702C013821282B09383
:102E60003607A0933507DF91CF9108956F927F9237
:102E70008F929F92AF92BF92CF92DF92EF92FF928A
:102E80000F931F93CF93DF93009789F4CB01DF91CA
:102E9000CF911F910F91FF90EF90DF90CF90BF9057
:102EA000AF909F908F907F906F900C941516FC01BF
:102EB000E60FF71F9C0122503109E217F30708F4CF
:102EC000A9C0EC01D9010D911C91119706171707A4
:102ED000B0F00530110508F49BC0C80104978617AF
:102EE000970708F495C002501109061B170B0193B0
:102EF00011936D937C93CF010E94AD1689C05B0145
:102F0000A01AB10A4C01800E911EA0913707B09112
:102F10003807612C712CE12CF12C109709F446C074
:102F20008D919C911197A815B905B1F56C0142E0FE
:102F3000C40ED11CCA14DB0478F14C018A189B081A
:102F4000640142E0C40ED11C1296BC9012971396F5
:102F5000AC91B5E0CB16D10440F0B282A38391824C
:102F60008082D9016D937C9309C00E5F1F4F800F43
:102F7000911FF90191838083EB2DFA2FE114F10465
:102F800031F0D7011396FC93EE93129741C0F09362
:102F90003807E09337073CC06816790608F43C010F
:102FA0007D0112960D90BC91A02DB7CF8091350771
:102FB0009091360788169906E1F466167706C8F4EC
:102FC0008091010290910202009741F48DB79EB763
:102FD0004091050250910602841B950BE817F907F2
:102FE000C8F4F0933607E0933507F90171836083E5
:102FF0000FC0CB010E9415167C01009759F0A80163
:10300000BE010E942018CE010E94AD16C70104C067
:10301000CE0102C080E090E0DF91CF911F910F912F
:10302000FF90EF90DF90CF90BF90AF909F908F90E8
:103030007F906F90089581E090E0F8940C943018A0
:10304000FB01DC0102C001900D9241505040D8F7C5
:103050000895FB01DC0101900D920020E1F7089535
:1030600011E0C4E9D1E000E006C0802FFE010E941B
:10307000EE142196011DC539D10780E00807A9F794
:04308000F894FFCFF2
:10308400FF000039078000363738391B1D1A1C0031
:103094000000005E0A310A0502050A290A150A061B
:1030A4000A000000005A07DF060907A707C801182D
:1030B400072C07000000000802DF06050204024195
:1030C40056414E43452064652000544F55524E45A9
:1030D40020646520006E616E00696E66006F76661E
:0430E400000D0A00D1
:00000001FF
