:100000000C9497010C94C8010C94C8010C94C8017D
:100010000C94C8010C94C8010C94C8010C94C8013C
:100020000C94C8010C944F050C944F050C944F058B
:100030000C94C8010C942A090C94C8010C94C801B2
:100040000C94C8010C94930D0C94C8010C94C80135
:100050000C94C8010C94C8010C94C8010C9457105E
:100060000C94C8010C94B00A0C94860A0C94C80134
:100070000C94C8010C94C8010C94C8010C94C801DC
:100080000C94C8010C94C8010C94C8010C94C801CC
:100090000C945C0A0C94320A0C94C8010C94590517
:1000A0000C94C8010C94C8010C94C8010C94C801AC
:1000B0000C94C8010C94C8010C94C8010C94600BFA
:1000C0000C94C8010C94C8010C94C8010C94080A43
:1000D0000C94DE090C94C8010C94B4090C948A09A0
:1000E0000C94C801A102A402930297029D02DB02B4
:1000F000A802AC02B202B602BA02C002C402C8022E
:10010000DB02CE02D202D6027F0C840C890C930C47
:100110009D0C160DA70CAF0CB70CC10CCB0CD50C5D
:10012000E40CEE0C160DF80C020D0C0D0C94B70C33
:100130000C94E40C0C94A70C0C9457020C94B2028F
:100140000C94A5080C94840C0C94AC020C94F80C40
:100150000C9459070C94B6020C94C8020C94D20269
:100160000C94FC010C94DB020C94020D0C945708C7
:100170000C94D6020C94A8020C94FE010C942A0252
:100180000C949D0C0C94B5160C9422020C940A0845
:100190000C94AF0C0C949D020C94C0020C94C108FA
:1001A0000C94C10C0C94A6070C94A6080C94CE02D7
:1001B0000C94B4070C940C0D0C94BA020C94890C9A
:1001C0000C94160D0C94A4020C945A0B0C94FD0183
:1001D0000C9497020C9493020C94EE0C0C94A102D4
:1001E0000C9483070C94930C0C94BB160C947F0C0A
:1001F0000C94FF010C94C4020C94D50C0C94CB0C01
:100200000C940E020C949207020000210024002797
:10021000002A002D00300033000101000004010716
:10022000010A0100002200250028002B002E0031C9
:1002300000340002010000050108010B010000204C
:10024000002300260029002C002F003200000100AE
:100250000003010601090105050505070508080851
:1002600008020202020A0A08080404040401010147
:10027000010101010103030303030303030407074F
:10028000070C0C0C0C0C0C0C0C02020202060606ED
:1002900006060606060B0B0B0B0B0B0B0B010210D5
:1002A0002020080810204010204080020102010890
:1002B0000402010102040810204080804020100840
:1002C0000402018004020180402010080402010899
:1002D00004020101020408102040800102040810F9
:1002E00020408000000A0B02090C0D0E08070304D1
:1002F00001000000000000000000000000000000FD
:1003000000000000000000000000000000000012DB
:1003100011100000000000000000000000000000BC
:1003200000000000000000000000BB16B5161124FC
:100330001FBECFEFD1E2DEBFCDBF00E00CBF12E0A9
:10034000A0E0B2E0E4EDFBE300E00BBF02C00790E9
:100350000D92A83FB107D9F728E0A8EFB2E001C09D
:100360001D92A33CB207E1F711E0C6E9D1E000E03D
:1003700006C021970109802FFE010E94961AC539F7
:10038000D10780E00807A9F70E94A1100C94D81D9E
:100390000C94000085ED8093BC008091BC0084FD2E
:1003A000FCCF1092EA03089540919E03262F30E07F
:1003B000240F311D21323105DCF42091EA03243071
:1003C000C9F4FC0180E090E0861758F430919E0358
:1003D0002191DC01A258BC4FA30FB11D2C930196B3
:1003E000F3CF80919E03680F60939E0380E0089591
:1003F00081E0089582E00895089508950895E091B8
:10040000590380915803E81730F4F0E0E25AFC4FAA
:10041000808190E008958FEF9FEF089590915903A8
:1004200080915803981750F4E92FF0E0E25AFC4FFE
:10043000208130E09F5F9093590302C02FEF3FEF80
:10044000C90108958091580390E020915903821BBF
:1004500091090895CF92DF92EF92FF920F931F932D
:10046000CF93DF937C01CB018A012091EB03222300
:1004700089F0EB016B01C40ED51ECC15DD0569F0CA
:100480006991D701ED91FC910190F081E02DC701B8
:100490001995F3CF642F0E94D401C801DF91CF9149
:1004A0001F910F91FF90EF90DF90CF900895CF9321
:1004B000DF931F92CDB7DEB769832091EB03222330
:1004C000D1F020910E04203240F021E030E0FC0118
:1004D0003383228380E090E015C08091EC03E82F05
:1004E000F0E0E351FC4F998190838F5F8093EC03A0
:1004F00080930E0405C061E0CE0101960E94D401F4
:1005000081E090E00F90DF91CF91089590E0FC01A1
:100510003197E231F10508F04EC08827EE58FF4FC1
:100520008F4F0C94961A809180008F7703C0809132
:1005300080008F7D80938000089580918000877F68
:10054000F9CF84B58F7702C084B58F7D84BD0895BF
:100550008091B0008F7703C08091B0008F7D809331
:10056000B0000895809190008F7707C0809190002F
:100570008F7D03C080919000877F809390000895C5
:100580008091A0008F7707C08091A0008F7D03C06D
:100590008091A000877F8093A00008958091200122
:1005A0008F7707C0809120018F7D03C0809120014B
:1005B000877F8093200108958F929F92AF92BF9280
:1005C0000F931F93CF93DF93CDB7DEB7A1970FB6ED
:1005D000F894DEBF0FBECDBF19A2423008F44AE046
:1005E0008E010F5D1F4F842E912CA12CB12CA501E3
:1005F00094010E94591AE62FB901CA01015011094C
:10060000EA3014F4E05D01C0E95CD801EC93232BDF
:10061000242B252B61F7C8010E94B60FA1960FB6B7
:10062000F894DEBF0FBECDBFDF91CF911F910F9128
:10063000BF90AF909F908F9008950F931F93CF938B
:10064000DF93162F072FCDEBD7E09C8521E0209379
:10065000EB0390930D041092EC0310920E04AA8504
:10066000BB85ED91FC9111970190F081E02D682FF1
:10067000CD0119958A859B85DC01ED91FC91019056
:10068000F081E02D602F19958A859B85DC01ED9125
:10069000FC910190F081E02D612F1995DF91CF91B0
:1006A0001F910F910C94D60FCF92DF92EF92FF9291
:1006B000CF93DF939091E807891720F09091E90795
:1006C000981750F48FEC92E0DF91CF91FF90EF906C
:1006D000DF90CF900C94C80FC091EE07CC3008F09B
:1006E0007BC0282F30E0D0E0283C3105E4F595E0D0
:1006F0009C9FF0019D9FF00D1124EF59F84F9381BD
:1007000028E830E06901C91AD10897FDD394CC0CD0
:10071000DD1CCC0CDD1C0D2C000CEE08FF089481B8
:1007200028E532E0291B310997FD3395220F331F4D
:10073000220F331FA901330F660B770B9A01AB0110
:100740002C193D094E095F09A82FB0E00E944E1AEE
:1007500024EB30E040E050E00E942F1AC20ED31E7E
:10076000E41EF51E27C085E08C9FF0018D9FF00DE3
:100770001124EF59F84F838148E850E06A01C81A04
:10078000D10887FDD394CC0CDD1CCC0CDD1C2C15C2
:100790003D0584F0448188E592E0841B910947FD82
:1007A0009395880F991F880F991F69018C159D05D6
:1007B0000CF46C018FB7F89495E09C9FF0019D9F1D
:1007C000F00D1124EF59F84F96E0C91AD108CC0C5E
:1007D000DD1CD282C1828FBFDF91CF91FF90EF905D
:1007E000DF90CF900895682F82EF95E00C940A086F
:1007F000CF92DF92EF92FF92CF93DF936C01990F2C
:10080000EE08FF08F7FE11C08DE20E94F303EC0131
:1008100066277727CB016C197D098E099F094AE06D
:100820000E94DC02C80FD91F06C04AE0C701B6010A
:100830000E94DC02EC018FE792E00E94B60F8C0F61
:100840009D1FDF91CF91FF90EF90DF90CF900895A3
:1008500080917B00877F80937B0086E480937C007F
:1008600080917A00806480937A0080917A0086FD7E
:10087000FCCF809178002091790090E0922B089530
:100880008F929F92AF92BF92CF92DF92EF92FF92A0
:100890000F931F93CF93DF936B017C01142F9B0168
:1008A000AC010E94B81B882319F08CEE92E027C09F
:1008B00046015701E894B7F82FEF3FEF4FE75FE7A6
:1008C000C501B4010E94B81B81110DC02FEF3FEF8D
:1008D0004FE75FE7C501B4010E940B1918161CF41D
:1008E00080EF92E00CC02FEF3FEF4FE75FE4C701CE
:1008F000B6010E94B31B181684F484EF92E0DF91D6
:10090000CF911F910F91FF90EF90DF90CF90BF900C
:10091000AF909F908F900C94B60F2FEF3FEF4FE763
:100920005FECC701B6010E940B1987FDE6CF20E0FE
:1009300030E0A901C701B6010E940B1987FF09C069
:100940008DE20E94F303EC01F7FAF094F7F8F094CB
:1009500002C0C0E0D0E000E060E070E080E09FE333
:10096000101741F020E030E040E251E40E940B1B00
:100970000F5FF6CFA70196010E949F1A6B017C01C1
:100980000E94841B4B015C014AE00E94DC02C80FFC
:10099000D91F1123A9F1C501B4010E9410199B01AF
:1009A000AC01C701B6010E949E1A6B017C018EE268
:1009B0000E94F303C80FD91F20E030E040E251E469
:1009C000C701B6010E9471194B015C010E94841B92
:1009D0006B01E12CF12C4AE0C701B6010E94DC0258
:1009E000C80FD91FC701B6010E9410199B01AC01A5
:1009F000C501B4010E949E1A6B017C011150E1F601
:100A0000CE01DF91CF911F910F91FF90EF90DF907A
:100A1000CF90BF90AF909F908F900895FC0124815C
:100A200031E03093EB0320930D041092EC0310920D
:100A30000E048485682B8FE094E00E9457020C948A
:100A4000D60F0F931F93CF938C01C62F64600E9423
:100A50000E056C2F6B7FC8010E940E0583EC90E0A1
:100A60000197F1F7CF911F910F910895FC01A08993
:100A7000B1898C91A689B78982FD0FC09C91818D27
:100A80008F5F8F73228D821749F0218DDF01A20FB6
:100A9000B11D5D969C93818F08958C9108951F924E
:100AA0000F920FB60F9211240F900FBE0F901F9050
:100AB00018951F920F920FB60F9211240BB60F923A
:100AC0002F933F934F935F936F937F938F939F9356
:100AD000AF93BF93EF93FF938091B900887F8036E7
:100AE00009F49CC068F5883209F45BC090F4803149
:100AF00009F454C038F4882309F4F6C0883009F4A6
:100B00004DC0F6C0883109F44CC0803209F45DC094
:100B1000EFC0803409F468C048F4803309F455C04C
:100B2000883309F0E5C08093E803D8C0803509F424
:100B30004FC0883509F45DC0883409F0D9C0D6C0EB
:100B4000883909F4C7C0A8F4883709F467C038F4B5
:100B5000883609F463C0803709F460C0C9C088389A
:100B600009F4B8C0803909F45FC0803809F0C0C00A
:100B70005BC0803B09F486C038F4803A09F466C053
:100B8000883A09F47FC0B4C0803C09F4A7C0883C0F
:100B900009F4A4C0883B09F48AC0AAC08091C503A7
:100BA00010C09091E7038091E603981770F5E091EB
:100BB000E70381E08E0F8093E703F0E0EA53FC4FF8
:100BC00080818093BB0085EC86C08093E8038EC053
:100BD000E091E70381E08E0F8093E7038091BB00F3
:100BE000F0E0EA53FC4F80839091E7038091E603A5
:100BF0006EC0E091E70381E08E0F8093E703809160
:100C0000BB00F0E0EA53FC4F80838091E90381113F
:100C10006DC081E08093C40384EA61C083E0809367
:100C2000EA031092C003CFCF8091C003803208F056
:100C300051C0E091C00381E08E0F8093C00380918A
:100C4000BB00F0E0E056FC4F8083BDCF85EC809385
:100C5000BC001092EA038091C003803230F4E0912E
:100C6000C003F0E0E056FC4F10826091C00370E0DA
:100C7000E0915C03F0915D0380EA93E01995109296
:100C8000C00336C084E08093EA0310929F03109261
:100C90009E03E0915A03F0915B03199580919E03A6
:100CA000811105C081E080939E0310927E03E09144
:100CB0009F0381E08E0F80939F03F0E0E258FC4F8A
:100CC00080818093BB0090919F0380919E03981731
:100CD00008F479CF85E88093BC000AC085EC809346
:100CE000BC001092EA0304C01092E8030E94CA01FB
:100CF000FF91EF91BF91AF919F918F917F916F91F4
:100D00005F914F913F912F910F900BBE0F900FBEAF
:100D10000F901F901895CF93DF93282F30E0F901A3
:100D2000ED51FD4F8491F901E356FD4FD491F90146
:100D3000E95AFD4FC491CC2391F081110E948602A3
:100D4000EC2FF0E0EE0FFF1FE35CFD4FA591B49197
:100D5000EC91ED2381E090E021F480E002C080E09E
:100D600090E0DF91CF9108951F93CF93DF93282FC9
:100D700030E0F901ED51FD4F8491F901E356FD4F4B
:100D8000D491F901E95AFD4FC491CC23C1F0162F3B
:100D900081110E948602EC2FF0E0EE0FFF1FED5D47
:100DA000FD4FA591B4919FB7F894111104C08C9197
:100DB000D095D82302C0EC91DE2BDC939FBFDF914E
:100DC000CF911F910895CF93DF9390E0FC01E356FC
:100DD000FD4F2491FC01E95AFD4F8491882361F174
:100DE00090E0880F991FFC01E75FFD4FC591D491FA
:100DF000FC01ED5DFD4FA591B491611109C09FB754
:100E0000F8948881209582238883EC912E230BC04F
:100E1000623061F49FB7F8948881322F3095832334
:100E20008883EC912E2B2C939FBF06C08FB7F8942C
:100E3000E8812E2B28838FBFDF91CF9108958F9269
:100E40009F92AF92BF92CF92DF92EF92FF926B018F
:100E50007C010E9432104B015C01C114D104E104F9
:100E6000F104F1F00E943210DC01CB0188199909DC
:100E7000AA09BB09883E9340A105B10570F321E0A2
:100E8000C21AD108E108F10888EE880E83E0981EA6
:100E9000A11CB11CC114D104E104F10419F7DDCF88
:100EA000FF90EF90DF90CF90BF90AF909F908F908A
:100EB0000895CF92DF92EF92FF920F931F93CF93FB
:100EC000DF936C017A018B01C0E0D0E0CE15DF0525
:100ED00081F0D8016D918D01D601ED91FC910190C9
:100EE000F081E02DC6011995892B11F02196EECFE6
:100EF0007E01C701DF91CF911F910F91FF90EF907D
:100F0000DF90CF900895FC01538D448D252F30E064
:100F1000842F90E0821B930B541710F0CF96089506
:100F200001970895FC01918D828D981761F0828D53
:100F3000DF01A80FB11D5D968C91928D9F5F9F730D
:100F4000928F90E008958FEF9FEF0895FC01918DAF
:100F5000828D981731F0828DE80FF11D858D90E01C
:100F600008958FEF9FEF0895FC01918D228D892FB9
:100F700090E0805C9F4F821B91098F7399270895A1
:100F80008BE194E00E94B40721E0892B09F420E072
:100F9000822F089588EB94E00E94B40721E0892B0A
:100FA00009F420E0822F089585E595E00E94B407BA
:100FB00021E0892B09F420E0822F089582EF95E04B
:100FC0000E94B40721E0892B09F420E0822F0895C4
:100FD000FC01848DDF01A80FB11DA35ABF4F2C91D6
:100FE000848D90E001968F739927848FA689B789A5
:100FF0002C93A089B1898C91837080648C93938D9C
:10100000848D981306C00288F389E02D80818F7D3E
:1010100080830895EF92FF920F931F93CF93DF93F6
:10102000EC0181E0888F9B8D8C8D981305C0E88939
:10103000F989808185FD26C0F62E0B8D10E00F5FAB
:101040001F4F0F731127E02E8C8DE8120CC00FB6C6
:1010500007FCFACFE889F989808185FFF5CFCE01B9
:101060000E94E807F1CF8B8DFE01E80FF11DE35AD6
:10107000FF4FF0829FB7F8940B8FEA89FB8980813C
:1010800080620AC09FB7F894EE89FF896083E8897F
:10109000F98980818370806480839FBF81E090E0C4
:1010A000DF91CF911F910F91FF90EF900895CF9313
:1010B000DF93EC01888D8823C9F0EA89FB89808160
:1010C00085FD05C0A889B9898C9186FD0FC00FB632
:1010D00007FCF5CF808185FFF2CFA889B9898C9173
:1010E00085FFEDCFCE010E94E807E7CFDF91CF91DA
:1010F0000895E0E0F0E0199480E090E0892B21F081
:101100000E94DE07811115C080E090E0892B21F05C
:101110000E94D407811110C00E94CA0781110FC01C
:1011200080E090E0892B81F00E94C00781110AC005
:1011300008950E940000E8CF0E940000EDCF0E94B9
:101140007908EECF0C9400000895089580E090E0B7
:1011500008950E94C31DCF93DF93EC0160E08E8160
:101160000E94B40661E08E810E94B40660E08E8128
:101170000E94B4068BE891E00197F1F7DF91CF91DF
:1011800008950F931F93CF93DF938C01C62FD62F13
:10119000D07FD1606D2F0E940E056D2FC8010E9477
:1011A000210580E1C89FB0011124C62FC1606C2FBA
:1011B000C8010E940E056C2FC8010E94210581E024
:1011C00090E0DF91CF911F910F91089590910002CF
:1011D00089133DC0E8E0F2E0E4919FEF90930002B4
:1011E000E230C9F050F4EE2399F0E13081F59091AE
:1011F0006F009D7F90936F002AC0E43019F1E0F0FA
:10120000E53029F5909173009D7F909373001FC086
:1012100010926E001CC0909170009D7F90937000A2
:1012200091E09093B0009091B100987F946090937A
:10123000B1001092B3000BC0909171009D7F90930C
:10124000710005C0909172009D7F9093720060E0E4
:101250000C94B4061F920F920FB60F9211240BB686
:101260000F922F933F934F935F936F937F938F933F
:101270009F93AF93BF93EF93FF938091FB02909165
:10128000FC02A091FD02B091FE02892B8A2B8B2BD0
:1012900051F19091F802E091F902F091FA02808107
:1012A000892780838091FB029091FC02A091FD022E
:1012B000B091FE02181619061A061B06C4F4809196
:1012C000FB029091FC02A091FD02B091FE020197F9
:1012D000A109B1098093FB029093FC02A093FD0247
:1012E000B093FE0204C0809100020E94E608FF91C4
:1012F000EF91BF91AF919F918F917F916F915F918E
:101300004F913F912F910F900BBE0F900FBE0F90FA
:101310001F9018951F920F920FB60F9211240BB6C3
:101320000F922F933F934F935F936F937F938F937E
:101330009F93AF93BF93EF93FF938BE194E00E9451
:10134000E807FF91EF91BF91AF919F918F917F91AE
:101350006F915F914F913F912F910F900BBE0F9026
:101360000FBE0F901F9018951F920F920FB60F92FD
:1013700011240BB60F922F933F934F935F936F936C
:101380007F938F939F93AF93BF93EF93FF938BE1E3
:1013900094E00E943605FF91EF91BF91AF919F912C
:1013A0008F917F916F915F914F913F912F910F900E
:1013B0000BBE0F900FBE0F901F9018951F920F92AB
:1013C0000FB60F9211240BB60F922F933F934F93AA
:1013D0005F936F937F938F939F93AF93BF93EF939D
:1013E000FF9388EB94E00E94E807FF91EF91BF9193
:1013F000AF919F918F917F916F915F914F913F91AD
:101400002F910F900BBE0F900FBE0F901F9018954D
:101410001F920F920FB60F9211240BB60F922F93BB
:101420003F934F935F936F937F938F939F93AF936C
:10143000BF93EF93FF9388EB94E00E943605FF91F2
:10144000EF91BF91AF919F918F917F916F915F913C
:101450004F913F912F910F900BBE0F900FBE0F90A9
:101460001F9018951F920F920FB60F9211240BB672
:101470000F922F933F934F935F936F937F938F932D
:101480009F93AF93BF93EF93FF9385E595E00E9401
:10149000E807FF91EF91BF91AF919F918F917F915D
:1014A0006F915F914F913F912F910F900BBE0F90D5
:1014B0000FBE0F901F9018951F920F920FB60F92AC
:1014C00011240BB60F922F933F934F935F936F931B
:1014D0007F938F939F93AF93BF93EF93FF9385E594
:1014E00095E00E943605FF91EF91BF91AF919F91DA
:1014F0008F917F916F915F914F913F912F910F90BD
:101500000BBE0F900FBE0F901F9018951F920F9259
:101510000FB60F9211240BB60F922F933F934F9358
:101520005F936F937F938F939F93AF93BF93EF934B
:10153000FF9382EF95E00E94E807FF91EF91BF9142
:10154000AF919F918F917F916F915F914F913F915B
:101550002F910F900BBE0F900FBE0F901F901895FC
:101560001F920F920FB60F9211240BB60F922F936A
:101570003F934F935F936F937F938F939F93AF931B
:10158000BF93EF93FF9382EF95E00E943605FF91A2
:10159000EF91BF91AF919F918F917F916F915F91EB
:1015A0004F913F912F910F900BBE0F900FBE0F9058
:1015B0001F901895CF92DF92EF92FF920F931F9397
:1015C000CF93DF936C017C0187E0E80EF11CC0E053
:1015D000D0E0062F10E0B8010C2E02C0759567957B
:1015E0000A94E2F76170F70181917F010E94B406CD
:1015F0002196C430D10579F7C601DF91CF911F91B3
:101600000F91FF90EF90DF90CF900C94AB08CF92AA
:10161000DF92EF92FF920F931F93CF93DF93EC0132
:10162000F62E642F8C810E94B4068D818F3F19F0B5
:1016300060E00E94B4068F850F2D10E084FF25C066
:101640006E0187E0C80ED11CE12CF12CB8010E2CE4
:1016500002C0759567950A94E2F76170F601819171
:101660006F010E94B406FFEFEF1AFF0A88E0E81648
:10167000F10461F7CE01DF91CF911F910F91FF909F
:10168000EF90DF90CF900C94AB08B80184E0759593
:1016900067958A95E1F7CE010E94DA0A6F2DCE0197
:1016A000DF91CF911F910F91FF90EF90DF90CF903E
:1016B0000C94DA0A41E00E94070B81E090E0089563
:1016C0001F920F920FB60F9211240BB60F922F9309
:1016D0003F934F935F936F937F938F939F93AF93BA
:1016E000BF93EF93FF93809190060E948B06209109
:1016F0009406309195062F5F3F4F309395062093C7
:10170000940690919306953618F096E090938F0684
:1017100090918F069430C9F128F4923069F093309B
:10172000D1F05EC0953009F451C0963009F058C030
:1017300091E09093600751C0811152C020919406AE
:10174000309195062436310508F442C010926007A6
:10175000109293061CC0813009F042C0E0919306BC
:1017600091E09E0F90939306F0E0209194063091C3
:101770009506EE0FFF1FE157F94F30872783109230
:1017800095061092940694E029C0811117C0E0914B
:10179000930691E09E0F90939306F0E020919406BB
:1017A00030919506EE0FFF1FE157F94F30872783E1
:1017B000109295061092940693E010C02091940622
:1017C000309195062536310558F007C0811108C0C3
:1017D000109295061092940603C095E090938F06A0
:1017E000909192069923B9F081110AC080919106D7
:1017F000882321F08091910661E009C02F9A0BC0E7
:1018000080919106882331F08091910660E00E94DA
:10181000B40601C02F98FF91EF91BF91AF919F91B6
:101820008F917F916F915F914F913F912F910F9089
:101830000BBE0F900FBE0F901F9018958F929F9226
:10184000AF92BF92CF92DF92EF92FF920F931F93CE
:10185000CF93DF938C016A017B0120E030E04FE7FA
:1018600053E4C701B6010E9471194B015C0120E0ED
:1018700030E0A9010E94B31B18161CF4C501B40185
:1018800003C0C501B40190580E947D1BEB0120E00C
:1018900030E0A901C701B6010E94B31B181614F469
:1018A00060E001C061E0F80181810E94B406CF3F91
:1018B000D10509F014F4DD2702C0CFEFD0E0F80124
:1018C000108161E0812F0E94E306209709F4B1C0E6
:1018D000CF3FD10509F4AFC0E12FF0E0ED51FD4F4E
:1018E000E4918E2F90E0FC013197E231F10508F090
:1018F0009DC08827EC57FF4F8F4F0C94961A84B5E4
:10190000806884BDC7BDA7C084B5806284BDC8BDE2
:10191000A2C080918000806880938000D09389006D
:10192000C093880098C0809180008062809380007E
:10193000D0938B00C0938A008EC080918000886015
:1019400080938000D0938D00C0938C0084C08091E0
:10195000B00080688093B000C093B3007CC08091D9
:10196000B00080628093B000C093B40074C08091D6
:101970009000806880939000D0939900C093980065
:101980006AC080919000806280939000D0939B0009
:10199000C0939A0060C0809190008860809390000E
:1019A000D0939D00C0939C0056C08091A000806899
:1019B0008093A0008091A0008F7B8093A000D093A3
:1019C000A900C093A80047C08091A00080628093C6
:1019D000A000D093AB00C093AA003DC08091A000AE
:1019E00088608093A000D093AD00C093AC0033C05A
:1019F00080912001806880932001D0932901C093B9
:101A0000280129C080912001806280932001D09319
:101A10002B01C0932A011FC0809120018860809310
:101A20002001D0932D01C0932C0115C0C038D105E1
:101A300014F460E001C061E0812FDF91CF911F912C
:101A40000F91FF90EF90DF90CF90BF90AF909F905D
:101A50008F900C94B406DF91CF911F910F91FF905E
:101A6000EF90DF90CF90BF90AF909F908F900895B0
:101A70001F93CF93DF93EC01162F88818C3008F0F1
:101A80004DC061E0812F0E94E306E88195E09E9FB2
:101A9000F0011124EF59F84F1F738081807C182BBF
:101AA00010831382E8819E9FF0011124EF59F84FB3
:101AB000148288816CE00E948A1A9CE0899FA001B0
:101AC000112420E030E095E0BA01620F731F969F69
:101AD000F001979FF00D1124EF59F84F608166FDDA
:101AE00013C02F5F3F4F2C30310571F781110CC0AF
:101AF0001092800082E08093810010928500109205
:101B0000840086BB80936F00E88185E0E89FF00148
:101B10001124EF59F84F8081806480838881DF91A0
:101B2000CF911F9108951F920F920FB60F9211241B
:101B30000BB60F922F933F934F935F936F937F93C7
:101B40008F939F93AF93BF93EF93FF938091C303C2
:101B500087FF05C0109285001092840016C0209166
:101B6000C303022E000C330B80919D0790E02817D1
:101B700039075CF43091C30325E03203F0011124EE
:101B8000EF59F84F808186FD15C08091C3038F5FA8
:101B90008093C3032091C303022E000C330B80916A
:101BA0009D0790E02817390794F48091C3038C3087
:101BB0002CF10DC03091C3033203F0011124EF5911
:101BC000F84F808160E08F730E94B406DECF809171
:101BD00084009091850084349C4918F480E49CE949
:101BE00005C08091840090918500049690938900AF
:101BF000809388008FEF8093C3032AC040918400B4
:101C0000509185003091C30325E03203F001112487
:101C1000EF59F84F81819281840F951F909389002D
:101C2000809388003091C3033203F0011124EF59EF
:101C3000F84F808186FF0CC03091C3033203F0015E
:101C40001124EF59F84F808161E08F730E94B40630
:101C5000FF91EF91BF91AF919F918F917F916F9184
:101C60005F914F913F912F910F900BBE0F900FBE40
:101C70000F901F9018958EBD00000DB407FEFDCF8C
:101C80008EB5089560E08AE20E94B40660E089E2C1
:101C90000E94B40660E08BE20E94B40660E088E235
:101CA0000C94B40660E08AE20E94B40660E089E227
:101CB0000E94B40661E08BE20E94B40661E088E213
:101CC0000C94B40661E08AE20E94B40661E089E205
:101CD0000E94B40660E08BE20E94B40660E088E2F5
:101CE0000C94B4066091E60770E08EEE97E00E94D7
:101CF000380D64E670E080E090E00E941F0780915C
:101D00000102909102028D37910564F4019690933F
:101D10000202809301020E94540364E170E080E0BB
:101D200090E0EBCF64E170E080E090E00C941F075E
:101D3000CF92DF92EF92FF92CF93DF93EC016A0193
:101D40007B01E889F98982E080834115514E610564
:101D50007105B1F060E079E08DE390E0A7019601B4
:101D60000E94591ADA01C9010197A109B109B69572
:101D7000A795979587959C01211580E13807A8F0D4
:101D8000E889F989108260E874E88EE190E0A701A3
:101D900096010E94591ADA01C9010197A109B109F6
:101DA000B695A795979587959C01EC85FD85308321
:101DB000EE85FF852083188EEC89FD8986E080837F
:101DC000EA89FB89808180618083EA89FB8980813F
:101DD00088608083EA89FB89808180688083EA89C2
:101DE000FB8980818F7D8083DF91CF91FF90EF9081
:101DF000DF90CF900895CF93DF93823028F09091B9
:101E0000AD0798609093AD078093B1071092B20729
:101E100080E48093B30780E18093B40780E58093EA
:101E2000B50761E08091A2070E94E3068091A307B5
:101E30008F3F19F061E00E94E30661E08091A40702
:101E40000E94E306CEE9D7E09E012E5937408091EB
:101E5000AD0784FD03C084E090E002C088E090E01C
:101E60002196281739072CF461E08E810E94E30641
:101E7000EBCF8BE39DE00197F1F760E08091A20743
:101E80000E94B40660E08091A4070E94B40680918D
:101E9000A3078F3F19F060E00E94B4066091AD0780
:101EA00064FD20C063E08EE997E00E94DA0ACBE48B
:101EB000D6E4CE010197F1F763E08EE997E00E9446
:101EC000DA0A2197F1F763E08EE997E00E94DA0AD7
:101ED00083E592E00197F1F762E08EE997E00E94D6
:101EE000DA0A1EC0606240E08EE997E00E94070BAC
:101EF0008BE496E40197F1F76091AD07606240E0F2
:101F00008EE997E00E94070B83E592E00197F1F7D5
:101F10006091AD07606240E08EE997E00E94070B98
:101F20006091AD07606240E08EE997E00E94070B88
:101F300084E08093AE0740E06CE08EE997E00E9479
:101F4000070B40E061E08EE997E00E94070B8BE30E
:101F50009FE10197F1F782E08093AF0740E066E0F0
:101F60008EE997E0DF91CF910C94070B009769F011
:101F7000FC0101900020E9F73197AF01481B590B94
:101F8000BC0182EF95E00C94590780E090E0089541
:101F9000CF93DF930E94B60FEC018FE792E00E948F
:101FA000B60F8C0F9D1FDF91CF91089530910E04D5
:101FB000313208F04BC08091EA038111FCCF90913F
:101FC0000D0422E02093EA0321E02093E9032FEFA0
:101FD0002093E8031092E7033093E603EDEEF3E07D
:101FE000A6ECB3E020E0321721F041914D932F5F32
:101FF000FACF1092C5032091C503990F922B9093AD
:10200000C5039091C403913061F41092C403909180
:10201000C5039093BB009091BC0093FDF8CF95EC65
:1020200001C095EE9093BC009091EA039230E1F3E9
:102030009091E8039F3F79F08091E803803241F06E
:102040008091E803803331F084E005C081E003C073
:1020500082E001C083E01092EC0310920E04109213
:10206000EB0308953FB7F8948091BB089091BC08AA
:10207000A091BD08B091BE0826B5A89B05C02F3F12
:1020800019F00196A11DB11D3FBFBA2FA92F982F9E
:102090008827820F911DA11DB11DBC01CD0142E019
:1020A000660F771F881F991F4A95D1F708951F92D1
:1020B0000F920FB60F9211242F933F938F939F93FC
:1020C000AF93BF938091B6089091B708A091B808DC
:1020D000B091B9083091BA0823E0230F2D3720F4CE
:1020E0000196A11DB11D05C026E8230F0296A11D72
:1020F000B11D2093BA088093B6089093B708A093B7
:10210000B808B093B9088091BB089091BC08A09121
:10211000BD08B091BE080196A11DB11D8093BB08FA
:102120009093BC08A093BD08B093BE08BF91AF9137
:102130009F918F913F912F910F900FBE0F901F9005
:102140001895789484B5826084BD84B5816084BD1F
:1021500085B5826085BD85B5816085BD80916E0045
:10216000816080936E001092810080918100826076
:1021700080938100809181008160809381008091B3
:1021800080008160809380008091B10084608093A2
:10219000B1008091B00081608093B0008091910087
:1021A0008260809391008091910081608093910082
:1021B000809190008160809390008091A100826066
:1021C0008093A1008091A10081608093A100809103
:1021D000A00081608093A0008091210182608093A3
:1021E0002101809121018160809321018091200152
:1021F00081608093200180917A00846080937A00CE
:1022000080917A00826080937A0080917A00816068
:1022100080937A0080917A00806880937A0010928F
:10222000C10040E855E260E070E082EF95E00E9476
:10223000980E61E08091BE070E94E30660E0809105
:10224000BE070E94B40660E08091BD070E94E306CD
:102250008FE094E09093C8078093C70710925903CA
:10226000109258031092EC0310920E041092EA039D
:1022700081E08093E9031092C40361E084E10E944D
:10228000B40661E085E10E94B4068091B9008E7FBA
:102290008093B9008091B9008D7F8093B90088E464
:1022A0008093B80085E48093BC008CEF91E090931C
:1022B0005B0380935A038DEF91E090935D038093CD
:1022C0005C0380E090E1A0E0B0E08093CA079093C7
:1022D000CB07A093CC07B093CD078AE090E0A0E0B5
:1022E000B0E08093CE079093CF07A093D007B09330
:1022F000D10780E090E0A0E0B0E48093D207909313
:10230000D307A093D407B093D50760E070E185E0D0
:102310000E941D036FE979E380E00E941D03CDEB6D
:10232000D7E08E0192E0992E2CE8A22E22E0B22E68
:1023300032ED632E32E0732E4BECE42E47E0F42EA8
:102340005BE8C52EDD24D394D80114969C91149794
:1023500012968C91898F9A8F61E00E94E30661E06A
:102360008A8D0E94E306F801908586818D8F9E8F6D
:1023700061E00E94E30660E08E8D0E94E30661E06A
:102380008D8D0E94B4065FB6F8948091FF02811192
:1023900026C0F5018491F3012491E82FF0E0EE0FBF
:1023A000FF1FE75FFD4FA591B4919C91822F892378
:1023B00021F461E085E30E94B40661E085E30E94B8
:1023C000E3068CB580618CBD8CB580648CBD61E00A
:1023D00084E30E94E30661E083E30E94E3068091C8
:1023E000FF028F5F8093FF025FBEC7010197F1F785
:1023F00060E08D8D0E94B40688E80E943B0E83E069
:102400000E943B0E61E08D8D0E94B406C7010197CA
:10241000F1F760E08D8D0E94B40688E90E943B0EC2
:1024200080E00E943B0E80E00E943B0E80E00E9414
:102430003B0E80E00E943B0E61E08D8D0E94B40651
:10244000C6010197F1F760E08D8D0E94B40680EE21
:102450000E943B0E61E08D8D0E94B4069A940F5F3E
:102460001F4F2296911070CFC2EED7E006EE17E014
:1024700060E089910E94E306F7E0C63EDF07C1F7FE
:10248000CEEDD7E078018FEFE81AF80AD8016C9109
:1024900070E0C80108960E94380DF701958183818C
:1024A0008A8B9B8B60E00E94E30661E08B890E942F
:1024B000E30660E08B890E94B40622968701F7E06C
:1024C000083E1F07F9F6F8941092200189E08093E6
:1024D000210180E293E090932901809328011092DA
:1024E00025011092240182E08093730078948093F8
:1024F0008F06109293068091900660E00E94E3069A
:1025000040E855E260E070E082EF95E00E94980EAE
:1025100040E051EE60E070E085E595E00E94980EA5
:1025200089E190E0A0E0B0E08093590590935A05CE
:10253000A0935B05B0935C0560E080E40E94E30635
:1025400060E08FE30E94E30660E08CE30E94E30614
:1025500060E08DE30E94E30660E08EE30E94E30604
:1025600062E080E30E94E30660E082E00E94E3060E
:1025700060E083E00E94E30660E084E00E94E306FE
:1025800060E085E00E94E30660E08BE00E94E306E5
:1025900060E08CE00E94E30660E08DE20E94E306CA
:1025A00061E088E20E94E30661E08AE20E94E306BD
:1025B00061E088E20E94E30661E08BE20E94E306AC
:1025C00082E00E94FB0E60E08CE20E94E30668E875
:1025D00073E180E090E00E941F0719E6212E1AE0C7
:1025E000312E08EB402E0BE0502E612C712C0E94F6
:1025F0002804843691050CF0BCC1C0E0D0E00E94F4
:1026000028048C012196CE010E94F803043611059E
:102610000CF0AFC1C93CD10591F7B8E2CB2EC8E0B0
:10262000EC2EC2E0FC2ED3E8AD2ED2E0BD2E09EC9C
:1026300012E0809100028C3221F08F3F09F08DC1B1
:1026400003C0F701C491DCC08CE280930002F70163
:1026500084918F3F09F481C1823009F469C038F553
:10266000882309F44DC0813009F0C9C01092800060
:102670001092810080918100886080938100809118
:102680008100816080938100F5018491E82FF0E062
:10269000EE0FFF1FED5DFD4F85919491F801849140
:1026A0008093030361E08CE20E94E306D1C0843092
:1026B00009F484C008F461C0853009F0A0C010920C
:1026C00020011092210180912101886080932101D5
:1026D00080912101816080932101F5018491E82F8F
:1026E000F0E0EE0FFF1FED5DFD4F85919491F80135
:1026F00084918093000361E08CE20E94E306D4C0E1
:1027000014BC15BC84B5826084BD85B5816085BD6F
:10271000F5018491E82FF0E0EE0FFF1FED5DFD4F16
:1027200085919491F801849180930403C0E06AC07C
:102730001092B0001092B1008091B000826080933E
:10274000B0008091B10081608093B100F501849167
:10275000E82FF0E0EE0FFF1FED5DFD4F85919491A6
:102760009093FA028093F902F80184918093F80221
:1027700061E08CE20E94E30661C01092900010922A
:1027800091008091910088608093910080919100E8
:10279000816080939100F5018491E82FF0E0EE0FC5
:1027A000FF1FED5DFD4F85919491F8018491809319
:1027B000020361E08CE20E94E30664C01092A00074
:1027C0001092A1008091A10088608093A100809167
:1027D000A10081608093A100F5018491E82FF0E0D1
:1027E000EE0FFF1FED5DFD4F85919491F8018491EF
:1027F0008093010361E08CE20E94E3064CC0C82F85
:10280000C7FDABC061E08CE20E94E306CC2319F067
:10281000C230A1F01BC085B5887F836085BDC7BC71
:10282000409215035092160360921703709218039A
:1028300080916E00826080936E008FC08091B100A5
:10284000887F83608093B10082E542C0C130C1F4CB
:1028500080918100887F816080938100309289001F
:102860002092880040921103509212036092130349
:102870007092140380916F00826080936F006DC02E
:10288000C33039F480919100887F816080939100FA
:102890002FC0C43039F48091A100887F816080937B
:1028A000A10038C0C53039F480912101887F816052
:1028B0008093210141C0C330D9F02CF4C23009F01B
:1028C0004CC089E605C0C43029F1C530A9F145C026
:1028D0008093B3004092FB025092FC026092FD0292
:1028E0007092FE028091700082608093700035C00B
:1028F000309299002092980040920D0350920E035E
:1029000060920F0370921003809171008260809337
:10291000710023C03092A9002092A80040920903C0
:1029200050920A0360920B0370920C038091720024
:1029300082608093720011C0309229012092280198
:1029400040920503509206036092070370920803B9
:102950008091730082608093730068EE73E080E082
:1029600090E00E941F070E942804843691050CF411
:1029700060CE8CE20E94E608C9E1D3E08E012FB759
:10298000F8948091B6089091B708A091B808B091DA
:10299000B9082FBF80935D0590935E05A0935F05F6
:1029A000B093600585E595E00E94920797FFD3C13B
:1029B0002FB7F8948091B6089091B708A091B80805
:1029C000B091B9082FBF40915D0550915E056091AF
:1029D0005F0570916005841B950BA60BB70B4091AA
:1029E000590550915A0560915B0570915C058417FB
:1029F0009507A607B707B0F28881833279F0219650
:102A000089E593E08C179D07B9F76AE070E080E0F4
:102A100090E00E941F070E947C08E9CD87E792E0C2
:102A20000E94C80F88810E94F30389810E94F303EA
:102A30008A810E94F3038B810E94F3038C810E94A0
:102A4000F3038D810E94F3038FE792E00E94B60F9B
:102A50008E01812C912C8DE20E948B06892B11F026
:102A60000E94720ED8018C91843409F478C024F449
:102A7000823409F4F3C063C1873421F0883409F447
:102A8000DCC05DC1F80121812B3259F081E090E07A
:102A90002D3211F080E090E0EE24FF24E81AF90ACC
:102AA00003C0EE24E394F12C81EB92E00E94C80F66
:102AB00082E892E00E94B60FC7010E94F803D80195
:102AC00012968C911297803309F039C11496EC91CB
:102AD000E153E93058F4B4E0EB9FF0011124E15FD9
:102AE000FD4FA080B180C280D38003C0A12CB12C47
:102AF000650181EB92E00E94C80F8FE892E00E948E
:102B0000B60F42E0C601B5010E94400420E030E06B
:102B1000A901C601B5010E940B19811102C00E94D2
:102B2000420EE1E0EE16F10429F40E94620EB601B5
:102B3000A50112C0EF20E09409F001C10E94520EDD
:102B4000A6019501C601B5010E949E1AA601950134
:102B50000E949E1AAB01BC0186ED97E058C0D801D7
:102B600011962C912B3259F081E090E02D3211F02A
:102B700080E090E0AA24BB24A81AB90A03C0AA24C2
:102B8000A394B12C81EB92E00E94C80F82E892E0FE
:102B90000E94B60FC5010E94F803F80182818033BC
:102BA00009F0CDC0E481E153E93058F484E0E89FB6
:102BB000F0011124E15FFD4FC080D180E280F380FD
:102BC00003C0C12CD12C760181EB92E00E94C80F8A
:102BD00081EA92E00E94B60F42E0C701B6010E946E
:102BE000400420E030E0A901C701B6010E940B19A2
:102BF000811102C00E94420E91E0A916B10451F465
:102C00000E94620EB701A601705888ED97E00E94FD
:102C10001E0C95C0AB20A09409F091C00E94520EEA
:102C2000A7019601C701B6010E949E1AA70196014D
:102C30000E949E1AAB01BC01E7CF81EB92E00E949B
:102C4000C80F83EB92E00E94B60F8DE20E948B06C4
:102C5000892B09F074C00E94720E71C081EB92E062
:102C60000E94C80F80EC92E00E94B60F8DE20E9495
:102C70008B06892B09F063C0EDE7F0E0F0930202C8
:102C8000E09301026091E60770E08EEE97E00E940B
:102C9000380D8DE70E94540364E670E080E090E018
:102CA0000E941F07EE24E394F12CF1E0EF16F104EB
:102CB000D9F5809101020E94540364E170E080E044
:102CC00090E00E941F0780E30E948B06892B99F4F5
:102CD000E091EE0785E08E9FF0011124EF59F84F47
:102CE00080818F7B808380910102909102020E94FB
:102CF000F803E12CF12C80910102909102020197DE
:102D000090930202809301024B9779F6E091EE07CF
:102D100095E09E9FF0011124EF59F84F80818F7B41
:102D20008083E12CF12CC1CFE091EE07A5E0AE9FAE
:102D3000F0011124EF59F84F80818F7B8083F801D7
:102D400011928F01FFEF8F1A9F0A80E48816910479
:102D500009F081CE54CED8018D938D01E9E5F3E0E1
:102D6000EA17FB0709F00BCE47CE8091B60790918A
:102D7000B7070C94551C109212041092110488EE9F
:102D800093E0A0E0B0E08093130490931404A09328
:102D90001504B09316042FE332E03093100420930F
:102DA0000F0410921E0410921D0480931F04909330
:102DB0002004A0932104B093220421E532E0309353
:102DC0001C0420931B0445E351E0509328044093D6
:102DD000270444E351E050932A044093290440E33C
:102DE00051E050932C0440932B0441E351E0509365
:102DF0002E0440932D0442E351E05093300440935D
:102E00002F0446E351E05093320440933104109272
:102E10003404109235041092360410923704109244
:102E2000BB041092BA048093BC049093BD04A09399
:102E3000BE04B093BF043093B9042093B80445EDA9
:102E400050E05093C5044093C40444ED50E05093C7
:102E5000C7044093C60440ED50E05093C90440932A
:102E6000C80441ED50E05093CB044093CA0442EDB6
:102E700050E05093CD044093CC0446ED50E0509385
:102E8000CF044093CE041092D1041092D204109239
:102E9000D3041092D40410925805109257058093D1
:102EA000590590935A05A0935B05B0935C05309348
:102EB0005605209355054DEC50E050936205409324
:102EC00061054CEC50E0509364054093630548EC79
:102ED00050E0509366054093650549EC50E05093EF
:102EE0006805409367054AEC50E050936A054093AB
:102EF00069054EEC50E050936C0540936B051092C1
:102F00006E0510926F051092700510927105109267
:102F1000F5051092F4058093F6059093F705A093BC
:102F2000F805B093F9053093F3052093F20585EC8D
:102F300090E09093FF058093FE0584EC90E09093E1
:102F400001068093000680EC90E090930306809346
:102F5000020681EC90E0909305068093040682ECD3
:102F600090E0909307068093060686EC90E090939D
:102F700009068093080610920B0610920C06109218
:102F80000D0610920E068091330290913402A091AA
:102F90003502B09136028093DE079093DF07A0934D
:102FA000E007B093E1078091370290913802A09139
:102FB0003902B0913A028093E2079093E307A0931D
:102FC000E407B093E50784E08093E60787E0809309
:102FD000E7071092E80784EB8093E90786E1809386
:102FE000EA0788E18093EB0787E18093EC0789E1AA
:102FF0008093ED07E0919D07EC3020F08FEF8093F8
:10300000EE0710C081E08E0F80939D07E093EE07DE
:1030100025E0E29FF0011124EF59F84F88EB9BE087
:1030200092838183E0919D07EC3020F08FEF8093B5
:10303000EF0710C081E08E0F80939D07E093EF07AC
:1030400085E0E89FF0011124EF59F84F88EB9BE0F1
:10305000928381838CE08093BD0784E28093BE07D6
:1030600086E08093BF0785E08093C0078FE180935F
:10307000C1078EE18093C20783E28093C30782E297
:103080008093C40785E48093C50784E48093C607D2
:1030900080E48093C9071092CE071092CF07109258
:1030A000D0071092D1071092D2071092D307109236
:1030B000D4071092D507E8EFF7E08FEF9FEFDC0120
:1030C000128213821482158216821782108611864C
:1030D00083879487A587B6878787908BA18BB28BD0
:1030E000128611821082739628E0E63BF20741F7C0
:1030F0008DE090E00E94BD1BFC01138212828FE6DE
:1031000092E091838083118687E2848384E18287C1
:1031100084E083871486F093F507E093F407109218
:10312000F6071092F70785E28093900610929206B8
:103130001092B7071092B6071092B9071092B8070D
:103140001092BB071092BA0761E070E080E090E057
:103150000E94DE1C009791F09093B7078093B6070A
:103160001092B9071092B8072091BA073091BB07A7
:10317000232B09F043C0FC01108240C08091B607A8
:103180009091B707009711F00E94551C1092B70755
:103190001092B6071092BB071092BA071092B907A7
:1031A0001092B8071092A1071092A00783E692E050
:1031B00090939F0780939E078CE08093A2078FEFE8
:1031C0008093A3078BE08093A40785E08093A507F5
:1031D00084E08093A60783E08093A70782E0809332
:1031E000A8071092A9071092AA071092AB07109295
:1031F000AC071092AD0781E00C94FB0E1092BB0758
:103200001092BA0761E872E08091B6079091B70713
:103210000E94D11DC7CF0E944D1908F481E0089586
:10322000E89409C097FB3EF4909580957095619560
:103230007F4F8F4F9F4F9923A9F0F92F96E9BB2716
:103240009395F695879577956795B795F111F8CF92
:10325000FAF4BB0F11F460FF1BC06F5F7F4F8F4FFD
:103260009F4F16C0882311F096E911C0772321F0F3
:103270009EE8872F762F05C0662371F096E8862F8B
:1032800070E060E02AF09A95660F771F881FDAF7E2
:10329000880F9695879597F90895990F0008550F0F
:1032A000AA0BE0E8FEEF16161706E807F907C0F0CC
:1032B00012161306E407F50798F0621B730B840BD4
:1032C000950B39F40A2661F0232B242B252B21F4AE
:1032D00008950A2609F4A140A6958FEF811D811D4E
:1032E00008950E9484190C94F5190E94E71938F08A
:1032F0000E94EE1920F0952311F00C94DE190C9425
:10330000E41911240C94291A0E94061A70F3959F4F
:10331000C1F3950F50E0551F629FF001729FBB27CC
:10332000F00DB11D639FAA27F00DB11DAA1F649F68
:103330006627B00DA11D661F829F2227B00DA11D1B
:10334000621F739FB00DA11D621F839FA00D611DA1
:10335000221F749F3327A00D611D231F849F600DC2
:10336000211D822F762F6A2F11249F5750409AF0EB
:10337000F1F088234AF0EE0FFF1FBB1F661F771F77
:10338000881F91505040A9F79E3F510580F00C9442
:10339000DE190C94291A5F3FE4F3983ED4F3869526
:1033A00077956795B795F795E7959F5FC1F7FE2BE2
:1033B000880F911D9695879597F9089597F99F67BE
:1033C00080E870E060E008959FEF80EC08950024AD
:1033D0000A941616170618060906089500240A947A
:1033E00012161306140605060895092E0394000C00
:1033F00011F4882352F0BB0F40F4BF2B11F460FF8F
:1034000004C06F5F7F4F8F4F9F4F089557FD9058B7
:10341000440F551F59F05F3F71F04795880F97FB98
:10342000991F61F09F3F79F0879508951216130652
:103430001406551FF2CF4695F1DF08C01616170681
:103440001806991FF1CF86957105610508940895B6
:10345000E894BB2766277727CB0197F90895052EB7
:1034600097FB1EF400940E94461A57FD07D00E9455
:10347000591A07FC03D04EF40C94461A5095409507
:10348000309521953F4F4F4F5F4F08959095809510
:10349000709561957F4F8F4F9F4F08950E947B1AC3
:1034A000A59F900DB49F900DA49F800D911D112498
:1034B0000895A1E21A2EAA1BBB1BFD010DC0AA1F75
:1034C000BB1FEE1FFF1FA217B307E407F50720F08D
:1034D000A21BB30BE40BF50B661F771F881F991F08
:1034E0001A9469F760957095809590959B01AC0151
:1034F000BD01CF010895A29FB001B39FC001A39F5A
:10350000700D811D1124911DB29F700D811D11241C
:10351000911D0895991B79E004C0991F961708F032
:10352000961B881F7A95C9F780950895EE0FFF1FA7
:10353000881F8BBF0790F691E02D19945058BB2738
:10354000AA270E94B61A0C94F5190E94E71938F0C0
:103550000E94EE1920F039F49F3F19F426F40C94E0
:10356000E4190EF4E095E7FB0C94DE19E92F0E94B4
:10357000061A58F3BA17620773078407950720F0F5
:1035800079F4A6F50C94281A0EF4E0950B2EBA2FB8
:10359000A02D0B01B90190010C01CA01A001112459
:1035A000FF27591B99F0593F50F4503E68F11A1605
:1035B000F040A22F232F342F4427585FF3CF469596
:1035C00037952795A795F0405395C9F77EF41F16B8
:1035D000BA0B620B730B840BBAF09150A1F0FF0F82
:1035E000BB1F661F771F881FC2F70EC0BA0F621F6E
:1035F000731F841F48F4879577956795B795F7955E
:103600009E3F08F0B0CF9395880F08F09927EE0FF2
:103610009795879508950E941F1B0C94F5190E9499
:10362000EE1958F00E94E71940F029F45F3F29F0A5
:103630000C94DE1951110C94291A0C94E4190E946F
:10364000061A68F39923B1F3552391F3951B550B93
:10365000BB27AA2762177307840738F09F5F5F4F65
:10366000220F331F441FAA1FA9F335D00E2E3AF0A4
:10367000E0E832D091505040E695001CCAF72BD0BC
:10368000FE2F29D0660F771F881FBB1F261737070D
:103690004807AB07B0E809F0BB0B802DBF01FF273F
:1036A00093585F4F3AF09E3F510578F00C94DE1925
:1036B0000C94291A5F3FE4F3983ED4F386957795EE
:1036C0006795B795F7959F5FC9F7880F911D9695F8
:1036D000879597F90895E1E0660F771F881FBB1F54
:1036E000621773078407BA0720F0621B730B840B01
:1036F000BA0BEE1F88F7E09508950E94841B68942A
:10370000B1110C94291A08950E940E1A88F09F573F
:1037100098F0B92F9927B751B0F0E1F0660F771FF5
:10372000881F991F1AF0BA95C9F714C0B13091F0EB
:103730000E94281AB1E008950C94281A672F782F58
:103740008827B85F39F0B93FCCF3869577956795B0
:10375000B395D9F73EF490958095709561957F4F1C
:103760008F4F9F4F08950E944D1908F48FEF0895D1
:103770000E944D19880B990B08950F931F93CF93B7
:10378000DF938230910510F482E090E0E091C1086F
:10379000F091C20820E030E0A0E0B0E0309719F1ED
:1037A000408151810281138148175907C8F084175D
:1037B000950769F4109731F012960C9312971396AF
:1037C0001C9327C00093C1081093C20822C0211582
:1037D000310519F04217530718F49A01BD01EF01A2
:1037E000DF01F801DBCF21153105F9F0281B390B7A
:1037F0002430310580F48A819B816115710521F0A7
:10380000FB019383828304C09093C2088093C10814
:10381000FE01329644C0FE01E20FF31F81939193A3
:1038200022503109398328833AC02091BF08309152
:10383000C008232B41F420910502309106023093F9
:10384000C0082093BF082091030230910402211583
:10385000310541F42DB73EB740910702509108025F
:10386000241B350BE091BF08F091C008E217F30765
:10387000A0F42E1B3F0B2817390778F0AC014E5FE0
:103880005F4F2417350748F04E0F5F1F5093C00855
:103890004093BF088193919302C0E0E0F0E0CF0134
:1038A000DF91CF911F910F910895CF93DF930097F0
:1038B00009F481C0FC01329713821282A091C108E1
:1038C000B091C208109781F420813181820F931F3B
:1038D0002091BF083091C0082817390751F5F0939F
:1038E000C008E093BF0867C0ED0120E030E0CE17CC
:1038F000DF0740F44A815B819E0141155105F1F0DB
:10390000EA01F5CFD383C28340815181840F951F93
:10391000C817D90759F488819981840F951F029699
:10392000918380838A819B819383828321153105D2
:1039300029F4F093C208E093C1083DC0E901FB837C
:10394000EA8349915991C40FD51FEC17FD0761F423
:1039500080819181840F951F0296E9019983888364
:10396000828193819B838A83E0E0F0E012968D91BF
:103970009C911397009719F0FD01DC01F7CF8D9111
:103980009C9111979D012E5F3F4F820F931F2091B5
:10399000BF083091C0082817390769F4309729F417
:1039A0001092C2081092C10802C013821282B09312
:1039B000C008A093BF08DF91CF9108956F927F92C6
:1039C0008F929F92AF92BF92CF92DF92EF92FF922F
:1039D0000F931F93CF93DF93009789F4CB01DF916F
:1039E000CF911F910F91FF90EF90DF90CF90BF90FC
:1039F000AF909F908F907F906F900C94BD1BFC01B7
:103A0000E60FF71F9C0122503109E217F30708F473
:103A1000A9C0EC01D9010D911C9111970617170748
:103A2000B0F00530110508F49BC0C8010497861753
:103A3000970708F495C002501109061B170B019354
:103A400011936D937C93CF010E94551C89C05B013B
:103A5000A01AB10A4C01800E911EA091C108B0912C
:103A6000C208612C712CE12CF12C109709F446C08E
:103A70008D919C911197A815B905B1F56C0142E0A3
:103A8000C40ED11CCA14DB0478F14C018A189B08BF
:103A9000640142E0C40ED11C1296BC90129713969A
:103AA000AC91B5E0CB16D10440F0B282A3839182F1
:103AB0008082D9016D937C9309C00E5F1F4F800FE8
:103AC000911FF90191838083EB2DFA2FE114F1040A
:103AD00031F0D7011396FC93EE93129741C0F09307
:103AE000C208E093C1083CC06816790608F43C019E
:103AF0007D0112960D90BC91A02DB7CF8091BF088B
:103B00009091C00888169906E1F466167706C8F405
:103B10008091030290910402009741F48DB79EB703
:103B20004091070250910802841B950BE817F90792
:103B3000C8F4F093C008E093BF08F9017183608373
:103B40000FC0CB010E94BD1B7C01009759F0A8015A
:103B5000BE010E94C81DCE010E94551CC70104C0B1
:103B6000CE0102C080E090E0DF91CF911F910F91D4
:103B7000FF90EF90DF90CF90BF90AF909F908F908D
:103B80007F906F90089581E090E0F8940C94D81D98
:103B9000FB01DC0102C001900D9241505040D8F76A
:103BA0000895FB01DC0101900D920020E1F70895DA
:103BB00011E0C6E9D1E000E006C0802FFE010E94BE
:103BC000961A2196011DC739D10780E00807A9F789
:043BD000F894FFCF97
:103BD400FF7D000000C30880002B002A0028000A93
:103BE400D7233D0AD7A33D8FC2F53D0AD7233ECD47
:103BF400CC4C3E8FC2753E295C8F3E0AD7A33EEC67
:103C040051B83E363738391B1D1A1C0000000057C6
:103C1400022A02A608FE0122020E02FF0100000091
:103C2400000A08590783075708B4079207A6070034
:103C34000000005A0B5907A608A50800000000C19F
:103C4400085907A608A50823207265637565000D49
:103C54000A0073656E734D6F746575723A20005671
:103C6400616C657572206D6F7465757220473A20BA
:103C74000056616C657572206D6F746575722044B1
:103C84003A20004C6576657220637261796F6E002C
:103C94006261697373657220637261796F6E005338
:103CA4006572766F20616E676C65206973206F752D
:103CB40074206F662072616E676521006E616E000C
:083CC400696E66006F76660070
:00000001FF
