:100000000C94A4010C94D5010C94D5010C94D50149
:100010000C94D5010C94D5010C94D5010C94D50108
:100020000C94D5010C94D0100C94D0100C94D010DA
:100030000C94D5010C9492060C94D5010C94D50126
:100040000C94D5010C948A0A0C94D5010C94D5011A
:100050000C94D5010C94D5010C94D5010C94480650
:100060000C94D5010C9401080C94D7070C94D5017D
:100070000C94D5010C94D5010C94D5010C94D501A8
:100080000C94D5010C94D5010C94D5010C94D50198
:100090000C94D5010C94D5010C94D5010C94DA1074
:1000A0000C94D5010C94D5010C94D5010C94D50178
:1000B0000C94D5010C94D5010C94D5010C942B080B
:1000C0000C94D5010C94D5010C94D5010C94AD077A
:1000D0000C9483070C94D5010C9459070C942F07AA
:1000E0000C94D5014A094F0954095E096809E109D0
:1000F00072097A0982098C099609A009AF09B90920
:10010000E109C309CD09D709CB0ECE0EBD0EC10E34
:10011000C70E050FD20ED60EDC0EE00EE40EEA0E70
:10012000EE0EF20E050FF80EFC0E000F05A84CCDDA
:10013000B2D44EB93836A9020C50B9918688083C21
:10014000A6AAAA2ABE000000803F0C94040A0C94C0
:100150000A0A0C94B9090C94DA120C9496090C94BE
:1001600054090C94EE0E0C94F20E0C94540E0C9454
:1001700017050C948C090C944A090C944F090C94A3
:10018000270E0C94E40E0C9472090C947A090C94CA
:10019000A0090C94260E0C94E1090C94D7090C9438
:1001A0005E090C94030A0C94DE040C94D60E0C9495
:1001B000290E0C94CE0E0C94C3090C94D2050C9409
:1001C000AF090C94050F0C9468090C94CD090C949C
:1001D00039050C94EA0E0C944C0E0C94FC0E0C9405
:1001E0002B050C94C10E0C94C70E0C94E00E0C94CD
:1001F000D20E0C94280E0C94DC0E0C94F80E0C9479
:10020000BD0E0C94CB0E0C94000F0C9482090C9430
:1002100085050C94380E0C9437170C9408050C9433
:10022000810E0200002100240027002A002D00304A
:1002300000330001010000040107010A010000224F
:1002400000250028002B002E0031003400020100A0
:1002500000050108010B01000020002300260029F1
:10026000002C002F003200000100000301060109EC
:100270000105050505070508080808020202020A2B
:100280000A08080404040401010101010101010339
:1002900003030303030303040707070C0C0C0C0CF4
:1002A0000C0C0C0202020206060606060606060BE7
:1002B0000B0B0B0B0B0B0B0102102020080810205E
:1002C00040102040800201020108040201010204E2
:1002D00008102040808040201008040201800402A1
:1002E00001804020100804020108040201010204F8
:1002F0000810204080010204081020408000000AFD
:100300000B02090C0D0E0807030401000000000099
:1003100000000000000000000000000000000000DD
:10032000000000000000000000121110000000009A
:1003300000000000000000000000000000000000BD
:1003400000000000DA12371711241FBECFEFD1E2F0
:10035000DEBFCDBF00E00CBF12E0A0E0B2E0E2EAF9
:10036000F9E300E00BBF02C007900D92A438B1077B
:10037000D9F727E0A4E8B2E001C01D92A935B20781
:10038000E1F711E0C3EAD1E000E006C021970109DE
:10039000802FFE010E94DC18C23AD10780E00807D6
:1003A000A9F70E94C2140C94BF1C0C940000009783
:1003B00069F0FC0101900020E9F73197AF01481B7B
:1003C000590BBC0185E194E00C94DE0480E090E0E0
:1003D00008953091CE02313208F04BC08091AA02CC
:1003E0008111FCCF9091CD0222E02093AA0221E05E
:1003F0002093A9022FEF2093A8021092A702309316
:10040000A602EDEAF2E0A6E8B2E020E0321721F021
:1004100041914D932F5FFACF109285022091850272
:10042000990F922B9093850290918402913061F400
:1004300010928402909185029093BB009091BC0031
:1004400093FDF8CF95EC01C095EE9093BC00909190
:10045000AA029230E1F39091A8029F3F79F0809137
:10046000A802803241F08091A802803331F084E00C
:1004700005C081E003C082E001C083E01092AC02BD
:100480001092CE021092AB0208950F931F93CF9358
:10049000DF93162F072FC8ECD5E09C8521E0209331
:1004A000AB029093CD021092AC021092CE02AA85BC
:1004B000BB85ED91FC9111970190F081E02D682FA3
:1004C000CD0119958A859B85DC01ED91FC91019008
:1004D000F081E02D602F19958A859B85DC01ED91D7
:1004E000FC910190F081E02D612F1995DF91CF9162
:1004F0001F910F910C94E901CF92DF92EF92FF923E
:10050000CF93DF939091F305891720F09091F40534
:10051000981770F481E492E00E94D7018EE592E092
:10052000DF91CF91FF90EF90DF90CF900C94D701A7
:10053000C091F905CC3008F07BC0282F30E0D0E026
:10054000283C3105E4F595E09C9FF0019D9FF00D5E
:100550001124EC57FA4F938128E830E06901C91A59
:10056000D10897FDD394CC0CDD1CCC0CDD1C0D2CDC
:10057000000CEE08FF08948128E532E0291B3109C0
:1005800097FD3395220F331F220F331FA901330F1D
:10059000660B770B9A01AB012C193D094E095F09D7
:1005A000A82FB0E00E94801824EB30E040E050E03B
:1005B0000E946118C20ED31EE41EF51E27C085E0FE
:1005C0008C9FF0018D9FF00D1124EC57FA4F838121
:1005D00048E850E06A01C81AD10887FDD394CC0CD2
:1005E000DD1CCC0CDD1C2C153D0584F0448188E518
:1005F00092E0841B910947FD9395880F991F880FFE
:10060000991F69018C159D050CF46C018FB7F89446
:1006100095E09C9FF0019D9FF00D1124EC57FA4F3F
:1006200096E0C91AD108CC0CDD1CD282C1828FBFE2
:10063000DF91CF91FF90EF90DF90CF9008958F9250
:100640009F92AF92BF920F931F93CF93DF93CDB73B
:10065000DEB7A1970FB6F894DEBF0FBECDBF19A2CB
:10066000423008F44AE08E010F5D1F4F842E912C1A
:10067000A12CB12CA50194010E948B18E62FB90181
:10068000CA0101501109EA3014F4E05D01C0E95CCF
:10069000D801EC93232B242B252B61F7C8010E9452
:1006A000D701A1960FB6F894DEBF0FBECDBFDF9184
:1006B000CF911F910F91BF90AF909F908F90089511
:1006C0008F929F92AF92BF92CF92DF92EF92FF9262
:1006D000CF93DF936B017C010E94C90B60E070E057
:1006E00080E991E40E94980C2FEB3DE441E352E451
:1006F000C701B6010E94A3176B017C0187EE95E04C
:100700000E94640B0E9444174B015C0120E030E022
:1007100040E05FE3C701B6010E94A3179B01AC0153
:10072000C501B4010E943D1718168CF040E050E05E
:1007300060E87EEB81EE95E00E94E90840E050E041
:1007400060E87EEB83EE95E00E94E908D7CF0E9437
:100750007B0CC0E0D0E085EE95E00E94640B9095A4
:100760008095709561957F4F8F4F9F4F0E944417E2
:100770002FE136E744E753EC0E94511A87FD10C180
:10078000209731F5C4E2D0E0C12CD12C76012AE0CB
:1007900037ED43E25CE3C701B6010E94F9186B0133
:1007A0007C01AB01BC01705881EE95E00E94E90824
:1007B000B701A60183EE95E00E94E90863E270E0CC
:1007C00080E090E00E94A012219709F7C1E0D0E0FC
:1007D00085EE95E00E94640B9095809570956195EB
:1007E0007F4F8F4F9F4F0E94441728E13CE04CE31E
:1007F00053E40E94511A87FD69C085EE95E00E947E
:10080000640B6B017C0187EE95E00E94640B4B0149
:100810005C0166277727CB016C197D098E099F093A
:100820000E9444176B017C01C501B4010E9444176A
:100830009B01AC01C701B6010E94F8186B017C0155
:100840004AE959E969E97EE381EE95E00E94E90809
:100850002DEC3CEC4CEC5DE3C701B6010E94A31704
:1008600020E030E0A9010E94F91820E030E0A90161
:100870000E94A3174B015C012FE832EC45EF5CE3CB
:10088000C701B6010E94A3179B01AC01C501B401C9
:100890000E94F91820E030E048EC52E40E946A1906
:1008A0002AE939E949E95EE30E94F918AB01BC0184
:1008B000705883EE95E00E94E90864E670E080E0FD
:1008C00090E00E94A012C2E0D0E045CFC130D10537
:1008D000D1F785EE95E00E94640B6B017C0187EEF9
:1008E00095E00E94640B4B015C0166277727CB01E2
:1008F0006C197D098E099F090E9444176B017C01C8
:10090000C501B4010E9444179B01AC01C701B601A7
:100910000E94F8186B017C014DEC5CEC6CEC7EEBFA
:1009200081EE95E00E94E9082DEC3CEC4CEC5DE397
:10093000C701B6010E94A31720E030E0A9010E9480
:10094000F91820E030E0A9010E94A3174B015C01D7
:100950002FE832EC45EF5CE3C701B6010E94A31714
:100960009B01AC01C501B4010E94F91820E030E000
:1009700048EC52E40E946A192DEC3CEC4CEC5EE32E
:100980000E94F818AB01BC01705883EE95E00E94FC
:10099000E90864E670E080E090E00E94A012DBCEFF
:1009A0000E947B0CDF91CF91FF90EF90DF90CF9072
:1009B000BF90AF909F908F900C94EF0BCF92DF92EF
:1009C000EF92FF920F931F93CF93DF936C017A0105
:1009D0008B01C0E0D0E0CE15DF0581F0D8016D912C
:1009E0008D01D601ED91FC910190F081E02DC601C1
:1009F0001995892B11F02196EECF7E01C701DF9169
:100A0000CF911F910F91FF90EF90DF90CF900895BD
:100A1000FC01538D448D252F30E0842F90E0821B04
:100A2000930B541710F0CF96089501970895FC0189
:100A3000918D828D981761F0828DDF01A80FB11D15
:100A40005D968C91928D9F5F9F73928F90E0089539
:100A50008FEF9FEF0895FC01918D828D981731F0F3
:100A6000828DE80FF11D858D90E008958FEF9FEF47
:100A70000895FC01918D228D892F90E0805C9F4F1D
:100A8000821B91098F73992708958BED92E00E9444
:100A9000390521E0892B09F420E0822F089588E7A9
:100AA00093E00E94390521E0892B09F420E0822F90
:100AB000089585E194E00E94390521E0892B09F42D
:100AC00020E0822F0895FC01848DDF01A80FB11D65
:100AD000A35ABF4F2C91848D90E001968F73992774
:100AE000848FA689B7892C93A089B1898C91837052
:100AF00080648C93938D848D981306C00288F3894B
:100B0000E02D80818F7D80830895EF92FF920F9377
:100B10001F93CF93DF93EC0181E0888F9B8D8C8DA9
:100B2000981305C0E889F989808185FD26C0F62ED5
:100B30000B8D10E00F5F1F4F0F731127E02E8C8D70
:100B4000E8120CC00FB607FCFACFE889F98980815A
:100B500085FFF5CFCE010E946305F1CF8B8DFE019D
:100B6000E80FF11DE35AFF4FF0829FB7F8940B8F07
:100B7000EA89FB89808180620AC09FB7F894EE8978
:100B8000FF896083E889F98980818370806480832C
:100B90009FBF81E090E0DF91CF911F910F91FF9077
:100BA000EF900895CF93DF93EC01888D8823C9F0EF
:100BB000EA89FB89808185FD05C0A889B9898C9166
:100BC00086FD0FC00FB607FCF5CF808185FFF2CF01
:100BD000A889B9898C9185FFEDCFCE010E9463056C
:100BE000E7CFDF91CF91089580E090E0892B21F04D
:100BF0000E945905811119C080E090E0892B41F0D5
:100C000080E090E0892B21F00E940000811110C04B
:100C10000E944F0581110FC080E090E0892B81F088
:100C20000E94450581110AC008950E940000E4CF8A
:100C30000E940000EDCF0E94070AEECF0C94000046
:100C400008950E94AA1C3FB7F8948091CC06909119
:100C5000CD06A091CE06B091CF0626B5A89B05C0C3
:100C60002F3F19F00196A11DB11D3FBFBA2FA92F2B
:100C7000982F8827820F911DA11DB11DBC01CD01A8
:100C800042E0660F771F881F991F4A95D1F7089594
:100C90001F920F920FB60F9211242F933F938F93B1
:100CA0009F93AF93BF938091C8069091C906A0917E
:100CB000CA06B091CB063091C70623E0230F2D372B
:100CC00020F40196A11DB11D05C026E8230F029650
:100CD000A11DB11D2093C7068093C8069093C90635
:100CE000A093CA06B093CB068091CC069091CD0616
:100CF000A091CE06B091CF060196A11DB11D8093A3
:100D0000CC069093CD06A093CE06B093CF06BF91AC
:100D1000AF919F918F913F912F910F900FBE0F90A8
:100D20001F9018951F920F920FB60F9211240BB6B9
:100D30000F922F933F934F935F936F937F938F9374
:100D40009F93AF93BF93EF93FF938091C2069091CF
:100D5000C306A091C406B091C506892B8A2B8B2BA4
:100D600049F19091C106809100008927809300008D
:100D70008091C2069091C306A091C406B091C506A9
:100D8000181619061A061B060CF056C08091C206EA
:100D90009091C306A091C406B091C5060197A10920
:100DA000B1098093C2069093C306A093C406B09382
:100DB000C50642C080910002E2E2F2E0E4919FEFBA
:100DC00090930002E230C9F050F4EE2399F0E13044
:100DD00081F590916F009D7F90936F002AC0E43061
:100DE00019F1E0F0E53029F5909173009D7F909323
:100DF00073001FC010926E001CC0909170009D7F08
:100E00009093700091E09093B0009091B100987F22
:100E100094609093B1001092B3000BC09091710058
:100E20009D7F9093710005C0909172009D7F90937B
:100E3000720060E00E943512FF91EF91BF91AF9177
:100E40009F918F917F916F915F914F913F912F91E2
:100E50000F900BBE0F900FBE0F901F9018951F9212
:100E60000F920FB60F9211240BB60F922F933F9350
:100E70004F935F936F937F938F939F93AF93BF93A2
:100E8000EF93FF938BED92E00E946305FF91EF914A
:100E9000BF91AF919F918F917F916F915F914F9192
:100EA0003F912F910F900BBE0F900FBE0F901F9090
:100EB00018951F920F920FB60F9211240BB60F9236
:100EC0002F933F934F935F936F937F938F939F9352
:100ED000AF93BF93EF93FF938BED92E00E94B71017
:100EE000FF91EF91BF91AF919F918F917F916F9102
:100EF0005F914F913F912F910F900BBE0F900FBEBE
:100F00000F901F9018951F920F920FB60F921124F9
:100F10000BB60F922F933F934F935F936F937F93F3
:100F20008F939F93AF93BF93EF93FF9388E793E0E3
:100F30000E946305FF91EF91BF91AF919F918F91B7
:100F40007F916F915F914F913F912F910F900BBEC9
:100F50000F900FBE0F901F9018951F920F920FB613
:100F60000F9211240BB60F922F933F934F935F93E1
:100F70006F937F938F939F93AF93BF93EF93FF9361
:100F800088E793E00E94B710FF91EF91BF91AF9176
:100F90009F918F917F916F915F914F913F912F9191
:100FA0000F900BBE0F900FBE0F901F9018951F92C1
:100FB0000F920FB60F9211240BB60F922F933F93FF
:100FC0004F935F936F937F938F939F93AF93BF9351
:100FD000EF93FF9385E194E00E946305FF91EF9109
:100FE000BF91AF919F918F917F916F915F914F9141
:100FF0003F912F910F900BBE0F900FBE0F901F903F
:1010000018951F920F920FB60F9211240BB60F92E4
:101010002F933F934F935F936F937F938F939F9300
:10102000AF93BF93EF93FF9385E194E00E94B710D5
:10103000FF91EF91BF91AF919F918F917F916F91B0
:101040005F914F913F912F910F900BBE0F900FBE6C
:101050000F901F9018951F920F920FB60F921124A8
:101060000BB60F922F933F934F935F936F937F93A2
:101070008F939F93AF93BF93EF93FF938091B304AC
:101080000E940C122091B7043091B8042F5F3F4F9B
:101090003093B8042093B7049091B604953618F0B5
:1010A00096E09093B2049091B2049430C9F128F480
:1010B000923069F09330D1F05EC0953009F451C0A0
:1010C000963009F058C091E09093830551C081118A
:1010D00052C02091B7043091B8042436310508F489
:1010E00042C0109283051092B6041CC0813009F0F2
:1010F00042C0E091B60491E09E0F9093B604F0E0F8
:101100002091B7043091B804EE0FFF1FEE54FB4F4F
:10111000308727831092B8041092B70494E029C056
:10112000811117C0E091B60491E09E0F9093B60430
:10113000F0E02091B7043091B804EE0FFF1FEE5499
:10114000FB4F308727831092B8041092B70493E0C6
:1011500010C02091B7043091B8042536310558F0FD
:1011600007C0811108C01092B8041092B70403C0E0
:1011700095E09093B2049091B5049923B9F0811150
:101180000AC08091B404882321F08091B40461E006
:1011900009C02F9A0BC08091B404882331F080914C
:1011A000B40460E00E94351201C02F98FF91EF91C6
:1011B000BF91AF919F918F917F916F915F914F916F
:1011C0003F912F910F900BBE0F900FBE0F901F906D
:1011D00018958F929F92AF92BF92CF92DF92EF922B
:1011E000FF920F931F93CF93DF938C016A017B01D2
:1011F00020E030E04FE753E4C701B6010E94A31797
:101200004B015C0120E030E0A9010E94511A181640
:101210001CF4C501B40103C0C501B40190580E947B
:10122000DC19EB0120E030E0A901C701B6010E9402
:10123000511A181614F460E001C061E0F8018181D0
:101240000E943512CF3FD10509F014F4DD2702C00A
:10125000CFEFD0E0F801108161E0812F0E9464128D
:10126000209709F4B1C0CF3FD10509F4AFC0E12FF9
:10127000F0E0E350FD4FE4918E2F90E0FC013197B8
:10128000E231F10508F09DC08827EE58FF4F8F4FDF
:101290000C94DC1884B5806884BDC7BDA7C084B534
:1012A000806284BDC8BDA2C08091800080688093A8
:1012B0008000D0938900C093880098C080918000FE
:1012C000806280938000D0938B00C0938A008EC090
:1012D00080918000886080938000D0938D00C093BF
:1012E0008C0084C08091B00080688093B000C0936F
:1012F000B3007CC08091B00080628093B000C09346
:10130000B40074C080919000806880939000D09366
:101310009900C09398006AC0809190008062809389
:101320009000D0939B00C0939A0060C08091900081
:10133000886080939000D0939D00C0939C0056C01D
:101340008091A00080688093A0008091A0008F7B96
:101350008093A000D093A900C093A80047C08091BB
:10136000A00080628093A000D093AB00C093AA003D
:101370003DC08091A00088608093A000D093AD0014
:10138000C093AC0033C0809120018068809320011D
:10139000D0932901C093280129C080912001806247
:1013A00080932001D0932B01C0932A011FC080910C
:1013B0002001886080932001D0932D01C0932C01DF
:1013C00015C0C038D10514F460E001C061E0812F80
:1013D000DF91CF911F910F91FF90EF90DF90CF9011
:1013E000BF90AF909F908F900C943512DF91CF916A
:1013F0001F910F91FF90EF90DF90CF90BF90AF9033
:101400009F908F900895089580E090E00895E0E027
:10141000F0E019940F931F93CF93DF938C01C62FA5
:10142000D62FD07FD1606D2F0E948F106D2FC801F5
:101430000E94A21080E1C89FB0011124C62FC16094
:101440006C2FC8010E948F106C2FC8010E94A2103F
:1014500081E090E0DF91CF911F910F9108951F934C
:10146000CF93DF93EC01162F88818C3008F04DC0AC
:1014700061E0812F0E946412E88195E09E9FF00157
:101480001124EC57FA4F1F738081807C182B108336
:101490001382E8819E9FF0011124EC57FA4F1482C9
:1014A00088816CE00E94BC189CE0899FA0011124F7
:1014B00020E030E095E0BA01620F731F969FF001C3
:1014C000979FF00D1124EC57FA4F608166FD13C011
:1014D0002F5F3F4F2C30310571F781110CC01092F6
:1014E000800082E080938100109285001092840039
:1014F00086BB80936F00E88185E0E89FF0011124AE
:10150000EC57FA4F8081806480838881DF91CF918E
:101510001F9108951F920F920FB60F9211240BB6D0
:101520000F922F933F934F935F936F937F938F937C
:101530009F93AF93BF93EF93FF938091E90687FF4B
:1015400005C0109285001092840016C02091E90613
:10155000022E000C330B8091C00590E0281739074C
:101560005CF43091E90625E03203F0011124EC57D8
:10157000FA4F808186FD15C08091E9068F5F8093C8
:10158000E9062091E906022E000C330B8091C0057C
:1015900090E02817390794F48091E9068C302CF1FB
:1015A0000DC03091E9063203F0011124EC57FA4FD7
:1015B000808160E08F730E943512DECF80918400BD
:1015C0009091850084349C4918F480E49CE905C01E
:1015D0008091840090918500049690938900809377
:1015E00088008FEF8093E9062AC0409184005091D3
:1015F00085003091E90625E03203F0011124EC5713
:10160000FA4F81819281840F951F90938900809376
:1016100088003091E9063203F0011124EC57FA4FAB
:10162000808186FF0CC03091E9063203F00111245D
:10163000EC57FA4F808161E08F730E943512FF9161
:10164000EF91BF91AF919F918F917F916F915F913A
:101650004F913F912F910F900BBE0F900FBE0F90A7
:101660001F9018958EBD00000DB407FEFDCF8EB5FE
:101670000895CF93DF93EC0160E088810E943512DA
:1016800088E90E94320B80E00E94320B80E00E94C9
:10169000320B80E00E94320B80E00E94320B61E04E
:1016A00088810E9435128BE891E00197F1F760E0A4
:1016B00088810E94351280EE0E94320B61E08881A1
:1016C000DF91CF910C943512AF92BF92CF92DF92FF
:1016D000EF92FF920F931F93CF93DF93CDB7DEB7B7
:1016E00060970FB6F894DEBF0FBECDBF5C0160E01F
:1016F000FC0180810E94351280E60E94320B8E012F
:101700000F5F1F4F7E01F1E1EF0EF11C680180E0D9
:101710000E94320B90E0A0E0B0E0F601819391933B
:10172000A193B1936F01EE15FF0589F761E0F50113
:1017300080810E94351280E090E0DC01F801419147
:101740005191619171918F01BA2FA92F982F8827FC
:10175000840F951FA61FB71FEE15FF0579F79C0193
:10176000AD0166277727CB01621B730B840B950BAA
:1017700060960FB6F894DEBF0FBECDBFDF91CF915C
:101780001F910F91FF90EF90DF90CF90BF90AF909F
:1017900008956091F10570E089EF95E00E942F0AAD
:1017A00064E670E080E090E00E94A0128091010267
:1017B000909102028D37910564F401969093020294
:1017C000809301020E947C0264E170E080E090E07E
:1017D000EBCF64E170E080E090E00C94A012CF9237
:1017E000DF92EF92FF920F931F93CF938DE790E0DC
:1017F00090930202809301026091F10570E089EFFD
:1018000095E00E942F0A8DE70E947C0264E670E05A
:1018100080E090E00E94A01201E010E0C5E00130FD
:10182000110509F055C0809101020E947C0264E11B
:1018300070E080E090E00E94A01280E30E940C1211
:10184000892B69F5E091F905CE9FF0011124EC5741
:10185000FA4F80818F7B8083C0900102D09002027A
:101860000D2C000CEE08FF08F7FE0EC06DE285E1BE
:1018700094E00E94850566277727CB016C197D09C6
:101880008E099F094AE003C04AE0C701B6010E94E1
:101890001F038EE592E00E94D70100E010E08091E6
:1018A000010290910202019790930202809301023B
:1018B0004A9709F0B4CFE091F905CE9FF0011124C9
:1018C000EC57FA4F80818F7B808300E010E0A7CF38
:1018D000E091F90585E0E89FF0011124EC57FA4FFB
:1018E00080818F7B8083CF911F910F91FF90EF902C
:1018F000DF90CF90089540E050E0BA0181EE95E08E
:101900000E94E90840E050E060E070E883EE95E076
:101910000E94E90885EE95E00E94390B87EE95E07C
:101920000E94390B66E970E080E090E00C94A01210
:101930004F925F926F927F928F929F92AF92BF92DF
:10194000CF92DF92EF92FF92CF93DF9328EB3EE9A5
:101950004BE653E40E946A1920E030E048E455E485
:101960000E94A3172B013C01C0E0D0E085EE95E07A
:101970000E94640B90958095709561957F4F8F4F75
:101980009F4F0E944417A30192010E943D17181611
:101990000CF41AC1209731F5C4E2D0E0C12CD12C4F
:1019A00076012AE037ED43E25CE3C701B6010E940D
:1019B000F9186B017C01AB01BC0181EE95E00E943E
:1019C000E908B701A601705883EE95E00E94E90886
:1019D00063E270E080E090E00E94A012219709F796
:1019E000C1E0D0E085EE95E00E94640B9095809573
:1019F000709561957F4F8F4F9F4F0E9444176B01E9
:101A00007C0126E636E646EA5FE3C301B2010E94A6
:101A10006A199B01AC01C701B6010E94511A87FDEA
:101A200069C085EE95E00E94640B6B017C0187EE36
:101A300095E00E94640B4B015C0166277727CB0180
:101A40006C197D098E099F090E9444176B017C0166
:101A5000C501B4010E9444179B01AC01C701B60146
:101A60000E94F8186B017C014AE959E969E97EE3B3
:101A700081EE95E00E94E9082DEC3CEC4CEC5DE336
:101A8000C701B6010E94A31720E030E0A9010E941F
:101A9000F91820E030E0A9010E94A3174B015C0176
:101AA0002FE832EC45EF5CE3C701B6010E94A317B3
:101AB0009B01AC01C501B4010E94F91820E030E09F
:101AC00048EC52E40E946A192AE939E949E95EE3DF
:101AD0000E94F918AB01BC01705883EE95E00E949A
:101AE000E90864E670E080E090E00E94A012C2E0A5
:101AF000D0E03CCFC130D105D1F785EE95E00E9412
:101B0000640B6B017C0187EE95E00E94640B4B0136
:101B10005C0166277727CB016C197D098E099F0927
:101B20000E9444176B017C01C501B4010E94441757
:101B30009B01AC01C701B6010E94F8186B017C0142
:101B40004DEC5CEC6CEC7EE381EE95E00E94E908E4
:101B50002DEC3CEC4CEC5DE3C701B6010E94A317F1
:101B600020E030E0A9010E94F91820E030E0A9014E
:101B70000E94A3174B015C012FE832EC45EF5CE3B8
:101B8000C701B6010E94A3179B01AC01C501B401B6
:101B90000E94F91820E030E048EC52E40E946A19F3
:101BA0002DEC3CEC4CEC5EE30E94F918AB01BC015F
:101BB000705883EE95E00E94E90864E670E080E0EA
:101BC00090E00E94A012D2CEDF91CF91FF90EF90D3
:101BD000DF90CF90BF90AF909F908F907F906F904D
:101BE0005F904F900C947B0C85ED8093BC008091AE
:101BF000BC0084FDFCCF1092AA02089540913007EA
:101C0000262F30E0240F311D21323105DCF42091E4
:101C1000AA022430C9F4FC0180E090E0861758F451
:101C2000309130072191DC01A05FB84FA30FB11DA7
:101C30002C930196F3CF80913007680F60933007A3
:101C400080E0089581E0089582E008950895089560
:101C50000895E091EB068091EA06E81730F4F0E091
:101C6000E051F94F808190E008958FEF9FEF089544
:101C70009091EB068091EA06981750F4E92FF0E076
:101C8000E051F94F208130E09F5F9093EB0602C056
:101C90002FEF3FEFC90108958091EA0690E020916F
:101CA000EB06821B91090895CF92DF92EF92FF928B
:101CB0000F931F93CF93DF937C01CB018A01209177
:101CC000AB02222389F0EB016B01C40ED51ECC15AB
:101CD000DD0569F06991D701ED91FC910190F081EA
:101CE000E02DC7011995F3CF642F0E94FE0DC801A6
:101CF000DF91CF911F910F91FF90EF90DF90CF90E8
:101D00000895CF93DF931F92CDB7DEB769832091FB
:101D1000AB022223D1F02091CE02203240F021E00C
:101D200030E0FC013383228380E090E015C0809195
:101D3000AC02E82FF0E0E355FD4F998190838F5F6F
:101D40008093AC028093CE0205C061E0CE01019683
:101D50000E94FE0D81E090E00F90DF91CF910895F9
:101D600090E0FC013197E231F10508F04EC0882780
:101D7000EC57FF4F8F4F0C94DC18809180008F77C9
:101D800003C0809180008F7D8093800008958091B2
:101D90008000877FF9CF84B58F7702C084B58F7DAF
:101DA00084BD08958091B0008F7703C08091B0000A
:101DB0008F7D8093B0000895809190008F7707C049
:101DC000809190008F7D03C080919000877F8093E9
:101DD000900008958091A0008F7707C08091A000A7
:101DE0008F7D03C08091A000877F8093A00008951D
:101DF000809120018F7707C0809120018F7D03C0E3
:101E000080912001877F8093200108954F925F92F7
:101E10006F927F928F929F92AF92BF92CF92DF92FA
:101E2000EF92FF926B017C019B01AC010E94561A5C
:101E3000882319F081E692E01AC046015701E89420
:101E4000B7F82FEF3FEF4FE75FE7C501B4010E94FE
:101E5000561A811110C02FEF3FEF4FE75FE7C50122
:101E6000B4010E943D17181634F485E692E00E94F2
:101E7000D7017C0183C02FEF3FEF4FE75FE4C7013D
:101E8000B6010E94511A18161CF489E692E0EFCFB1
:101E90002FEF3FEF4FE75FECC701B6010E943D1700
:101EA00087FDF3CF20E030E0A901C701B6010E9411
:101EB0003D1787FF0BC06DE285E194E00E94850528
:101EC0005C01F7FAF094F7F8F09402C0A12CB12C61
:101ED0002AE037ED43EA5BE3C701B6010E94F91837
:101EE0002B013C010E94E3196B017C010E94421707
:101EF0009B01AC01C301B2010E94F8182B013C0107
:101F00004AE0C701B6010E941F037C01EA0CFB1CDA
:101F10006EE285E194E00E948505E80EF91E20E05E
:101F200030E040E251E4C301B2010E94A3172B014B
:101F30003C010E94E3194B01A12CB12C4AE0C501E0
:101F4000B4010E941F03E80EF91EC501B4010E94EE
:101F500042179B01AC01C301B2010E94F81820E0B6
:101F600030E040E251E40E94A3170E94E31980E0B0
:101F700090E04AE00E941F03E80EF91E8EE592E011
:101F80000E94D7018E0D9F1DFF90EF90DF90CF90A4
:101F9000BF90AF909F908F907F906F905F904F9089
:101FA0000895CF92DF92EF92FF920F931F93CF93FA
:101FB000DF938C01029724EB289F6001299FD00CAE
:101FC0001124C0E0D0E084EBE82EF12CC017D1073B
:101FD000C4F460E070E088EC92E40E94980CC601C2
:101FE000B8010E94C818C701861B970BBC01072EB9
:101FF000000C880B990B0E9444170E9460032196E5
:10200000E5CFDF91CF911F910F91FF90EF90DF907F
:10201000CF9008954F925F926F927F928F929F928E
:10202000AF92BF92CF92DF92EF92FF92CF93DF9366
:102030002B013C0169017A01C2E0D0E0A7019601C1
:1020400060E070E084E393E40E94F8184B015C01C7
:1020500060E070E088EC92E40E94980C8DE692E0DB
:102060000E94D70160E070E088EC92E40E94060FC5
:10207000C501B4010E94600388E792E00E94D70185
:10208000C501B4010E94060F20E030E044EB52E4A9
:10209000C701B6010E94511A87FD07C020E030E059
:1020A00044EB52E4C701B60106C0A701960160E007
:1020B00070E084EB92E40E94F8180E9465199B017D
:1020C000AC01C301B2010E946A194B015C010E947C
:1020D000980C8DE692E00E94D701C501B4010E94E0
:1020E000060FC701B6010E94600388E792E00E94D4
:1020F000D701C701B6010E94060F219709F09ECFB4
:10210000DF91CF91FF90EF90DF90CF90BF90AF9095
:102110009F908F907F906F905F904F900895FC01FB
:10212000248131E03093AB022093CD021092AC02B7
:102130001092CE028485682B8FEC92E00E94810E73
:102140000C94E9010F931F93CF938C01C62F646009
:102150000E948F106C2F6B7FC8010E948F1083EC40
:1021600090E00197F1F7CF911F910F910895FC0135
:10217000A089B1898C91A689B78982FD0FC09C91F5
:10218000818D8F5F8F73228D821749F0218DDF0142
:10219000A20FB11D5D969C93818F08958C91089537
:1021A0001F920F920FB60F9211240F900FBE0F9037
:1021B0001F9018951F920F920FB60F9211240BB615
:1021C0000F922F933F934F935F936F937F938F93D0
:1021D0009F93AF93BF93EF93FF938091B900887F54
:1021E000803609F49CC068F5883209F45BC090F42D
:1021F000803109F454C038F4882309F4F6C08830DB
:1022000009F44DC0F6C0883109F44CC0803209F49D
:102210005DC0EFC0803409F468C048F4803309F42D
:1022200055C0883309F0E5C08093A802D8C0803536
:1022300009F44FC0883509F45DC0883409F0D9C06D
:10224000D6C0883909F4C7C0A8F4883709F467C034
:1022500038F4883609F463C0803709F460C0C9C017
:10226000883809F4B8C0803909F45FC0803809F0B3
:10227000C0C05BC0803B09F486C038F4803A09F4E2
:1022800066C0883A09F47FC0B4C0803C09F4A7C096
:10229000883C09F4A4C0883B09F48AC0AAC0809194
:1022A000850210C09091A7028091A602981770F540
:1022B000E091A70281E08E0F8093A702F0E0EA5739
:1022C000FD4F80818093BB0085EC86C08093A8027F
:1022D0008EC0E091A70281E08E0F8093A7028091CB
:1022E000BB00F0E0EA57FD4F80839091A7028091F8
:1022F000A6026EC0E091A70281E08E0F8093A70234
:102300008091BB00F0E0EA57FD4F80838091A902E5
:1023100081116DC081E08093840284EA61C083E012
:102320008093AA0210925207CFCF80915207803239
:1023300008F051C0E091520781E08E0F8093520760
:102340008091BB00F0E0EE5CF84F8083BDCF85EC60
:102350008093BC001092AA0280915207803230F420
:10236000E0915207F0E0EE5CF84F10826091520766
:1023700070E0E091EE06F091EF0682E397E01995A8
:102380001092520736C084E08093AA02109231075F
:1023900010923007E091EC06F091ED0619958091CE
:1023A0003007811105C081E080933007109210073B
:1023B000E091310781E08E0F80933107F0E0E05F1C
:1023C000F84F80818093BB00909131078091300756
:1023D000981708F479CF85E88093BC000AC085EC93
:1023E0008093BC001092AA0204C01092A8020E941E
:1023F000F40DFF91EF91BF91AF919F918F917F91DC
:102400006F915F914F913F912F910F900BBE0F9065
:102410000FBE0F901F901895CF93DF93282F30E0B9
:10242000F901E350FD4F8491F901E954FD4FD49136
:10243000F901EF58FD4FC491CC2391F081110E9416
:10244000B00EEC2FF0E0EE0FFF1FE95AFD4FA59103
:10245000B491EC91ED2381E090E021F480E002C0A2
:1024600080E090E0DF91CF9108951F93CF93DF93A9
:10247000282F30E0F901E350FD4F8491F901E95430
:10248000FD4FD491F901EF58FD4FC491CC23C1F019
:10249000162F81110E94B00EEC2FF0E0EE0FFF1FFF
:1024A000E35CFD4FA591B4919FB7F894111104C05E
:1024B0008C91D095D82302C0EC91DE2BDC939FBF8A
:1024C000DF91CF911F910895CF93DF9390E0FC01AE
:1024D000E954FD4F2491FC01EF58FD4F849188236E
:1024E00061F190E0880F991FFC01ED5DFD4FC591F2
:1024F000D491FC01E35CFD4FA591B491611109C039
:102500009FB7F8948881209582238883EC912E23AD
:102510000BC0623061F49FB7F8948881322F3095F8
:1025200083238883EC912E2B2C939FBF06C08FB7FB
:10253000F894E8812E2B28838FBFDF91CF910895E7
:102540008F929F92AF92BF92CF92DF92EF92FF92C3
:102550006B017C010E9423064B015C01C114D10474
:10256000E104F104F1F00E942306DC01CB0188199B
:102570009909AA09BB09883E9340A105B10570F3EA
:1025800021E0C21AD108E108F10888EE880E83E044
:10259000981EA11CB11CC114D104E104F10419F767
:1025A000DDCFFF90EF90DF90CF90BF90AF909F90E6
:1025B0008F9008951092D2021092D10288EE93E08B
:1025C000A0E0B0E08093D3029093D402A093D50210
:1025D000B093D60225E132E03093D0022093CF02AF
:1025E0001092DE021092DD028093DF029093E002EF
:1025F000A093E102B093E20227E232E03093DC02E2
:102600002093DB0245E351E05093E8024093E70258
:1026100044E351E05093EA024093E90240E351E081
:102620005093EC024093EB0241E351E05093EE02F1
:102630004093ED0242E351E05093F0024093EF02E9
:1026400046E351E05093F2024093F1021092F402FB
:102650001092F5021092F6021092F70210927B038C
:1026600010927A0380937C0390937D03A0937E0362
:10267000B0937F03309379032093780345ED50E0C6
:10268000509385034093840344ED50E050938703B7
:102690004093860340ED50E05093890340938803B4
:1026A00041ED50E050938B0340938A0342ED50E09C
:1026B00050938D0340938C0346ED50E050938F036D
:1026C00040938E0310929103109292031092930301
:1026D0001092940310921804109217048093190416
:1026E00090931A04A0931B04B0931C043093160417
:1026F0002093150485EC90E09093220480932104AC
:1027000084EC90E0909324048093230480EC90E088
:10271000909326048093250481EC90E09093280404
:102720008093270482EC90E090932A0480932904FC
:1027300086EC90E090932C0480932B0410922E044E
:1027400010922F04109230041092310480910902EB
:1027500090910A02A0910B02B0910C028093E905BE
:102760009093EA05A093EB05B093EC0580910D02E0
:1027700090910E02A0910F02B09110028093ED058E
:102780009093EE05A093EF05B093F00584E080935D
:10279000F10587E08093F2051092F30584EB8093B6
:1027A000F40586E18093F50588E18093F60587E1DD
:1027B0008093F70589E18093F805E091C005EC303E
:1027C00020F08FEF8093F90510C081E08E0F809389
:1027D000C005E093F90585E0E89FF0011124EC576E
:1027E000FA4F88EB9BE092838183E091C005EC3047
:1027F00020F08FEF8093FA0510C081E08E0F809358
:10280000C005E093FA0585E0E89FF0011124EC573C
:10281000FA4F88EB9BE0928381838CE08093C8051C
:1028200084E28093C90586E08093CA0585E08093A1
:10283000CB058FE18093CC058EE18093CD0583E2BB
:102840008093CE0582E28093CF0585E48093D00506
:1028500084E48093D10580E48093D4051092D90557
:102860001092DA051092DB051092DC051092DD055E
:102870001092DE051092DF051092E005E3E0F6E02D
:1028800021EC36E08FEF9FEFDC011282138214827D
:102890001582168217821086118683879487A587F2
:1028A000B6878787908BA18BB28B1286118210829C
:1028B00073962E173F0749F78DE090E00E94A41A07
:1028C000FC011382128289E392E091838083118656
:1028D00087E2848384E1828784E083871486F0938F
:1028E0000006E093FF05109201061092020685E2B1
:1028F0008093B3041092B5041092C2051092C105E2
:102900001092C4051092C3051092C6051092C50519
:1029100061E070E080E090E00E94C51B009789F0C4
:102920009093C2058093C1051092C4051092C3050F
:102930002091C5053091C605232BC1F4FC011082FE
:1029400015C08091C1059091C205009711F00E94B9
:102950003C1B1092C2051092C1051092C605109240
:10296000C5051092C4051092C30508951092C605BE
:102970001092C50560E672E08091C1059091C20594
:102980000C94B81C789484B5826084BD84B5816051
:1029900084BD85B5826085BD85B5816085BD80912A
:1029A0006E00816080936E001092810080918100A2
:1029B000826080938100809181008160809381009A
:1029C000809180008160809380008091B10084605C
:1029D0008093B1008091B00081608093B0008091BD
:1029E000910082608093910080919100816080933A
:1029F0009100809190008160809390008091A1006F
:102A000082608093A1008091A10081608093A100E9
:102A10008091A00081608093A0008091210182605C
:102A20008093210180912101816080932101809117
:102A3000200181608093200180917A0084608093DE
:102A40007A0080917A00826080937A0080917A0087
:102A5000816080937A0080917A00806880937A0008
:102A60001092C100E0912504F091260482E0808359
:102A7000E0912104F09122041082E0912304F0916E
:102A800024048FEC808310922D04E0912904F091AE
:102A90002A0486E08083E0912704F0912804808155
:102AA00080618083E0912704F09128048081886010
:102AB0008083E0912704F0912804808180688083DE
:102AC000E0912704F091280480818F7D808361E06C
:102AD0008091C9050E94641260E08091C9050E943E
:102AE000351260E08091C8050E9464128FEC92E07C
:102AF0009093D3058093D2051092EB061092EA06CC
:102B00001092AC021092CE021092AA0281E0809341
:102B1000A9021092840261E084E10E94351261E012
:102B200085E10E9435128091B9008E7F8093B900B3
:102B30008091B9008D7F8093B90088E48093B800BC
:102B400085E48093BC0086E29EE09093ED0680933E
:102B5000EC0687E29EE09093EF068093EE0680E01D
:102B600090E1A0E0B0E08093D5059093D605A093C6
:102B7000D705B093D8058AE090E0A0E0B0E080935C
:102B8000D9059093DA05A093DB05B093DC0580E0CE
:102B900090E0A0E0B0E48093DD059093DE05A09383
:102BA000DF05B093E00560E070E185E00E9445023A
:102BB0006FE979E380E00E944502C8ECD5E08E0120
:102BC00092E0792E26EAA22E22E0B22E3CEE832E4F
:102BD00032E0932E4BECE42E47E0F42EF801948182
:102BE0008281898F9A8F61E00E94641261E08A8DF0
:102BF0000E946412F801908586816E01FDE1CF0E7E
:102C0000D11C8D8F9E8F61E00E94641260E08E8DDA
:102C10000E94641261E08D8D0E9435126FB6F894A7
:102C20008091C606811126C0F5018491F40124919A
:102C3000E82FF0E0EE0FFF1FED5DFD4FA591B49181
:102C40009C91822F892321F461E085E30E94351253
:102C500061E085E30E9464128CB580618CBD8CB507
:102C600080648CBD61E084E30E94641261E083E3D0
:102C70000E9464128091C6068F5F8093C6066FBE65
:102C8000C7010197F1F760E08D8D0E94351288E849
:102C90000E94320B83E00E94320B61E08D8D0E9416
:102CA0003512C7010197F1F7C6010E94390B7A94DA
:102CB0000F5F1F4F2296711091CF0DEE15E0C1EFFF
:102CC000D5E060E0F80181918F010E946412C01785
:102CD000D107B9F709EE15E07E01FFEFEF1AFF0A01
:102CE000688170E0CE0108960E942F0AF701958155
:102CF0008381F801828B938B60E00E94641261E013
:102D0000F80183890E94641260E0F80183890E94BF
:102D100035120E5F1F4FE701F5E0C33FDF07E1F615
:102D2000F8941092200189E08093210180E293E0E1
:102D3000909329018093280110922501109224017B
:102D400082E08093730078948093B2041092B6046A
:102D50008091B30460E00E94641260E080E40E940D
:102D6000641260E08FE30E94641260E08CE30E94D2
:102D7000641260E08DE30E94641260E08EE30E94C2
:102D8000641262E080E30E94641268E873E180E00C
:102D900090E00E94A0128091F0050E940C12892BF5
:102DA00009F45CC00E94EF0B83E090E00E94D10F19
:102DB00084E090E00E94D10F85E090E00E94D10F66
:102DC00086E090E00E94D10F87E090E00E94D10F52
:102DD00088E090E00E94D10F68E97AE380E090E01B
:102DE0000E94A01220E030E044EB52E460E070E08A
:102DF00080E792E40E940A1060E177E280E090E0D0
:102E00000E94A01220E030E044EB52E460E070E069
:102E100080EA91E40E940A1060E177E280E090E0AD
:102E20000E94A01220E030E040EF52E460E070E049
:102E300080E792E40E940A1060E177E280E090E08F
:102E40000E94A01220E030E040EA52E460E070E02E
:102E500088EC92E40E940A100E94C90B6AE070E0BC
:102E600080E090E00E94A0120E94F40594CF80912F
:102E7000C1059091C2050C943C1B0E947F1708F479
:102E800081E00895E89409C097FB3EF49095809501
:102E9000709561957F4F8F4F9F4F9923A9F0F92F20
:102EA00096E9BB279395F695879577956795B7959E
:102EB000F111F8CFFAF4BB0F11F460FF1BC06F5F84
:102EC0007F4F8F4F9F4F16C0882311F096E911C096
:102ED000772321F09EE8872F762F05C0662371F0B7
:102EE00096E8862F70E060E02AF09A95660F771FCB
:102EF000881FDAF7880F9695879597F90895990FA7
:102F00000008550FAA0BE0E8FEEF16161706E807B3
:102F1000F907C0F012161306E407F50798F0621BD4
:102F2000730B840B950B39F40A2661F0232B242BA9
:102F3000252B21F408950A2609F4A140A6958FEFC8
:102F4000811D811D08950E94B6170C9427180E94B8
:102F5000191838F00E94201820F0952311F00C94D5
:102F600010180C94161811240C945B180E94381831
:102F700070F3959FC1F3950F50E0551F629FF001CC
:102F8000729FBB27F00DB11D639FAA27F00DB11DE5
:102F9000AA1F649F6627B00DA11D661F829F22276E
:102FA000B00DA11D621F739FB00DA11D621F839FF5
:102FB000A00D611D221F749F3327A00D611D231FCB
:102FC000849F600D211D822F762F6A2F11249F5719
:102FD00050409AF0F1F088234AF0EE0FFF1FBB1F1C
:102FE000661F771F881F91505040A9F79E3F5105DB
:102FF00080F00C9410180C945B185F3FE4F3983E3B
:10300000D4F3869577956795B795F795E7959F5F84
:10301000C1F7FE2B880F911D9695879597F9089516
:1030200097F99F6780E870E060E008959FEF80EC7B
:10303000089500240A94161617061806090608951E
:1030400000240A9412161306140605060895092E84
:103050000394000C11F4882352F0BB0F40F4BF2BF3
:1030600011F460FF04C06F5F7F4F8F4F9F4F089533
:1030700057FD9058440F551F59F05F3F71F0479529
:10308000880F97FB991F61F09F3F79F0879508950E
:10309000121613061406551FF2CF4695F1DF08C02D
:1030A000161617061806991FF1CF8695710561054A
:1030B00008940895E894BB2766277727CB0197F9F2
:1030C0000895052E97FB1EF400940E94781857FD72
:1030D00007D00E948B1807FC03D04EF40C9478188C
:1030E00050954095309521953F4F4F4F5F4F089534
:1030F00090958095709561957F4F8F4F9F4F089564
:103100000E94AD18A59F900DB49F900DA49F800DB7
:10311000911D11240895A1E21A2EAA1BBB1BFD01CB
:103120000DC0AA1FBB1FEE1FFF1FA217B307E407A6
:10313000F50720F0A21BB30BE40BF50B661F771FFE
:10314000881F991F1A9469F76095709580959095DE
:103150009B01AC01BD01CF010895A29FB001B39FB7
:10316000C001A39F700D811D1124911DB29F700D90
:10317000811D1124911D0895991B79E004C0991FA8
:10318000961708F0961B881F7A95C9F780950895C1
:1031900097FB072E16F4009407D077FD09D00E9404
:1031A000E41807FC05D03EF4909581959F4F089553
:1031B000709561957F4F0895EE0FFF1F881F8BBF9D
:1031C0000790F691E02D1994AA1BBB1B51E107C093
:1031D000AA1FBB1FA617B70710F0A61BB70B881FA7
:1031E000991F5A95A9F780959095BC01CD01089536
:1031F0005058BB27AA270E9410190C9427180E9428
:10320000191838F00E94201820F039F49F3F19F463
:1032100026F40C9416180EF4E095E7FB0C941018A5
:10322000E92F0E94381858F3BA176207730784070A
:10323000950720F079F4A6F50C945A180EF4E09551
:103240000B2EBA2FA02D0B01B90190010C01CA0160
:10325000A0011124FF27591B99F0593F50F4503E0B
:1032600068F11A16F040A22F232F342F4427585FFD
:10327000F3CF469537952795A795F0405395C9F715
:103280007EF41F16BA0B620B730B840BBAF09150CD
:10329000A1F0FF0FBB1F661F771F881FC2F70EC06C
:1032A000BA0F621F731F841F48F48795779567953F
:1032B000B795F7959E3F08F0B0CF9395880F08F02B
:1032C0009927EE0F9795879508950E94141AE39514
:1032D0000C943D1A0E947E190C9427180E94201805
:1032E00058F00E94191840F029F45F3F29F00C941F
:1032F000101851110C945B180C9416180E94381871
:1033000068F39923B1F3552391F3951B550BBB2714
:10331000AA2762177307840738F09F5F5F4F220F59
:10332000331F441FAA1FA9F335D00E2E3AF0E0E850
:1033300032D091505040E695001CCAF72BD0FE2F9A
:1033400029D0660F771F881FBB1F2617370748072E
:10335000AB07B0E809F0BB0B802DBF01FF279358E6
:103360005F4F3AF09E3F510578F00C9410180C9482
:103370005B185F3FE4F3983ED4F3869577956795A5
:10338000B795F7959F5FC9F7880F911D969587951B
:1033900097F90895E1E0660F771F881FBB1F62173A
:1033A00073078407BA0720F0621B730B840BBA0BF8
:1033B000EE1F88F7E09508950E94E3196894B11113
:1033C0000C945B1808950E94401888F09F5798F05D
:1033D000B92F9927B751B0F0E1F0660F771F881F1A
:1033E000991F1AF0BA95C9F714C0B13091F00E9434
:1033F0005A18B1E008950C945A18672F782F88272F
:10340000B85F39F0B93FCCF3869577956795B3955A
:10341000D9F73EF490958095709561957F4F8F4FC9
:103420009F4F08950C9416180E944018D8F3E89402
:10343000E0E0BB279F57F0F02AED3FE049EC06C0E3
:10344000EE0FBB0F661F771F881F28F0B23A620786
:103450007307840728F0B25A620B730B840BE39551
:103460009A9572F7803830F49A95BB0F661F771FD4
:10347000881FD2F790480C945D1AEF93E0FF07C0C5
:10348000A2EA2AED3FE049EC5FEB0E9410190E948E
:1034900027180F90039401FC9058ECE2F1E00C9493
:1034A000691A0E947F1708F48FEF08950E947F1712
:1034B000880B990B08959F3F31F0915020F4879528
:1034C00077956795B795880F911D9695879597F98C
:1034D00008959F938F937F936F93FF93EF939B0137
:1034E000AC010E94A317EF91FF910E947D1A2F91CA
:1034F0003F914F915F910C94A317DF93CF931F934C
:103500000F93FF92EF92DF927B018C01689406C0CB
:10351000DA2EEF010E94B617FE01E894A5912591DD
:10352000359145915591A6F3EF010E941019FE01C6
:103530009701A801DA9469F7DF90EF90FF900F915F
:103540001F91CF91DF9108950F931F93CF93DF9336
:103550008230910510F482E090E0E0915707F091FD
:10356000580720E030E0A0E0B0E0309719F140814A
:1035700051810281138148175907C8F084179507B4
:1035800069F4109731F012960C93129713961C93CE
:1035900027C0009357071093580722C02115310503
:1035A00019F04217530718F49A01BD01EF01DF012A
:1035B000F801DBCF21153105F9F0281B390B243038
:1035C000310580F48A819B816115710521F0FB0131
:1035D0009383828304C09093580780935707FE011A
:1035E000329644C0FE01E20FF31F81939193225063
:1035F0003109398328833AC0209155073091560705
:10360000232B41F420910502309106023093560796
:1036100020935507209103023091040221153105B2
:1036200041F42DB73EB74091070250910802241B88
:10363000350BE0915507F0915607E217F307A0F418
:103640002E1B3F0B2817390778F0AC014E5F5F4FF8
:103650002417350748F04E0F5F1F509356074093CD
:1036600055078193919302C0E0E0F0E0CF01DF9134
:10367000CF911F910F910895CF93DF93009709F495
:1036800081C0FC01329713821282A0915707B0913A
:103690005807109781F420813181820F931F209168
:1036A0005507309156072817390751F5F0935607FB
:1036B000E093550767C0ED0120E030E0CE17DF074B
:1036C00040F44A815B819E0141155105F1F0EA0108
:1036D000F5CFD383C28340815181840F951FC817D2
:1036E000D90759F488819981840F951F0296918397
:1036F00080838A819B81938382832115310529F4FC
:10370000F0935807E09357073DC0E901FB83EA8334
:1037100049915991C40FD51FEC17FD0761F48081C1
:103720009181840F951F0296E90199838883828194
:1037300093819B838A83E0E0F0E012968D919C91C7
:103740001397009719F0FD01DC01F7CF8D919C9143
:1037500011979D012E5F3F4F820F931F20915507B8
:10376000309156072817390769F4309729F41092D9
:1037700058071092570702C013821282B09356075F
:10378000A0935507DF91CF9108956F927F928F920A
:103790009F92AF92BF92CF92DF92EF92FF920F93E0
:1037A0001F93CF93DF93009789F4CB01DF91CF91E3
:1037B0001F910F91FF90EF90DF90CF90BF90AF904F
:1037C0009F908F907F906F900C94A41AFC01E60F4D
:1037D000F71F9C0122503109E217F30708F4A9C032
:1037E000EC01D9010D911C91119706171707B0F044
:1037F0000530110508F49BC0C80104978617970788
:1038000008F495C002501109061B170B0193119380
:103810006D937C93CF010E943C1B89C05B01A01A71
:10382000B10A4C01800E911EA0915707B091580724
:10383000612C712CE12CF12C109709F446C08D916C
:103840009C911197A815B905B1F56C0142E0C40E21
:10385000D11CCA14DB0478F14C018A189B0864015E
:1038600042E0C40ED11C1296BC9012971396AC91F4
:10387000B5E0CB16D10440F0B282A383918280825E
:10388000D9016D937C9309C00E5F1F4F800F911F6C
:10389000F90191838083EB2DFA2FE114F10431F0CB
:1038A000D7011396FC93EE93129741C0F0935807FB
:1038B000E09357073CC06816790608F43C017D0187
:1038C00012960D90BC91A02DB7CF80915507909185
:1038D000560788169906E1F466167706C8F48091B3
:1038E000030290910402009741F48DB79EB7409176
:1038F000070250910802841B950BE817F907C8F4DA
:10390000F0935607E0935507F901718360830FC068
:10391000CB010E94A41A7C01009759F0A801BE01B6
:103920000E94AF1CCE010E943C1BC70104C0CE0107
:1039300002C080E090E0DF91CF911F910F91FF9046
:10394000EF90DF90CF90BF90AF909F908F907F903F
:103950006F90089581E090E0F8940C94BF1CFB01F7
:10396000DC0102C001900D9241505040D8F70895FB
:10397000FB01DC0101900D920020E1F7089511E0B8
:10398000C3EAD1E000E006C0802FFE010E94DC18EF
:103990002196011DC43AD10780E00807A9F7F894E1
:0239A000FFCF57
:1039A200FF7D00000059078000363738391B1D1A89
:1039B2001C00000000810E540E040A280E4C0E3822
:1039C2000E290E000000008505DE040805D2053927
:1039D2000517052B05000000000A0ADE04040A038D
:1039E2000A536572766F20616E676C652069732079
:1039F2006F7574206F662072616E676521000D0A13
:103A0200006E616E00696E66006F76660041564117
:103A12004E43452064652000544F55524E45206464
:043A2200652000001B
:00000001FF
