:100000000C945F010C9490010C9490010C9490015D
:100010000C9490010C9490010C9490010C9490011C
:100020000C9490010C9432090C9432090C9432090E
:100030000C9490010C945B030C9490010C9490012F
:100040000C9490010C9463060C9490010C94900114
:100050000C9490010C9490010C9490010C94550B0D
:100060000C9490010C94CC040C94A2040C94900178
:100070000C9490010C9490010C9490010C949001BC
:100080000C9490010C9490010C9490010C949001AC
:100090000C9490010C9490010C9490010C943C09E8
:1000A0000C9490010C9490010C9490010C9490018C
:1000B0000C9490010C9490010C9490010C947C058C
:1000C0000C9490010C9490010C9490010C94780481
:1000D0000C944E040C9490010C9424040C94FA0398
:1000E0000C949001890A8C0A7B0A7F0A850AC30A4C
:1000F000900A940A9A0A9E0AA20AA80AAC0AB00AAE
:10010000C30AB60ABA0ABE0A0C94900A0C94990261
:100110000C94AC0A0C94870E0C94BE0A0C948C0AB6
:100120000C94A80A0C94A20A0C94B00A0C94B60A77
:100130000C94F9010C94D6010C94F3020C94850AEA
:100140000C9492010C949E0A0C948C080C947605E5
:100150000C94810E0C9484080C9452020C949A0A0C
:100160000C94BA0A0C947F0A0C94890A0C946708C0
:100170000C9466080C9436030C94E5010C947508F5
:100180000C94C30A0C947B0A0C94940A0C94F2020B
:100190000C94BC080C9407020000200023002600E9
:1001A00029002C002F00320000010000030106018D
:1001B00009010200002100240027002A002D003040
:1001C00000330001010000040107010A01000022C0
:1001D00000250028002B002E003100340002010011
:1001E00000050108010B01050505050705080808BC
:1001F00008020202020A0A080804040404010101B8
:1002000001010101010303030303030303040707BF
:10021000070C0C0C0C0C0C0C0C020202020606065D
:1002200006060606060B0B0B0B0B0B0B0B01021045
:100230002020080810204010204080020102010800
:1002400004020101020408102040808040201008B0
:100250000402018004020180402010080402010809
:100260000402010102040810204080010204081069
:1002700020408000000A0B02090C0D0E0807030441
:10028000010000000000000000000000000000006D
:10029000000000000000000000000000000000124C
:1002A000111000000000000000000000000000002D
:1002B00000000000000000000000870E810E1124E5
:1002C0001FBECFEFD1E2DEBFCDBF00E00CBF12E01A
:1002D000A0E0B2E0E4ECF5E200E00BBF02C0079062
:1002E0000D92A634B107D9F727E0A6E4B2E001C029
:1002F0001D92A531B207E1F711E0CEE5D1E000E0B3
:1003000006C021970109802FFE010E949D10CD3566
:10031000D10780E00807A9F70E949F0B0C94D01228
:100320000C940000CF92DF92EF92FF920F931F93F5
:10033000CF93DF936C017A018B01C0E0D0E0CE1542
:10034000DF0589F0D8016D918D01D601ED91FC9109
:100350000190F081E02DC6011995892B11F47E01E1
:1003600002C02196ECCFC701DF91CF911F910F9171
:10037000FF90EF90DF90CF900895FC01A089B189A4
:100380008C91A689B78982FD0FC09C91818D8F5F6A
:100390008F73228D821749F0218DDF01A20FB11DCD
:1003A0005D969C93818F08958C910895FC01538DE7
:1003B000448D252F30E0842F90E0821B930B54173F
:1003C00010F0CF96089501970895FC01918D828DCC
:1003D000981761F0828DDF01A80FB11D5D968C9199
:1003E000928D9F5F9F73928F90E008958FEF9FEFA4
:1003F0000895FC01918D828D981731F0828DE80F60
:10040000F11D858D90E008958FEF9FEF0895FC0119
:10041000918D228D892F90E0805C9F4F821B9109E6
:100420008F73992708958FEB92E00E94070221E0D5
:10043000892B09F420E0822F08958CE593E00E9437
:10044000070221E0892B09F420E0822F089589EF2B
:1004500093E00E94070221E0892B09F420E0822F1B
:100460000895FC01848DDF01A80FB11DA35ABF4F71
:100470002C91848D90E001968F739927848FA689A3
:10048000B7892C93A089B1898C9180648C93938DCA
:10049000848D981306C00288F389E02D80818F7DBA
:1004A00080830895EF92FF920F931F93CF93DF9372
:1004B000EC0181E0888F9B8D8C8D981305C0E889B5
:1004C000F989808185FD24C0F62E0B8D10E00F5F29
:1004D0001F4F0F731127E02E8C8DE8120CC00FB642
:1004E00007FCFACFE889F989808185FFF5CFCE0135
:1004F0000E943102F1CF8B8DFE01E80FF11DE35A0E
:10050000FF4FF0820B8FEA89FB898081806207C0F0
:10051000EE89FF896083E889F9898081806480831E
:1005200081E090E0DF91CF911F910F91FF90EF90CC
:100530000895CF93DF93EC01888D8823C9F0EA8971
:10054000FB89808185FD05C0A889B9898C9186FDCC
:100550000FC00FB607FCF5CF808185FFF2CFA889C9
:10056000B9898C9185FFEDCFCE010E943102E7CF92
:10057000DF91CF910895E0E0F0E0199480E090E001
:10058000892B21F00E942702811119C080E090E0A0
:10059000892B41F080E090E0892B21F00E9400003F
:1005A000811110C00E941D0281110FC080E090E0F7
:1005B000892B81F00E94130281110AC008950E94C4
:1005C0000000E4CF0E940000EDCF0E94BB02EECFFE
:1005D0000C94000008958EBD00000DB407FEFDCF01
:1005E0008EB50895089580E090E00895CF93DF934D
:1005F000EC0160E08E810E94C40A61E08E810E945D
:10060000C40A60E08E810E94C40A8BE891E00197E1
:10061000F1F7DF91CF9108950E94BB12FC01248174
:1006200031E030938F022093B10210929002109229
:10063000B2028485682B83EB92E00E94BC080C9484
:10064000D7070F931F93CF938C01C62F64600E942E
:100650000E036C2F6B7FC8010E940E0383EC90E0A9
:100660000197F1F7CF911F910F9108950F931F9369
:10067000CF93DF938C01C62FD62FD07FD1606D2F03
:100680000E940E036D2FC8010E94210380E1C89FC4
:10069000B0011124C62FC1606C2FC8010E940E0347
:1006A0006C2FC8010E94210381E090E0DF91CF917F
:1006B0001F910F9108951F920F920FB60F92112460
:1006C0000BB60F922F933F934F935F936F937F934C
:1006D0008F939F93AF93BF93EF93FF9380916302A8
:1006E00090916402A0916502B0916602892B8A2BD9
:1006F0008B2B59F180916202E0916002F0916102CE
:100700009081892780838091630290916402A091F7
:100710006502B0916602181619061A061B060CF03F
:1007200056C08091630290916402A0916502B091DD
:1007300066020197A109B109809363029093640254
:10074000A0936502B093660242C080910002E2EB82
:10075000F1E0E4919FEF90930002E230C9F050F491
:10076000EE2399F0E13081F590916F009D7F909399
:100770006F002AC0E43019F1E0F0E53029F59091DE
:1007800073009D7F909373001FC010926E001CC079
:10079000909170009D7F9093700091E09093B000D5
:1007A0009091B100987F94609093B1001092B30043
:1007B0000BC0909171009D7F9093710005C0909146
:1007C00072009D7F9093720060E00E94C40AFF91C6
:1007D000EF91BF91AF919F918F917F916F915F91B9
:1007E0004F913F912F910F900BBE0F900FBE0F9026
:1007F0001F9018951F920F920FB60F9211240BB6EF
:100800000F922F933F934F935F936F937F938F93A9
:100810009F93AF93BF93EF93FF938FEB92E00E9470
:100820003102FF91EF91BF91AF919F918F917F9195
:100830006F915F914F913F912F910F900BBE0F9051
:100840000FBE0F901F9018951F920F920FB60F9228
:1008500011240BB60F922F933F934F935F936F9397
:100860007F938F939F93AF93BF93EF93FF938FEB00
:1008700092E00E94BD01FF91EF91BF91AF919F91D6
:100880008F917F916F915F914F913F912F910F9039
:100890000BBE0F900FBE0F901F9018951F920F92D6
:1008A0000FB60F9211240BB60F922F933F934F93D5
:1008B0005F936F937F938F939F93AF93BF93EF93C8
:1008C000FF938CE593E00E943102FF91EF91BF917D
:1008D000AF919F918F917F916F915F914F913F91D8
:1008E0002F910F900BBE0F900FBE0F901F90189579
:1008F0001F920F920FB60F9211240BB60F922F93E7
:100900003F934F935F936F937F938F939F93AF9397
:10091000BF93EF93FF938CE593E00E94BD01FF919D
:10092000EF91BF91AF919F918F917F916F915F9167
:100930004F913F912F910F900BBE0F900FBE0F90D4
:100940001F9018951F920F920FB60F9211240BB69D
:100950000F922F933F934F935F936F937F938F9358
:100960009F93AF93BF93EF93FF9389EF93E00E9420
:100970003102FF91EF91BF91AF919F918F917F9144
:100980006F915F914F913F912F910F900BBE0F9000
:100990000FBE0F901F9018951F920F920FB60F92D7
:1009A00011240BB60F922F933F934F935F936F9346
:1009B0007F938F939F93AF93BF93EF93FF9389EFB1
:1009C00093E00E94BD01FF91EF91BF91AF919F9184
:1009D0008F917F916F915F914F913F912F910F90E8
:1009E0000BBE0F900FBE0F901F901895CF92DF9205
:1009F000EF92FF920F931F93CF93DF937C016C01D3
:100A000087E0C80ED11CC0E0D0E0062F10E0B8018E
:100A10000C2E02C0759567950A94E2F76170F60195
:100A200081916F010E94C40A2196C430D10579F7E3
:100A3000C701DF91CF911F910F91FF90EF90DF9051
:100A4000CF900C94F602CF92DF92EF92FF920F9329
:100A50001F93CF93DF93EC01F62E642F8C810E94BD
:100A6000C40A8D818F3F19F060E00E94C40A8F850F
:100A70000F2D10E084FF25C06E0187E0C80ED11C49
:100A8000E12CF12CB8010E2C02C0759567950A94E3
:100A9000E2F76170F60181916F010E94C40AFFEFD5
:100AA000EF1AFF0A88E0E816F10461F7CE01DF9142
:100AB000CF911F910F91FF90EF90DF90CF900C940A
:100AC000F602B80184E0759567958A95E1F7CE0145
:100AD0000E94F6046F2DCE01DF91CF911F910F91EF
:100AE000FF90EF90DF90CF900C94F60441E00E94CD
:100AF000230581E090E008951F920F920FB60F92A8
:100B000011240BB60F922F933F934F935F936F93E4
:100B10007F938F939F93AF93BF93CF93DF93EF9385
:100B2000FF932091970430E0F901ED58FD4F849137
:100B3000F901E35DFD4FD491F901E951FE4FC491F4
:100B4000CC23A1F081110E946E0AEC2FF0E0EE0F91
:100B5000FF1FE856FE4FA591B491EC91ED2331E0D3
:100B600020E009F430E0832F922F02C080E090E073
:100B700020919B0430919C042F5F3F4F30939C0445
:100B800020939B0420919A04253618F026E02093A8
:100B90009604209196042430D9F128F4223069F08B
:100BA0002330D9F060C0253009F453C0263009F055
:100BB0005AC021E02093670553C0009709F053C045
:100BC00020919B0430919C042436310508F443C0E5
:100BD0001092670510929A041DC08130910509F0AA
:100BE00042C0E0919A0421E02E0F20939A04F0E095
:100BF00020919B0430919C04EE0FFF1FEA56FB4F9F
:100C00003087278310929C0410929B0424E029C013
:100C10000097B9F4E0919A0421E02E0F20939A04F2
:100C2000F0E020919B0430919C04EE0FFF1FEA56E8
:100C3000FB4F3087278310929C0410929B0423E083
:100C400010C020919B0430919C042536310558F04A
:100C500007C0009741F410929C0410929B0403C0BB
:100C600025E020939604209199042223B9F0892B42
:100C700051F480919804882321F08091980461E0D8
:100C800009C02F9A0BC080919804882331F080917D
:100C9000980460E00E94C40A01C02F98FF91EF9170
:100CA000DF91CF91BF91AF919F918F917F916F9184
:100CB0005F914F913F912F910F900BBE0F900FBE00
:100CC0000F901F9018951F920F920FB60F9211243C
:100CD0000BB60F922F933F934F935F936F937F9336
:100CE0008F939F93AF93BF93EF93FF9380915F0296
:100CF00087FF05C0109285001092840016C02091D5
:100D00005F02022E000C330B8091A40590E028179F
:100D100039075CF430915F0225E03203F0011124C1
:100D2000E859FA4F808186FD15C080915F028F5F80
:100D300080935F0220915F02022E000C330B8091A2
:100D4000A40590E02817390794F480915F028C3055
:100D50002CF10DC030915F023203F0011124E859EB
:100D6000FA4F808160E08F730E94C40ADECF8091C9
:100D700084009091850084349C4918F480E49CE9B7
:100D800005C080918400909185000496909389001D
:100D9000809388008FEF80935F022AC04091840087
:100DA0005091850030915F0225E03203F00111245B
:100DB000E859FA4F81819281840F951F90938900A1
:100DC0008093880030915F023203F0011124E859CA
:100DD000FA4F808186FF0CC030915F023203F00130
:100DE0001124E859FA4F808161E08F730E94C40A90
:100DF000FF91EF91BF91AF919F918F917F916F91F3
:100E00005F914F913F912F910F900BBE0F900FBEAE
:100E10000F901F901895EF92FF920F931F93CF930F
:100E2000DF93EC01623018F08F8588608F876B8BC1
:100E30001C8A80E48D8B80E18E8B80E58F8B61E056
:100E40008C810E94F40A8D818F3F19F061E00E942D
:100E5000F40A61E08E810E94F40A7E0187E0E80EC8
:100E6000F11C00E010E08F8584FD03C084E090E079
:100E700002C088E090E0081719074CF461E0F70120
:100E800081917F010E94F40A0F5F1F4FECCF8BE32B
:100E90009DE00197F1F760E08C810E94C40A60E058
:100EA0008E810E94C40A8D818F3F19F060E00E94FC
:100EB000C40A6F8564FD1DC063E0CE010E94F60484
:100EC0000BE416E4C8010197F1F763E0CE010E943C
:100ED000F604C8010197F1F763E0CE010E94F60421
:100EE00083E592E00197F1F762E0CE010E94F604FB
:100EF00019C0606240E0CE010E9423058BE496E4B5
:100F00000197F1F76F85606240E0CE010E942305F2
:100F100083E592E00197F1F76F85606240E0CE01D2
:100F20000E9423056F85606240E0CE010E94230588
:100F300084E0888B40E06CE0CE010E94230540E015
:100F400061E0CE010E9423058BE39FE10197F1F759
:100F500082E0898B40E066E0CE01DF91CF911F9166
:100F60000F91FF90EF900C942305CF93DF930097A0
:100F700079F0FC0101900020E9F73197AF01481B9F
:100F8000590BBC0189EF93E00E949201EC0102C071
:100F9000C0E0D0E042E050E063E472E089EF93E02B
:100FA0000E9492018C0F9D1FDF91CF910895209197
:100FB000B2029091B102213208F04AC080918E02B3
:100FC0008111FCCF32E030938E0231E030938D02FC
:100FD0003FEF30938C0210928B0220938A02A1E99A
:100FE000B2E04AE652E0FA013E2F341B321718F401
:100FF0003D913193F9CF1092690220916902990FC6
:10100000922B9093690290916802913061F4109252
:101010006802909169029093BB009091BC0093FD8F
:10102000F8CF95EC01C095EE9093BC0090918E02A4
:101030009230E1F390918C029F3F79F080918C0285
:10104000803241F080918C02803331F084E005C021
:1010500081E003C082E001C083E010929002109210
:10106000B20210928F02089585ED8093BC008091AA
:10107000BC0084FDFCCF10928E0208954091EA06D8
:10108000262F30E0240F311D21323105DCF4209170
:101090008E022430C9F4FC0180E090E0861758F4F9
:1010A0003091EA062191DC01A853B94FA30FB11D7D
:1010B0002C930196F3CF8091EA06680F6093EA06BD
:1010C00080E0089581E0089582E00895089581E028
:1010D00090E03091BE062091BD06321710F480E0FA
:1010E00090E091958195910908958091BE06909127
:1010F000BD06891730F48F5F8093BE0680E090E0D4
:1011000008958FEF9FEF08958091BD0690E02091A4
:10111000BE06821B91090895CF92DF92EF92FF9253
:101120000F931F93CF93DF937C01262F972F8A0174
:1011300080918F02882391F0C62FD72F6E01C40EA5
:10114000D51ECC15DD0571F06991D701ED91FC91AB
:101150000190F081E02DC7011995F3CF642F822F04
:101160000E943E08C801DF91CF911F910F91FF901F
:10117000EF90DF90CF900895CF93DF931F92CDB77C
:10118000DEB7698320918F022223D1F02091B20231
:10119000203240F021E030E0FC013383228380E004
:1011A00090E015C080919002E82FF0E0EF56FD4FDF
:1011B000998190838F5F809390028093B20205C0E3
:1011C00061E0CE0101960E943E0881E090E00F9020
:1011D000DF91CF910895EF92FF921F93CF93DF930A
:1011E0001F92CDB7DEB7162F96E8E92E96E0F92EBE
:1011F000D7011C969C911C9721E020938F0290931D
:10120000B102109290021092B2021A960D90BC9107
:10121000A02DED91FC9111970190F081E02D682FA8
:10122000CD0179831995F70182859385DC01ED91D4
:10123000FC910190F081E02D7981672F1995F701DC
:1012400082859385DC01ED91FC910190F081E02D88
:10125000612F19950F90DF91CF911F91FF90EF9023
:101260000C94D7071F920F920FB60F9211240F9074
:101270000FBE0F901F9018951F920F920FB60F92EE
:1012800011240BB60F922F933F934F935F936F935D
:101290007F938F939F93AF93BF93EF93FF9380912F
:1012A000B900887F803609F49CC068F5883209F45B
:1012B0005BC090F4803109F454C038F4882309F4F9
:1012C000F6C0883009F44DC0F6C0883109F44CC02E
:1012D000803209F45DC0EFC0803409F468C048F47E
:1012E000803309F455C0883309F0E5C080938C023F
:1012F000D8C0803509F44FC0883509F45DC0883402
:1013000009F0D9C0D6C0883909F4C7C0A8F4883715
:1013100009F467C038F4883609F463C0803709F4EB
:1013200060C0C9C0883809F4B8C0803909F45FC00A
:10133000803809F0C0C05BC0803B09F486C038F437
:10134000803A09F466C0883A09F47FC0B4C0803C92
:1013500009F4A7C0883C09F4A4C0883B09F48AC0FA
:10136000AAC08091690210C090918B0280918A027C
:10137000981770F5E0918B0281E08E0F80938B02BD
:10138000F0E0E659FD4F80818093BB0085EC86C07C
:1013900080938C028EC0E0918B0281E08E0F80934F
:1013A0008B028091BB00F0E0E659FD4F8083909165
:1013B0008B0280918A026EC0E0918B0281E08E0FD9
:1013C00080938B028091BB00F0E0E659FD4F808353
:1013D00080918D0281116DC081E08093680284EA62
:1013E00061C083E080938E0210920E07CFCF809170
:1013F0000E07803208F051C0E0910E0781E08E0F99
:1014000080930E078091BB00F0E0E251F94F80839A
:10141000BDCF85EC8093BC0010928E0280910E07A8
:10142000803230F4E0910E07F0E0E251F94F108283
:1014300060910E0770E0E091EC06F091ED068EEE03
:1014400096E0199510920E0736C084E080938E02C4
:101450001092EB061092EA06E091E806F091E90698
:1014600019958091EA06811105C081E08093EA0612
:101470001092C806E091EB0681E08E0F8093EB0698
:10148000F0E0E853F94F80818093BB009091EB0628
:101490008091EA06981708F479CF85E88093BC001C
:1014A0000AC085EC8093BC0010928E0204C010929A
:1014B0008C020E943408FF91EF91BF91AF919F91F0
:1014C0008F917F916F915F914F913F912F910F90ED
:1014D0000BBE0F900FBE0F901F90189590E0FC016F
:1014E0003197E231F10508F04EC08827EE58FF4FE2
:1014F0008F4F0C949D10809180008F7703C0809156
:1015000080008F7D80938000089580918000877F88
:10151000F9CF84B58F7702C084B58F7D84BD0895DF
:101520008091B0008F7703C08091B0008F7D809351
:10153000B0000895809190008F7707C0809190004F
:101540008F7D03C080919000877F809390000895E5
:101550008091A0008F7707C08091A0008F7D03C08D
:101560008091A000877F8093A00008958091200142
:101570008F7707C0809120018F7D03C0809120016B
:10158000877F8093200108951F93CF93DF93282FA7
:1015900030E0F901ED58FD4F8491F901E35DFD4F15
:1015A000D491F901E951FE4FC491CC23C9F0162F13
:1015B00081110E946E0AEC2FF0E0EE0FFF1FE35343
:1015C000FE4FA591B4918FB7F894111105C09C916D
:1015D000ED2FE095E92302C0EC91ED2BEC938FBF4A
:1015E000DF91CF911F910895CF93DF9390E0FC019D
:1015F000E35DFD4F2491FC01E951FE4F8491882366
:1016000061F190E0880F991FFC01ED54FE4FC591E8
:10161000D491FC01E353FE4FA591B491611109C02F
:101620009FB7F8948881209582238883EC912E239C
:101630000BC0623061F49FB7F8943881822F809597
:1016400083238883EC912E2B2C939FBF06C08FB7EA
:10165000F894E8812E2B28838FBFDF91CF910895D6
:101660003FB7F8948091C4069091C506A091C60634
:10167000B091C70626B5A89B05C02F3F19F001966B
:10168000A11DB11D3FBFBA2FA92F982F8827820F08
:10169000911DA11DB11DBC01CD0142E0660F771F58
:1016A000881F991F4A95D1F708951F920F920FB680
:1016B0000F9211242F933F938F939F93AF93BF93D8
:1016C0008091C0069091C106A091C206B091C30658
:1016D0003091BF0623E0230F2D3720F40196A11D82
:1016E000B11D05C026E8230F0296A11DB11D209350
:1016F000BF068093C0069093C106A093C206B09324
:10170000C3068091C4069091C506A091C606B0910B
:10171000C7060196A11DB11D8093C4069093C5060E
:10172000A093C606B093C706BF91AF919F918F91CA
:101730003F912F910F900FBE0F901F9018957894A6
:1017400084B5826084BD84B5816084BD85B58260C6
:1017500085BD85B5816085BD80916E008160809377
:101760006E001092810080918100826080938100E0
:1017700080918100816080938100809180008160F0
:10178000809380008091B10084608093B10080914B
:10179000B00081608093B00080919100826080935E
:1017A00091008091910081608093910080919000E0
:1017B0008160809390008091A10082608093A1005D
:1017C0008091A10081608093A1008091A000816040
:1017D0008093A000809121018260809321018091FB
:1017E000210181608093210180912001816080939B
:1017F000200180917A00846080937A0080917A0041
:10180000826080937A0080917A00816080937A0070
:1018100080917A00806880937A001092C100E091F4
:101820000904F0910A0482E08083E0910504F091BC
:1018300006041082E0910704F09108048FEC808385
:1018400010921104E0910D04F0910E0486E0808363
:10185000E0910B04F0910C04808180618083E09121
:101860000B04F0910C04808188608083E0910B046C
:10187000F0910C04808180688083E0910B04F091EA
:101880000C0480818F7D808361E0809187060E94B7
:10189000F40A60E0809187060E94C40A60E08091AB
:1018A00086060E94F40A83EB92E09093910680935F
:1018B00090061092BE061092BD06109290021092F1
:1018C000B20210928E0281E080938D021092680223
:1018D00061E084E10E94C40A61E085E10E94C40ADB
:1018E0008091B9008E7F8093B9008091B9008D7F7F
:1018F0008093B90088E48093B80085E48093BC00AD
:1019000080E090E1A0E0B0E080939306909394068D
:10191000A0939506B09396068AE090E0A0E0B0E030
:101920008093970690939806A0939906B0939A0691
:1019300080E090E0A0E0B0E480939B0690939C064A
:10194000A0939D06B0939E0660E070E185E00E9442
:10195000EB086FE979E380E00E94EB08C3EAD6E088
:10196000C12CD12CE12CF12C6CE1262E62E0362E1C
:1019700072E6472E72E0572EEBECAE2EE7E0BE2E5D
:10198000FBE88F2E99249394C7018A57994F3C0105
:10199000FC019481828186010A57194FF801818FD9
:1019A000928F61E00E94F40A61E0F801828D0E944A
:1019B000F40AF301908586818883F801968F61E0AF
:1019C0000E94F40A60E0F801868D0E94F40A61E04A
:1019D00088810E94C40A1FB7F89480916702811120
:1019E00025C0F1018491F2019491E82FF0E0EE0F0F
:1019F000FF1FED54FE4FA591B4918C91982321F4D3
:101A000061E085E30E94C40A61E085E30E94F40A74
:101A10008CB580618CBD8CB580648CBD61E084E345
:101A20000E94F40A61E083E30E94F40A8091670255
:101A30008F5F809367021FBFC5010197F1F760E0D8
:101A400088810E94C40A88E80E94EB0283E00E9419
:101A5000EB0261E088810E94C40AC5010197F1F799
:101A600060E088810E94C40A88E90E94EB0280E05D
:101A70000E94EB0280E00E94EB0280E00E94EB02F9
:101A800080E00E94EB0261E088810E94C40AC401E8
:101A90000197F1F760E088810E94C40A80EE0E94FD
:101AA000EB0261E088810E94C40AF2E0CF0ED11CF3
:101AB0002296EA94EF2821F0EE24E394F12C64CFEF
:101AC000CBEAD6E01C2F1C5F60E089910E94F40AEB
:101AD0001C13FACF0AEB16E0C7EBD6E095E0C92E4F
:101AE0002CE0E22E32E0B32EDC2ED394D394FE0110
:101AF0003897F08088818C3008F044C061E08F2DE9
:101B00000E94F40A8881C89EF0011124E859FA4F16
:101B10009F2D9F732081207CF22EF92AF082138260
:101B200014826E2D0E9491109CE0899FA0011124C7
:101B300020E030E0B901640F751FC69EF001C79E1A
:101B4000F00D1124E859FA4F908196FD12C02F5FD5
:101B50003F4F2C30310571F781110BC0109280007E
:101B6000B09281001092850010928400B6BAB092B3
:101B70006F00E881CE9EF0011124E859FA4F808170
:101B800080648083FE013297908132978081F801D2
:101B900031978083F801908360E00E94F40A61E04D
:101BA000F80180810E94F40A60E0F80180810E94BF
:101BB000C40A21960E5F1F4FDC1299CFF894109241
:101BC000200189E08093210180E293E09093290134
:101BD00080932801109225011092240182E08093C5
:101BE000730078948093960410929A0480919704DD
:101BF00060E00E94F40A60E080E40E94F40A60E081
:101C000086E30E94F40A60E087E30E94F40A60E041
:101C100088E30E94F40A60E089E30E94F40A60E02D
:101C20008DE30E94F40A60E08EE30E94F40A60E013
:101C30008CE30E94F40A62E080E30E94F40A60E010
:101C400082E00E94F40A60E083E00E94F40A60E00F
:101C500084E00E94F40A60E085E00E94F40A60E0FB
:101C60008BE00E94F40A60E08CE00E94F40A62E0DB
:101C700085EA95E00E940B070E94300B4B015C0146
:101C800088E8C82E83E1D82EE12CF12C0E94300B7D
:101C9000DC01CB0188199909AA09BB09883E934048
:101CA000A105B10558F021E0C21AD108E108F108F8
:101CB00088EE880E83E0981EA11CB11CC114D104CB
:101CC000E104F10419F7C6E480917B00877F8093DB
:101CD0007B00C0937C0080917A00806480937A00BE
:101CE00080917A0086FDFCCF809178002091790068
:101CF00090E0922B843691050CF4FFCF0E94BE0237
:101D0000E3CF8091BD059091BE050C943A111092DD
:101D1000B6021092B50288EE93E0A0E0B0E08093A6
:101D2000B7029093B802A093B902B093BA022BE025
:101D300032E03093B4022093B3021092C2021092A8
:101D4000C1028093C3029093C402A093C502B093D2
:101D5000C6022DE132E03093C0022093BF0245E37A
:101D600051E05093CC024093CB0244E351E05093B6
:101D7000CE024093CD0240E351E05093D002409315
:101D8000CF0241E351E05093D2024093D10242E3AB
:101D900051E05093D4024093D30246E351E0509374
:101DA000D6024093D5021092D8021092D902109216
:101DB000DA021092DB0210925F0310925E038093AE
:101DC000600390936103A0936203B0936303309325
:101DD0005D0320935C0345ED50E05093690340930D
:101DE000680344ED50E050936B0340936A0340ED69
:101DF00050E050936D0340936C0341ED50E05093DD
:101E00006F0340936E0342ED50E050937103409393
:101E1000700346ED50E050937303409372031092A9
:101E20007503109276031092770310927803109244
:101E3000FC031092FB038093FD039093FE03A09399
:101E4000FF03B09300043093FA032093F90385EC69
:101E500090E0909306048093050484EC90E09093C6
:101E600008048093070480EC90E090930A04809328
:101E7000090481EC90E090930C0480930B0482ECB5
:101E800090E090930E0480930D0486EC90E0909384
:101E9000100480930F0410921204109213041092F5
:101EA00014041092150486E38093A70687E38093B9
:101EB000A80688E38093A90689E38093AA068BE1AC
:101EC0008093AB068DE18093AC068AE18093AD06EA
:101ED0008CE18093AE0684E08093AF0687E0809328
:101EE000B0061092B10684EB8093B20686E180932F
:101EF000B30688E18093B40687E18093B50689E153
:101F00008093B606E091A405EC3020F08FEF80932B
:101F1000B70610C081E08E0F8093A405E093B7064A
:101F200025E0E29FF0011124E859FA4F88EB9BE08D
:101F300092838183E091A405EC3020F08FEF8093B1
:101F4000B80610C081E08E0F8093A405E093B80618
:101F500085E0E89FF0011124E859FA4F88EB9BE0F7
:101F6000928381838CE08093860684E28093870647
:101F700086E08093880685E0809389068FE18093D0
:101F80008A068EE180938B0683E280938C0682E240
:101F900080938D0685E480938E0684E480938F067B
:101FA00080E4809392061092970610929806109201
:101FB000990610929A0610929B0610929C06109217
:101FC0009D0610929E06E8ECF5E08FEF9FEFDC0196
:101FD000128213821482158216821782108611864D
:101FE00083879487A587B6878787908BA18BB28BD1
:101FF000128611821082739626E0E638F20741F7C6
:102000008DE090E00E94A510FC01138212828BE308
:1020100092E091838083118687E2848384E18287C2
:1020200084E083871486F093C505E093C40510927D
:10203000C6051092C70585E2809397041092990413
:102040001092BE051092BD051092C0051092BF05FA
:102050001092C2051092C10561E070E080E090E04E
:102060000E94D211009791F09093BE058093BD0518
:102070001092C0051092BF052091C1053091C20594
:10208000232B09F045C0FC01108242C08091BD05A0
:102090009091BE05009711F00E943A111092BE0572
:1020A0001092BD051092C2051092C1051092C00594
:1020B0001092BF051092A8051092A7058FE292E03A
:1020C0009093A6058093A5058CE08093A9058FEFDA
:1020D0008093AA058BE08093AB0585E08093AC05E7
:1020E00084E08093AD0583E08093AE0582E0809329
:1020F000AF051092B0051092B1051092B205109282
:10210000B3051092B40561E085EA95E00C940B07E5
:102110001092C2051092C10565E472E00E94C912D6
:10212000C9CF991B79E004C0991F961708F0961B38
:10213000881F7A95C9F780950895EE0FFF1F881FB5
:102140008BBF0790F691E02D1994CF93DF938230E7
:10215000910510F482E090E0E0911307F0911407EC
:1021600020E030E0C0E0D0E0309711F140815181B3
:1021700048175907C0F04817590761F482819381C5
:10218000209719F09B838A832BC090931407809328
:10219000130726C02115310519F04217530718F40B
:1021A0009A01BE01DF01EF010280F381E02DDCCF57
:1021B0002115310509F1281B390B2430310590F424
:1021C00012968D919C9113976115710521F0FB0179
:1021D0009383828304C09093140780931307FD01B7
:1021E000329644C0FD01E20FF31F81939193225078
:1021F00031092D933C933AC0209111073091120779
:10220000232B41F4209103023091040230931207F2
:10221000209311072091010230910202211531050E
:1022200041F42DB73EB74091050250910602241BA0
:10223000350BE0911107F0911207E217F307A0F4B4
:102240002E1B3F0B2817390778F0AC014E5F5F4F0C
:102250002417350748F04E0F5F1F50931207409325
:1022600011078193919302C0E0E0F0E0CF01DF918C
:10227000CF9108950F931F93CF93DF93009709F4A5
:102280008CC0FC01329713821282009113071091C7
:1022900014070115110581F420813181820F931FEC
:1022A00020911107309112072817390779F5F0931B
:1022B0001207E093110771C0D80140E050E0AE175B
:1022C000BF0750F412962D913C911397AD01211543
:1022D000310509F1D901F3CF9D01DA01338322835E
:1022E00060817181860F971F8217930769F4EC0153
:1022F00028813981260F371F2E5F3F4F318320837E
:102300008A819B8193838283452B29F4F093140760
:10231000E093130742C01396FC93EE931297ED01DE
:10232000499159919E01240F351FE217F30771F46B
:1023300080819181840F951F029611969C938E93B4
:102340008281938113969C938E931297E0E0F0E044
:10235000D80112968D919C911397009719F0F8016E
:102360008C01F6CF8D919C9198012E5F3F4F820F8B
:10237000931F20911107309112072817390769F42C
:10238000309729F4109214071092130702C0138299
:1023900012821093120700931107DF91CF911F91C2
:1023A0000F9108956F927F928F929F92AF92BF92FA
:1023B000CF92DF92EF92FF920F931F93CF93DF9311
:1023C000EC01009789F4CB01DF91CF911F910F9120
:1023D000FF90EF90DF90CF90BF90AF909F908F9045
:1023E0007F906F900C94A510FC01E60FF71F9C01E5
:1023F00022503109E217F30708F4ACC0D9010D915E
:102400001C91119706171707B0F00530110508F455
:102410009FC0C80104978617970708F499C0025017
:102420001109061B170B019311936D937C93CF0138
:102430000E943A118DC05B01A01AB10A4C01800EB6
:10244000911EA0911307B091140740E050E0E12CD9
:10245000F12C109709F44AC0A815B905D1F56D9073
:102460007C901197630182E0C80ED11CCA14DB0472
:1024700080F1A3014A195B096A0182E0C80ED11CF0
:102480001296BC9012971396AC91B5E0CB16D1047E
:1024900040F0B282A38351834083D9016D937C9332
:1024A0000AC00E5F1F4FC301800F911FF901918376
:1024B0008083EB2DFA2FE114F10431F0D70113964C
:1024C000FC93EE93129744C0F0931407E093130724
:1024D0003FC08D919C9111974817590708F4AC01A2
:1024E0007D0112960D90BC91A02DB3CF8091110764
:1024F0009091120788159905E1F446175707C8F41B
:102500008091010290910202009741F48DB79EB72D
:102510004091050250910602841B950BE817F907BC
:10252000C8F4F0931207E0931107F90171836083F7
:102530000FC0CB010E94A5107C01009759F0A801A3
:10254000BE010E94C012CE010E943A11C70104C010
:10255000CE0102C080E090E0DF91CF911F910F91FA
:10256000FF90EF90DF90CF90BF90AF909F908F90B3
:102570007F906F90089581E090E0F8940C94D012D1
:10258000FB01DC0102C001900D9241505040D8F790
:102590000895FB01DC0101900D920020E1F7089500
:1025A00011E0CEE5D1E000E006C0802FFE010E94E0
:1025B0009D102196011DCF35D10780E00807A9F7AE
:0425C000F894FFCFBD
:1025C400FF00001507200000000000BC088C08F381
:1025D4000266088408750867080000000052029229
:1025E40001D60199020702E501F901000000007615
:1025F400059201F302F2020000000036039201F397
:0626040002F2020D0A00C3
:00000001FF
