:100000000C9495010C94C6010C94C6010C94C60185
:100010000C94C6010C94C6010C94C6010C94C60144
:100020000C94C6010C94D00C0C94D00C0C94D00CF5
:100030000C94C6010C94F2080C94C6010C94C601F1
:100040000C94C6010C9422050C94C6010C94C601B4
:100050000C94C6010C94C6010C94C6010C94550F67
:100060000C94C6010C94610A0C94370A0C94C601D6
:100070000C94C6010C94C6010C94C6010C94C601E4
:100080000C94C6010C94C6010C94C6010C94C601D4
:100090000C94C6010C94C6010C94C6010C94DA0CA5
:1000A0000C94C6010C94C6010C94C6010C94C601B4
:1000B0000C94C6010C94C6010C94C6010C94EF027A
:1000C0000C94C6010C94C6010C94C6010C940D0A44
:1000D0000C94E3090C94C6010C94B9090C948F0993
:1000E0000C94C6010E041304180422042C04A50465
:1000F00036043E04460450045A04640473047D0428
:10010000A504870491049B04A40EA70E960E9A0ED4
:10011000A00EDE0EAB0EAF0EB50EB90EBD0EC30EA9
:10012000C70ECB0EDE0ED10ED50ED90E0C94A50443
:100130000C94D50E0C9446040C94CB0E0C94DE0E4D
:100140000C94A00E0C940E040C9436020C949F0F89
:100150000C941A0B0C94A40E0C94F9010C943E040C
:100160000C9422040C9450040C9439020C94360420
:100170000C94BD0E0C94AF0E0C94C8010C945A0450
:100180000C94AB0E0C94740B0C9435020C947D04FF
:100190000C94A8080C941C0B0C94960E0C949A0EBC
:1001A0000C94190B0C9491040C94FD120C94800285
:1001B0000C94C70E0C94D7010C94D10E0C949B0494
:1001C0000C942C040C94470B0C94A70E0C942B0B42
:1001D0000C94EB010C9473040C9487040C94CD02E2
:1001E0000C94C30E0C9464040C943F0B0C94B50E49
:1001F0000C9418040C941B0B0C9413040C94D90E3F
:100200000C94B90E0200002200250028002B002EBD
:10021000003100340002010000050108010B01005B
:100220000020002300260029002C002F00320000AF
:100230000100000301060109010505050507050880
:10024000080808020202020A0A0808040404040159
:10025000010101010101010303030303030303047B
:100260000707070C0C0C0C0C0C0C0C02020202060B
:10027000060606060606060B0B0B0B0B0B0B0B01FB
:1002800002102020080810204010204080020102A7
:10029000010804020101020408102040808040206F
:1002A00010080402018004020180402010080402AA
:1002B0000108040201010204081020408001020428
:1002C000081020408000000A0B02090C0D0E0807E0
:1002D0000304010000000000000000000000000016
:1002E000000000000000000000000000000000000E
:1002F00000121110000000000000000000000000CB
:1003000000000000000000000000000000210024A8
:100310000027002A002D00300033000101000004F6
:100320000107010A0100FD129F0F11241FBECFEF2C
:10033000D1E2DEBFCDBF00E00CBF12E0A0E0B2E032
:10034000EEE7F3E300E00BBF02C007900D92A0368A
:10035000B107D9F727E0A0E6B2E001C01D92A733AC
:10036000B207E1F711E0C4E9D1E000E006C021974F
:100370000109802FFE010E947016C339D10780E069
:100380000807A9F70E94A50F0C94AD190C94000062
:10039000FC01538D448D252F30E0842F90E0821B8B
:1003A000930B541710F0CF96089501970895FC0110
:1003B000918D828D981761F0828DDF01A80FB11D9C
:1003C0005D968C91928D9F5F9F73928F90E00895C0
:1003D0008FEF9FEF0895FC01918D828D981731F07A
:1003E000828DE80FF11D858D90E008958FEF9FEFCE
:1003F0000895FC01918D228D892F90E0805C9F4FA4
:10040000821B91098F7399270895E0E0F0E0199419
:1004100080E090E0892B21F00E94E808811119C04A
:1004200080E090E0892B41F080E090E0892B21F082
:100430000E940000811110C00E94DE0881110FC0CF
:1004400080E090E0892B81F00E94D40881110AC0DD
:1004500008950E940000E4CF0E940000EDCF0E94AA
:100460000502EECF0C9400000895089580E090E01E
:1004700008950F931F93CF93DF938C01C62FD62F30
:10048000D07FD1606D2F0E948F0C6D2FC8010E940C
:10049000A20C80E1C89FB0011124C62FC1606C2F4F
:1004A000C8010E948F0C6C2FC8010E94A20C81E031
:1004B00090E0DF91CF911F910F910895FC01848D01
:1004C000DF01A80FB11DA35ABF4F2C91848D90E07E
:1004D00001968F739927848FA689B7892C93A08959
:1004E000B1898C91837080648C93938D848D9813E3
:1004F00006C00288F389E02D80818F7D8083089576
:10050000EF92FF920F931F93CF93DF93EC0181E063
:10051000888F9B8D8C8D981305C0E889F98980811F
:1005200085FD26C0F62E0B8D10E00F5F1F4F0F7359
:100530001127E02E8C8DE8120CC00FB607FCFACF05
:10054000E889F989808185FFF5CFCE010E945E029E
:10055000F1CF8B8DFE01E80FF11DE35AFF4FF082C2
:100560009FB7F8940B8FEA89FB89808180620AC06B
:100570009FB7F894EE89FF896083E889F9898081C3
:100580008370806480839FBF81E090E0DF91CF9192
:100590001F910F91FF90EF900895CF93DF93EC019F
:1005A000888D8823C9F0EA89FB89808185FD05C093
:1005B000A889B9898C9186FD0FC00FB607FCF5CFCD
:1005C000808185FFF2CFA889B9898C9185FFEDCF15
:1005D000CE010E945E02E7CFDF91CF9108951F9276
:1005E0000F920FB60F9211240BB60F922F933F93D9
:1005F0004F935F936F937F938F939F93AF93BF932B
:10060000EF93FF93809171040E940C0E209175046A
:10061000309176042F5F3F4F30937604209375041A
:1006200090917404953618F096E090937004909130
:1006300070049430C9F128F4923069F09330D1F00D
:100640005EC0953009F451C0963009F058C091E071
:100650009093410551C0811152C020917504309191
:1006600076042436310508F442C0109241051092F8
:1006700074041CC0813009F042C0E091740491E020
:100680009E0F90937404F0E02091750430917604ED
:10069000EE0FFF1FE059FB4F30872783109276043F
:1006A0001092750494E029C0811117C0E091740480
:1006B00091E09E0F90937404F0E0209175043091C6
:1006C0007604EE0FFF1FE059FB4F3087278310920F
:1006D00076041092750493E010C020917504309157
:1006E00076042536310558F007C0811108C01092F4
:1006F00076041092750403C095E090937004909175
:1007000073049923B9F081110AC08091720488237F
:1007100021F08091720461E009C02F9A0BC0809192
:100720007204882331F08091720460E00E94350EDB
:1007300001C02F98FF91EF91BF91AF919F918F9141
:100740007F916F915F914F913F912F910F900BBED1
:100750000F900FBE0F901F9018958F929F92AF929F
:10076000BF92CF92DF92EF92FF920F931F93CF939E
:10077000DF938C016A017B0120E030E04FE753E416
:10078000C701B6010E944B154B015C0120E030E02F
:10079000A9010E948D1718161CF4C501B40103C0ED
:1007A000C501B40190580E945717EB0120E030E0DA
:1007B000A901C701B6010E948D17181614F460E054
:1007C00001C061E0F80181810E94350ECF3FD10563
:1007D00009F014F4DD2702C0CFEFD0E0F80110815A
:1007E00061E0812F0E94DF0E209709F4B1C0CF3F56
:1007F000D10509F4AFC0E12FF0E0EB53FD4FE491D8
:100800008E2F90E0FC013197E231F10508F09DC098
:100810008827EE58FF4F8F4F0C94701684B5806870
:1008200084BDC7BDA7C084B5806284BDC8BDA2C059
:1008300080918000806880938000D0938900C0936D
:10084000880098C080918000806280938000D0935F
:100850008B00C0938A008EC0809180008860809356
:100860008000D0938D00C0938C0084C08091B00034
:1008700080688093B000C093B3007CC08091B000CA
:1008800080628093B000C093B40074C080919000E7
:10089000806880939000D0939900C09398006AC0BC
:1008A00080919000806280939000D0939B00C093D1
:1008B0009A0060C080919000886080939000D093EF
:1008C0009D00C0939C0056C08091A00080688093DA
:1008D000A0008091A0008F7B8093A000D093A900FE
:1008E000C093A80047C08091A00080628093A000C0
:1008F000D093AB00C093AA003DC08091A000886057
:100900008093A000D093AD00C093AC0033C0809121
:100910002001806880932001D0932901C093280191
:1009200029C080912001806280932001D0932B0107
:10093000C0932A011FC0809120018860809320010C
:10094000D0932D01C0932C0115C0C038D10514F4EB
:1009500060E001C061E0812FDF91CF911F910F9185
:10096000FF90EF90DF90CF90BF90AF909F908F90CF
:100970000C94350EDF91CF911F910F91FF90EF9066
:10098000DF90CF90BF90AF909F908F9008951F936E
:10099000CF93DF93EC01162F88818C3008F04DC087
:1009A00061E0812F0E94DF0EE88195E09E9FF001BB
:1009B0001124EE5BFA4F1F738081807C182B10830B
:1009C0001382E8819E9FF0011124EE5BFA4F14829E
:1009D00088816CE00E9464169CE0899FA00111242C
:1009E00020E030E095E0BA01620F731F969FF0019E
:1009F000979FF00D1124EE5BFA4F608166FD13C0E6
:100A00002F5F3F4F2C30310571F781110CC01092D0
:100A1000800082E080938100109285001092840013
:100A200086BB80936F00E88185E0E89FF001112488
:100A3000EE5BFA4F8081806480838881DF91CF9163
:100A40001F9108951F920F920FB60F9211240BB6AB
:100A50000F922F933F934F935F936F937F938F9357
:100A60009F93AF93BF93EF93FF9380917B0287FF98
:100A700005C0109285001092840016C020917B0260
:100A8000022E000C330B80917E0590E02817390769
:100A90005CF430917B0225E03203F0011124EE5B1F
:100AA000FA4F808186FD15C080917B028F5F809315
:100AB0007B0220917B02022E000C330B80917E057D
:100AC00090E02817390794F480917B028C302CF148
:100AD0000DC030917B023203F0011124EE5BFA4F1E
:100AE000808160E08F730E94350EDECF809184009C
:100AF0009091850084349C4918F480E49CE905C0F9
:100B00008091840090918500049690938900809351
:100B100088008FEF80937B022AC04091840050911F
:100B2000850030917B0225E03203F0011124EE5B59
:100B3000FA4F81819281840F951F90938900809351
:100B4000880030917B023203F0011124EE5BFA4FF2
:100B5000808186FF0CC030917B023203F0011124AA
:100B6000EE5BFA4F808161E08F730E94350EFF913A
:100B7000EF91BF91AF919F918F917F916F915F9115
:100B80004F913F912F910F900BBE0F900FBE0F9082
:100B90001F9018958EBD00000DB407FEFDCF8EB5D9
:100BA0000895CF93DF93EC0160E088810E94350EB9
:100BB00088E90E94CA0580E00E94CA0580E00E9480
:100BC000CA0580E00E94CA0580E00E94CA0561E073
:100BD00088810E94350E8BE891E00197F1F760E083
:100BE00088810E94350E80EE0E94CA0561E08881EE
:100BF000DF91CF910C94350EAF92BF92CF92DF92DE
:100C0000EF92FF920F931F93CF93DF93CDB7DEB791
:100C100060970FB6F894DEBF0FBECDBF5C0160E0F9
:100C2000FC0180810E94350E80E60E94CA058E017B
:100C30000F5F1F4F7E01F1E1EF0EF11C680180E0B4
:100C40000E94CA0590E0A0E0B0E0F6018193919384
:100C5000A193B1936F01EE15FF0589F761E0F501EE
:100C600080810E94350E80E090E0DC01F801419126
:100C70005191619171918F01BA2FA92F982F8827D7
:100C8000840F951FA61FB71FEE15FF0579F79C016E
:100C9000AD0166277727CB01621B730B840B950B85
:100CA00060960FB6F894DEBF0FBECDBFDF91CF9137
:100CB0001F910F91FF90EF90DF90CF90BF90AF907A
:100CC00008956091AF0570E087EB95E00E94C7043E
:100CD00064E670E080E090E00E941B0F8091790252
:100CE00090917A021816190664F4019790937A028B
:100CF000809379020E94EC0B64E170E080E090E068
:100D0000EBCF64E170E080E090E00E941B0FE09187
:100D1000B70585E0E89FF0011124EE5BFA4F808172
:100D20008F7B808308958F929F92AF92BF92CF92D4
:100D3000DF92EF92FF920F931F93CF93DF93CDB784
:100D4000DEB7A1970FB6F894DEBF0FBECDBF60919E
:100D5000AF0570E087EB95E00E94C7048DE70E9425
:100D6000EC0B64E670E080E090E00E941B0F8DE7E2
:100D7000C82ED12CE12CF12C9AE0892E912CA12C9B
:100D8000B12C19A2A70196018E010F5D1F4FCA0158
:100D9000B901A50194010E943316605DF8016293C8
:100DA0008F01211531054105510589F7CF010E94B9
:100DB000A30B8FE392E00E94A30B8C2D0E94EC0BFF
:100DC00060E070E0CB010E941B0F80E30E940C0EDC
:100DD000892BC9F5E091B70585E0E89FF001112462
:100DE000EE5BFA4F80818F7B8083CA94CD28CE281A
:100DF000CF2859F4E091B70585E0E89FF001112470
:100E0000EE5BFA4F80818F7B8083E091B70585E0B0
:100E1000E89FF0011124EE5BFA4F80818F7B808385
:100E2000A1960FB6F894DEBF0FBECDBFDF91CF9174
:100E30001F910F91FF90EF90DF90CF90BF90AF90F8
:100E40009F908F900895F1E0CF16D104E104F10452
:100E500089F2E1E0CE1AD108E108F10892CF40E032
:100E600050E0BA018FE995E00E94AD0340E050E008
:100E700060E070E881EA95E00E94AD0383EA95E0C6
:100E80000E94D10585EA95E00E94D10566E970E0EF
:100E900080E090E00C941B0F4F925F926F927F92D4
:100EA0008F929F92AF92BF92CF92DF92EF92FF927A
:100EB000CF93DF9328EB3EE94BE653E40E94E5161F
:100EC00020E030E048E455E40E944B152B013C0142
:100ED000C0E0D0E083EA95E00E94FC059095809503
:100EE000709561957F4F8F4F9F4F0E94EC14A30127
:100EF00092010E94E51418160CF41AC1209731F5DE
:100F0000C4E2D0E0C12CD12C76012AE037ED43E2D7
:100F10005CE3C701B6010E9479166B017C01AB014D
:100F2000BC018FE995E00E94AD03B701A60170589E
:100F300081EA95E00E94AD0363E270E080E090E01A
:100F40000E941B0F219709F7C1E0D0E083EA95E0EA
:100F50000E94FC0590958095709561957F4F8F4F0D
:100F60009F4F0E94EC146B017C0126E636E646EAB0
:100F70005FE3C301B2010E94E5169B01AC01C7010A
:100F8000B6010E948D1787FD69C083EA95E00E9433
:100F9000FC056B017C0185EA95E00E94FC054B0194
:100FA0005C0166277727CB016C197D098E099F09A3
:100FB0000E94EC146B017C01C501B4010E94EC1489
:100FC0009B01AC01C701B6010E9478166B017C0140
:100FD0004AE959E969E97EE38FE995E00E94AD03AA
:100FE0002DEC3CEC4CEC5DE3C701B6010E944B15C7
:100FF00020E030E0A9010E94791620E030E0A9014C
:101000000E944B154B015C012FE832EC45EF5CE38D
:10101000C701B6010E944B159B01AC01C501B4018B
:101020000E94791620E030E048EC52E40E94E51678
:101030002AE939E949E95EE30E947916AB01BC016E
:10104000705881EA95E00E94AD0364E670E080E0AC
:1010500090E00E941B0FC2E0D0E03CCFC130D10530
:10106000D1F783EA95E00E94FC056B017C0185EADB
:1010700095E00E94FC054B015C0166277727CB01B8
:101080006C197D098E099F090E94EC146B017C018B
:10109000C501B4010E94EC149B01AC01C701B6016B
:1010A0000E9478166B017C014DEC5CEC6CEC7EE3ED
:1010B0008FE995E00E94AD032DEC3CEC4CEC5DE338
:1010C000C701B6010E944B1520E030E0A9010E9443
:1010D000791620E030E0A9010E944B154B015C011C
:1010E0002FE832EC45EF5CE3C701B6010E944B15D7
:1010F0009B01AC01C501B4010E94791620E030E0EB
:1011000048EC52E40E94E5162DEC3CEC4CEC5EE31E
:101110000E947916AB01BC01705881EA95E00E94EB
:10112000AD0364E670E080E090E00E941B0FD2CE39
:10113000DF91CF91FF90EF90DF90CF90BF90AF9075
:101140009F908F907F906F905F904F900C942F079F
:10115000CF92DF92EF92FF920F931F93CF93DF9383
:101160006C017A018B01C0E0D0E0CE15DF0581F083
:10117000D8016D918D01D601ED91FC910190F08126
:10118000E02DC6011995892B11F02196EECF7E0135
:10119000C701DF91CF911F910F91FF90EF90DF90EA
:1011A000CF9008950E94981989E992E00E94F90170
:1011B00021E0892B09F420E0822F089586E393E053
:1011C0000E94F90121E0892B09F420E0822F089583
:1011D00083ED93E00E94F90121E0892B09F420E0DE
:1011E000822F08951F920F920FB60F9211240BB603
:1011F0000F922F933F934F935F936F937F938F93B0
:101200009F93AF93BF93EF93FF9380917D02909153
:101210007E02A0917F02B0918002892B8A2B8B2BBA
:1012200049F190917C028091000089278093000011
:1012300080917D0290917E02A0917F02B091800208
:10124000181619061A061B060CF056C080917D026E
:1012500090917E02A0917F02B09180020197A10936
:10126000B10980937D0290937E02A0937F02B09398
:10127000800242C080910002E4E0F2E0E4919FEF3E
:1012800090930002E230C9F050F4EE2399F0E1307F
:1012900081F590916F009D7F90936F002AC0E4309C
:1012A00019F1E0F0E53029F5909173009D7F90935E
:1012B00073001FC010926E001CC0909170009D7F43
:1012C0009093700091E09093B0009091B100987F5E
:1012D00094609093B1001092B3000BC09091710094
:1012E0009D7F9093710005C0909172009D7F9093B7
:1012F000720060E00E94350EFF91EF91BF91AF91B7
:101300009F918F917F916F915F914F913F912F911D
:101310000F900BBE0F900FBE0F901F9018951F924D
:101320000F920FB60F9211240BB60F922F933F938B
:101330004F935F936F937F938F939F93AF93BF93DD
:10134000EF93FF9389E992E00E945E02FF91EF9193
:10135000BF91AF919F918F917F916F915F914F91CD
:101360003F912F910F900BBE0F900FBE0F901F90CB
:1013700018951F920F920FB60F9211240BB60F9271
:101380002F933F934F935F936F937F938F939F938D
:10139000AF93BF93EF93FF9389E992E00E94B70C5C
:1013A000FF91EF91BF91AF919F918F917F916F913D
:1013B0005F914F913F912F910F900BBE0F900FBEF9
:1013C0000F901F9018951F920F920FB60F92112435
:1013D0000BB60F922F933F934F935F936F937F932F
:1013E0008F939F93AF93BF93EF93FF9386E393E025
:1013F0000E945E02FF91EF91BF91AF919F918F91FB
:101400007F916F915F914F913F912F910F900BBE04
:101410000F900FBE0F901F9018951F920F920FB64E
:101420000F9211240BB60F922F933F934F935F931C
:101430006F937F938F939F93AF93BF93EF93FF939C
:1014400086E393E00E94B70CFF91EF91BF91AF91BB
:101450009F918F917F916F915F914F913F912F91CC
:101460000F900BBE0F900FBE0F901F9018951F92FC
:101470000F920FB60F9211240BB60F922F933F933A
:101480004F935F936F937F938F939F93AF93BF938C
:10149000EF93FF9383ED93E00E945E02FF91EF9143
:1014A000BF91AF919F918F917F916F915F914F917C
:1014B0003F912F910F900BBE0F900FBE0F901F907A
:1014C00018951F920F920FB60F9211240BB60F9220
:1014D0002F933F934F935F936F937F938F939F933C
:1014E000AF93BF93EF93FF9383ED93E00E94B70C0C
:1014F000FF91EF91BF91AF919F918F917F916F91EC
:101500005F914F913F912F910F900BBE0F900FBEA7
:101510000F901F90189530918C02313208F04BC01B
:1015200080918A028111FCCF9091670622E020937E
:101530008A0221E0209389022FEF20934506109222
:10154000440630934306E7E4F6E0A3E2B6E020E089
:10155000321721F041914D932F5FFACF109222065E
:1015600020912206990F922B909322069091880247
:10157000913061F410928802909122069093BB0002
:101580009091BC0093FDF8CF95EC01C095EE90933F
:10159000BC0090918A029230E1F3909145069F3F02
:1015A00079F080914506803241F080914506803384
:1015B00031F084E005C081E003C082E001C083E037
:1015C00010928B0210928C0210924606089585EDBF
:1015D0008093BC008091BC0084FDFCCF10928A02F5
:1015E00008954091FD05262F30E0240F311D213252
:1015F0003105DCF420918A022430C9F4FC0180E03A
:1016000090E0861758F43091FD052191DC01A3523A
:10161000BA4FA30FB11D2C930196F3CF8091FD0516
:10162000680F6093FD0580E0089581E0089582E0F1
:101630000895089508950895E091830280918202AB
:10164000E81730F4F0E0E354FA4F808190E0089519
:101650008FEF9FEF089590918302809182029817F7
:1016600050F4E92FF0E0E354FA4F208130E09F5F1F
:101670009093830202C02FEF3FEFC901089580913C
:10168000820290E020918302821B91090895CF92FB
:10169000DF92EF92FF920F931F93CF93DF937C0122
:1016A000CB018A0120914606222389F0EB016B01D0
:1016B000C40ED51ECC15DD0569F06991D701ED91F9
:1016C000FC910190F081E02DC7011995F3CF642FB3
:1016D0000E94F10AC801DF91CF911F910F91FF90F5
:1016E000EF90DF90CF900895CF93DF931F92CDB707
:1016F000DEB76983209146062223D1F020918C0227
:10170000203240F021E030E0FC013383228380E08E
:1017100090E015C080918B02E82FF0E0E95BF94F73
:10172000998190838F5F80938B0280938C0205C098
:1017300061E0CE0101960E94F10A81E090E00F90F5
:10174000DF91CF910895009769F0FC01019000208E
:10175000E9F73197AF01481B590BBC0183ED93E0CA
:101760000C94A80880E090E008950F931F93CF9306
:10177000DF93162F072FC6E8D5E09C8521E0209344
:1017800046069093670610928B0210928C02AA85EF
:10179000BB85ED91FC9111970190F081E02D682FB0
:1017A000CD0119958A859B85DC01ED91FC91019015
:1017B000F081E02D602F19958A859B85DC01ED91E4
:1017C000FC910190F081E02D612F1995DF91CF916F
:1017D0001F910F910C948B0ACF92DF92EF92FF92A0
:1017E000CF93DF939091B105891720F09091B205C6
:1017F000981770F482E492E00E94A30B8FE392E0CA
:10180000DF91CF91FF90EF90DF90CF900C94A30BDE
:10181000C091B705CC3008F07BC0282F30E0D0E075
:10182000283C3105E4F595E09C9FF0019D9FF00D6B
:101830001124EE5BFA4F938128E830E06901C91A60
:10184000D10897FDD394CC0CDD1CCC0CDD1C0D2CE9
:10185000000CEE08FF08948128E532E0291B3109CD
:1018600097FD3395220F331F220F331FA901330F2A
:10187000660B770B9A01AB012C193D094E095F09E4
:10188000A82FB0E00E94281624EB30E040E050E0A2
:101890000E940916C20ED31EE41EF51E27C085E065
:1018A0008C9FF0018D9FF00D1124EE5BFA4F838128
:1018B00048E850E06A01C81AD10887FDD394CC0CDF
:1018C000DD1CCC0CDD1C2C153D0584F0448188E525
:1018D00092E0841B910947FD9395880F991F880F0B
:1018E000991F69018C159D050CF46C018FB7F89454
:1018F00095E09C9FF0019D9FF00D1124EE5BFA4F47
:1019000096E0C91AD108CC0CDD1CD282C1828FBFEF
:10191000DF91CF91FF90EF90DF90CF900895FC0181
:10192000248131E0309346062093670610928B02A3
:1019300010928C028485682B8DE892E00E94740BD3
:101940000C948B0A0F931F93CF938C01C62F646066
:101950000E948F0C6C2F6B7FC8010E948F0C83EC50
:1019600090E00197F1F7CF911F910F910895FC013D
:10197000A089B1898C91A689B78982FD0FC09C91FD
:10198000818D8F5F8F73228D821749F0218DDF014A
:10199000A20FB11D5D969C93818F08958C9108953F
:1019A0001F920F920FB60F9211240F900FBE0F903F
:1019B0001F9018951F920F920FB60F9211240BB61D
:1019C0000F922F933F934F935F936F937F938F93D8
:1019D0009F93AF93BF93EF93FF938091B900887F5C
:1019E000803609F49CC068F5883209F45BC090F435
:1019F000803109F454C038F4882309F4F6C08830E3
:101A000009F44DC0F6C0883109F44CC0803209F4A5
:101A10005DC0EFC0803409F468C048F4803309F435
:101A200055C0883309F0E5C080934506D8C080359D
:101A300009F44FC0883509F45DC0883409F0D9C075
:101A4000D6C0883909F4C7C0A8F4883709F467C03C
:101A500038F4883609F463C0803709F460C0C9C01F
:101A6000883809F4B8C0803909F45FC0803809F0BB
:101A7000C0C05BC0803B09F486C038F4803A09F4EA
:101A800066C0883A09F47FC0B4C0803C09F4A7C09E
:101A9000883C09F4A4C0883B09F48AC0AAC080919C
:101AA000220610C09091440680914306981770F565
:101AB000E091440681E08E0F80934406F0E0ED5DF6
:101AC000F94F80818093BB0085EC86C080934506EA
:101AD0008EC0E091440681E08E0F80934406809191
:101AE000BB00F0E0ED5DF94F80839091440680915A
:101AF00043066EC0E091440681E08E0F8093440659
:101B00008091BB00F0E0ED5DF94F80838091890208
:101B100081116DC081E08093880284EA61C083E016
:101B200080938A0210921F06CFCF80911F068032C9
:101B300008F051C0E0911F0681E08E0F80931F06D0
:101B40008091BB00F0E0E150FA4F8083BDCF85EC7F
:101B50008093BC0010928A0280911F06803230F47C
:101B6000E0911F06F0E0E150FA4F108260911F06ED
:101B700070E0E0918602F09187028FEF95E0199571
:101B800010921F0636C084E080938A021092FE05F0
:101B90001092FD05E0918402F091850219958091E3
:101BA000FD05811105C081E08093FD051092DD05E2
:101BB000E091FE0581E08E0F8093FE05F0E0E35298
:101BC000FA4F80818093BB009091FE058091FD05C6
:101BD000981708F479CF85E88093BC000AC085EC9B
:101BE0008093BC0010928A0204C0109245060E94A5
:101BF000E70AFF91EF91BF91AF919F918F917F91F4
:101C00006F915F914F913F912F910F900BBE0F906D
:101C10000FBE0F901F901895CF93DF93282F30E0C1
:101C2000F901EB53FD4F8491F901E158FD4FD49137
:101C3000F901E75CFD4FC491CC2391F081110E9422
:101C4000890EEC2FF0E0EE0FFF1FE15EFD4FA59136
:101C5000B491EC91ED2381E090E021F480E002C0AA
:101C600080E090E0DF91CF9108951F93CF93DF93B1
:101C7000282F30E0F901EB53FD4F8491F901E15831
:101C8000FD4FD491F901E75CFD4FC491CC23C1F025
:101C9000162F81110E94890EEC2FF0E0EE0FFF1F2E
:101CA000EB5FFD4FA591B4919FB7F894111104C05B
:101CB0008C91D095D82302C0EC91DE2BDC939FBF92
:101CC000DF91CF911F9108953FB7F89480912F072E
:101CD00090913007A0913107B091320726B5A89BAB
:101CE00005C02F3F19F00196A11DB11D3FBFBA2FAE
:101CF000A92F982F8827820F911DA11DB11DBC010E
:101D0000CD0142E0660F771F881F991F4A95D1F7D2
:101D1000089590E0FC013197E231F10508F04EC0E2
:101D20008827EC57FF4F8F4F0C94701680918000DE
:101D30008F7703C0809180008F7D8093800008950D
:101D400080918000877FF9CF84B58F7702C084B5FA
:101D50008F7D84BD08958091B0008F7703C08091FE
:101D6000B0008F7D8093B0000895809190008F77B0
:101D700007C0809190008F7D03C080919000877F85
:101D80008093900008958091A0008F7707C0809184
:101D9000A0008F7D03C08091A000877F8093A0006A
:101DA0000895809120018F7707C0809120018F7D59
:101DB00003C080912001877F809320010895CF93F5
:101DC000DF9390E0FC01E158FD4F2491FC01E75CBA
:101DD000FD4F8491882361F190E0880F991FFC01E9
:101DE000E55FFC4FC591D491FC01EB5FFD4FA591E0
:101DF000B491611109C09FB7F8948881209582231E
:101E00008883EC912E230BC0623061F49FB7F89465
:101E10008881322F309583238883EC912E2B2C934D
:101E20009FBF06C08FB7F894E8812E2B28838FBF01
:101E3000DF91CF9108958F929F92AF92BF92CF92F0
:101E4000DF92EF92FF926B017C010E94640E4B01C6
:101E50005C01C114D104E104F104F1F00E94640EAC
:101E6000DC01CB0188199909AA09BB09883E934076
:101E7000A105B10570F321E0C21AD108E108F1080B
:101E800088EE880E83E0981EA11CB11CC114D104F9
:101E9000E104F10419F7DDCFFF90EF90DF90CF90D0
:101EA000BF90AF909F908F9008951F920F920FB6A2
:101EB0000F9211242F933F938F939F93AF93BF93D0
:101EC00080912B0790912C07A0912D07B0912E07A0
:101ED00030912A0723E0230F2D3720F40196A11D0E
:101EE000B11D05C026E8230F0296A11DB11D209348
:101EF0002A0780932B0790932C07A0932D07B0936C
:101F00002E0780912F0790913007A0913107B09153
:101F100032070196A11DB11D80932F0790933007C2
:101F2000A0933107B0933207BF91AF919F918F91EA
:101F30003F912F910F900FBE0F901F901895809199
:101F40007F05909180050C942A18789484B582605E
:101F500084BD84B5816084BD85B5826085BD85B54D
:101F6000816085BD80916E00816080936E001092CB
:101F70008100809181008260809381008091810046
:101F800081608093810080918000816080938000D7
:101F90008091B10084608093B1008091B000816035
:101FA0008093B00080919100826080939100809135
:101FB0009100816080939100809190008160809376
:101FC00090008091A10082608093A1008091A10087
:101FD00081608093A1008091A00081608093A00027
:101FE0008091210182608093210180912101816093
:101FF0008093210180912001816080932001809154
:102000007A00846080937A0080917A008260809365
:102010007A0080917A00816080937A0080917A00C2
:10202000806880937A001092C100E091E303F09100
:10203000E40382E08083E091DF03F091E00310820B
:10204000E091E103F091E2038FEC80831092EB03C7
:10205000E091E703F091E80386E08083E091E503F7
:10206000F091E603808180618083E091E503F09147
:10207000E603808188608083E091E503F091E603C8
:10208000808180688083E091E503F091E6038081A0
:102090008F7D808361E0809187050E94DF0E60E084
:1020A000809187050E94350E60E0809186050E9430
:1020B000DF0E8DE892E09093910580939005109249
:1020C00083021092820210928B0210928C02109264
:1020D0008A0281E0809389021092880261E084E1A3
:1020E0000E94350E61E085E10E94350E8091B900B5
:1020F0008E7F8093B9008091B9008D7F8093B90065
:1021000088E48093B80085E48093BC0089E19BE07B
:1021100090938502809384028AE19BE090938702EA
:102120008093860280E090E1A0E0B0E08093930588
:1021300090939405A0939505B09396058AE090E05E
:10214000A0E0B0E08093970590939805A09399053F
:10215000B0939A0580E090E0A0E0B0E480939B0506
:1021600090939C05A0939D05B0939E0560E070E15F
:1021700085E00E94B50B6FE979E380E00E94B50B22
:10218000C6E8D5E08E0192E0792E2EE6A22E22E05E
:10219000B22E34EB832E32E0932E4BECE42E47E04C
:1021A000F42EF80194818281898F9A8F61E00E94D8
:1021B000DF0E61E08A8D0E94DF0EF8019085868136
:1021C0006E01FDE1CF0ED11C8D8F9E8F61E00E94CC
:1021D000DF0E60E08E8D0E94DF0E61E08D8D0E942B
:1021E000350E6FB6F89480918102811126C0F501F9
:1021F0008491F4012491E82FF0E0EE0FFF1FE55FDA
:10220000FC4FA591B4919C91822F892321F461E028
:1022100085E30E94350E61E085E30E94DF0E8CB5F8
:1022200080618CBD8CB580648CBD61E084E30E94CC
:10223000DF0E61E083E30E94DF0E809181028F5FF9
:10224000809381026FBEC7010197F1F760E08D8D29
:102250000E94350E88E80E94CA0583E00E94CA05E4
:1022600061E08D8D0E94350EC7010197F1F7C6011F
:102270000E94D1057A940F5F1F4F2296711091CF63
:102280000BEA15E0CFEAD5E060E0F80181918F011B
:102290000E94DF0EC017D107B9F707EA15E07E01EB
:1022A000FFEFEF1AFF0A688170E0CE0108960E94E6
:1022B000C704F70195818381F801828B938B60E0DD
:1022C0000E94DF0E61E0F80183890E94DF0E60E06A
:1022D000F80183890E94350E0E5F1F4FE701F5E07C
:1022E000C13BDF07E1F6F8941092200189E080936A
:1022F000210180E293E090932901809328011092BC
:1023000025011092240182E08093730078948093D9
:102310007004109274048091710460E00E94DF0EDA
:1023200060E080E40E94DF0E60E08FE30E94DF0E39
:1023300060E08CE30E94DF0E60E08DE30E94DF0E20
:1023400060E08EE30E94DF0E62E080E30E94DF0E19
:1023500068E873E180E090E00E941B0F02E010E06B
:1023600060E070E088EC92E40E944C070E946106F5
:1023700060E070E08CE892E40E944C0785EA95E00A
:102380000E94FC050E94EC1425E535E549E755E47B
:102390000E94E51418168CF040E050E060E87EEBF7
:1023A0008FE995E00E94AD0340E050E060E87EEBED
:1023B00081EA95E00E94AD03E1CF0E942F07C0E0C3
:1023C000D0E083EA95E00E94FC0590958095709599
:1023D00061957F4F8F4F9F4F0E94EC142BEB3BEA90
:1023E0004DE654EC0E948D1787FDECC0209711F448
:1023F000C1E0D0E083EA95E00E94FC0590958095CD
:10240000709561957F4F8F4F9F4F0E94EC142FED79
:1024100032ED46E354E40E948D1787FD69C083EADC
:1024200095E00E94FC056B017C0185EA95E00E9425
:10243000FC054B015C0166277727CB016C197D09F0
:102440008E099F090E94EC146B017C01C501B40147
:102450000E94EC149B01AC01C701B6010E947816E2
:102460006B017C014AE959E969E97EE38FE995E06E
:102470000E94AD032DEC3CEC4CEC5DE3C701B601D2
:102480000E944B1520E030E0A9010E94791620E05F
:1024900030E0A9010E944B154B015C012FE832ECA2
:1024A00045EF5CE3C701B6010E944B159B01AC01EF
:1024B000C501B4010E94791620E030E048EC52E4F6
:1024C0000E94E5162AE939E949E95EE30E94791696
:1024D000AB01BC01705881EA95E00E94AD0364E64F
:1024E00070E080E090E00E941B0FC2E0D0E069CF76
:1024F000C130D105D1F783EA95E00E94FC056B015C
:102500007C0185EA95E00E94FC054B015C01662791
:102510007727CB016C197D098E099F090E94EC1465
:102520006B017C01C501B4010E94EC149B01AC015C
:10253000C701B6010E9478166B017C014DEC5CEC82
:102540006CEC7EEB8FE995E00E94AD032DEC3CEC4A
:102550004CEC5DE3C701B6010E944B1520E030E072
:10256000A9010E94791620E030E0A9010E944B15D4
:102570004B015C012FE832EC45EF5CE3C701B6018B
:102580000E944B159B01AC01C501B4010E94791654
:1025900020E030E048EC52E40E94E5162DEC3CECE3
:1025A0004CEC5EE30E947816AB01BC01705881EAE6
:1025B00095E00E94AD0364E670E080E090E00E9448
:1025C0001B0FFFCE0E942F070E9493060150110996
:1025D00009F0C6CE8091AE050E940C0E892B21F029
:1025E0000E9493060E9461066AE070E080E090E03D
:1025F0000E941B0F0E940802B1CE1092900210920E
:102600008F0288EE93E0A0E0B0E080939102909377
:102610009202A0939302B093940223E132E03093AC
:102620008E0220938D0210929C0210929B02809346
:102630009D0290939E02A0939F02B093A00225E278
:1026400032E030939A022093990245E351E050938F
:10265000A6024093A50244E351E05093A8024093A0
:10266000A70240E351E05093AA024093A90241E33C
:1026700051E05093AC024093AB0242E351E05093DF
:10268000AE024093AD0246E351E05093B002409356
:10269000AF021092B2021092B3021092B4021092E2
:1026A000B502109239031092380380933A03909345
:1026B0003B03A0933C03B0933D0330933703209337
:1026C000360345ED50E0509343034093420344EDFD
:1026D00050E0509345034093440340ED50E0509345
:1026E00047034093460341ED50E050934903409324
:1026F000480342ED50E050934B0340934A0346EDAC
:1027000050E050934D0340934C0310924F031092AE
:10271000500310925103109252031092D60310925C
:10272000D5038093D7039093D803A093D903B09394
:10273000DA033093D4032093D30385EC90E0909395
:10274000E0038093DF0384EC90E09093E2038093B6
:10275000E10380EC90E09093E4038093E30381EC49
:1027600090E09093E6038093E50382EC90E09093F1
:10277000E8038093E70386EC90E09093EA0380936C
:10278000E9031092EC031092ED031092EE03109205
:10279000EF038091070290910802A0910902B09185
:1027A0000A028093A7059093A805A093A905B0936A
:1027B000AA0580910B0290910C02A0910D02B0919C
:1027C0000E028093AB059093AC05A093AD05B0933A
:1027D000AE0584E08093AF0587E08093B00510924A
:1027E000B10584EB8093B20586E18093B30588E15F
:1027F0008093B40587E18093B50589E18093B605A0
:10280000E0917E05EC3020F08FEF8093B70510C08B
:1028100081E08E0F80937E05E093B70585E0E89F09
:10282000F0011124EE5BFA4F88EB9BE092838183E9
:10283000E0917E05EC3020F08FEF8093B80510C05A
:1028400081E08E0F80937E05E093B80585E0E89FD8
:10285000F0011124EE5BFA4F88EB9BE092838183B9
:102860008CE08093860584E28093870586E08093E0
:10287000880585E0809389058FE180938A058EE144
:1028800080938B0583E280938C0582E280938D0593
:1028900085E480938E0584E480938F0580E48093A3
:1028A0009205109297051092980510929905109232
:1028B0009A0510929B0510929C0510929D0510920E
:1028C0009E05ECE6F6E02AE237E08FEF9FEFDC01B1
:1028D0001282138214821582168217821086118644
:1028E00083879487A587B6878787908BA18BB28BC8
:1028F00012861182108273962E173F0749F78DE0DA
:1029000090E00E949217FC011382128287E392E00A
:1029100091838083118687E2848384E1828784E0C7
:1029200083871486F0936906E093680610926A061E
:1029300010926B0685E280937104109273041092DA
:10294000800510927F0510928205109281051092E9
:1029500084051092830561E070E080E090E00E94C1
:10296000B318009789F09093800580937F051092AB
:102970008205109281052091830530918405232BD7
:10298000C1F4FC01108215C080917F0590918005F3
:10299000009711F00E942A181092800510927F056E
:1029A0001092840510928305109282051092810581
:1029B0000895109284051092830561E472E080917D
:1029C0007F05909180050C94A6190E94271508F4A4
:1029D00081E00895E89409C097FB3EF490958095B6
:1029E000709561957F4F8F4F9F4F9923A9F0F92FD5
:1029F00096E9BB279395F695879577956795B79553
:102A0000F111F8CFFAF4BB0F11F460FF1BC06F5F38
:102A10007F4F8F4F9F4F16C0882311F096E911C04A
:102A2000772321F09EE8872F762F05C0662371F06B
:102A300096E8862F70E060E02AF09A95660F771F7F
:102A4000881FDAF7880F9695879597F90895990F5B
:102A50000008550FAA0BE0E8FEEF16161706E80768
:102A6000F907C0F012161306E407F50798F0621B89
:102A7000730B840B950B39F40A2661F0232B242B5E
:102A8000252B21F408950A2609F4A140A6958FEF7D
:102A9000811D811D08950E945E150C94CF150E9422
:102AA000C11538F00E94C81520F0952311F00C9440
:102AB000B8150C94BE1511240C9403160E94E01551
:102AC00070F3959FC1F3950F50E0551F629FF00181
:102AD000729FBB27F00DB11D639FAA27F00DB11D9A
:102AE000AA1F649F6627B00DA11D661F829F222723
:102AF000B00DA11D621F739FB00DA11D621F839FAA
:102B0000A00D611D221F749F3327A00D611D231F7F
:102B1000849F600D211D822F762F6A2F11249F57CD
:102B200050409AF0F1F088234AF0EE0FFF1FBB1FD0
:102B3000661F771F881F91505040A9F79E3F51058F
:102B400080F00C94B8150C9403165F3FE4F3983EA4
:102B5000D4F3869577956795B795F795E7959F5F39
:102B6000C1F7FE2B880F911D9695879597F90895CB
:102B700097F99F6780E870E060E008959FEF80EC30
:102B8000089500240A9416161706180609060895D3
:102B900000240A9412161306140605060895092E39
:102BA0000394000C11F4882352F0BB0F40F4BF2BA8
:102BB00011F460FF04C06F5F7F4F8F4F9F4F0895E8
:102BC00057FD9058440F551F59F05F3F71F04795DE
:102BD000880F97FB991F61F09F3F79F087950895C3
:102BE000121613061406551FF2CF4695F1DF08C0E2
:102BF000161617061806991FF1CF869571056105FF
:102C000008940895E894BB2766277727CB0197F9A6
:102C10000895052E97FB1EF400940E94201657FD80
:102C200007D00E94331607FC03D04EF40C942016F4
:102C300050954095309521953F4F4F4F5F4F0895E8
:102C400090958095709561957F4F8F4F9F4F089518
:102C50000E945516A59F900DB49F900DA49F800DC6
:102C6000911D11240895A1E21A2EAA1BBB1BFD0180
:102C70000DC0AA1FBB1FEE1FFF1FA217B307E4075B
:102C8000F50720F0A21BB30BE40BF50B661F771FB3
:102C9000881F991F1A9469F7609570958095909593
:102CA0009B01AC01BD01CF010895A29FB001B39F6C
:102CB000C001A39F700D811D1124911DB29F700D45
:102CC000811D1124911D0895991B79E004C0991F5D
:102CD000961708F0961B881F7A95C9F78095089576
:102CE000EE0FFF1F881F8BBF0790F691E02D199400
:102CF0005058BB27AA270E9490160C94CF150E940B
:102D0000C11538F00E94C81520F039F49F3F19F41E
:102D100026F40C94BE150EF4E095E7FB0C94B81560
:102D2000E92F0E94E01558F3BA176207730784076A
:102D3000950720F079F4A6F50C9402160EF4E095B0
:102D40000B2EBA2FA02D0B01B90190010C01CA0165
:102D5000A0011124FF27591B99F0593F50F4503E10
:102D600068F11A16F040A22F232F342F4427585F02
:102D7000F3CF469537952795A795F0405395C9F71A
:102D80007EF41F16BA0B620B730B840BBAF09150D2
:102D9000A1F0FF0FBB1F661F771F881FC2F70EC071
:102DA000BA0F621F731F841F48F487957795679544
:102DB000B795F7959E3F08F0B0CF9395880F08F030
:102DC0009927EE0F9795879508950E94F9160C9410
:102DD000CF150E94C81558F00E94C11540F029F483
:102DE0005F3F29F00C94B81551110C9403160C9404
:102DF000BE150E94E01568F39923B1F3552391F3B2
:102E0000951B550BBB27AA2762177307840738F059
:102E10009F5F5F4F220F331F441FAA1FA9F335D0B6
:102E20000E2E3AF0E0E832D091505040E695001C6A
:102E3000CAF72BD0FE2F29D0660F771F881FBB1F24
:102E4000261737074807AB07B0E809F0BB0B802D02
:102E5000BF01FF2793585F4F3AF09E3F510578F02E
:102E60000C94B8150C9403165F3FE4F3983ED4F32A
:102E7000869577956795B795F7959F5FC9F7880F02
:102E8000911D9695879597F90895E1E0660F771F54
:102E9000881FBB1F621773078407BA0720F0621BE5
:102EA000730B840BBA0BEE1F88F7E09508950E9410
:102EB0005E176894B1110C94031608950E94E815EA
:102EC00088F09F5798F0B92F9927B751B0F0E1F0EB
:102ED000660F771F881F991F1AF0BA95C9F714C09B
:102EE000B13091F00E940216B1E008950C940216E0
:102EF000672F782F8827B85F39F0B93FCCF38695D4
:102F000077956795B395D9F73EF490958095709530
:102F100061957F4F8F4F9F4F08950E94271508F4AA
:102F20008FEF08950F931F93CF93DF938230910516
:102F300010F482E090E0E0913507F091360720E050
:102F400030E0A0E0B0E0309719F14081518102817A
:102F5000138148175907C8F08417950769F410972B
:102F600031F012960C93129713961C9327C000937E
:102F700035071093360722C02115310519F0421785
:102F8000530718F49A01BD01EF01DF01F801DBCF0F
:102F900021153105F9F0281B390B2430310580F457
:102FA0008A819B816115710521F0FB0193838283E6
:102FB00004C09093360780933507FE01329644C0D3
:102FC000FE01E20FF31F819391932250310939835F
:102FD00028833AC02091330730913407232B41F4E2
:102FE0002091030230910402309334072093330779
:102FF00020910102309102022115310541F42DB7D3
:103000003EB74091050250910602241B350BE0911A
:103010003307F0913407E217F307A0F42E1B3F0BA0
:103020002817390778F0AC014E5F5F4F241735073A
:1030300048F04E0F5F1F509334074093330781933E
:10304000919302C0E0E0F0E0CF01DF91CF911F91BA
:103050000F910895CF93DF93009709F481C0FC018D
:10306000329713821282A0913507B09136071097DC
:1030700081F420813181820F931F20913307309199
:1030800034072817390751F5F0933407E0933307D5
:1030900067C0ED0120E030E0CE17DF0740F44A8141
:1030A0005B819E0141155105F1F0EA01F5CFD38313
:1030B000C28340815181840F951FC817D90759F4E5
:1030C00088819981840F951F0296918380838A81DC
:1030D0009B81938382832115310529F4F093360770
:1030E000E09335073DC0E901FB83EA83499159919B
:1030F000C40FD51FEC17FD0761F480819181840F07
:10310000951F0296E90199838883828193819B832D
:103110008A83E0E0F0E012968D919C9113970097DE
:1031200019F0FD01DC01F7CF8D919C9111979D0164
:103130002E5F3F4F820F931F20913307309134074A
:103140002817390769F4309729F41092360710923E
:10315000350702C013821282B0933407A09333075D
:10316000DF91CF9108956F927F928F929F92AF924D
:10317000BF92CF92DF92EF92FF920F931F93CF9364
:10318000DF93009789F4CB01DF91CF911F910F91CD
:10319000FF90EF90DF90CF90BF90AF909F908F9077
:1031A0007F906F900C949217FC01E60FF71F9C0123
:1031B00022503109E217F30708F4A9C0EC01D90144
:1031C0000D911C91119706171707B0F005301105E6
:1031D00008F49BC0C80104978617970708F495C0A8
:1031E00002501109061B170B019311936D937C93E9
:1031F000CF010E942A1889C05B01A01AB10A4C01B4
:10320000800E911EA0913507B0913607612C712C6C
:10321000E12CF12C109709F446C08D919C911197E7
:10322000A815B905B1F56C0142E0C40ED11CCA1451
:10323000DB0478F14C018A189B08640142E0C40E5B
:10324000D11C1296BC9012971396AC91B5E0CB1698
:10325000D10440F0B282A38391828082D9016D9320
:103260007C9309C00E5F1F4F800F911FF90191835E
:103270008083EB2DFA2FE114F10431F0D70113967E
:10328000FC93EE93129741C0F0933607E093350715
:103290003CC06816790608F43C017D0112960D9039
:1032A000BC91A02DB7CF8091330790913407881639
:1032B0009906E1F466167706C8F4809101029091B0
:1032C0000202009741F48DB79EB7409105025091DC
:1032D0000602841B950BE817F907C8F4F09334072E
:1032E000E0933307F901718360830FC0CB010E9423
:1032F00092177C01009759F0A801BE010E949D1908
:10330000CE010E942A18C70104C0CE0102C080E08D
:1033100090E0DF91CF911F910F91FF90EF90DF90A0
:10332000CF90BF90AF909F908F907F906F900895B7
:1033300081E090E0F8940C94AD19FB01DC0102C02F
:1033400001900D9241505040D8F70895FB01DC01E7
:1033500001900D920020E1F7089511E0C4E9D1E059
:1033600000E006C0802FFE010E9470162196011D0C
:0E337000C539D10780E00807A9F7F894FFCF10
:10337E00FF000037078000363738391B1D1A1C0036
:10338E00000000740B470B36021B0B3F0B2B0B1C64
:10339E000B000000008002A808C801CD02F901D779
:1033AE0001EB01000000003902A808360235020DBB
:1033BE000A00536572766F20616E676C65206973C3
:1033CE00206F7574206F662072616E676521000034
:00000001FF
