:100000000C9491010C94C2010C94C2010C94C20195
:100010000C94C2010C94C2010C94C2010C94C20154
:100020000C94C2010C9481080C9481080C948108F2
:100030000C94C2010C948B030C94C2010C94C20169
:100040000C94C2010C940D0B0C94C2010C94C201CF
:100050000C94C2010C94C2010C94C2010C94410393
:100060000C94C2010C94FC040C94D2040C94C201B4
:100070000C94C2010C94C2010C94C2010C94C201F4
:100080000C94C2010C94C2010C94C2010C94C201E4
:100090000C94C2010C94C2010C94C2010C948B0804
:1000A0000C94C2010C94C2010C94C2010C94C201C4
:1000B0000C94C2010C94C2010C94C2010C9426054C
:1000C0000C94C2010C94C2010C94C2010C94A804BB
:1000D0000C947E040C94C2010C9454040C942A04D5
:1000E0000C94C2016D067206770681068B06040722
:1000F00095069D06A506AF06B906C306D206DC0620
:100100000407E606F006FA06D809DB09CA09CE0993
:10011000D409120ADF09E309E909ED09F109F70930
:10012000FB09FF09120A050A090A0D0A0C940D0AB7
:100130000C94C4010C948B060C94F1090C94B90A2C
:100140000C94CA090C946D060C94D40F0C94120AEA
:100150000C9484020C94FF090C94D4090C949D0611
:100160000C9458070C9476070C942B020C94E80A14
:100170000C9417020C94A5060C9495060C94E309B4
:100180000C94F0060C94CB020C94DB090C94AF0693
:100190000C94090A0C94050A0C94ED090C94D206EF
:1001A0000C94E9090C94CE090C94D8090C943902EA
:1001B0000C9404070C94DF090C94B9060C94720695
:1001C0000C94F7090C94FB090C94BA0A0C94DC0605
:1001D0000C947E070C94AF110C94AE070C94590745
:1001E0000C9481060C94FA060C9467070C94C306D1
:1001F0000C94E6060C9477060C940802000020008C
:100200002300260029002C002F00320000010000EE
:100210000301060109010200002100240027002A31
:10022000002D003000330001010000040107010A25
:100230000100002200250028002B002E0031003490
:100240000002010000050108010B01050505050775
:100250000508080808020202020A0A080804040441
:10026000040101010101010101030303030303036D
:1002700003040707070C0C0C0C0C0C0C0C020202FC
:100280000206060606060606060B0B0B0B0B0B0BEF
:100290000B0102102020080810204010204080028E
:1002A00001020108040201010204081020408080BC
:1002B0004020100804020180040201804020100840
:1002C0000402010804020101020408102040800118
:1002D0000204081020408000000A0B02090C0D0ED9
:1002E00008070304010000000000000000000000F7
:1002F00000000000000000000000000000000000FE
:1003000000000012111000000000000000000000BA
:100310000000000000000000000000000000D40FFA
:10032000AF1111241FBECFEFD1E2DEBFCDBF00E081
:100330000CBF12E0A0E0B2E0EEEAFBE200E00BBF8F
:1003400002C007900D92A833B107D9F726E0A8E3C1
:10035000B2E001C01D92AF3EB207E1F711E0C0E983
:10036000D1E000E006C021970109802FFE010E9424
:10037000E512CF38D10780E00807A9F70E941E0DCB
:100380000C94C5150C940000CF92DF92EF92FF926F
:100390000F931F93CF93DF936C017A018B01C0E021
:1003A000D0E0CE15DF0589F0D8016D918D01D60121
:1003B000ED91FC910190F081E02DC6011995892BFA
:1003C00011F47E0102C02196ECCFC701DF91CF91DD
:1003D0001F910F91FF90EF90DF90CF900895FC0157
:1003E000A089B1898C91A689B78982FD0FC09C91A3
:1003F000818D8F5F8F73228D821749F0218DDF01F0
:10040000A20FB11D5D969C93818F08958C910895E4
:10041000FC01538D448D252F30E0842F90E0821B0A
:10042000930B541710F0CF96089501970895FC018F
:10043000918D828D981761F0828DDF01A80FB11D1B
:100440005D968C91928D9F5F9F73928F90E008953F
:100450008FEF9FEF0895FC01918D828D981731F0F9
:10046000828DE80FF11D858D90E008958FEF9FEF4D
:100470000895FC01918D228D892F90E0805C9F4F23
:10048000821B91098F73992708958EE592E00E944F
:10049000390221E0892B09F420E0822F08958BEFA7
:1004A00092E00E94390221E0892B09F420E0822F9A
:1004B000089588E993E00E94390221E0892B09F42C
:1004C00020E0822F0895FC01848DDF01A80FB11D6B
:1004D000A35ABF4F2C91848D90E001968F7399277A
:1004E000848FA689B7892C93A089B1898C91806467
:1004F0008C93938D848D981306C00288F389E02D28
:1005000080818F7D80830895EF92FF920F931F93D8
:10051000CF93DF93EC0181E0888F9B8D8C8D9813B6
:1005200005C0E889F989808185FD24C0F62E0B8DF0
:1005300010E00F5F1F4F0F731127E02E8C8DE81214
:100540000CC00FB607FCFACFE889F989808185FFD6
:10055000F5CFCE010E946302F1CF8B8DFE01E80F33
:10056000F11DE35AFF4FF0820B8FEA89FB898081EE
:10057000806207C0EE89FF896083E889F9898081FC
:100580008064808381E090E0DF91CF911F910F9193
:10059000FF90EF900895CF93DF93EC01888D88232F
:1005A000C9F0EA89FB89808185FD05C0A889B989E0
:1005B0008C9186FD0FC00FB607FCF5CF808185FFBB
:1005C000F2CFA889B9898C9185FFEDCFCE010E9429
:1005D0006302E7CFDF91CF91089580E090E0892B0F
:1005E00021F00E945902811119C080E090E0892B0E
:1005F00041F080E090E0892B21F00E940000811101
:1006000010C00E944F0281110FC080E090E0892B42
:1006100081F00E94450281110AC008950E940000E5
:10062000E4CF0E940000EDCF0E94BD0AEECF0C94F3
:10063000000008950E94B0153FB7F89480914502DC
:1006400090914602A0914702B091480226B5A89B1E
:1006500005C02F3F19F00196A11DB11D3FBFBA2F54
:10066000A92F982F8827820F911DA11DB11DBC01B4
:10067000CD0142E0660F771F881F991F4A95D1F779
:1006800008951F920F920FB60F9211242F933F934C
:100690008F939F93AF93BF938091410290914202B9
:1006A000A0914302B09144023091400223E0230F15
:1006B0002D3720F40196A11DB11D05C026E8230F9A
:1006C0000296A11DB11D2093400280934102909398
:1006D0004202A0934302B09344028091450290915C
:1006E0004602A0914702B09148020196A11DB11D9A
:1006F0008093450290934602A0934702B09348022C
:10070000BF91AF919F918F913F912F910F900FBE0D
:100710000F901F9018951F920F920FB60F921124F1
:100720000BB60F922F933F934F935F936F937F93EB
:100730008F939F93AF93BF93EF93FF9380913B026F
:1007400090913C02A0913D02B0913E02892B8A2BF0
:100750008B2B59F180913A02E0913802F0913902E5
:1007600090818927808380913B0290913C02A091E7
:100770003D02B0913E02181619061A061B060CF02F
:1007800056C080913B0290913C02A0913D02B091F5
:100790003E020197A109B10980933B0290933C026C
:1007A000A0933D02B0933E0242C080910002E6E178
:1007B000F2E0E4919FEF90930002E230C9F050F430
:1007C000EE2399F0E13081F590916F009D7F909339
:1007D0006F002AC0E43019F1E0F0E53029F590917E
:1007E00073009D7F909373001FC010926E001CC019
:1007F000909170009D7F9093700091E09093B00075
:100800009091B100987F94609093B1001092B300E2
:100810000BC0909171009D7F9093710005C09091E5
:1008200072009D7F9093720060E00E94130AFF9116
:10083000EF91BF91AF919F918F917F916F915F9158
:100840004F913F912F910F900BBE0F900FBE0F90C5
:100850001F9018951F920F920FB60F9211240BB68E
:100860000F922F933F934F935F936F937F938F9349
:100870009F93AF93BF93EF93FF938EE592E00E9417
:100880006302FF91EF91BF91AF919F918F917F9103
:100890006F915F914F913F912F910F900BBE0F90F1
:1008A0000FBE0F901F9018951F920F920FB60F92C8
:1008B00011240BB60F922F933F934F935F936F9337
:1008C0007F938F939F93AF93BF93EF93FF938EE5A7
:1008D00092E00E94EF01FF91EF91BF91AF919F9144
:1008E0008F917F916F915F914F913F912F910F90D9
:1008F0000BBE0F900FBE0F901F9018951F920F9276
:100900000FB60F9211240BB60F922F933F934F9374
:100910005F936F937F938F939F93AF93BF93EF9367
:10092000FF938BEF92E00E946302FF91EF91BF91E2
:10093000AF919F918F917F916F915F914F913F9177
:100940002F910F900BBE0F900FBE0F901F90189518
:100950001F920F920FB60F9211240BB60F922F9386
:100960003F934F935F936F937F938F939F93AF9337
:10097000BF93EF93FF938BEF92E00E94EF01FF9103
:10098000EF91BF91AF919F918F917F916F915F9107
:100990004F913F912F910F900BBE0F900FBE0F9074
:1009A0001F9018951F920F920FB60F9211240BB63D
:1009B0000F922F933F934F935F936F937F938F93F8
:1009C0009F93AF93BF93EF93FF9388E993E00E94C7
:1009D0006302FF91EF91BF91AF919F918F917F91B2
:1009E0006F915F914F913F912F910F900BBE0F90A0
:1009F0000FBE0F901F9018951F920F920FB60F9277
:100A000011240BB60F922F933F934F935F936F93E5
:100A10007F938F939F93AF93BF93EF93FF9388E957
:100A200093E00E94EF01FF91EF91BF91AF919F91F1
:100A30008F917F916F915F914F913F912F910F9087
:100A40000BBE0F900FBE0F901F9018951F920F9224
:100A50000FB60F9211240BB60F922F933F934F9323
:100A60005F936F937F938F939F93AF93BF93CF9336
:100A7000DF93EF93FF932091360430E0F901E952C0
:100A8000FD4F8491F901EF56FD4FD491F901E55BDB
:100A9000FD4FC491CC23A1F081110E94BD09EC2F20
:100AA000F0E0EE0FFF1FE450FE4FA591B491EC91E2
:100AB000ED2331E020E009F430E0832F922F02C0D3
:100AC00080E090E020913A0430913B042F5F3F4F4B
:100AD00030933B0420933A0420913904253618F0D2
:100AE00026E020933504209135042430D9F128F4F0
:100AF000223069F02330D9F060C0253009F453C0AA
:100B0000263009F05AC021E02093060553C0009713
:100B100009F053C020913A0430913B04243631054A
:100B200008F443C010920605109239041DC08130AC
:100B3000910509F042C0E091390421E02E0F209385
:100B40003904F0E020913A0430913B04EE0FFF1F8E
:100B5000EB5CFB4F3087278310923B0410923A04E2
:100B600024E029C00097B9F4E091390421E02E0F68
:100B700020933904F0E020913A0430913B04EE0FC9
:100B8000FF1FEB5CFB4F3087278310923B041092D2
:100B90003A0423E010C020913A0430913B042536FA
:100BA000310558F007C0009741F410923B041092B1
:100BB0003A0403C025E02093350420913804222311
:100BC000B9F0892B51F480913704882321F080916A
:100BD000370461E009C02F9A0BC080913704882345
:100BE00031F08091370460E00E94130A01C02F9811
:100BF000FF91EF91DF91CF91BF91AF919F918F9135
:100C00007F916F915F914F913F912F910F900BBE0C
:100C10000F900FBE0F901F9018958F929F92AF92DA
:100C2000BF92CF92DF92EF92FF920F931F93CF93D9
:100C3000DF93EC016A017B0120E030E04FE753E4F1
:100C4000C701B6010E941B124B015C0120E030E09D
:100C5000A9010E94951318161CF4C501B40103C024
:100C6000C501B40190580E945F138B0120E030E071
:100C7000A901C701B6010E949513181614F460E08B
:100C800001C061E089810E94130A0F3F110509F03C
:100C900014F4112702C00FEF10E0C88161E08C2F1F
:100CA0000E94430A0115110509F4B1C00F3F110557
:100CB00009F4AFC0EC2FF0E0E952FD4FE4914E2F64
:100CC00050E0FA013197E231F10508F09DC0882724
:100CD000EE58FF4F8F4F0C94E51284B5806884BDA9
:100CE00007BDA7C084B5806284BD08BDA2C0809145
:100CF00080008068809380001093890000938800B2
:100D000098C08091800080628093800010938B0057
:100D100000938A008EC0809180008860809380005C
:100D200010938D0000938C0084C08091B000806887
:100D30008093B0000093B3007CC08091B0008062CB
:100D40008093B0000093B40074C0809190008068DC
:100D50008093900010939900009398006AC080914E
:100D6000900080628093900010939B0000939A0003
:100D700060C08091900088608093900010939D00E7
:100D800000939C0056C08091A00080688093A000D2
:100D90008091A0008F7B8093A0001093A900009306
:100DA000A80047C08091A00080628093A0001093AB
:100DB000AB000093AA003DC08091A00088608093A2
:100DC000A0001093AD000093AC0033C080912001CF
:100DD000806880932001109329010093280129C085
:100DE0008091200180628093200110932B01009359
:100DF0002A011FC0809120018860809320011093F8
:100E00002D0100932C0115C00038110514F460E089
:100E100001C061E08C2FDF91CF911F910F91FF9066
:100E2000EF90DF90CF90BF90AF909F908F900C94F9
:100E3000130ADF91CF911F910F91FF90EF90DF90F8
:100E4000CF90BF90AF909F908F90089585ED809345
:100E5000BC008091BC0084FDFCCF10924D0208952F
:100E600040916606262F30E0240F311D21323105D6
:100E7000DCF420914D022430C9F4FC0180E090E0C4
:100E8000861758F4309166062191DC01AC5BB94FAE
:100E9000A30FB11D2C930196F3CF80916606680FC6
:100EA0006093660680E0089581E0089582E00895E9
:100EB000089581E090E030914A0220914902321772
:100EC00010F480E090E091958195910908958091CA
:100ED0004A0290914902891730F48F5F80934A0249
:100EE00080E090E008958FEF9FEF08958091490290
:100EF00090E020914A02821B91090895CF92DF92DF
:100F0000EF92FF920F931F93CF93DF937C01262FD5
:100F1000972F8A0180914E02882391F0C62FD72FF8
:100F20006E01C40ED51ECC15DD0571F06991D70197
:100F3000ED91FC910190F081E02DC7011995F3CF5F
:100F4000642F822F0E943007C801DF91CF911F913B
:100F50000F91FF90EF90DF90CF900895CF93DF93A4
:100F60001F92CDB7DEB7698320914E022223D1F0C4
:100F700020915102203240F021E030E0FC01338327
:100F8000228380E090E015C080914F02E82FF0E0CE
:100F9000EF54F94F998190838F5F80934F02809334
:100FA000510205C061E0CE0101960E94300781E048
:100FB00090E00F90DF91CF91089520915102909190
:100FC0005002213208F04AC080914D028111FCCFBD
:100FD00032E030934D0231E030934C023FEF3093DA
:100FE000B0061092AF062093AE06A1EBB6E04EE835
:100FF00056E0FA013E2F341B321718F43D9131931D
:10100000F9CF10928D0620918D06990F922B909317
:101010008D0690914B02913061F410924B029091A9
:101020008D069093BB009091BC0093FDF8CF95EC9A
:1010300001C095EE9093BC0090914D029230E1F387
:101040009091B0069F3F79F08091B006803241F0D8
:101050008091B006803331F084E005C081E003C0A8
:1010600082E001C083E010924F0210925102109270
:101070004E020895EF92FF921F93CF93DF931F923A
:10108000CDB7DEB7162F9DE0E92E96E0F92ED701F9
:101090001C969C911C9721E020934E029093500245
:1010A00010924F02109251021A960D90BC91A02DF1
:1010B000ED91FC9111970190F081E02D682FCD0109
:1010C00079831995F70182859385DC01ED91FC9177
:1010D0000190F081E02D7981672F1995F7018285C4
:1010E0009385DC01ED91FC910190F081E02D612F61
:1010F00019950F90DF91CF911F91FF90EF900C9475
:10110000DD071F920F920FB60F9211240F900FBEA2
:101110000F901F9018951F920F920FB60F921124E7
:101120000BB60F922F933F934F935F936F937F93E1
:101130008F939F93AF93BF93EF93FF938091B900E9
:10114000887F803609F49CC068F5883209F45BC05A
:1011500090F4803109F454C038F4882309F4F6C0BF
:10116000883009F44DC0F6C0883109F44CC0803293
:1011700009F45DC0EFC0803409F468C048F48033DE
:1011800009F455C0883309F0E5C08093B006D8C093
:10119000803509F44FC0883509F45DC0883409F002
:1011A000D9C0D6C0883909F4C7C0A8F4883709F473
:1011B00067C038F4883609F463C0803709F460C02A
:1011C000C9C0883809F4B8C0803909F45FC08038D4
:1011D00009F0C0C05BC0803B09F486C038F4803A97
:1011E00009F466C0883A09F47FC0B4C0803C09F4B1
:1011F000A7C0883C09F4A4C0883B09F48AC0AAC0EF
:1012000080918D0610C09091AF068091AE06981720
:1012100070F5E091AF0681E08E0F8093AF06F0E0AD
:10122000E257F94F80818093BB0085EC86C08093A4
:10123000B0068EC0E091AF0681E08E0F8093AF06BE
:101240008091BB00F0E0E257F94F80839091AF06A8
:101250008091AE066EC0E091AF0681E08E0F809364
:10126000AF068091BB00F0E0E257F94F8083809198
:101270004C0281116DC081E080934B0284EA61C011
:1012800083E080934D0210928A06CFCF80918A0628
:10129000803208F051C0E0918A0681E08E0F809381
:1012A0008A068091BB00F0E0E659F94F8083BDCFFC
:1012B00085EC8093BC0010924D0280918A068032AA
:1012C00030F4E0918A06F0E0E659F94F108260911F
:1012D0008A0670E0E0916806F09169068AE696E079
:1012E000199510928A0636C084E080934D021092C0
:1012F000670610926606E0916406F09165061995FE
:1013000080916606811105C081E080936606109287
:101310004406E091670681E08E0F80936706F0E057
:10132000EC5BF94F80818093BB00909167068091C0
:101330006606981708F479CF85E88093BC000AC048
:1013400085EC8093BC0010924D0204C01092B00650
:101350000E942607FF91EF91BF91AF919F918F91CE
:101360007F916F915F914F913F912F910F900BBEA5
:101370000F900FBE0F901F90189590E0FC013197D1
:10138000E231F10508F04EC08827EC57FF4F8F4F30
:101390000C94E512809180008F7703C080918000CB
:1013A0008F7D80938000089580918000877FF9CFA2
:1013B00084B58F7702C084B58F7D84BD08958091F8
:1013C000B0008F7703C08091B0008F7D8093B00014
:1013D0000895809190008F7707C0809190008F7D55
:1013E00003C080919000877F809390000895809142
:1013F000A0008F7707C08091A0008F7D03C08091EF
:10140000A000877F8093A0000895809120018F77AE
:1014100007C0809120018F7D03C080912001877FCC
:101420008093200108951F93CF93DF93282F30E0FE
:10143000F901E952FD4F8491F901EF56FD4FD49126
:10144000F901E55BFD4FC491CC23C9F0162F811142
:101450000E94BD09EC2FF0E0EE0FFF1FEF5CFD4F87
:10146000A591B4918FB7F894111105C09C91ED2FFF
:10147000E095E92302C0EC91ED2BEC938FBFDF9157
:10148000CF911F910895CF93DF9390E0FC01EF5629
:10149000FD4F2491FC01E55BFD4F8491882361F1B0
:1014A00090E0880F991FFC01E95EFD4FC591D49132
:1014B000FC01EF5CFD4FA591B491611109C09FB78C
:1014C000F8948881209582238883EC912E230BC089
:1014D000623061F49FB7F8943881822F809583231E
:1014E0008883EC912E2B2C939FBF06C08FB7F89466
:1014F000E8812E2B28838FBFDF91CF9108958F92A3
:101500009F92AF92BF92CF92DF92EF92FF926B01C8
:101510007C010E941C034B015C01C114D104E10455
:10152000F104F1F00E941C03DC01CB018819990938
:10153000AA09BB09883E9340A105B10570F321E0DB
:10154000C21AD108E108F10888EE880E83E0981EDF
:10155000A11CB11CC114D104E104F10419F7DDCFC1
:10156000FF90EF90DF90CF90BF90AF909F908F90C3
:101570000895089580E090E00895E0E0F0E0199487
:10158000FC01248131E030934E02209350021092EE
:101590004F02109251028485682B82E592E00E94EE
:1015A000AE070C94DD070F931F93CF938C01C62FCA
:1015B00064600E94C00A6C2F6B7FC8010E94C00A41
:1015C00083EC90E00197F1F7CF911F910F9108956F
:1015D0000F931F93CF93DF938C01C62FD62FD07F0D
:1015E000D1606D2F0E94C00A6D2FC8010E94D30ADE
:1015F00080E1C89FB0011124C62FC1606C2FC801C3
:101600000E94C00A6C2FC8010E94D30A81E090E0BA
:10161000DF91CF911F910F9108951F920F920FB6F6
:101620000F9211240BB60F922F933F934F935F931A
:101630006F937F938F939F93AF93BF93EF93FF939A
:101640008091EA0687FF05C0109285001092840001
:1016500016C02091EA06022E000C330B8091430540
:1016600090E0281739075CF43091EA0625E0320350
:10167000F0011124E95FFA4F808186FD15C0809149
:10168000EA068F5F8093EA062091EA06022E000C9C
:10169000330B8091430590E02817390794F480912B
:1016A000EA068C302CF10DC03091EA063203F001CD
:1016B0001124E95FFA4F808160E08F730E94130A62
:1016C000DECF809184009091850084349C4918F489
:1016D00080E49CE905C08091840090918500049687
:1016E00090938900809388008FEF8093EA062AC048
:1016F00040918400509185003091EA0625E0320344
:10170000F0011124E95FFA4F81819281840F951FC6
:1017100090938900809388003091EA063203F001AB
:101720001124E95FFA4F808186FF0CC03091EA06F0
:101730003203F0011124E95FFA4F808161E08F7379
:101740000E94130AFF91EF91BF91AF919F918F91EA
:101750007F916F915F914F913F912F910F900BBEB1
:101760000F900FBE0F901F9018958EBD00000DB406
:1017700007FEFDCF8EB50895CF93DF93EC0160E0B7
:1017800088810E94130A88E90E94B50B80E00E94BC
:10179000B50B80E00E94B50B80E00E94B50B80E0A5
:1017A0000E94B50B61E088810E94130A8BE891E0EA
:1017B0000197F1F760E088810E94130A80EE0E9491
:1017C000B50B61E08881DF91CF910C94130AAF9241
:1017D000BF92CF92DF92EF92FF920F931F93CF931E
:1017E000DF93CDB7DEB760970FB6F894DEBF0FBEBC
:1017F000CDBF5C0160E0FC0180810E94130A80E69D
:101800000E94B50B8E010F5F1F4F7E01F1E1EF0EBD
:10181000F11C680180E00E94B50B90E0A0E0B0E010
:10182000F60181939193A193B1936F01EE15FF059A
:1018300089F761E0F50180810E94130A80E090E061
:10184000DC01F80141915191619171918F01BA2FA1
:10185000A92F982F8827840F951FA61FB71FEE1555
:10186000FF0579F79C01AD0166277727CB01621B45
:10187000730B840B950B60960FB6F894DEBF0FBE0A
:10188000CDBFDF91CF911F910F91FF90EF90DF902F
:10189000CF90BF90AF9008958AE296E00E94BC0B73
:1018A0008CE296E00E94BC0B66E970E080E090E07C
:1018B0000E947F0A80E090E00895CF92DF92EF923D
:1018C000FF9228EB3EE94BE653E40E94ED1220E044
:1018D00030E048E455E40E941B126B017C018AE26F
:1018E00096E00E94E70B90958095709561957F4FEB
:1018F0008F4F9F4F0E94BC11A70196010E94B51106
:1019000018168CF040E050E060E07FE386E296E05D
:101910000E940D0640E050E060E07FEB88E296E038
:101920000E940D06DCCF40E050E0BA0186E296E06E
:101930000E940D0640E050E060E070E888E296E02A
:10194000FF90EF90DF90CF900C940D06CF92DF9236
:10195000EF92FF927C01CB01BA012FEB3DE441E312
:1019600052E40E941B120E945F136B01E114F10408
:1019700009F58CE296E00E94E70B0D2C000CEE08B6
:10198000FF088CE296E00E94E70BC616D706E80631
:10199000F906F4F140E050E0BA0186E296E00E94D8
:1019A0000D0640E050E060E07FEB88E296E00E94A8
:1019B0000D06E7CFEA94EF2859F58AE296E00E94F7
:1019C000E70B0D2C000CEE08FF088AE296E00E945F
:1019D000E70B9B01AC0188279927DC01821B930B45
:1019E000A40BB50BC816D906EA06FB068CF040E03E
:1019F00050E060E07FE386E296E00E940D0640E062
:101A000050E060E070E888E296E00E940D06DDCFCD
:101A100040E050E0BA0186E296E00E940D0640E008
:101A200050E060E070E888E296E00E940D0680E0F9
:101A300090E0FF90EF90DF90CF900895789484B578
:101A4000826084BD84B5816084BD85B5826085BDBA
:101A500085B5816085BD80916E00816080936E0048
:101A6000109281008091810082608093810080913A
:101A700081008160809381008091800081608093EB
:101A800080008091B10084608093B1008091B000AB
:101A900081608093B000809191008260809391007A
:101AA000809191008160809391008091900081608D
:101AB000809390008091A10082608093A10080912A
:101AC000A10081608093A1008091A000816080933B
:101AD000A0008091210182608093210180912101E9
:101AE0008160809321018091200181608093200199
:101AF00080917A00846080937A0080917A0082607D
:101B000080937A0080917A00816080937A0080913E
:101B10007A00806880937A001092C100E091A80357
:101B2000F091A90382E08083E091A403F091A503E2
:101B30001082E091A603F091A7038FEC80831092AE
:101B4000B003E091AC03F091AD0386E08083E091B7
:101B5000AA03F091AB03808180618083E091AA03A6
:101B6000F091AB03808188608083E091AA03F091BB
:101B7000AB03808180688083E091AA03F091AB037E
:101B800080818F7D808361E080910E060E94430AF0
:101B900060E080910E060E94130A60E080910D06BD
:101BA0000E94430A82E592E09093180680931706FC
:101BB00010924A021092490210924F021092510262
:101BC00010924D0281E080934C0210924B0261E032
:101BD00084E10E94130A61E085E10E94130A80916A
:101BE000B9008E7F8093B9008091B9008D7F80937A
:101BF000B90088E48093B80085E48093BC0080E05D
:101C000090E1A0E0B0E080931A0690931B06A093A9
:101C10001C06B0931D068AE090E0A0E0B0E080933F
:101C20001E0690931F06A0932006B093210682E023
:101C300090E0A0E0B0E08093220690932306A0936A
:101C40002406B093250660E070E185E00E943A0822
:101C50006FE979E380E00E943A08CAE2D6E0C12C3D
:101C6000D12CE12CF12C50E8652E52E0752E66EC5B
:101C7000862E62E0962E7BECA72E77E0B72EC7016A
:101C8000835F994F2C01FC01948182818601035F5F
:101C9000194FF801818F928F61E00E94430A61E041
:101CA000F801828D0E94430AF20190858681888323
:101CB000F801968F61E00E94430A60E0F801868D8A
:101CC0000E94430A61E088810E94130A1FB7F894BA
:101CD00080913F02811125C0F3018491F401949118
:101CE000E82FF0E0EE0FFF1FE95EFD4FA591B491E4
:101CF0008C91982321F461E085E30E94130A61E04E
:101D000085E30E94430A8CB580618CBD8CB58064EC
:101D10008CBD61E084E30E94430A61E083E30E949A
:101D2000430A80913F028F5F80933F021FBFC5012E
:101D30000197F1F760E088810E94130A88E80E9409
:101D4000B50B83E00E94B50B61E088810E94130A05
:101D5000C5010197F1F7CE010E94BC0BF2E0CF0E56
:101D6000D11C2296EA94EF2821F0EE24E394F12C82
:101D700086CFC2E3D6E01C2F1C5F60E089910E94F1
:101D8000430A1C13FACF01E416E0CEE3D6E085E067
:101D9000C82E9CE0E92E22E0B22EDC2ED394D39400
:101DA000FE013897F08088818C3008F044C061E0F3
:101DB0008F2D0E94430A8881C89EF0011124E95F9B
:101DC000FA4F9F2D9F732081207CF22EF92AF082FA
:101DD000138214826E2D0E94D912ECE08E9FA00116
:101DE000112420E030E0B901640F751FC69EF00198
:101DF000C79EF00D1124E95FFA4F908196FD12C045
:101E00002F5F3F4F2C30310571F781110BC01092BD
:101E10008000B09281001092850010928400B6BAC2
:101E2000B0926F00E881CE9EF0011124E95FFA4F75
:101E3000808180648083FE0134978081F80131972E
:101E40008083F801808360E00E94430A61E0F8012A
:101E500080810E94430A60E0F80180810E94130A99
:101E600021960E5F1F4FDC129BCF6AE070E080E08E
:101E700090E00E947F0A60E070E08AEF94E40E94A4
:101E80005D0C0E944C0C40E050E064EB72E480E09A
:101E900090E00E94A60C0E944C0C60E070E088EC80
:101EA00093E40E945D0C0E944C0C40E050E064EB17
:101EB00072E481E090E00E94A60C0E944C0C60E06D
:101EC00070E08FEA93E40E945D0C0E944C0C40E0AD
:101ED00050E064EB72E481E090E00E94A60C0E9466
:101EE0004C0C60E070E088EC93E40E945D0C0E9472
:101EF0004C0C40E050E064EB72E480E090E00E9423
:101F0000A60C0E944C0C60E070E084E393E40E9415
:101F10005D0C0E944C0C40E050E064E372E481E010
:101F200090E00E94A60C0E944C0C60E070E08AEAEF
:101F300093E40E945D0C0E944C0C40E050E064EB86
:101F400072E480E090E00E94A60C0E944C0C60E0DD
:101F500070E88BE394E40E945D0C0E944C0C40E01E
:101F600050E064E372E481E090E00E94A60C0E94DD
:101F70004C0C60E070E086E993E40E945D0C0E94E6
:101F80004C0C40E050E060E771E481E090E00E949A
:101F9000A60C0E944C0C60E070E88BE394E40E9475
:101FA0005D0C0E94ED0261CF109255021092540216
:101FB00088EE93E0A0E0B0E0809356029093570241
:101FC000A0935802B09359022BE032E030935302B1
:101FD000209352021092610210926002809362027A
:101FE00090936302A0936402B09365022DE132E006
:101FF00030935F0220935E0245E351E050936B0201
:1020000040936A0244E351E050936D0240936C02A6
:1020100040E351E050936F0240936E0241E351E080
:10202000509371024093700242E351E05093730267
:102030004093720246E351E050937502409374025C
:1020400010927702109278021092790210927A021E
:102050001092FE021092FD028093FF029093000303
:10206000A0930103B09302033093FC022093FB0280
:1020700045ED50E0509308034093070344ED50E0D2
:1020800050930A034093090340ED50E050930C0332
:1020900040930B0341ED50E050930E0340930D032A
:1020A00042ED50E05093100340930F0346ED50E093
:1020B00050931203409311031092140310921503CE
:1020C000109216031092170310929B0310929A031A
:1020D00080939C0390939D03A0939E03B0939F03D2
:1020E000309399032093980385EC90E09093A50397
:1020F0008093A40384EC90E09093A7038093A603BD
:1021000080EC90E09093A9038093A80381EC90E089
:102110009093AB038093AA0382EC90E09093AD037D
:102120008093AC0386EC90E09093AF038093AE0372
:102130001092B1031092B2031092B3031092B40341
:1021400086E380932E0687E380932F0688E38093AF
:10215000300689E3809331068BE1809332068DE16E
:10216000809333068AE1809334068CE180933506B0
:1021700084E08093360687E0809337061092380615
:1021800084EB8093390686E180933A0688E1809358
:102190003B0687E180933C0689E180933D06E09110
:1021A0004305EC3020F08FEF80933E0610C081E0B5
:1021B0008E0F80934305E0933E0625E0E29FF001F9
:1021C0001124E95FFA4F88EB9BE092838183E091D1
:1021D0004305EC3020F08FEF80933F0610C081E084
:1021E0008E0F80934305E0933F0685E0E89FF00162
:1021F0001124E95FFA4F88EB9BE0928381838CE0A6
:1022000080930D0684E280930E0686E080930F068D
:1022100085E0809310068FE1809311068EE1809314
:10222000120683E28093130682E28093140685E40B
:102230008093150684E48093160680E48093190643
:1022400010921E0610921F06109220061092210670
:102250001092220610922306109224061092250650
:10226000EFE4F5E08FEF9FEFDC011282138214821E
:102270001582168217821086118683879487A58718
:10228000B6878787908BA18BB28B128611821082C2
:10229000739626E0ED30F20741F78DE090E00E9462
:1022A0009A13FC01138212828FE292E09183808361
:1022B000118687E2848384E1828784E083871486A1
:1022C000F0934C05E0934B0510924D0510924E058E
:1022D00083E28093360410923804109245051092E0
:1022E0004405109247051092460510924905109238
:1022F000480561E070E080E090E00E94C71400971C
:1023000089F09093450580934405109247051092FB
:1023100046052091480530914905232BC1F4FC0165
:10232000108215C08091440590914505009711F0E9
:102330000E942F14109245051092440510924905F1
:102340001092480510924705109246050895109284
:1023500049051092480567E372E00C94BE15809120
:102360004405909145050C942F140E94F71108F430
:1023700081E00895E89409C097FB3EF4909580951C
:10238000709561957F4F8F4F9F4F9923A9F0F92F3B
:1023900096E9BB279395F695879577956795B795B9
:1023A000F111F8CFFAF4BB0F11F460FF1BC06F5F9F
:1023B0007F4F8F4F9F4F16C0882311F096E911C0B1
:1023C000772321F09EE8872F762F05C0662371F0D2
:1023D00096E8862F70E060E02AF09A95660F771FE6
:1023E000881FDAF7880F9695879597F90895990FC2
:1023F0000008550FAA0BE0E8FEEF16161706E807CF
:10240000F907C0F012161306E407F50798F0621BEF
:10241000730B840B950B39F40A2661F0232B242BC4
:10242000252B21F408950A2609F4A140A6958FEFE3
:10243000811D811D08950E942E120C949F120E94EE
:10244000911238F00E94981220F0952311F00C940C
:1024500088120C948E1211240C94D3120E94B01284
:1024600070F3959FC1F3950F50E0551F629FF001E7
:10247000729FBB27F00DB11D639FAA27F00DB11D00
:10248000AA1F649F6627B00DA11D661F829F222789
:10249000B00DA11D621F739FB00DA11D621F839F10
:1024A000A00D611D221F749F3327A00D611D231FE6
:1024B000849F600D211D822F762F6A2F11249F5734
:1024C00050409AF0F1F088234AF0EE0FFF1FBB1F37
:1024D000661F771F881F91505040A9F79E3F5105F6
:1024E00080F00C9488120C94D3125F3FE4F3983E72
:1024F000D4F3869577956795B795F795E7959F5FA0
:10250000C1F7FE2B880F911D9695879597F9089531
:1025100097F99F6780E870E060E008959FEF80EC96
:10252000089500240A941616170618060906089539
:1025300000240A9412161306140605060895092E9F
:102540000394000C11F4882352F0BB0F40F4BF2B0E
:1025500011F460FF04C06F5F7F4F8F4F9F4F08954E
:1025600057FD9058440F551F59F05F3F71F0479544
:10257000880F97FB991F61F09F3F79F08795089529
:10258000121613061406551FF2CF4695F1DF08C048
:10259000161617061806991FF1CF86957105610565
:1025A00008940895E894BB2766277727CB0197F90D
:1025B0000895991B79E004C0991F961708F0961B9F
:1025C000881F7A95C9F780950895EE0FFF1F881F21
:1025D0008BBF0790F691E02D19940E9401130C9483
:1025E0009F120E94981258F00E94911240F029F414
:1025F0005F3F29F00C94881251110C94D3120C9463
:102600008E120E94B01268F39923B1F3552391F30F
:10261000951B550BBB27AA2762177307840738F051
:102620009F5F5F4F220F331F441FAA1FA9F335D0AE
:102630000E2E3AF0E0E832D091505040E695001C62
:10264000CAF72BD0FE2F29D0660F771F881FBB1F1C
:10265000261737074807AB07B0E809F0BB0B802DFA
:10266000BF01FF2793585F4F3AF09E3F510578F026
:102670000C9488120C94D3125F3FE4F3983ED4F389
:10268000869577956795B795F7959F5FC9F7880FFA
:10269000911D9695879597F90895E1E0660F771F4C
:1026A000881FBB1F621773078407BA0720F0621BDD
:1026B000730B840BBA0BEE1F88F7E09508950E9408
:1026C00066136894B1110C94D31208950E94B81245
:1026D00088F09F5798F0B92F9927B751B0F0E1F0E3
:1026E000660F771F881F991F1AF0BA95C9F714C093
:1026F000B13091F00E94D212B1E008950C94D21240
:10270000672F782F8827B85F39F0B93FCCF38695CB
:1027100077956795B395D9F73EF490958095709528
:1027200061957F4F8F4F9F4F08950E94F71108F4D6
:102730008FEF0895CF93DF938230910510F482E0FC
:1027400090E0E091ED06F091EE0620E030E0C0E090
:10275000D0E0309711F14081518148175907C0F0FE
:102760004817590761F482819381209719F09B8360
:102770008A832BC09093EE068093ED0626C0211528
:10278000310519F04217530718F49A01BE01DF0111
:10279000EF010280F381E02DDCCF2115310509F135
:1027A000281B390B2430310590F412968D919C91A1
:1027B00013976115710521F0FB019383828304C097
:1027C0009093EE068093ED06FD01329644C0FD0124
:1027D000E20FF31F81939193225031092D933C9383
:1027E0003AC02091EB063091EC06232B41F4209166
:1027F0000302309104023093EC062093EB06209103
:102800000102309102022115310541F42DB73EB786
:102810004091050250910602241B350BE091EB0616
:10282000F091EC06E217F307A0F42E1B3F0B2817DC
:10283000390778F0AC014E5F5F4F2417350748F039
:102840004E0F5F1F5093EC064093EB0681939193DC
:1028500002C0E0E0F0E0CF01DF91CF9108950F9347
:102860001F93CF93DF93009709F48CC0FC0132973C
:10287000138212820091ED061091EE0601151105EA
:1028800081F420813181820F931F2091EB063091DA
:10289000EC062817390779F5F093EC06E093EB0680
:1028A00071C0D80140E050E0AE17BF0750F4129657
:1028B0002D913C911397AD012115310509F1D901F5
:1028C000F3CF9D01DA013383228360817181860F0A
:1028D000971F8217930769F4EC0128813981260F2D
:1028E000371F2E5F3F4F318320838A819B819383E3
:1028F0008283452B29F4F093EE06E093ED0642C067
:102900001396FC93EE931297ED01499159919E0114
:10291000240F351FE217F30771F480819181840F32
:10292000951F029611969C938E93828193811396A4
:102930009C938E931297E0E0F0E0D80112968D916F
:102940009C911397009719F0F8018C01F6CF8D91A7
:102950009C9198012E5F3F4F820F931F2091EB06B1
:102960003091EC062817390769F4309729F4109252
:10297000EE061092ED0602C0138212821093EC064E
:102980000093EB06DF91CF911F910F9108956F9205
:102990007F928F929F92AF92BF92CF92DF92EF92EF
:1029A000FF920F931F93CF93DF93EC01009789F46D
:1029B000CB01DF91CF911F910F91FF90EF90DF90AE
:1029C000CF90BF90AF909F908F907F906F900C941E
:1029D0009A13FC01E60FF71F9C0122503109E21700
:1029E000F30708F4ACC0D9010D911C91119706179B
:1029F0001707B0F00530110508F49FC0C80104970F
:102A00008617970708F499C002501109061B170B87
:102A1000019311936D937C93CF010E942F148DC06D
:102A20005B01A01AB10A4C01800E911EA091ED0627
:102A3000B091EE0640E050E0E12CF12C109709F443
:102A40004AC0A815B905D1F56D907C901197630126
:102A500082E0C80ED11CCA14DB0480F1A3014A191C
:102A60005B096A0182E0C80ED11C1296BC901297D5
:102A70001396AC91B5E0CB16D10440F0B282A3839B
:102A800051834083D9016D937C930AC00E5F1F4F21
:102A9000C301800F911FF90191838083EB2DFA2FE1
:102AA000E114F10431F0D7011396FC93EE931297E1
:102AB00044C0F093EE06E093ED063FC08D919C91EB
:102AC00011974817590708F4AC017D0112960D9033
:102AD000BC91A02DB3CF8091EB069091EC068815A8
:102AE0009905E1F446175707C8F4809101029091C7
:102AF0000202009741F48DB79EB7409105025091B4
:102B00000602841B950BE817F907C8F4F093EC064E
:102B1000E093EB06F901718360830FC0CB010E9443
:102B20009A137C01009759F0A801BE010E94B515C7
:102B3000CE010E942F14C70104C0CE0102C080E064
:102B400090E0DF91CF911F910F91FF90EF90DF9078
:102B5000CF90BF90AF909F908F907F906F9008958F
:102B600081E090E0F8940C94C515FB01DC0102C0F3
:102B700001900D9241505040D8F70895FB01DC01BF
:102B800001900D920020E1F7089511E0C0E9D1E035
:102B900000E006C0802FFE010E94E5122196011D73
:0E2BA000C139D10780E00807A9F7F894FFCFEC
:102BAE00FF0000EF06200000000000AE077E07BA0F
:102BBE000A5807760767075907000000008402C409
:102BCE00010802CB02390217022B0200000000E8B6
:082BDE000AC401BA0AB90A0099
:00000001FF
